:020000040800F2
:1000000000000120A1910008CD830008D9830008D9
:10001000DF830008E5830008EB8300080000000090
:10002000000000000000000000000000F183000854
:10003000FD83000800000000098400081584000802
:10004000E9910008E9910008E9910008E9910008A8
:10005000E9910008E9910008E9910008E991000898
:10006000E9910008E9910008E9910008E991000888
:10007000E9910008E991000821840008358400080E
:10008000E9910008E9910008E9910008E991000868
:10009000E9910008E9910008E9910008E991000858
:1000A000E9910008E9910008E9910008E991000848
:1000B000E9910008E9910008E9910008E991000838
:1000C000E9910008E9910008E9910008E991000828
:1000D000E99100084984000861840008E99100085A
:1000E000E9910008E9910008E9910008E991000808
:1000F000E9910008E9910008E9910008E9910008F8
:10010000E9910008E9910008E9910008E9910008E7
:10011000E9910008E9910008E9910008E9910008D7
:10012000E9910008E9910008E9910008E9910008C7
:1001300000000000000000000000000000000000BF
:1001400000000000000000000000000000000000AF
:10015000000000000000000000000000000000009F
:10016000000000000000000000000000000000008F
:10017000000000000000000000000000000000007F
:10018000000000000000000000000000000000006F
:10019000000000000000000000000000000000005F
:1001A000000000000000000000000000000000004F
:1001B000000000000000000000000000000000003F
:1001C000000000000000000000000000000000002F
:1001D000000000000000000000000000000000001F
:0401E0005FF8E0F1F3
:1001E80010B5054C237833B9044B13B10448AFF369
:1001F80000800123237010BD800000200000000053
:1002080000BD000808B5034B1BB103490348AFF311
:10021800008008BD000000008400002000BD000828
:1002280081F0004102E000BF83F0004330B54FEA9F
:1002380041044FEA430594EA050F08BF90EA020F0C
:100248001FBF54EA000C55EA020C7FEA645C7FEA9F
:10025800655C00F0E2804FEA5454D4EB5555B8BFC2
:100268006D420CDD2C4480EA020281EA030382EA33
:10027800000083EA010180EA020281EA0303362DC5
:1002880088BF30BD11F0004F4FEA01314FF4801C98
:100298004CEA113102D0404261EB410113F0004FAA
:1002A8004FEA03334CEA133302D0524263EB430361
:1002B80094EA050F00F0A780A4F10104D5F1200EFF
:1002C8000DDB02FA0EFC22FA05F2801841F100015A
:1002D80003FA0EF2801843FA05F359410EE0A5F12E
:1002E80020050EF1200E012A03FA0EFC28BF4CF05F
:1002F800020C43FA05F3C01851EBE37101F0004515
:1003080007D54FF0000EDCF1000C7EEB00006EEB21
:100318000101B1F5801F1BD3B1F5001F0CD34908AB
:100328005FEA30004FEA3C0C04F101044FEA445202
:1003380012F5800F80F09A80BCF1004F08BF5FEA89
:10034800500C50F1000041EB045141EA050130BD69
:100358005FEA4C0C404141EB0101013C28BFB1F57B
:10036800801FE9D291F0000F04BF01460020B1FAC6
:1003780081F308BF2033A3F10B03B3F120020CDA99
:100388000C3208DD02F1140CC2F10C0201FA0CF077
:1003980021FA02F10CE002F11402D8BFC2F1200CDC
:1003A80001FA02F120FA0CFCDCBF41EA0C01904092
:1003B800E41AA2BF01EB0451294330BD6FEA0404DB
:1003C8001F3C1CDA0C340EDC04F11404C4F12002C6
:1003D80020FA04F001FA02F340EA030021FA04F3D8
:1003E80045EA030130BDC4F10C04C4F1200220FA2F
:1003F80002F001FA04F340EA0300294630BD21FA6D
:1004080004F0294630BD94F0000F83F4801306BF32
:1004180081F480110134013D4EE77FEA645C18BF26
:100428007FEA655C29D094EA050F08BF90EA020FBD
:1004380005D054EA000C04BF1946104630BD91EAB5
:10044800030F1EBF0021002030BD5FEA545C05D1B8
:100458004000494128BF41F0004130BD14F58004F7
:100468003CBF01F5801130BD01F0004545F0FE416B
:1004780041F470014FF0000030BD7FEA645C1ABFA0
:10048800194610467FEA655C1CBF0B46024650EAD7
:10049800013406BF52EA033591EA030F41F4002103
:1004A80030BD00BF90F0000F04BF0021704730B589
:1004B8004FF4806404F132044FF000054FF000015E
:1004C80050E700BF90F0000F04BF0021704730B51F
:1004D8004FF4806404F1320410F0004548BF4042F4
:1004E8004FF000013EE700BF42004FEAE2014FEA49
:1004F80031014FEA02701FBF12F07F4393F07F4F24
:1005080081F06051704732F07F4208BF704793F026
:100518007F4F04BF41F40021704730B54FF4607439
:1005280001F0004521F000411CE700BF50EA01023C
:1005380008BF704730B54FF000050AE050EA0102E5
:1005480008BF704730B511F0004502D5404261EB55
:1005580041014FF4806404F132045FEA915C3FF496
:10056800D8AE4FF003025FEADC0C18BF03325FEA33
:10057800DC0C18BF033202EBDC02C2F1200300FAE4
:1005880003FC20FA02F001FA03FE40EA0E0021FA09
:1005980002F11444BDE600BF70B54FF0FF0C4CF4F7
:1005A800E06C1CEA11541DBF1CEA135594EA0C0FA9
:1005B80095EA0C0F00F0DEF82C4481EA030621EAE4
:1005C8004C5123EA4C5350EA013518BF52EA03351F
:1005D80041F4801143F4801338D0A0FB02CE4FF0D1
:1005E8000005E1FB02E506F00042E0FB03E54FF001
:1005F8000006E1FB03569CF0000F18BF4EF0010EF9
:10060800A4F1FF04B6F5007F64F5407404D25FEAF4
:100618004E0E6D4146EB060642EAC62141EA5551A7
:100628004FEAC52040EA5E504FEACE2EB4F1FD0CE9
:1006380088BFBCF5E06F1ED8BEF1004F08BF5FEA67
:10064800500E50F1000041EB045170BD06F0004619
:1006580046EA010140EA020081EA0301B4EB5C04C6
:10066800C2BFD4EB0C0541EA045170BD41F48011BE
:100678004FF0000E013C00F3AB8014F1360FDEBFE3
:10068800002001F0004170BDC4F10004203C35DABF
:100698000C341BDC04F11404C4F1200500FA05F342
:1006A80020FA04F001FA05F240EA020001F00042E3
:1006B80021F0004110EBD37021FA04F642EB060159
:1006C8005EEA430E08BF20EAD37070BDC4F10C0483
:1006D800C4F1200500FA04F320FA05F001FA04F247
:1006E80040EA020001F0004110EBD37041F1000133
:1006F8005EEA430E08BF20EAD37070BDC4F120053E
:1007080000FA05F24EEA020E20FA04F301FA05F2A5
:1007180043EA020321FA04F001F0004121FA04F24D
:1007280020EA020000EBD3705EEA430E08BF20EA1D
:10073800D37070BD94F0000F0FD101F00046400057
:1007480041EB010111F4801F08BF013CF7D041EAD9
:10075800060195F0000F18BF704703F000465200DD
:1007680043EB030313F4801F08BF013DF7D043EAAE
:100778000603704794EA0C0F0CEA135518BF95EA64
:100788000C0F0CD050EA410618BF52EA4306D1D1EB
:1007980081EA030101F000414FF0000070BD50EA0A
:1007A800410606BF1046194652EA430619D094EA94
:1007B8000C0F02D150EA013613D195EA0C0F05D17E
:1007C80052EA03361CBF104619460AD181EA0301D2
:1007D80001F0004141F0FE4141F470014FF000008A
:1007E80070BD41F0FE4141F4780170BD70B54FF025
:1007F800FF0C4CF4E06C1CEA11541DBF1CEA1355A5
:1008080094EA0C0F95EA0C0F00F0A7F8A4EB050486
:1008180081EA030E52EA03354FEA013100F088807D
:100828004FEA03334FF0805545EA131343EA126346
:100838004FEA022245EA111545EA10654FEA0026FB
:100848000EF000419D4208BF964244F1FD0404F5B4
:10085800407402D25B084FEA3202B61A65EB030510
:100868005B084FEA32024FF480104FF4002CB6EBCD
:10087800020E75EB030E22BFB61A754640EA0C004D
:100888005B084FEA3202B6EB020E75EB030E22BF8D
:10089800B61A754640EA5C005B084FEA3202B6EBCE
:1008A800020E75EB030E22BFB61A754640EA9C008D
:1008B8005B084FEA3202B6EB020E75EB030E22BF5D
:1008C800B61A754640EADC0055EA060E18D04FEA1B
:1008D800051545EA16754FEA06164FEAC30343EABB
:1008E80052734FEAC2025FEA1C1CC0D111F4801F88
:1008F8000BD141EA00014FF000004FF0004CB6E781
:1009080011F4801F04BF01430020B4F1FD0C88BF1F
:10091800BCF5E06F3FF6AFAEB5EB030C04BFB6EB2A
:10092800020C5FEA500C50F1000041EB045170BD1D
:100938000EF0004E4EEA113114EB5C04C2BFD4EB4A
:100948000C0541EA045170BD41F480114FF0000ECE
:10095800013C90E645EA060E8DE60CEA135594EA4A
:100968000C0F08BF95EA0C0F3FF43BAF94EA0C0F4D
:100978000AD150EA01347FF434AF95EA0C0F7FF4C2
:1009880025AF104619462CE795EA0C0F06D152EA16
:1009980003353FF4FDAE1046194622E750EA4106FA
:1009A80018BF52EA43067FF4C5AE50EA41047FF40B
:1009B8000DAF52EA43057FF4EBAE12E74FF0FF3C70
:1009C80006E000BF4FF0010C02E000BF4FF0010C41
:1009D8004DF804CD4FEA410C7FEA6C5C4FEA430CBA
:1009E80018BF7FEA6C5C1BD001B050EA410C0CBF09
:1009F80052EA430C91EA030F02BF90EA020F00206B
:100A0800704710F1000F91EA030F58BF994208BFD1
:100A180090422CBFD8176FEAE37040F0010070478E
:100A28004FEA410C7FEA6C5C02D150EA013C07D1E5
:100A38004FEA430C7FEA6C5CD6D152EA033CD3D030
:100A48005DF8040B704700BF8446104662468C462A
:100A58001946634600E000BF01B5FFF7B7FF00285D
:100A680048BF10F1000F01BD4DF808EDFFF7F4FF86
:100A78000CBF012000205DF808FB00BF4DF808ED11
:100A8800FFF7EAFF34BF012000205DF808FB00BF34
:100A98004DF808EDFFF7E0FF94BF012000205DF856
:100AA80008FB00BF4DF808EDFFF7CEFF94BF01200B
:100AB80000205DF808FB00BF4DF808EDFFF7C4FF04
:100AC80034BF012000205DF808FB00BF4FEA410257
:100AD80012F5001215D211D56FF47873B3EB625288
:100AE80012D94FEAC12343F0004343EA505311F0AF
:100AF800004F23FA02F018BF404270474FF0000041
:100B0800704750EA013005D111F0004008BF6FF07E
:100B1800004070474FF00000704700BF4FEA4102A5
:100B2800B2F1E04324BFB3F5001CDCF1FE5C0DD943
:100B380001F0004C4FEAC0024CEA5070B2F1004F8D
:100B480040EB830008BF20F00100704711F0804F90
:100B580021D113F13872BCBF01F00040704741F455
:100B680080114FEA5252C2F11802C2F1200C10FA59
:100B78000CF320FA02F018BF40F001004FEAC1233D
:100B88004FEAD32303FA0CFC40EA0C0023FA02F3E1
:100B98004FEA4303CCE77FEA625307D150EA0133B7
:100BA8001EBF4FF0FE4040F44000704701F0004087
:100BB80040F0FE4040F40000704700BF80F0004065
:100BC80002E000BF81F0004142001FBF5FEA41031D
:100BD80092EA030F7FEA226C7FEA236C6AD04FEA1D
:100BE8001262D2EB1363C1BFD21841404840414062
:100BF800B8BF5B42192B88BF704710F0004F40F414
:100C0800000020F07F4018BF404211F0004F41F42F
:100C1800000121F07F4118BF494292EA030F3FD0FB
:100C2800A2F1010241FA03FC10EB0C00C3F120030E
:100C380001FA03F100F0004302D5494260EB40009D
:100C4800B0F5000F13D3B0F1807F06D340084FEA08
:100C5800310102F10102FE2A51D2B1F1004F40EBFD
:100C6800C25008BF20F0010040EA03007047490065
:100C780040EB0000013A28BFB0F5000FEDD2B0FA02
:100C880080FCACF1080CB2EB0C0200FA0CF0AABF25
:100C980000EBC25052421843BCBFD04018437047C3
:100CA80092F0000F81F4000106BF80F400000132C9
:100CB800013BB5E74FEA41037FEA226C18BF7FEAA0
:100CC800236C21D092EA030F04D092F0000F08BFE2
:100CD8000846704790EA010F1CBF0020704712F0C9
:100CE8007F4F04D1400028BF40F00040704712F108
:100CF80000723CBF00F50000704700F0004343F06D
:100D0800FE4040F4000070477FEA226216BF0846A2
:100D18007FEA23630146420206BF5FEA412390EA65
:100D2800010F40F4800070474FF0000304E000BF5B
:100D380010F0004348BF40425FEA000C08BF70470C
:100D480043F0964301464FF000001CE050EA0102D0
:100D580008BF70474FF000030AE000BF50EA0102E5
:100D680008BF704711F0004302D5404261EB4101D2
:100D78005FEA010C02BF84460146002043F0B643F7
:100D880008BFA3F18053A3F50003BCFA8CF2083A1C
:100D9800A3EBC25310DB01FA02FC634400FA02FC25
:100DA800C2F12002BCF1004F20FA02F243EB02002C
:100DB80008BF20F00100704702F1200201FA02FC8E
:100DC800C2F1200250EA4C0021FA02F243EB020081
:100DD80008BF20EADC7070474FF0FF0C1CEAD052C5
:100DE8001EBF1CEAD15392EA0C0F93EA0C0F6FD086
:100DF8001A4480EA010C400218BF5FEA41211ED064
:100E08004FF0006343EA501043EA5111A0FB01314F
:100E18000CF00040B1F5000F3EBF490041EAD37124
:100E28005B0040EA010062F17F02FD2A1DD8B3F1A0
:100E3800004F40EBC25008BF20F00100704790F00F
:100E4800000F0CF0004C08BF49024CEA502040EA61
:100E580051207F3AC2BFD2F1FF0340EAC250704727
:100E680040F400004FF00003013A5DDC12F1190F65
:100E7800DCBF00F000407047C2F10002410021FAD7
:100E880002F1C2F1200200FA02FC5FEA310040F1EF
:100E9800000053EA4C0308BF20EADC70704792F068
:100EA800000F00F0004C02BF400010F4000F013AA0
:100EB800F9D040EA0C0093F0000F01F0004C02BF9B
:100EC800490011F4000F013BF9D041EA0C018FE70A
:100ED8000CEAD15392EA0C0F18BF93EA0C0F0AD010
:100EE80030F0004C18BF31F0004CD8D180EA010036
:100EF80000F00040704790F0000F17BF90F0004FCF
:100F0800084691F0000F91F0004F14D092EA0C0FB0
:100F180001D142020FD193EA0C0F03D14B0218BF43
:100F2800084608D180EA010000F0004040F0FE4089
:100F380040F40000704740F0FE4040F44000704725
:100F48004FF0FF0C1CEAD0521EBF1CEAD15392EAA4
:100F58000C0F93EA0C0F69D0A2EB030280EA010C94
:100F680049024FEA402037D04FF0805343EA11112D
:100F780043EA10130CF000408B4238BF5B0042F18B
:100F88007D024FF4000C8B4224BF5B1A40EA0C0030
:100F9800B3EB510F24BFA3EB510340EA5C00B3EB62
:100FA800910F24BFA3EB910340EA9C00B3EBD10F50
:100FB80024BFA3EBD10340EADC001B0118BF5FEAA2
:100FC8001C1CE0D1FD2A3FF650AF8B4240EBC250CB
:100FD80008BF20F0010070470CF0004C4CEA50208C
:100FE8007F32C2BFD2F1FF0340EAC250704740F4DB
:100FF80000004FF00003013A37E792F0000F00F0CD
:10100800004C02BF400010F4000F013AF9D040EA4A
:101018000C0093F0000F01F0004C02BF490011F4DE
:10102800000F013BF9D041EA0C0195E70CEAD153D6
:1010380092EA0C0F08D142027FF47DAF93EA0C0FBD
:101048007FF470AF084676E793EA0C0F04D14B02A1
:101058003FF44CAF08466EE730F0004C18BF31F053
:10106800004CCAD130F000427FF45CAF31F000434D
:101078007FF43CAF5FE700BF4FF0FF3C06E000BFE6
:101088004FF0010C02E000BF4FF0010C4DF804CD09
:101098004FEA40024FEA41037FEA226C18BF7FEA19
:1010A800236C11D001B052EA530C18BF90EA010F1B
:1010B80058BFB2EB030088BFC81738BF6FEAE170AA
:1010C80018BF40F0010070477FEA226C02D15FEA46
:1010D800402C05D17FEA236CE4D15FEA412CE1D0B2
:1010E8005DF8040B704700BF844608466146FFE779
:1010F8000FB5FFF7C9FF002848BF10F1000F0FBD5B
:101108004DF808EDFFF7F4FF0CBF012000205DF853
:1011180008FB00BF4DF808EDFFF7EAFF34BF0120D8
:1011280000205DF808FB00BF4DF808EDFFF7E0FF71
:1011380094BF012000205DF808FB00BF4DF808EDC2
:10114800FFF7D2FF94BF012000205DF808FB00BF25
:101158004DF808EDFFF7C8FF34BF012000205DF807
:1011680008FB00BF4FEA4002B2F1FE4F0FD34FF029
:101178009E03B3EB12620DD94FEA002343F00043FC
:1011880010F0004F23FA02F018BF404270474FF0AA
:101198000000704712F1610F01D1420205D110F031
:1011A800004008BF6FF0004070474FF000007047E4
:1011B80003685A004CBF43F0004323F0004318442F
:1011C800704700BF2DE9F84329B34F1E0446154662
:1011D8003E464FF0000808EB060101EBD1714910BB
:1011E80004EBC1094846FFF7E3FF0346C80008308F
:1011F8008F42204409D0AB4209D8FFF7D9FF013804
:10120800A8420AD201F10108E5E7AB4205D98845B1
:1012180001D04E1EDFE74FF000094846BDE8F883CD
:10122800012807D0022807D0044B00280CBF184615
:10123800002070470248704702487047ED180008C0
:10124800F1180008F518000830B5244B044683B09F
:101258008D1E3BB3284601A9AFF30080E8B1019980
:101268002A46FFF7AFFF0146B8B1FFF7A1FF4B6869
:10127800A064012B2DD0002B26DB081DFFF798FF5B
:101288000023C4E913030368002B12DBFFF790FF68
:1012980003460020236103B030BD002309202361E9
:1012A80003B030BD0E4B0F491846C91AC910019139
:1012B800D6E7C3F30360FFF7B3FF0028206114BF2C
:1012C8000020092003B030BD0123081DC4E9130321
:1012D800D9E7002305202361DDE700BF00000000F7
:1012E800C0CD0008B8CF0008036810B5DA07044677
:1012F80006D49B0700F1480009D500F041FC23689B
:10130800590709D51A070ED5DB0613D510BD00F00D
:101318002FFC23685907F5D404F1D00000F038FCFD
:1013280023681A07F0D404F5A87000F039FC236884
:10133800DB06EBD404F5E870BDE8104000F074BC9F
:101348000346006800B11844704700BF0920704781
:10135800704700BF70B504460E462046316CFFF753
:1013680073FF054688B9326C214662610120324616
:10137800236998470828F0D0072806D12846316CF9
:10138800FFF7E6FF301D00F0E7FB09F049FF00BF5B
:101398002DE9F04706464FF0000CADF5727D03AD20
:1013A8000C1D91460FCC0FC50FCC0FC50FCC0FC528
:1013B80094E80F00F768D6F8188085E80F0002ADAA
:1013C800C5F800C021E02B6C4FF4F0727361294618
:1013D8007AA809F075FF314634697AAA5046A047C1
:1013E800889BCDE9005804466B644946334632462B
:1013F8000120B8470346F0B94FF4F07228467AA99D
:10140800994609F05DFF082C1BD13046296CFFF77F
:101418001BFF09F1090904465FFA89FA0028D2D0AE
:10142800AB6B3246CDE9005801206B644AF01001DD
:101438003346B84700B1092420460DF5727DBDE852
:10144800F087072CF7D14846296CFFF781FF03A8DE
:1014580000F082FB406C70474FF0FF3CF0B5CB6B5F
:10146800F9B00B640E1D01AC0F4605460FCE0FC434
:101478000FCE0FC40FCE0FC496E80F0084E80F00FC
:10148800CDF800C006E06A4629462B699847082827
:10149800044608D128461099FFF7D6FE0028F2D056
:1014A800092079B0F0BD6846FFF71EFF062CF7D17A
:1014B80039462846FFF74EFF30B4DD6BC1608261C4
:1014C80019461D64002230BC62E700BF70B543694D
:1014D800C6680B64AEB90A46036904460D46014660
:1014E80002209847072805D008280FD1294620460A
:1014F800FFF730FF3046296CFFF72AFF281D00F060
:101508002BFB0122FFF744FF09F08AFE09F088FE51
:10151800C2682AB110B4CC6B00220C6410BC37E747
:101528009AE700BF704700BF836801460BB10120EE
:1015380018477047012912D009D873B90F2A0CD857
:1015480000EB820042681846009B1A607047033916
:10155800012994BF012002207047022070470846E5
:10156800704700BF002310B584B003AC0A4600944E
:101578001946FFF7DFFF039804B010BD012912D008
:1015880009D873B90F2A0CD8009900EB82020968B0
:101598001846516070470339012994BF0120022081
:1015A8007047022070470846704700BF30B50023D7
:1015B8000D4685B003AC039219462A460094FFF7FE
:1015C800DDFF05B030BD00BF4FF0FF3CF0B5D36B79
:1015D800ADF50F7D1364151D17AC07460E460FCDEC
:1015E8000FC40FCD0FC40FCD0FC495E80F0084E8CA
:1015F8000F00CDF858C012E00C2116A86A46FFF774
:10160800D5FF314616A8B84778B969460820049B23
:1016180016AA98470528044608D0092805D0684620
:101628002699FFF711FE0028E6D0092416A8FFF72F
:101638005BFE20460DF50F7DF0BD00BF2DE9F04F94
:10164800CC6C174654F8042B89B00D461E4600F0A2
:1016580003080694002B79D00221130C8DF81D3055
:101668001204DBB204EB830405928DF81C102B6D79
:10167800B8F1020F08BFAC6B13F001030CD0384669
:1016880005A900F06BFB18B9082009B0BDE8F08F78
:10169800092009B0BDE8F08FD4F800A0BAF1000F16
:1016A800EDD0019300F008030293022E4AD0B4F85B
:1016B80000A0B4F802900434AA6C0F21384629F02F
:1016C800010B9344FFF74EFF834539D82AF00102F6
:1016D8005A44824294BF002001204FEA490303F094
:1016E80002030AF0010A43EA0A03012B49D0022B3C
:1016F80032D0002BCCD1B8F1000F02D0002840F036
:10170800CD800434D4F800A0BAF1000FCDD138460A
:1017180005A900F023FB0028BAD1019B002BB3D008
:101728000F213846FFF71EFF0E2102463846FFF705
:101738003DFF38460F216A4AFFF738FF0720A8E720
:101748000020CAE7D4F804900834B5E7032312024E
:101758000592ADF81C308AE7236823F0004BB8F1F6
:10176800000F45D128B1029A002A5CD0BBF1000FC6
:1017780074D0002B00DA04340BF1010B04EB8B045A
:10178800C0E7B8F1000F19D1B0B1D4E90023991C12
:101798004FEAD2723FF47CAF05F15801013304914E
:1017A80000F09080201DFFF7CBFD04AB01462846D2
:1017B80007F044FD00285BD10834A3E70D21384623
:1017C800D5F82090FFF7CEFE8145F5D1AB6A9C4253
:1017D800F2D12046FFF7ECFC0F2102463846FFF70E
:1017E800E5FE38462A460021FFF7E0FE072050E7CD
:1017F8000D213846D5F82090FFF7B4FE814501D079
:101808002368B6E7AB6A9C42FAD104220021C5E9F5
:101818000B12A318C5F828B06B6323688B4259DBF9
:1018280001230193A8E705F15803CDF80C809146F0
:10183800B04604F1040A1E460EE050460496FFF72F
:101848007FFD0022014604AB284607F0F7FC09F1AA
:1018580001090AF1040AE0B9D945EED138460D214B
:10186800FFF780FE049B2862C5E90934062010E7CB
:1018780081460D213846FFF775FEB9F1020F28623F
:1018880025D12B46049A43F82C2F6B620620AC62B4
:10189800FFE646462368DDF80C806AE72046FFF736
:1018A80087FC02460434AC632846144607F024FD3E
:1018B80000283FF4EDAE384622460F21FFF776FEAA
:1018C8000720E6E638460D21FFF74CFE2862049B08
:1018D8006B62DBE70BF1010004EB80007AE700BFE5
:1018E800599B00080023A9E60123A7E60223A5E6E1
:1018F8002DE9F043064615461C46C3B0042900F2FC
:10190800B280DFE801F09650B0270300002C40F0C9
:10191800AA80102A00F2A7800368D80600F1EB809D
:1019280020AF384600F08AF900230120B26B00FA94
:1019380003F129421CBF52F8041B47F82310013356
:10194800042BF4D13846B26300F06EF9002043B09E
:10195800BDE8F083032C40F0868094B204EB124378
:10196800102B4FEA12457ED803681F0700F1CB8081
:1019780020AF384600F036F907EBC501B56B54B116
:101988000B4601EBC401E81AE4001A5843F8042B8B
:101998008B42FAD125443846B56300F001F900209E
:1019A80043B0BDE8F083012C4FEA124895B256D0F7
:1019B800052C58D108EB0509B9F1200F53D8B8F117
:1019C8000F0F73D9A946002D40F08480B36B65B31F
:1019D80020AF4FF0000907EBC807043F03EBC5052C
:1019E80053F8041BAB4247F8041FF9D1B9F1000FB3
:1019F8000FD06F464146102938BF102107EBC101AF
:101A0800843903EBC90553F8040BAB4241F8040FC2
:101A1800F9D1012C7FD0B8F10F0FB56342D9B9F1D4
:101A2800000F02D0684600F0B3F8002043B0BDE8CC
:101A3800F083C4B923460124826B371DA8B204FA87
:101A480003F101421CBF52F8041B47F8231001336D
:101A5800102BF4D115F40050E7D1B26304E008EB81
:101A68000503102B03D9022043B0BDE8F083B8F179
:101A78000F0FF8D83368DA0706D5304623F003038A
:101A880040F8483B00F078F820AF384600F074F88A
:101A9800B36B002D9DD11D4604353846B56300F063
:101AA80067F8C2E720A800F06BF8B8E7B9F1100FA3
:101AB8003FD9A9F110093368D90708D5304623F072
:101AC800010343F0020340F8483B00F05DF8B9F128
:101AD800000F31D033685A071FD4B8F10F0F24D93B
:101AE8006F46C8F11005384600F056F8002DB36B64
:101AF80080DD20AF6FE723F01003336006F5E87050
:101B080000F09CF80CE723F00803036000F5A870C8
:101B180000F068F82CE720AFBEE7304623F0040356
:101B280040F8D03B00F038F8D7E720A800F02CF8B0
:101B3800D6E74FF00009BEE7B8F10F0F3FF646AF02
:101B480020AF384600F020F8B36B002D7FF441AF8A
:101B5800384600F015F868E700F1340191E83800DC
:101B68009C46A6464CF8045D90E8FF0FE54600BD8C
:101B780090EC210B704700BF80EC210B704700BF31
:101B880090EC200B704700BF80EC200B704700BF23
:101B9800D0EC200B704700BFC0EC200B704700BF93
:101BA800F0EC0201F0EC0211F0EC0221F0EC023151
:101BB800F0EC0241F0EC0251F0EC0261F0EC027141
:101BC800F0EC0281F0EC0291F0EC02A1F0EC02B131
:101BD800F0EC02C1F0EC02D1F0EC02E1F0EC02F121
:101BE800704700BFE0EC0201E0EC0211E0EC0221DA
:101BF800E0EC0231E0EC0241E0EC0251E0EC026181
:101C0800E0EC0271E0EC0281E0EC0291E0EC02A170
:101C1800E0EC02B1E0EC02C1E0EC02D1E0EC02E160
:101C2800E0EC02F1704700BFB0FC0181B0FC01910B
:101C3800B0FC01A1B0FC01B1704700BFA0FC01815C
:101C4800A0FC0191A0FC01A1A0FC01B1704700BF5C
:101C5800EC4600B52DE900502DE9FF1F4FF00003B9
:101C68002DE90C0001A9FFF7F7FBDDF840E012B001
:101C7800704700BFEC4600B52DE900502DE9FF1F65
:101C88004FF000032DE90C0001A9FFF71FFCDDF858
:101C980040E012B0704700BFEC4600B52DE9005097
:101CA8002DE9FF1F4FF000032DE90C0001A9FFF7F4
:101CB8002FFCDDF840E012B0704700BFEC4600B5DD
:101CC8002DE900502DE9FF1F4FF000032DE90C000E
:101CD80001ABFFF7F1FBDDF840E012B0704700BF41
:101CE800EC4600B52DE900502DE9FF1F4FF0000329
:101CF8002DE90C0001AAFFF767FCDDF840E012B0FF
:101D0800704700BF027A7AB9437AA3B103214268C7
:101D1800013B10B443721368141D01721A02446027
:101D2800026010BC180E70470368013A02721A026A
:101D38000260180E7047B020704700BF002300B53E
:101D480085B003AA009219460C22FFF7F3FB03980B
:101D580005B05DF804FB00BFF0E700BF2DE9F043D4
:101D680005460E464FF0000885B03046FFF7CAFF1B
:101D7800B028044600F0B180070620D500F0F00333
:101D8800802B4DD0902B36D0A02B60D0B02B73D0A9
:101D9800C02B00F08A8000F0F803D02B0BD100F0A4
:101DA8000702013242F40022052301212846FFF7E9
:101DB8009FFD0028D9D0092005B0BDE8F083002395
:101DC8000DF10C0919460D228700CDF80090284620
:101DD800FFF7B0FBFFB2039B043760064CBFDF1B65
:101DE800FF1800230D2219462846CDF800900397C6
:101DF800FFF7C4FBB9E700F00D030D2BDBD0002380
:101E080003AF194600F00F0200972846FFF792FB30
:101E180000230D22194628460097FFF7AFFBA4E7D9
:101E28003046FFF76FFF24022043B0F5004FC2D0C1
:101E38000023040119462846A2B2FFF759FD0028DD
:101E4800B9D114F4004F18BF4FF001088DE7C34310
:101E58004FF47F6203F007031A410023010702F4DD
:101E68007F6248BF42F4804219462846FFF740FD8A
:101E780000283FF47AAF9EE7B12833D0B22800F0AB
:101E88008B80B32839D000F0FC03B42B93D0012306
:101E980000F007021A4442F4002219462846FFF7C8
:101EA80027FD00283FF461AF85E7C62842D0C72840
:101EB8004CD000F0F803C02B5BD0C82860D0C928EC
:101EC8007FF479AF3046FFF71DFF020300F00F00E3
:101ED80002F470220130024366E7B8F1000F18D00F
:101EE800002069E73046FFF70DFF024600283FF45F
:101EF80062AF10F0F003D0D05DE73046FFF702FF85
:101F08000123010300F00F0001F47021C2180A43F5
:101F1800C3E703AC43460E22414628460094FFF728
:101F280009FB284643460F2241460094FFF726FB4B
:101F3800404641E73046FFF7E5FE010300F00F0099
:101F480001F47021421C03230A43A6E73046FFF739
:101F5800D9FE024600283FF42EAF10F0F0037FF4BC
:101F68002AAF04212846FFF7C3FC00283FF4FDAE42
:101F780021E700F00F020132032342F420228CE70C
:101F88003046FFF7BFFE00F0F00200F00F031032FA
:101F9800013343EA023207E700230DF10C090D2251
:101FA80019462846CDF80090FFF7C4FA3046FFF7E7
:101FB800A9FE02064FF002040CD5039B00F07F0037
:101FC800A040034430460393FFF79CFE030604F148
:101FD8000704F2D40023039A00F07F0000FA04F407
:101FE80002F50172144419460D222846CDF80090D6
:101FF8000394FFF7C3FAB8E610B50324C36C84B0A2
:102008005A688DF80C40DC7912020833084601A999
:1020180001928DF80D400293FFF7A0FE04B010BDA9
:1020280008B5FFF799FE806C08BD00BF08B5FFF73B
:1020380093FEC06CC379023300EB830008BD00BF78
:1020480010F8012B11F8013B012A28BF9A42F7D05A
:10205800D01A704780B500AF084B1B68074A43F099
:1020680010031360032000F047F9002000F008F87F
:1020780006F076F90023184680BD00BF0020024014
:1020880080B582B000AF7860124B1A68124B1B788B
:1020980019464FF47A73B3FBF1F3B2FBF3F3184626
:1020A80000F05FF90346002B01D001230EE07B68A6
:1020B8000F2B0AD8002279684FF0FF3000F027F97B
:1020C800064A7B681360002300E00123184608379E
:1020D800BD4680BD1000002008000020040000203C
:1020E80080B400AF054B1B781A46054B1B68134498
:1020F800034A136000BFBD4680BC7047080000203B
:102108009C00002080B400AF024B1B681846BD46F7
:1021180080BC70479C00002080B584B000AF786018
:10212800FFF7F0FFB8607B68FB60FB68B3F1FF3F27
:1021380005D00A4B1B781A46FB681344FB6000BFA6
:10214800FFF7E0FF0246BB68D31AFA689A42F7D84D
:1021580000BF00BF1037BD4680BD00BF080000208B
:1021680080B485B000AF78607B6803F00703FB603C
:102178000C4BDB68BB60BA684FF6FF031340BB60CB
:10218800FB681A02BB68134343F0BF6343F4003390
:10219800BB60044ABB68D36000BF1437BD4680BC2F
:1021A800704700BF00ED00E080B400AF044BDB686F
:1021B8001B0A03F007031846BD4680BC704700BFE2
:1021C80000ED00E080B483B000AF0346FB7197F9DF
:1021D8000730002B0BDBFB7903F01F02064997F948
:1021E80007305B09012000FA02F241F8232000BF02
:1021F8000C37BD4680BC704700E100E080B483B076
:1022080000AF03463960FB7197F90730002B0ADBF2
:102218003B68DAB20C4997F907301201D2B20B4485
:1022280083F800230AE03B68DAB20849FB7903F037
:102238000F03043B1201D2B20B441A7600BF0C37CD
:10224800BD4680BC704700BF00E100E000ED00E043
:1022580080B489B000AFF860B9607A60FB6803F0B9
:102268000703FB61FB69C3F10703042B28BF0423A1
:10227800BB61FB690433062B02D9FB69033B00E011
:1022880000237B614FF0FF32BB6902FA03F3DA43A4
:10229800BB681A407B699A404FF0FF317B6901FAAD
:1022A80003F3D9437B680B40134318462437BD46D4
:1022B80080BC704780B582B000AF78607B68013B16
:1022C800B3F1807F01D301230FE00A4A7B68013B09
:1022D80053600F214FF0FF30FFF790FF054B0022AE
:1022E8009A60044B07221A60002318460837BD4637
:1022F80080BD00BF10E000E080B582B000AF78601C
:102308007868FFF72DFF00BF0837BD4680BD80B550
:1023180086B000AF0346B9607A60FB7300237B6127
:10232800FFF742FF78617A68B9687869FFF790FF2C
:10233800024697F90F3011461846FFF75FFF00BFB6
:102348001837BD4680BD80B582B000AF0346FB712B
:1023580097F907301846FFF735FF00BF0837BD4625
:1023680080BD80B582B000AF78607868FFF7A2FFC3
:10237800034618460837BD4680BD000080B485B0C6
:1023880000AF78600023FB607B68002B01D101233C
:1023980059E07B681B681A462D4B9A420FD87B6818
:1023A8001B681A462B4B13442B4AA2FB03231B0919
:1023B8009A007B681A647B68284ADA630EE07B68B7
:1023C8001B681A46264B1344234AA2FB03231B0906
:1023D8009A007B681A647B68224ADA637B68022267
:1023E80083F821207B681B681B68FB60FB6823F46B
:1023F8007F5323F03003FB607B685A687B689B68D7
:102408001A437B68DB681A437B681B691A437B683D
:102418005B691A437B689B691A437B68DB691343D2
:10242800FA681343FB607B681B68FA681A607B686C
:1024380000229A637B68012283F821207B680022AE
:1024480083F82020002318461437BD4680BC704707
:1024580007040240F8FFFDBFCDCCCCCC0000024001
:10246800F8FBFDBF0004024080B586B000AFF860FD
:10247800B9607A603B600023FB75FB6893F82030F5
:10248800012B01D102234AE0FB68012283F82020B6
:10249800FB6893F82130012B3AD1FB68022283F8BC
:1024A8002120FB6800229A63FB681B681A68FB6896
:1024B8001B6822F001021A603B687A68B968F868FC
:1024C80000F0B0FBFB68DB6A002B08D0FB681B68D8
:1024D8001A68FB681B6842F00E021A600FE0FB687E
:1024E8001B681A68FB681B6822F004021A60FB6804
:1024F8001B681A68FB681B6842F00A021A60FB68CE
:102508001B681A68FB681B6842F001021A6005E044
:10251800FB68002283F820200223FB75FB7D184608
:102528001837BD4680BD80B485B000AF7860002301
:10253800FB737B6893F82130022B08D07B68042258
:102548009A637B68002283F82020012320E07B68BF
:102558001B681A687B681B6822F00E021A607B6889
:102568001B681A687B681B6822F001021A607B6886
:102578001A6C7B68DB6B012101FA02F25A607B68F6
:10258800012283F821207B68002283F82020FB7B2E
:1025980018461437BD4680BC7047000080B584B02B
:1025A80000AF78600023FB737B6893F82130022B1F
:1025B80005D07B6804229A630123FB73D6E07B680D
:1025C8001B681A687B681B6822F00E021A607B6819
:1025D8001B681A687B681B6822F001021A607B6816
:1025E8001B681A46644B9A4258D97B681B68634A31
:1025F80093424FD07B681B68614A934248D07B68FE
:102608001B68604A934240D07B681B685E4A9342CD
:1026180038D07B681B685D4A934230D07B681B6862
:102628005B4A934228D07B681B68534A934220D068
:102638007B681B68574A934219D07B681B68564AC7
:10264800934212D07B681B68544A93420AD07B6835
:102658001B68534A934202D14FF480531BE04FF456
:10266800803318E04FF4807315E0102313E0012342
:1026780011E04FF080730EE04FF480130BE04FF43D
:10268800803308E04FF4805305E04FF4807302E094
:10269800102300E00123434A536057E07B681B681E
:1026A800364A93424FD07B681B68354A934248D0DC
:1026B8007B681B68334A934240D07B681B68324A68
:1026C800934238D07B681B68304A934230D07B688D
:1026D8001B682F4A934228D07B681B68264A93427E
:1026E80020D07B681B682B4A934219D07B681B68F3
:1026F800294A934212D07B681B68284A93420AD021
:102708007B681B68264A934202D14FF480531BE032
:102718004FF4803318E04FF4807315E0102313E072
:10272800012311E04FF080730EE04FF480130BE0AB
:102738004FF4803308E04FF4805305E04FF4807382
:1027480002E0102300E00123174A53607B6801224E
:1027580083F821207B68002283F820207B685B6B4C
:10276800002B03D07B685B6B78689847FB7B184627
:102778001037BD4680BD00BF8000024008000240FF
:102788001C00024030000240440002405800024051
:102798006C000240080402401C040240300402405D
:1027A80044040240000402400000024080B584B0A6
:1027B80000AF78607B68DB6B1B68FB607B681B681D
:1027C8001B68BB607B681B6C04229A40FB68134043
:1027D800002B00F0D680BB6803F00403002B00F048
:1027E800D0807B681B681B6803F02003002B07D18F
:1027F8007B681B681A687B681B6822F004021A60F1
:102808007B681B681A469B4B9A4258D97B681B68A1
:10281800994A93424FD07B681B68984A934248D0A4
:102828007B681B68964A934240D07B681B68954A30
:10283800934238D07B681B68934A934230D07B68B8
:102848001B68924A934228D07B681B68894A934246
:1028580020D07B681B688E4A934219D07B681B681E
:102868008C4A934212D07B681B688B4A93420AD0E9
:102878007B681B68894A934202D14FF480431BE06E
:102888004FF4802318E04FF4806315E0402313E0F1
:10289800042311E04FF080630EE04FF480030BE057
:1028A8004FF4802308E04FF4804305E04FF4806341
:1028B80002E0402300E00423794A536057E07B6834
:1028C8001B686D4A93424FD07B681B686B4A9342E2
:1028D80048D07B681B686A4A934240D07B681B6873
:1028E800684A934238D07B681B68674A934230D065
:1028F8007B681B68654A934228D07B681B685D4AE1
:10290800934220D07B681B68614A934219D07B6848
:102918001B68604A934212D07B681B685E4A9342E8
:102928000AD07B681B685D4A934202D14FF480430A
:102938001BE04FF4802318E04FF4806315E0402338
:1029480013E0042311E04FF080630EE04FF480039E
:102958000BE04FF4802308E04FF4804305E04FF488
:10296800806302E0402300E004234E4A53607B6802
:10297800DB6A002B00F036817B68DB6A7868984751
:1029880030E17B681B6C02229A40FB681340002BE5
:1029980000F0F880BB6803F00203002B00F0F2801F
:1029A8007B681B681B6803F02003002B0BD17B6836
:1029B8001B681A687B681B6822F00A021A607B6829
:1029C800012283F821207B681B681A46294B9A420A
:1029D80073D97B681B68284A93426AD07B681B6856
:1029E800264A934263D07B681B68254A93425BD092
:1029F8007B681B68234A934238D07B681B68224A4D
:102A0800934230D07B681B68204A934228D07B6869
:102A18001B68184A934220D07B681B681C4A934263
:102A280019D07B681B681B4A934212D07B681B68CD
:102A3800194A93420AD07B681B68184A934202D10C
:102A48004FF4005336E04FF4003333E04FF4007393
:102A580030E020232EE002232CE04FF0007329E021
:102A68004FF4001326E04FF4003323E04FF40053F3
:102A780020E000BF80000240080002401C00024025
:102A88003000024044000240580002406C000240FE
:102A9800080402401C04024030040240440402407E
:102AA80000040240000002404FF4007302E02023BB
:102AB80000E002234E4A536057E07B681B684D4A8A
:102AC80093424FD07B681B684B4A934248D07B683F
:102AD8001B684A4A934240D07B681B68484A934225
:102AE80038D07B681B68474A934230D07B681B68A4
:102AF800454A934228D07B681B68444A934220D0B9
:102B08007B681B68424A934219D07B681B68414A1C
:102B1800934212D07B681B683F4A93420AD07B6875
:102B28001B683E4A934202D14FF400531BE04FF416
:102B3800003318E04FF4007315E0202313E002235C
:102B480011E04FF000730EE04FF400130BE04FF468
:102B5800003308E04FF4005305E04FF4007302E03F
:102B6800202300E002232E4A53607B68002283F86A
:102B780020207B689B6A002B34D07B689B6A78682E
:102B880098472FE07B681B6C08229A40FB6813402B
:102B9800002B28D0BB6803F00803002B23D07B68E8
:102BA8001B681A687B681B6822F00E021A607B6833
:102BB8001A6C7B68DB6B012101FA02F25A607B68B0
:102BC80001229A637B68012283F821207B68002216
:102BD80083F820207B681B6B002B04D07B681B6B61
:102BE8007868984700BF00BF1037BD4680BD00BF5A
:102BF80000040240080002401C000240300002406D
:102C080044000240580002406C000240800002402C
:102C1800080402401C0402403004024044040240FC
:102C28000000024080B485B000AFF860B9607A60F7
:102C38003B60FB681A6CFB68DB6B012101FA02F24E
:102C48005A60FB681B683A685A60FB685B68102B1F
:102C580008D1FB681B687A689A60FB681B68BA68C9
:102C6800DA6007E0FB681B68BA689A60FB681B6853
:102C78007A68DA6000BF1437BD4680BC7047000030
:102C880080B48BB000AF7860396000237B6200238A
:102C98003B6279E101227B6A02FA03F3FB613B683C
:102CA8001B68FA691340BB61BA69FB699A4240F034
:102CB80068813B685B68A04A93425ED09E4A934213
:102CC80075D89E4A934258D09C4A93426FD89C4AE2
:102CD800934252D09A4A934269D89A4A93424CD026
:102CE800984A934263D8984A934246D0964A934268
:102CF8005DD8122B2AD8122B59D801A252F823F0EA
:102D0800832D00085D2D00086F2D0008B12D0008E7
:102D1800B72D0008B72D0008B72D0008B72D0008FB
:102D2800B72D0008B72D0008B72D0008B72D0008EB
:102D3800B72D0008B72D0008B72D0008B72D0008DB
:102D4800B72D0008652D0008792D00087F4A9342A9
:102D580013D02CE03B68DB683B6229E03B68DB680A
:102D680004333B6224E03B68DB6808333B621FE0C6
:102D78003B68DB680C333B621AE03B689B68002BBE
:102D880002D104233B6213E03B689B68012B05D109
:102D980008233B627B68FA691A6109E008233B62F1
:102DA8007B68FA695A6103E000233B6200E000BFD8
:102DB800BB69FF2B01D87B6801E07B6804337B612A
:102DC800BB69FF2B02D87B6A9B0002E07B6A083B49
:102DD8009B003B617B691A680F213B6901FA03F389
:102DE800DB431A40396A3B6901FA03F31A437B69EA
:102DF8001A603B685B6803F08053002B00F0C180C9
:102E0800534B9B69524A43F001039361504B9B69B2
:102E180003F00103BB60BB684E4A7B6A9B08023320
:102E280052F82330FB607B6A03F003039B000F22F8
:102E380002FA03F3DB43FA681340FB607B68464AF7
:102E480093421FD07B68454A934219D07B68444A15
:102E5800934213D07B68434A93420DD07B68424A21
:102E6800934207D07B68414A934201D105230AE087
:102E7800062308E0042306E0032304E0022302E01B
:102E8800012300E000237A6A02F0030292009340D3
:102E9800FA681343FB602F497B6A9B080233FA6880
:102EA80041F823203B685B6803F48033002B06D08D
:102EB8002F4B1A682E49BB6913430B6006E02C4B55
:102EC8001A68BB69DB432A4913400B603B685B689F
:102ED80003F40033002B06D0254B5A682449BB69FC
:102EE80013434B6006E0224B5A68BB69DB43204919
:102EF80013404B603B685B6803F48013002B06D0DB
:102F08001B4B9A681A49BB6913438B6006E0184B40
:102F18009A68BB69DB43164913408B603B685B6862
:102F280003F40013002B25D0114BDA681049BB6954
:102F38001343CB6025E000BF0000321000003110C1
:102F480000002210000021100000121000001110D3
:102F5800001002400000014000080140000C014040
:102F6800001001400014014000180140001C0140FD
:102F7800000401400B4BDA68BB69DB430949134085
:102F8800CB607B6A01337B623B681A687B6A22FAF2
:102F980003F3002B7FF47EAE00BF00BF2C37BD4685
:102FA80080BC70470004014080B483B000AF7860F3
:102FB8000B467B8013467B707B78002B03D07A8886
:102FC8007B681A6103E07B881A047B681A6100BF7A
:102FD8000C37BD4680BC704780B483B000AF7860C2
:102FE8000B467B807B68DA687B881340002B03D014
:102FF8007A887B685A6102E07A887B681A6100BF28
:103008000C37BD4680BC704780B584B000AF78608F
:103018007B68002B01D101232BE17B6893F83D30BD
:10302800DBB2002B06D17B68002283F83C2078684D
:1030380003F004F97B68242283F83D207B681B6831
:103048001A687B681B6822F001021A607B681B689B
:103058001A687B681B6842F400421A607B681B6828
:103068001A687B681B6822F400421A6001F0A0FB12
:10307800F8607B685B68814A934207D8FB68804A9E
:10308800934294BF01230023DBB206E0FB687D4A2C
:10309800934294BF01230023DBB2002B01D001230C
:1030A800E7E0FB68784AA2FB03239B0CBB607B68C4
:1030B8001B685B6823F03F017B681B68BA680A439A
:1030C8005A607B681B681B6A23F03F017B685B685A
:1030D8006A4A934202D8BB68013309E0BB684FF4DF
:1030E800967202FB03F3694AA2FB03239B0901338F
:1030F8007A6812680B4313627B681B68DB6923F4E8
:103108004F4222F0FF027B685B685C498B4219D80A
:10311800FB68591E7B685B685B00B1FBF3F3591CC5
:1031280040F6FC730B40002B0AD0FB68591E7B68E5
:103138005B685B00B1FBF3F30133C3F30B0351E0AE
:1031480004234FE07B689B68002B11D1FB68581E55
:103158007B6859680B465B000B44B0FBF3F3013303
:10316800C3F30B03002B0CBF01230023DBB212E0D7
:10317800FB68581E7B6859680B469B000B449900F6
:103188000B44B0FBF3F30133C3F30B03002B0CBF69
:1031980001230023DBB2002B01D0012322E07B684E
:1031A8009B68002B0ED1FB68581E7B6859680B463C
:1031B8005B000B44B0FBF3F30133C3F30B0343F49D
:1031C80000430FE0FB68581E7B6859680B469B005C
:1031D8000B4499000B44B0FBF3F30133C3F30B0327
:1031E80043F44043796809681343CB617B681B68E3
:1031F8001B6823F0C0017B68DA697B681B6A1A4385
:103208007B681B680A431A607B681B689B6823F409
:10321800034323F0FF037A6811697A68D26811437F
:103228007A6812680B4393607B681B68DB6823F03D
:10323800FF017B685A697B689B691A437B681B6836
:103248000A43DA607B681B681A687B681B6842F06F
:1032580001021A607B6800221A647B68202283F8C6
:103268003D207B6800221A637B68002283F83E2099
:10327800002318461037BD4680BD00BFA086010058
:103288007F841E00FF083D0083DE1B43D34D621080
:1032980080B588B002AFF860084611461A46034662
:1032A8007B810B463B811346FB80FEF72BFF786141
:1032B800FB6893F83D30DBB2202B40F0D9807B6966
:1032C8000093192301226D49F86800F0C1FC0346F8
:1032D800002B01D00223CCE0FB6893F83C30012B93
:1032E80001D10223C5E0FB68012283F83C20FB687A
:1032F8001B681B6803F00103012B07D0FB681B68E0
:103308001A68FB681B6842F001021A60FB681B68B8
:103318001A68FB681B6822F400621A60FB682122A5
:1033280083F83D20FB68402283F83E20FB6800229A
:103338001A64FB683A6A5A62FB68BA8C5A85FB6859
:103348005B8D9AB2FB681A85FB684D4ADA62F88889
:103358003A8979897B690193BB6A00930346F868C7
:1033680000F0F8FA0346002B52D0012381E07A6975
:10337800B96AF86800F042FD0346002B0DD0FB68DF
:103388001B6C042B07D1FB681B681A68FB681B6859
:1033980042F400721A6001236BE0FB685B6A1A78DA
:1033A800FB681B681A61FB685B6A5A1CFB685A62F7
:1033B800FB681B8D013B9AB2FB681A85FB685B8D25
:1033C8009BB2013B9AB2FB685A85FB681B685B6934
:1033D80003F00403042B1BD1FB681B8D002B17D0B3
:1033E800FB685B6A1A78FB681B681A61FB685B6A92
:1033F8005A1CFB685A62FB681B8D013B9AB2FB683A
:103408001A85FB685B8D9BB2013B9AB2FB685A85B3
:10341800FB681B8D002BAAD17A69B96AF86800F09D
:103428002EFD0346002B0DD0FB681B6C042B07D127
:10343800FB681B681A68FB681B6842F400721A6014
:10344800012316E0FB681B681A68FB681B6842F4D6
:1034580000721A60FB68202283F83D20FB68002276
:1034680083F83E20FB68002283F83C20002300E01C
:10347800022318461837BD4680BD00BF0200100061
:103488000000FFFF80B58CB002AFF8600846114617
:103498001A4603467B810B463B811346FB8000237B
:1034A8003B62FEF72FFE7862FB6893F83D30DBB293
:1034B800202B40F044827B6A009319230122824921
:1034C800F86800F0C5FB0346002B01D0022337E261
:1034D800FB6893F83C30012B01D1022330E2FB68F2
:1034E800012283F83C20FB681B681B6803F001037A
:1034F800012B07D0FB681B681A68FB681B6842F041
:1035080001021A60FB681B681A68FB681B6822F4D2
:1035180000621A60FB68222283F83D20FB68402283
:1035280083F83E20FB6800221A64FB683A6B5A62F3
:10353800FB68BA8E5A85FB685B8D9AB2FB681A8560
:10354800FB68624ADA62F8883A8979897B6A01936A
:10355800BB6B00930346F86800F092FA0346002B11
:1035680001D00123ECE1FB681B8D002B13D1002354
:10357800FB61FB681B685B69FB61FB681B689B69F7
:10358800FB61FB69FB681B681A68FB681B6842F4EF
:1035980000721A60C0E1FB681B8D012B1ED1FB680D
:1035A8001B681A68FB681B6822F480621A6072B68E
:1035B80000BF0023BB61FB681B685B69BB61FB68DC
:1035C8001B689B69BB61BB69FB681B681A68FB6861
:1035D8001B6842F400721A6062B635E0FB681B8D06
:1035E800022B1ED1FB681B681A68FB681B6842F433
:1035F80000621A6072B600BF00237B61FB681B681B
:103608005B697B61FB681B689B697B617B69FB6805
:103618001B681A68FB681B6822F480621A6062B62D
:1036280012E0FB681B681A68FB681B6842F480623A
:103638001A6000233B61FB681B685B693B61FB68A0
:103648001B689B693B613B6966E1FB681B8D032B2B
:1036580000F21F81FB681B8D012B23D17A6AB96B9D
:10366800F86800F04DFC0346002B01D0012367E108
:10367800FB681B681A69FB685B6AD2B21A70FB6840
:103688005B6A5A1CFB685A62FB681B8D013B9AB245
:10369800FB681A85FB685B8D9BB2013B9AB2FB689D
:1036A8005A8539E1FB681B8D022B52D17B6A009346
:1036B800BB6B00220649F86800F0CAFA0346002BE3
:1036C80008D001233CE100BF020010000000FFFF0A
:1036D8000400010072B600BFFB681B681A68FB682B
:1036E8001B6842F400721A60FB681B681A69FB6861
:1036F8005B6AD2B21A70FB685B6A5A1CFB685A6232
:10370800FB681B8D013B9AB2FB681A85FB685B8DD1
:103718009BB2013B9AB2FB685A8562B600BFFB6850
:103728001B681A69FB685B6AD2B21A70FB685B6A2D
:103738005A1CFB685A62FB681B8D013B9AB2FB68F6
:103748001A85FB685B8D9BB2013B9AB2FB685A8570
:10375800E2E07B6A0093BB6B00227B49F86800F0CB
:1037680077FA0346002B01D00123E9E0FB681B68C8
:103778001A68FB681B6822F480621A6072B600BF80
:10378800FB681B681A69FB685B6AD2B21A70FB682F
:103798005B6A5A1CFB685A62FB681B8D013B9AB234
:1037A800FB681A85FB685B8D9BB2013B9AB2FB688C
:1037B8005A85664B1B68DB08654AA2FB03231A0A75
:1037C80013469B001344DA00D31A3B623B6A013B61
:1037D8003B623B6A002B18D1FB6800221A63FB6826
:1037E800202283F83D20FB68002283F83E20FB68F6
:1037F8001B6C43F02002FB681A6462B600BFFB68CA
:10380800002283F83C2001239AE0FB681B685B696F
:1038180003F00403042BD9D1FB681B681A68FB6802
:103828001B6842F400721A60FB681B681A69FB681F
:103838005B6AD2B21A70FB685B6A5A1CFB685A62F0
:10384800FB681B8D013B9AB2FB681A85FB685B8D90
:103858009BB2013B9AB2FB685A8562B600BFFB680F
:103868001B681A69FB685B6AD2B21A70FB685B6AEC
:103878005A1CFB685A62FB681B8D013B9AB2FB68B5
:103888001A85FB685B8D9BB2013B9AB2FB685A852F
:1038980042E07A6AB96BF86800F032FB0346002B05
:1038A80001D001234CE0FB681B681A69FB685B6A5E
:1038B800D2B21A70FB685B6A5A1CFB685A62FB68D2
:1038C8001B8D013B9AB2FB681A85FB685B8D9BB226
:1038D800013B9AB2FB685A85FB681B685B6903F079
:1038E8000403042B18D1FB681B681A69FB685B6A20
:1038F800D2B21A70FB685B6A5A1CFB685A62FB6892
:103908001B8D013B9AB2FB681A85FB685B8D9BB2E5
:10391800013B9AB2FB685A85FB681B8D002B7FF42C
:1039280094AEFB68202283F83D20FB68002283F8D0
:103938003E20FB68002283F83C20002300E002239D
:1039480018462837BD4680BD04000100100000203D
:1039580089B5F81480B588B002AFF86008461146FA
:103968001A4603467B810B463B811346FB80FB6866
:103978001B681A68FB681B6842F480721A607B6ACD
:1039880000933B6A00224FF00111F86800F060F9DB
:103998000346002B0DD0FB681B681B6803F480737B
:1039A800B3F5807F03D1FB684FF400721A640323D8
:1039B8005FE07B89DBB21A46FB681B6802F0FE02F7
:1039C8001A617B6A3A6A2D49F86800F098F903464B
:1039D800002B01D001234CE000237B61FB681B68AE
:1039E8005B697B61FB681B689B697B617B697A6AA1
:1039F800396AF86800F002FA0346002B0DD0FB681C
:103A08001B6C042B07D1FB681B681A68FB681B68D2
:103A180042F400721A6001232BE0FB88012B05D1C8
:103A28003B89DAB2FB681B681A6121E03B891B0AF3
:103A38009BB2DAB2FB681B681A617A6A396AF8685D
:103A480000F0DCF90346002B0DD0FB681B6C042B3F
:103A580007D1FB681B681A68FB681B6842F4007290
:103A68001A60012305E03B89DAB2FB681B681A611A
:103A7800002318461837BD4680BD00BF020001006C
:103A880080B588B002AFF860084611461A4603466A
:103A98007B810B463B811346FB80FB681B681A68D9
:103AA800FB681B6842F480621A60FB681B681A682E
:103AB800FB681B6842F480721A607B6A00933B6A59
:103AC80000224FF00111F86800F0C2F80346002BFD
:103AD8000DD0FB681B681B6803F48073B3F5807F07
:103AE80003D1FB684FF400721A640323AAE07B89B0
:103AF800DBB21A46FB681B6802F0FE021A617B6A99
:103B08003A6A5249F86800F0FAF80346002B01D0E7
:103B1800012397E000237B61FB681B685B697B617D
:103B2800FB681B689B697B617B697A6A396AF868FC
:103B380000F064F90346002B0DD0FB681B6C042BC6
:103B480007D1FB681B681A68FB681B6842F400729F
:103B58001A60012376E0FB88012B05D13B89DAB294
:103B6800FB681B681A6121E03B891B0A9BB2DAB229
:103B7800FB681B681A617A6A396AF86800F03EF9CE
:103B88000346002B0DD0FB681B6C042B07D1FB6888
:103B98001B681A68FB681B6842F400721A600123EC
:103BA80050E03B89DAB2FB681B681A617A6A396AA5
:103BB800F86800F023F90346002B0DD0FB681B6C56
:103BC800042B07D1FB681B681A68FB681B6842F462
:103BD80000721A60012335E0FB681B681A68FB68ED
:103BE8001B6842F480721A607B6A00933B6A002269
:103BF8004FF00111F86800F02BF80346002B0DD0A8
:103C0800FB681B681B6803F48073B3F5807F03D1DE
:103C1800FB684FF400721A64032313E07B89DBB25C
:103C280043F00103DAB2FB681B681A617B6A3A6ADF
:103C38000649F86800F063F80346002B01D0012319
:103C480000E0002318461837BD4680BD0200010079
:103C580080B584B000AFF860B9603B601346FB7173
:103C680025E03B68B3F1FF3F21D0FEF74BFA02464F
:103C7800BB69D31A3A689A4202D33B68002B16D123
:103C8800FB6800221A63FB68202283F83D20FB684A
:103C9800002283F83E20FB681B6C43F02002FB687F
:103CA8001A64FB68002283F83C20012323E0BB68E8
:103CB8001B0CDBB2012B0DD1FB681B685B69DA4377
:103CC800BB6813409BB2002B0CBF01230023DBB25F
:103CD8001A460CE0FB681B689B69DA43BB68134013
:103CE8009BB2002B0CBF01230023DBB21A46FB79E1
:103CF8009A42B6D0002318461037BD4680BD80B51D
:103D080084B000AFF860B9607A603B6051E0FB684E
:103D18001B685B6903F48063B3F5806F23D1FB688C
:103D28001B681A68FB681B6842F400721A60FB681B
:103D38001B686FF480625A61FB6800221A63FB6893
:103D4800202283F83D20FB68002283F83E20FB6890
:103D58001B6C43F00402FB681A64FB68002283F8BA
:103D68003C20012346E07B68B3F1FF3F21D0FEF7FA
:103D7800C9F902463B68D31A7A689A4202D37B682B
:103D8800002B16D1FB6800221A63FB68202283F8F7
:103D98003D20FB68002283F83E20FB681B6C43F043
:103DA8002002FB681A64FB68002283F83C20012388
:103DB80020E0BB681B0CDBB2012B0CD1FB681B6835
:103DC8005B69DA43BB6813409BB2002B14BF012325
:103DD8000023DBB20BE0FB681B689B69DA43BB6816
:103DE80013409BB2002B14BF01230023DBB2002B2E
:103DF8008DD1002318461037BD4680BD80B584B0EC
:103E080000AFF860B9607A602DE0F86800F0CEF88D
:103E18000346002B01D001232DE0BB68B3F1FF3F1F
:103E280021D0FEF76FF902467B68D31ABA689A4226
:103E380002D3BB68002B16D1FB6800221A63FB680B
:103E4800202283F83D20FB68002283F83E20FB688F
:103E58001B6C43F02002FB681A64FB68002283F89D
:103E68003C20012307E0FB681B685B6903F08003C3
:103E7800802BCAD1002318461037BD4680BD80B5B7
:103E880084B000AFF860B9607A602DE0F86800F09F
:103E98008DF80346002B01D001232DE0BB68B3F158
:103EA800FF3F21D0FEF72EF902467B68D31ABA6885
:103EB8009A4202D3BB68002B16D1FB6800221A6312
:103EC800FB68202283F83D20FB68002283F83E200F
:103ED800FB681B6C43F02002FB681A64FB68002235
:103EE80083F83C20012307E0FB681B685B6903F04B
:103EF8000403042BCAD1002318461037BD4680BDE1
:103F080080B584B000AFF860B9607A6042E0FB68C1
:103F18001B685B6903F01003102B19D1FB681B6841
:103F28006FF010025A61FB6800221A63FB682022B6
:103F380083F83D20FB68002283F83E20FB681A6C5A
:103F4800FB681A64FB68002283F83C20012329E0FF
:103F5800FEF7D8F802467B68D31ABA689A4202D3A9
:103F6800BB68002B16D1FB6800221A63FB6820226D
:103F780083F83D20FB68002283F83E20FB681B6C19
:103F880043F02002FB681A64FB68002283F83C2097
:103F9800012307E0FB681B685B6903F04003402BC3
:103FA800B5D1002318461037BD4680BD80B483B014
:103FB80000AF78607B681B685B6903F48063B3F5C6
:103FC800806F1BD17B681B686FF480625A617B68C5
:103FD80000221A637B68202283F83D207B68002238
:103FE80083F83E207B681B6C43F004027B681A64EC
:103FF8007B68002283F83C20012300E00023184658
:104008000C37BD4680BC704780B586B000AF78607D
:104018007B68002B01D101236CE27B681B6803F0ED
:104028000103002B00F08780924B5B6803F00C03C0
:10403800042B0CD08F4B5B6803F00C03082B12D1B8
:104048008C4B5B6803F48033B3F5803F0BD1894B0D
:104058001B6803F40033002B6CD07B685B68002B73
:1040680068D1012346E27B685B68B3F5803F06D1DF
:10407800804B1B687F4A43F4803313602EE07B68D3
:104088005B68002B0CD17B4B1B687A4A23F4803386
:104098001360784B1B68774A23F4802313601DE074
:1040A8007B685B68B3F5A02F0CD1724B1B68714A13
:1040B80043F4802313606F4B1B686E4A43F48033CC
:1040C80013600BE06B4B1B686A4A23F48033136060
:1040D800684B1B68674A23F4802313607B685B681E
:1040E800002B13D0FEF70EF8386108E0FEF70AF847
:1040F80002463B69D31A642B01D90323FAE15D4BCD
:104108001B6803F40033002BF0D014E0FDF7FAFF2E
:10411800386108E0FDF7F6FF02463B69D31A642BC5
:1041280001D90323E6E1534B1B6803F40033002B4A
:10413800F0D100E000BF7B681B6803F00203002B8E
:1041480063D04C4B5B6803F00C03002B0BD0494B3E
:104158005B6803F00C03082B1CD1464B5B6803F427
:104168008033002B16D1434B1B6803F00203002B4E
:1041780005D07B681B69012B01D00123BAE13D4BB7
:104188001B6823F0F8027B685B69DB00394913433D
:104198000B603AE07B681B69002B20D0364B01226C
:1041A8001A60FDF7AFFF386108E0FDF7ABFF024684
:1041B8003B69D31A022B01D903239BE12D4B1B68C2
:1041C80003F00203002BF0D02A4B1B6823F0F802FF
:1041D8007B685B69DB00274913430B6015E0264BBE
:1041E80000221A60FDF78EFF386108E0FDF78AFFAC
:1041F80002463B69D31A022B01D903237AE11D4BEE
:104208001B6803F00203002BF0D17B681B6803F0E6
:104218000803002B3AD07B689B69002B19D0174BF9
:1042280001221A60FDF76EFF386108E0FDF76AFFAA
:1042380002463B69D31A022B01D903235AE10D4BDD
:104248005B6A03F00203002BF0D0012000F0D8FADB
:104258001CE00A4B00221A60FDF754FF38610FE09A
:10426800FDF750FF02463B69D31A022B08D90323F6
:1042780040E100BF00100240000042428004424278
:104288009E4B5B6A03F00203002BE9D17B681B6835
:1042980003F00403002B00F0A6800023FB75974B66
:1042A800DB6903F08053002B0DD1944BDB69934AF3
:1042B80043F08053D361914BDB6903F08053BB60BB
:1042C800BB680123FB758E4B1B6803F48073002BBE
:1042D80018D18B4B1B688A4A43F480731360FDF72F
:1042E80011FF386108E0FDF70DFF02463B69D31A5C
:1042F800642B01D90323FDE0814B1B6803F4807311
:10430800002BF0D07B68DB68012B06D17B4B1B6A46
:104318007A4A43F0010313622DE07B68DB68002BC7
:104328000CD1764B1B6A754A23F001031362734B59
:104338001B6A724A23F0040313621CE07B68DB6883
:10434800052B0CD16D4B1B6A6C4A43F004031362B6
:104358006A4B1B6A694A43F0010313620BE0674B1F
:104368001B6A664A23F001031362644B1B6A634AA3
:1043780023F0040313627B68DB68002B15D0FDF77C
:10438800C1FE38610AE0FDF7BDFE02463B69D31A5B
:1043980041F28832934201D90323ABE0574B1B6AA1
:1043A80003F00203002BEED014E0FDF7ABFE3861FA
:1043B8000AE0FDF7A7FE02463B69D31A41F28832AC
:1043C800934201D9032395E04C4B1B6A03F0020387
:1043D800002BEED1FB7D012B05D1484BDB69474A09
:1043E80023F08053D3617B68DB69002B00F0818068
:1043F800424B5B6803F00C03082B61D07B68DB69D8
:10440800022B46D13F4B00221A60FDF77BFE386134
:1044180008E0FDF777FE02463B69D31A022B01D963
:10442800032367E0354B1B6803F00073002BF0D1C2
:104438007B681B6AB3F5803F08D1304B5B6823F477
:1044480000327B689B682D4913434B602B4B5B689C
:1044580023F474127B68196A7B685B6A0B432749EB
:1044680013434B60274B01221A60FDF74BFE38615E
:1044780008E0FDF747FE02463B69D31A022B01D933
:10448800032337E01D4B1B6803F00073002BF0D0AB
:104498002FE01C4B00221A60FDF734FE386108E05B
:1044A800FDF730FE02463B69D31A022B01D90323DC
:1044B80020E0124B1B6803F00073002BF0D118E0CA
:1044C8007B68DB69012B01D1012313E00B4B5B688F
:1044D800FB60FB6803F480327B681B6A9A4206D152
:1044E800FB6803F470127B685B6A9A4201D001236F
:1044F80000E0002318461837BD4680BD0010024072
:10450800007000406000424280B584B000AF78601F
:1045180039607B68002B01D10123D0E06A4B1B680E
:1045280003F007033A689A4210D9674B1B6823F0D7
:10453800070265493B6813430B60634B1B6803F034
:1045480007033A689A4201D00123B8E07B681B68E8
:1045580003F00203002B20D07B681B6803F00403E0
:10456800002B05D0594B5B68584A43F4E06353600D
:104578007B681B6803F00803002B05D0534B5B686E
:10458800524A43F460535360504B5B6823F0F00287
:104598007B689B684D4913434B607B681B6803F03D
:1045A8000103002B40D07B685B68012B07D1474B88
:1045B8001B6803F40033002B15D101237FE07B68CF
:1045C8005B68022B07D1414B1B6803F00073002B7B
:1045D80009D1012373E03D4B1B6803F00203002B54
:1045E80001D101236BE0394B5B6823F003027B6840
:1045F8005B68364913434B60FDF784FDF8600AE0B9
:10460800FDF780FD0246FB68D31A41F288329342D7
:1046180001D9032353E02D4B5B6803F00C027B6840
:104628005B689B009A42EBD1274B1B6803F007039A
:104638003A689A4210D2244B1B6823F00702224999
:104648003B6813430B60204B1B6803F007033A6871
:104658009A4201D0012332E07B681B6803F004030F
:10466800002B08D0194B5B6823F4E0627B68DB6899
:10467800164913434B607B681B6803F00803002B43
:1046880009D0124B5B6823F460527B681B69DB001E
:104698000E4913434B6000F021F802460B4B5B6850
:1046A8001B0903F00F030A49CB5C22FA03F3094AFA
:1046B8001360094B1B681846FDF7E2FC00231846F7
:1046C8001037BD4680BD00BF0020024000100240E8
:1046D80014C80008100000200400002090B48AB01C
:1046E80000AF2A4B3C1D0FCB84E80F0040F201239A
:1046F8003B800023FB610023BB6100237B62002316
:104708007B6100233B62224B5B68FB61FB6903F022
:104718000C03042B02D0082B03D02DE01D4B3B6269
:104728002DE0FB699B0C03F00F0307F128021344EB
:1047380013F8243C7B61FB6903F48033002B13D00E
:10474800134B5B685B0C03F0010307F12802134469
:1047580013F8283CBB617B690E4A02FB03F2BB6974
:10476800B2FBF3F37B6204E07B690B4A02FB03F3C1
:104778007B627B6A3B6202E0064B3B6200BF3B6A9E
:1047880018462837BD4690BC704700BF18BD0008C2
:104798000010024000127A0000093D0080B400AF0A
:1047A800024B1B681846BD4680BC704710000020AD
:1047B80080B500AFFFF7F2FF0246054B5B681B0AA6
:1047C80003F007030349CB5C22FA03F3184680BDC4
:1047D8000010024024C8000880B500AFFFF7DEFFD4
:1047E8000246054B5B68DB0A03F007030349CB5C11
:1047F80022FA03F3184680BD0010024024C80008BE
:1048080080B485B000AF78600A4B1B680A4AA2FBE7
:1048180003235B0A7A6802FB03F3FB6000BFFB68B3
:104828005A1EFA60002BF9D100BF00BF1437BD46ED
:1048380080BC704710000020D34D621080B582B054
:1048480000AF78607B68002B01D101231DE07B68F5
:1048580093F83D30DBB2002B06D17B68002283F849
:104868003C20786804F0C0FA7B68022283F83D2077
:104878007B681A687B6804331946104600F0FEF915
:104888007B68012283F83D20002318460837BD467F
:1048980080BD80B582B000AF78607B68002B01D105
:1048A80001231DE07B6893F83D30DBB2002B06D175
:1048B8007B68002283F83C20786804F073F97B68F1
:1048C800022283F83D207B681A687B680433194606
:1048D800104600F0D3F97B68012283F83D200023BD
:1048E80018460837BD4680BD80B584B000AF7860F3
:1048F80039607B681B6801223968184600F0E4FBC0
:104908007B681B68154A934204D07B681B68144A6D
:10491800934201D1012300E00023002B07D07B68DC
:104928001B685A6C7B681B6842F400425A647B68B7
:104938001B689B6803F00703FB60FB68062B07D026
:104948007B681B681A687B681B6842F001021A6062
:10495800002318461037BD4680BD00BF002C01401B
:104968000034014080B586B000AF786039607B685C
:10497800002B01D101237FE07B6893F83D30DBB247
:10498800002B06D17B68002283F83C20786804F06D
:104998003BF97B68022283F83D207B681B689B6893
:1049A8007A68126823F4804323F0070393607B68D6
:1049B8001A687B6804331946104600F05FF97B6873
:1049C8001B689B687B617B681B689B693B617B6894
:1049D8001B681B6AFB603B681B687A6913437B6131
:1049E8003B6923F4407323F003033B613B689A68F7
:1049F8003B689B691B0213433A6913433B613B695C
:104A080023F4406323F00C033B613B6923F47043B8
:104A180023F0F0033B613B68DA683B68DB691B0203
:104A280013433A6913433B613B681B691A013B68AE
:104A38001B6A1B0313433A6913433B61FB6823F06A
:104A48002203FB603B685A683B685B691B011343A0
:104A5800FA681343FB607B681B687A699A607B6815
:104A68001B683A699A617B681B68FA681A627B68F6
:104A7800012283F83D20002318461837BD4680BD23
:104A880080B582B000AF786039603B68002B03D0F6
:104A98003B68042B08D00FE07B681B6801220021CB
:104AA800184600F011FB16E07B681B680122042100
:104AB800184600F009FB0EE07B681B680122002104
:104AC800184600F001FB7B681B6801220421184688
:104AD80000F0FAFA00BF7B681B681A687B681B68DD
:104AE80042F001021A60002318460837BD4680BD0F
:104AF80080B584B000AFF860B9607A60FB6893F85D
:104B08003C30012B01D10223B4E0FB68012283F879
:104B18003C20FB68022283F83D207B680C2B00F2C6
:104B28009F8001A252F823F0654B0008694C0008E9
:104B3800694C0008694C0008A54B0008694C00083E
:104B4800694C0008694C0008E74B0008694C0008EC
:104B5800694C0008694C0008274C0008FB681B6872
:104B6800B968184600F004F9FB681B689A69FB6885
:104B78001B6842F008029A61FB681B689A69FB6827
:104B88001B6822F004029A61FB681B689969BB687C
:104B98001A69FB681B680A439A6162E0FB681B6834
:104BA800B968184600F054F9FB681B689A69FB68F5
:104BB8001B6842F400629A61FB681B689A69FB688B
:104BC8001B6822F480629A61FB681B689969BB685C
:104BD8001B691A02FB681B680A439A6141E0FB687B
:104BE8001B68B968184600F0A7F9FB681B68DA6902
:104BF800FB681B6842F00802DA61FB681B68DA6927
:104C0800FB681B6822F00402DA61FB681B68D9693B
:104C1800BB681A69FB681B680A43DA6121E0FB6814
:104C28001B68B968184600F0FBF9FB681B68DA696D
:104C3800FB681B6842F40062DA61FB681B68DA698A
:104C4800FB681B6822F48062DA61FB681B68D9691B
:104C5800BB681B691A02FB681B680A43DA6100E03B
:104C680000BFFB68012283F83D20FB68002283F81F
:104C78003C20002318461037BD4680BD80B485B05F
:104C880000AF786039607B681B68FB607B68334ADB
:104C9800934213D07B68324A93420FD07B68B3F1BA
:104CA800804F0BD07B682F4A934207D07B682E4AEF
:104CB800934203D07B682D4A934208D1FB6823F0C6
:104CC8007003FB603B685B68FA681343FB607B68B2
:104CD800224A934213D07B68214A93420FD07B68C3
:104CE800B3F1804F0BD07B681E4A934207D07B6894
:104CF8001D4A934203D07B681C4A934208D1FB6843
:104D080023F44073FB603B68DB68FA681343FB607D
:104D1800FB6823F080023B685B691343FB607B6898
:104D2800FA681A603B689A687B68DA623B681A68B6
:104D38007B689A627B68094A934203D07B68084A79
:104D4800934203D13B681A697B681A637B68012226
:104D58005A6100BF1437BD4680BC7047002C014023
:104D6800003401400004004000080040000C0040EE
:104D780080B487B000AF786039607B681B6A23F025
:104D880001027B681A627B681B6A7B617B685B68CF
:104D98003B617B689B69FB60FB6823F07003FB60E9
:104DA800FB6823F00303FB603B681B68FA68134346
:104DB800FB607B6923F002037B613B689B687A692F
:104DC80013437B617B68204A934203D07B681F4A68
:104DD80093420CD17B6923F008037B613B68DB6855
:104DE8007A6913437B617B6923F004037B617B68E9
:104DF800154A934203D07B68144A934211D13B6908
:104E080023F480733B613B6923F400733B613B6887
:104E18005B693A6913433B613B689B693A69134391
:104E28003B617B683A695A607B68FA689A613B68BB
:104E38005A687B685A637B687A691A6200BF1C37B4
:104E4800BD4680BC704700BF002C014000340140C3
:104E580080B487B000AF786039607B681B6A23F044
:104E680010027B681A627B681B6A7B617B685B68DF
:104E78003B617B689B69FB60FB6823F4E043FB6054
:104E8800FB6823F44073FB603B681B681B02FA68ED
:104E98001343FB607B6923F020037B613B689B68BD
:104EA8001B017A6913437B617B68214A934203D0D3
:104EB8007B68204A93420DD17B6923F080037B6194
:104EC8003B68DB681B017A6913437B617B6923F0CC
:104ED80040037B617B68164A934203D07B68154A7E
:104EE800934213D13B6923F480633B613B6923F40C
:104EF80000633B613B685B699B003A6913433B6114
:104F08003B689B699B003A6913433B617B683A693C
:104F18005A607B68FA689A613B685A687B689A634A
:104F28007B687A691A6200BF1C37BD4680BC70472F
:104F3800002C01400034014080B487B000AF786095
:104F480039607B681B6A23F480727B681A627B680D
:104F58001B6A7B617B685B683B617B68DB69FB6024
:104F6800FB6823F07003FB60FB6823F00303FB601E
:104F78003B681B68FA681343FB607B6923F4007382
:104F88007B613B689B681B027A6913437B617B6882
:104F9800214A934203D07B68204A93420DD17B6912
:104FA80023F400637B613B68DB681B027A69134367
:104FB8007B617B6923F480637B617B68164A93423B
:104FC80003D07B68154A934213D13B6923F480537D
:104FD8003B613B6923F400533B613B685B691B0100
:104FE8003A6913433B613B689B691B013A69134368
:104FF8003B617B683A695A607B68FA68DA613B68AA
:105008005A687B68DA637B687A691A6200BF1C3762
:10501800BD4680BC704700BF002C014000340140F1
:1050280080B487B000AF786039607B681B6A23F46E
:1050380080527B681A627B681B6A3B617B685B688D
:105048007B617B68DB69FB60FB6823F4E043FB6002
:10505800FB6823F44073FB603B681B681B02FA681B
:105068001343FB603B6923F400533B613B689B6837
:105078001B033A6913433B617B68114A934203D08F
:105088007B68104A934209D17B6923F480437B6192
:105098003B685B699B017A6913437B617B687A692A
:1050A8005A607B68FA68DA613B685A687B681A64F8
:1050B8007B683A691A6200BF1C37BD4680BC7047DE
:1050C800002C01400034014080B487B000AFF86084
:1050D800B9607A60BB6803F01F03012202FA03F388
:1050E8007B61FB681A6A7B69DB431A40FB681A62BA
:1050F800FB681A6ABB6803F01F03796801FA03F3B7
:105108001A43FB681A6200BF1C37BD4680BC704753
:1051180080B485B000AF786039607B6893F83C3024
:10512800012B01D1022332E07B68012283F83C2065
:105138007B68022283F83D207B681B685B68FB6004
:105148007B681B689B68BB60FB6823F07003FB608F
:105158003B681B68FA681343FB60BB6823F0800355
:10516800BB603B685B68BA681343BB607B681B68BD
:10517800FA685A607B681B68BA689A607B68012283
:1051880083F83D207B68002283F83C2000231846E2
:105198001437BD4680BC704780B485B000AF7860D6
:1051A80039600023FB607B6893F83C30012B01D108
:1051B80002233DE07B68012283F83C20FB6823F052
:1051C800FF023B68DB681343FB60FB6823F4407213
:1051D8003B689B681343FB60FB6823F480623B6871
:1051E8005B681343FB60FB6823F400623B681B6841
:1051F8001343FB60FB6823F480523B681B6913432D
:10520800FB60FB6823F400523B685B691343FB6057
:10521800FB6823F480423B68DB691343FB607B68CF
:105228001B68FA685A647B68002283F83C200023D4
:1052380018461437BD4680BC704780B582B000AFB1
:1052480078607B68002B01D101233FE07B6893F8ED
:105258003930DBB2002B06D17B68002283F8382076
:10526800786803F09DFE7B68242283F839207B68E8
:105278001B68DA687B681B6822F40052DA60786879
:1052880000F0DAFD7B681B681A697B681B6822F4EA
:1052980090421A617B681B685A697B681B6822F018
:1052A8002A025A617B681B68DA687B681B6842F4CB
:1052B8000052DA607B680022DA637B68202283F878
:1052C80039207B68202283F83A20002318460837C3
:1052D800BD4680BD80B588B002AFF860B9603B605C
:1052E8001346FB8000237B61FB6893F83930DBB2FF
:1052F800202B40F08380BB68002B02D0FB88002B5A
:1053080001D101237BE0FB6893F83830012B01D1F0
:10531800022374E0FB68012283F83820FB6800222E
:10532800DA63FB68212283F83920FCF7EBFE786109
:10533800FB68FA889A84FB68FA88DA8442E0FB689A
:10534800DB8C9BB2013B9AB2FB68DA84FB689B68F2
:10535800B3F5805F22D13B6800937B6900228021EE
:10536800F86800F0EBFB0346002B01D0032346E06E
:10537800BB683B613B691B881A46FB681B68C2F324
:1053880008025A60FB681B69002B03D1BB68023313
:10539800BB6017E0BB680133BB6013E03B68009358
:1053A8007B6900228021F86800F0C8FB0346002BC7
:1053B80001D0032323E0BB685A1CBA601A78FB6843
:1053C8001B685A60FB68DB8C9BB2002BB7D13B682B
:1053D80000937B6900224021F86800F0AFFB034688
:1053E800002B01D003230AE0FB68202283F8392030
:1053F800FB68002283F83820002300E002231846C7
:105408001837BD4680BD80B485B000AFF860B9607C
:105418001346FB80FB6893F83A30DBB2202B40D16F
:10542800BB68002B02D0FB88002B01D1012339E097
:10543800FB6893F83830012B01D1022332E0FB6876
:10544800012283F83820FB68BA689A62FB68FA88F8
:105458009A85FB68FA88DA85FB680022DA63FB68BC
:10546800222283F83A20FB68002283F83820FB6860
:105478001B68DA68FB681B6842F48072DA60FB68B4
:105488001B685A69FB681B6842F001025A61FB6895
:105498001B68DA68FB681B6842F02002DA600023A8
:1054A80000E0022318461437BD4680BC7047000050
:1054B80080B586B000AFF860B9601346FB80FB6822
:1054C80093F83930DBB2202B53D1BB68002B02D0C4
:1054D800FB88002B01D101234CE0FB6893F838309E
:1054E800012B01D1022345E0FB68012283F8382013
:1054F800BA68FB681A62FB68FA889A84FB68FA88BB
:10550800DA84FB680022DA63FB68212283F83920F9
:10551800FB681B6B194A9A62FB681B6B184ADA62B4
:10552800FB681B6B174A1A63FB681B6B00225A63E4
:1055380007F108037B61FB68186B7B691968FB68D6
:105548001B6804331A46FB88FCF78EFFFB681B6850
:105558006FF040021A60FB68002283F83820FB686D
:105568001B685A69FB681B6842F080025A61002375
:1055780000E0022318461837BD4680BDBF59000811
:10558800115A0008B15A000880B586B000AFF8601B
:10559800B9601346FB80FB6893F83A30DBB2202BE6
:1055A80066D1BB68002B02D0FB88002B01D10123F8
:1055B8005FE0FB6893F83830012B01D1022358E0F3
:1055C800FB68012283F83820BA68FB689A62FB6896
:1055D800FA889A85FB680022DA63FB68222283F83E
:1055E8003A20FB685B6B254A9A62FB685B6B244A2E
:1055F800DA62FB685B6B234A1A63FB685B6B002209
:105608005A6307F108037B61FB68586BFB681B68EA
:10561800043319467B691A68FB88FCF725FF0023C9
:105628003B61FB681B681B683B61FB681B685B6828
:105638003B613B69FB68002283F83820FB681B68E4
:10564800DA68FB681B6842F48072DA60FB681B68E2
:105658005A69FB681B6842F001025A61FB681B68C3
:105668005A69FB681B6842F040025A61002300E057
:10567800022318461837BD4680BD00BF2D5A0008C2
:10568800955A0008B15A000880B584B000AF786018
:105698000023FB607B681B685B6903F08003002BB9
:1056A80014BF01230023DBB2FB607B6893F8393019
:1056B800DBB2212B16D1FB68002B13D07B681B684B
:1056C8005A697B681B6822F080025A617B681B6BF1
:1056D800002B04D07B681B6B1846FCF724FF786806
:1056E80000F076FA7B681B685B6903F04003002BC7
:1056F80014BF01230023DBB2FB607B6893F83A30C8
:10570800DBB2222B16D1FB68002B13D07B681B68F9
:105718005A697B681B6822F040025A617B685B6BA0
:10572800002B04D07B685B6B1846FCF7FCFE78689E
:1057380000F063FA002318461037BD4680BD00000C
:1057480080B588B000AF78607B681B681B68FB6118
:105758007B681B68DB68BB617B681B685B697B6176
:1057680000233B610023FB60FB6903F00F033B61EF
:105778003B69002B0DD1FB6903F02003002B08D0F7
:10578800BB6903F02003002B03D0786800F0D3FA3C
:10579800CBE03B69002B00F0AB807B6903F0010391
:1057A800002B05D1BB6903F49073002B00F0A08097
:1057B800FB6903F00103002B0AD0BB6903F4807373
:1057C800002B05D07B68DB6B43F001027B68DA6352
:1057D800FB6903F00403002B0AD07B6903F0010383
:1057E800002B05D07B68DB6B43F002027B68DA6331
:1057F800FB6903F00203002B0AD07B6903F0010365
:10580800002B05D07B68DB6B43F004027B68DA630E
:10581800FB6903F00803002B0AD07B6903F001033E
:10582800002B05D07B68DB6B43F008027B68DA63EA
:105838007B68DB6B002B77D0FB6903F02003002B20
:1058480007D0BB6903F02003002B02D0786800F072
:1058580072FA7B681B685B6903F04003002B14BF76
:1058680001230023DBB2FB607B68DB6B03F00803DA
:10587800002B02D1FB68002B31D0786800F0BDF90D
:105888007B681B685B6903F04003002B23D07B68AF
:105898001B685A697B681B6822F040025A617B6862
:1058A8005B6B002B13D07B685B6B214A5A637B6868
:1058B8005B6B1846FCF772FE0346002B16D07B681C
:1058C8005B6B5B6B7A68526B104698470EE07868A2
:1058D80000F04BF80AE0786800F047F806E07868CE
:1058E80000F043F87B680022DA631DE000BF1BE08C
:1058F800FB6903F08003002B08D0BB6903F0800329
:10590800002B03D0786800F0A9F90EE0FB6903F0DA
:105918004003002B09D0BB6903F04003002B04D0DF
:10592800786800F0F0F900E000BF2037BD4680BD80
:105938003D5C000880B483B000AF786000BF0C37CE
:10594800BD4680BC704780B483B000AF786000BFAC
:105958000C37BD4680BC704780B483B000AF786018
:1059680000BF0C37BD4680BC704780B483B000AF21
:10597800786000BF0C37BD4680BC704780B485B0E6
:1059880000AF78600023FB600023BB607B6893F85E
:105998003930DBB2FB607B6893F83A30DBB2BB602E
:1059A800FB68DAB2BB68DBB21343DBB218461437C4
:1059B800BD4680BC704780B584B000AF78607B6816
:1059C8005B6AFB607B681B681B6803F02003002B85
:1059D80013D1FB680022DA84FB681B685A69FB68EC
:1059E8001B6822F080025A61FB681B68DA68FB6852
:1059F8001B6842F04002DA6002E0F868FFF79AFF9D
:105A080000BF1037BD4680BD80B584B000AF786058
:105A18007B685B6AFB60F868FFF795FF00BF10378B
:105A2800BD4680BD80B584B000AF78607B685B6A96
:105A3800FB607B681B681B6803F02003002B1ED1EA
:105A4800FB680022DA85FB681B68DA68FB681B685C
:105A580022F48072DA60FB681B685A69FB681B686D
:105A680022F001025A61FB681B685A69FB681B68CF
:105A780022F040025A61FB68202283F83A20F86835
:105A880002F0B0FA00BF1037BD4680BD80B584B0C3
:105A980000AF78607B685B6AFB60F868FFF75CFFC3
:105AA80000BF1037BD4680BD80B584B000AF7860B8
:105AB8000023FB607B685B6ABB60BB681B685B6933
:105AC80003F08003002B14BF01230023DBB2FB602B
:105AD800BB6893F83930DBB2212B08D1FB68002B67
:105AE80005D0BB680022DA84B86800F071F8BB689A
:105AF8001B685B6903F04003002B14BF01230023DC
:105B0800DBB2FB60BB6893F83A30DBB2222B08D1DA
:105B1800FB68002B05D0BB680022DA85B86800F066
:105B28006CF8BB68DB6B43F01002BB68DA63B868DB
:105B3800FFF71BFF00BF1037BD4680BD80B584B09E
:105B480000AFF860B9603B601346FB712CE0BB699D
:105B5800B3F1FF3F28D0BB69002B07D0FCF7D2FA7E
:105B680002463B68D31ABA699A421DD2FB681B6881
:105B7800DA68FB681B6822F4D072DA60FB681B687D
:105B88005A69FB681B6822F001025A61FB682022EF
:105B980083F83920FB68202283F83A20FB6800222A
:105BA80083F8382003230FE0FB681B681A68BB687A
:105BB8001340BA689A420CBF01230023DBB21A468D
:105BC800FB799A42C3D0002318461037BD4680BDE2
:105BD80080B483B000AF78607B681B68DA687B6844
:105BE8001B6822F0C002DA607B68202283F8392023
:105BF80000BF0C37BD4680BC704780B483B000AF8F
:105C080078607B681B68DA687B681B6822F490728E
:105C1800DA607B681B685A697B681B6822F001029E
:105C28005A617B68202283F83A2000BF0C37BD46B2
:105C380080BC704780B584B000AF78607B685B6AD1
:105C4800FB60FB680022DA85FB680022DA84F868CA
:105C5800FFF78BFE00BF1037BD4680BD80B485B00E
:105C680000AF78607B6893F83930DBB2212B44D1E0
:105C78007B689B68B3F5805F1AD17B681B6AFB6001
:105C8800FB681B881A467B681B68C2F308025A60C7
:105C98007B681B69002B05D17B681B6A9A1C7B6893
:105CA8001A620EE07B681B6A5A1C7B681A6208E05D
:105CB8007B681B6A591C7A6811621A787B681B68B2
:105CC8005A607B68DB8C9BB2013B9BB27A681946B1
:105CD800D184002B0FD17B681B68DA687B681B684E
:105CE80022F08002DA607B681B68DA687B681B68D0
:105CF80042F04002DA60002300E00223184614371D
:105D0800BD4680BC704780B582B000AF78607B68C4
:105D18001B68DA687B681B6822F04002DA607B68DF
:105D2800202283F839207868FFF704FE00231846FC
:105D38000837BD4680BD80B584B000AF78607B6809
:105D480093F83A30DBB2222B71D17B689B68B3F5AC
:105D5800805F23D17B689B6AFB607B681B69002B93
:105D68000ED17B681B685B689BB2C3F308039AB2C9
:105D7800FB681A807B689B6A9A1C7B689A6229E098
:105D88007B681B685B689BB2DBB29AB2FB681A80BF
:105D98007B689B6A5A1C7B689A621BE07B681B695C
:105DA800002B0AD17B681B6858687B689B6A591C62
:105DB8007A689162C2B21A700CE07B681B685B68F3
:105DC800DAB27B689B6A581C7968886202F07F02A5
:105DD800D2B21A707B68DB8D9BB2013B9BB27A68AA
:105DE8001946D185002B20D17B681B68DA687B684F
:105DF8001B6822F02002DA607B681B68DA687B681F
:105E08001B6822F48072DA607B681B685A697B68B9
:105E18001B6822F001025A617B68202283F83A202D
:105E2800786802F0DFF8002302E0002300E0022394
:105E380018461037BD4680BD80B584B000AF786085
:105E48007B681B681B6923F440517B68DA687B68B0
:105E58001B680A431A617B689A687B681B691A4346
:105E68007B685B691343FB607B681B68DB6823F412
:105E7800B05323F00C037A681268F9680B43D360B7
:105E88007B681B685B6923F440717B689A697B684F
:105E98001B680A435A617B681B68524A93424ED179
:105EA800FEF79AFCB860BA6813469B0013449A0040
:105EB8001A447B685B689B00B2FBF3F34A4AA2FB77
:105EC80003235B091901BA6813469B0013449A001F
:105ED8001A447B685B689B00B2FBF3F2424BA3FB5E
:105EE80002035B09642000FB03F3D31A1B0132335E
:105EF8003D4AA2FB03235B0903F0F0031944BA6887
:105F080013469B0013449A001A447B685B689B0005
:105F1800B2FBF3F2344BA3FB02035B09642000FBE2
:105F280003F3D31A1B0132332F4AA2FB03235B0965
:105F380003F00F027B681B680A449A604DE0FEF785
:105F480037FCB860BA6813469B0013449A001A4499
:105F58007B685B689B00B2FBF3F3234AA2FB032335
:105F68005B091901BA6813469B0013449A001A4446
:105F78007B685B689B00B2FBF3F21B4BA3FB02033D
:105F88005B09642000FB03F3D31A1B013233164A62
:105F9800A2FB03235B0903F0F0031944BA68134614
:105FA8009B0013449A001A447B685B689B00B2FB11
:105FB800F3F20D4BA3FB02035B09642000FB03F320
:105FC800D31A1B013233084AA2FB03235B0903F0EF
:105FD8000F027B681B680A449A6000BF1037BD46F1
:105FE80080BD00BF003801401F85EB5180B582B0ED
:105FF80000AF104B5B690F4A43F0010353610D4B2F
:106008005B6903F001037B607B68002200210E209E
:10601800FCF77DF90E20FCF796F9002200210F20ED
:10602800FCF775F90F20FCF78EF900BF0837BD465D
:1060380080BD00BF0010024080B58AB000AF07F1F4
:10604800180300221A605A609A60DA605E4B9B69F6
:106058005D4A43F0400393615B4B9B6903F0400347
:106068007B617B69584B9B69574A43F010039361E6
:10607800554B9B6903F010033B613B69524B9B698D
:10608800514A43F0040393614F4B9B6903F00403A7
:10609800FB60FB684C4B9B694B4A43F008039361D8
:1060A800494B9B6903F00803BB60BB68464B9B697F
:1060B800454A43F020039361434B9B6903F0200357
:1060C8007B607B6800224FF4AF514048FCF76CFFBF
:1060D80000223C213E48FCF767FF002220213D4872
:1060E800FCF762FF00224FF43C413B48FCF75CFFA1
:1060F800002208213948FCF757FF4FF4AF53BB6122
:106108000123FB6100233B6202237B6207F1180332
:1061180019462E48FCF7B4FD3C23BB610123FB6103
:1061280000233B6202237B6207F1180319462848C3
:10613800FCF7A6FD2023BB610123FB6100233B6222
:1061480002237B6207F1180319462248FCF798FDE1
:106158004FF40043BB610023FB6100233B6207F15E
:10616800180319461948FCF78BFD4FF43C43BB61F3
:106178000123FB6100233B6202237B6207F11803C2
:1061880019461548FCF77CFD4FF48073BB6100236A
:10619800FB6100233B6207F1180319460F48FCF71F
:1061A8006FFD0823BB610123FB6100233B620223CF
:1061B8007B6207F1180319460848FCF761FD00BF28
:1061C8002837BD4680BD00BF0010024000180140BE
:1061D8000008014000100140000C0140001401407B
:1061E80080B500AF124B134A1A60114B124A5A601D
:1061F8000F4B00229A600E4B0022DA600C4B4FF4D2
:1062080080421A610A4B00225A61094B00229A61A6
:10621800074B0022DA61064B00221A620448FCF799
:10622800F3FE0346002B01D002F093F800BF80BDB7
:10623800A000002000540040A086010080B58AB06C
:1062480000AF786007F1140300221A605A609A6060
:10625800DA607B681B681D4A934232D11C4B9B69EC
:106268001B4A43F008039361194B9B6903F0080329
:106278003B613B694FF440737B611223BB6103238D
:106288003B6207F1140319461248FCF7F9FC124B5C
:106298005B687B627B6A43F0E0637B627B6A43F006
:1062A80002037B620C4A7B6A5360094BDB69084A2C
:1062B80043F40013D361064BDB6903F40013FB605E
:1062C800FB6800BF2837BD4680BD00BF00540040B2
:1062D80000100240000C01400000014090B58BB056
:1062E80004AF7860082003F0E4FA03461C46002255
:1062F8004549204600F0A6FC7B681C601C2003F082
:10630800D8FA03461C4601230393082302933F4B04
:1063180001934FF4805300933D4B20223D49204682
:1063280000F0B5FA7C610C2003F0C3FA03461C4662
:106338004FF0FF333C223849204600F064FA3C61B4
:106348001C2003F0B6FA03461C463A6979692046D0
:1063580000F018FD7B685C601C2003F0AAFA034675
:106368001C46012303930C230293284B01934FF4FB
:1063780000430093294B4FF400622849204600F05F
:1063880086FAFC600C2003F094FA03461C460123AD
:106398003C222349204600F036FABC601C2003F05A
:1063A80088FA03461C46BA68F968204600F0EAFCF9
:1063B8007B689C607B6822E0204602F017FF02F0B1
:1063C80019FF204602F012FF02F014FF204602F0E7
:1063D8000DFF02F00FFF204602F008FF02F00AFF4F
:1063E800204602F003FF02F005FF204602F0FEFE01
:1063F80002F000FF204602F0F9FE02F0FBFE18460C
:106408001C37BD4690BD00BF6C060020EC0700207D
:1064180000180140001001402C070020000C01402A
:106428006C07002080B582B000AF78607B685B683D
:10643800184600F0D5FC7B689B68184600F0D0FC35
:106448007B681B68184600F019FC7B685B680B4981
:10645800184600F061FD7B689B680849184600F003
:106468005BFD7B6819684FF000024FF00003084697
:1064780000F01EFC00BF0837BD4680BD17B7D138F5
:10648800B0B592B000AFF860B9607A603B608A49F5
:106498003868FAF7A1FC03464FF07C511846FAF722
:1064A8009BFC0346FB634FF00001B868FAF78CFBCE
:1064B8000346F96B1846FAF785FB0346BB63F96B8D
:1064C800B868FAF781FB03467B63FB685B68B96BC6
:1064D800184600F021FDFB689B68796B184600F0B0
:1064E8001BFD4FF000013868FAF70AFE0346002B3F
:1064F80009D14FF00001B868FAF702FE0346002BF5
:1065080001D06E4BBB604FF000024FF00003C7E9AB
:1065180010234FF000013868FAF7F2FD0346002B0C
:1065280006D04FF000024FF00003C7E910231AE02D
:106538003968B868FAF704FD03461846F9F7D4FF36
:1065480002460B46C7E90A23D7E90A2356A1D1E92F
:106558000001FAF74BF902460B461046194603F0BC
:106568005BFBC7E91001564B7B627B6A83F00043F3
:106578001846F9F7B9FF02460B46D7E91001FAF7B2
:106588007DFA0346002B09D07B6A83F00043184646
:10659800F9F7AAFF02460B46C7E91023786AF9F70C
:1065A800A3FF02460B46D7E91001FAF785FA03461E
:1065B800002B06D0786AF9F797FF02460B46C7E921
:1065C8001023B868F9F790FF04460D46D7E9100183
:1065D80003F0D0FC36A3D3E90023F9F7DDFF024628
:1065E8000B461046194630A3D3E90023FAF7FEF804
:1065F80002460B46104619464FF000024FF0804302
:10660800FAF7F4F802460B464FF000002D49F9F767
:106618000BFE02460B4620462946F9F7BDFF024607
:106628000B46C7E90623B868F9F75EFF04460D462E
:10663800D7E9100103F09EFC1DA3D3E90023F9F765
:10664800ABFF02460B461046194617A3D3E90023B1
:10665800FAF7CCF802460B46104619464FF00002EE
:106668004FF08043FAF7C2F802460B461046194627
:106678004FF00002134BF9F7D9FD02460B462046AE
:106688002946F9F789FF02460B46C7E90423FB6848
:106698001968D7E91023084600F00AFB00BF4837FD
:1066A800BD46B0BDAFF30080000000E0F97EC23FF8
:1066B800000000400AD7C33F52B81E3E0AD7233C09
:1066C800CDCC0C3F0000F03F80B582B000AF7860C1
:1066D8007B685B68184600F097FB7B689B681846E8
:1066E80000F092FB00BF0837BD4680BD80B584B07E
:1066F80000AFF860B9607A603B60FB685B689868D7
:106708003B687A68B96800F025FAFB689B68986866
:106718003B687A68B96800F01DFA00BF1037BD46BB
:1067280080BD80B584B000AF78607B685B681B690A
:10673800FB607B689B681B69BB60B968F868FAF7FF
:1067480043FA03464FF080411846FAF7F9FB03462F
:1067580018461037BD4680BD80B586B000AF78605A
:106768007B685B681B697B617B689B681B693B6115
:1067780079693869FAF726FA03464FF080411846D6
:10678800FAF7DEFB03461846F9F7AEFE08A3D3E98D
:106798000023FAF72BF802460B4610461946FAF77B
:1067A800BDF90346FB60FB6818461837BD4680BD37
:1067B800000000400AD7B33F90B583B000AF7860BF
:1067C8007B681C68002C05D0204600F04DFA204656
:1067D80002F00CFD7B685C68002C05D0204600F0B8
:1067E800B5FB204602F002FD7B689C68002C05D0B2
:1067F800204600F0ABFB204602F0F8FC7B68184608
:106808000C37BD4690BD80B485B000AFF860B96064
:106818003B601346FB80FB68BA681A60FB68FA881D
:106828009A80FB683A689A60FB6818461437BD4638
:1068380080BC704780B582B000AF78607B681A680A
:106848007B689B8819461046FEF71AF900BF08377F
:10685800BD4680BD80B485B000AF78607B681B689A
:106868001B685B6AFB817B689B689BB2FA8902FBA9
:1068780003F39BB2FB817B681B681B6800225A628A
:10688800B7F90E3018461437BD4680BC704780B43F
:1068980085B000AFF860B9603B601346FB80FB68C9
:1068A800BA681A60FB68FA889A80FB683A689A6046
:1068B800FB683A8B9A81FB68FA691A61FB683A8C23
:1068C8009A82FB687A6A9A61FB6818461437BD4653
:1068D80080BC704780B582B000AF78607B6818686C
:1068E8007B689B8800221946FCF75EFB7B689868EA
:1068F8007B689B8900221946FCF756FB7B681A695E
:106908007B689B8A19461046FDF7EEFF7B689B8AD9
:10691800002B05D17B681B691B6800225A6318E0AD
:106928007B689B8A042B05D17B681B691B68002246
:106938009A630EE07B689B8A082B05D17B681B69EC
:106948001B680022DA6304E07B681B691B6800226D
:106958001A6400BF0837BD4680BD000080B582B00C
:1069680000AF786039603B68B3F5E15F03DD4FF451
:10697800E1533B6005E03B6813F5E15F01DA3B4B0F
:106988003B607B689A693B6802FB03F33B603B68AA
:10699800002B10DD7B6818687B689B8801221946EC
:1069A800FCF702FB7B6898687B689B890022194684
:1069B800FCF7FAFA23E03B68002B10DA7B681868CA
:1069C8007B689B8800221946FCF7EEFA7B6898687A
:1069D8007B689B8901221946FCF7E6FA0FE07B6881
:1069E80018687B689B8800221946FCF7DDFA7B68EB
:1069F80098687B689B8900221946FCF7D5FA7B6862
:106A08009B8A002B09D13B6883EAE372A2EBE3720D
:106A18007B681B691B685A6324E07B689B8A042B8C
:106A280009D13B6883EAE372A2EBE3727B681B69D6
:106A38001B689A6316E07B689B8A082B09D13B6820
:106A480083EAE372A2EBE3727B681B691B68DA6373
:106A580008E03B6883EAE372A2EBE3727B681B6998
:106A68001B681A6400BF0837BD4680BDE0E3FFFF1E
:106A780080B485B000AFF860B9607A603B60FB68AD
:106A88004FF00002DA60FB68BA681A60FB687A683F
:106A98005A60FB683A689A60FB6818461437BD4626
:106AA80080BC7047B0B586B000AFF860B9607A6056
:106AB8007968B868FAF786F803467B61FB685B6912
:106AC80079691846FAF780F803461A46FB685A614E
:106AD800FB681B6919467869FAF774F803461A4681
:106AE800FB689A61FB68DC68FB681B687969184673
:106AF800FAF772F903461D46FB685A68FB685B693A
:106B080019461046FAF768F9034619462846FAF76F
:106B18005BF803461D46FB689A68FB689B69194643
:106B28001046FAF759F9034619462846FAF74CF879
:106B3800034619462046FAF747F803461A46FB6803
:106B4800DA60FB687A691A61FB68DB6818461837EF
:106B5800BD46B0BD80B485B000AFF860B9607A605A
:106B68003B60FB68BA681A60FB687A685A60FB6821
:106B78003A689A6000BF1437BD4680BC704780B43D
:106B880083B000AF78607B684FF000025A617B6881
:106B98004FF000029A617B684FF000021A6100BF53
:106BA8000C37BD4680BC7047B0B485B000AFF86004
:106BB800B9603B601346FB80FB68BA681A60FB68E3
:106BC800FA889A80FB683A689A60FB683A8C9A81DE
:106BD800FB687A6A1A61FB683A8D9A82FB68FA6ADE
:106BE8009A61FB683A8E9A83FB687A6B1A62FB6833
:106BF800243300221A605A601A72FB680B4A03F1A8
:106C08002E0415460FCD20606160A260E3600FCDB1
:106C180020616161A261E361FB68002283F853206F
:106C2800FB6818461437BD46B0BC704728BD00083D
:106C380080B483B000AF78607B6818460C37BD46D7
:106C480080BC704780B485B000AFF860B9607A60E6
:106C5800FB68BA681A60FB687A685A60FB6818466D
:106C68001437BD4680BC704780B483B000AF7860ED
:106C78007B6818460C37BD4680BC704780B582B02B
:106C880000AF78607B681A687B685B6819461046B5
:106C9800FDF72AFE4FF000024FF00003786800F07D
:106CA80007F800BF0837BD4680BD0000000000009F
:106CB80080B586B000AFF860C7E900230EA3D3E91A
:106CC8000023D7E90001F9F767FC02460B460CA13F
:106CD800D1E90001F9F7A8FA02460B461046194611
:106CE800F9F7F4FE03467B617969F86800F00CF85F
:106CF80000BF1837BD4680BD00000060667683403F
:106D0800000000000070974080B483B000AF786046
:106D180039607B685B68002B09D13B6883EAE372C2
:106D2800A2EBE3727B681B681B685A6324E07B68EC
:106D38005B68042B09D13B6883EAE372A2EBE37238
:106D48007B681B681B689A6316E07B685B68082B86
:106D580009D13B6883EAE372A2EBE3727B681B68A4
:106D68001B68DA6308E03B6883EAE372A2EBE3722C
:106D78007B681B681B681A6400BF0C37BD4680BC63
:106D88007047000090B585B000AFF860B9607A60D0
:106D9800FB68BA681A60FB687A685A601C2002F0BF
:106DA80088FD03461C460B4B0B4A0C492046FFF74F
:106DB8005FFEFB689C60FB684FF000025A61FB684D
:106DC80004E0204602F012FA02F014FA18461437CA
:106DD800BD4690BD00001643CDCCCC3D0000FA4323
:106DE80080B582B000AF78607B685B681846FFF7B3
:106DF80021FD7B681B681846FFF76CFD00BF08374C
:106E0800BD4680BD00000000B0B586B000AF786018
:106E1800FBF778F902467B68DB68D31A0A2B8CBF2C
:106E280001230023DBB2002B63D0FBF76BF902468A
:106E38007B68DA607B685B681846FFF70BFD0346E2
:106E4800FB82FBF75FF903463B617B689B693A6904
:106E5800D31AFB60B7F916301846F9F733FB4FF031
:106E680000022B4BF9F7C2FC02460B4610461946A6
:106E780023A3D3E90023F9F78FFB02460B461046FC
:106E8800194621A3D3E90023F9F786FB02460B46EE
:106E980014461D46F868F9F705FB4FF000021D4B34
:106EA800F9F7A4FC02460B4620462946F9F79EFC52
:106EB80002460B4610461946F9F730FE02467B6833
:106EC8001A617B683A699A617B6898687B68596936
:106ED8007B681B691A46FFF7E5FD0346BB607B68C4
:106EE8001C68B868FAF73EF9034619462046FFF7CA
:106EF80035FD00BF1837BD46B0BD00BFAFF30080F9
:106F08004AD8124DFB210940000000E04D62B03F15
:106F18000060984000408F4080B582B000AF786034
:106F280039607B685B6919463868FAF7E9F80346FF
:106F3800002B04D17B689B681846FFF720FE7B680E
:106F48003A685A6100BF0837BD4680BD80B582B037
:106F580000AF78607B681B68002B02D0184602F0EF
:106F680045F97B685B68002B02D0184602F03EF9B1
:106F78007B689B68002B02D0184602F037F97B68C3
:106F880018460837BD4680BD80B500AFFF220B49C3
:106F98000B48FEF7F9FA0A4B1B68DA68084B1B68BE
:106FA80042F01002DA60064B1B685A69044B1B68F2
:106FB80042F001025A6100BF80BD00BFF40000200A
:106FC8002C08002080B584B000AF78607B681B680F
:106FD800234A934240D17B681B681B6803F0100367
:106FE800102B0CBF01230023DBB2002B14BF01239D
:106FF8000023DBB2002B2FD01A4B1B685B68C3F150
:10700800FF03FB600023BB607B681B681B68BB60D9
:107018007B681B685B68BB60BB687868FEF734FBFD
:10702800FF2211497868FEF7AFFA0346002B14BF18
:1070380001230023DBB2002B08D07B68202283F8D1
:107048003A207B68002283F83820E9E7FB689BB286
:107058001946054800F06CFE00BF1037BD4680BDDC
:1070680000380140AC080020F400002080B584B04E
:1070780000AF78600B467B801848FEF77FFC03461C
:10708800232B0CBF01230023DBB2002B00D0F3E736
:107098007B88184602F01EFC0346FB607B881A4674
:1070A8007968F86804F00CF97B881A4679680B4807
:1070B800FEF7FEF90346002B14BF01230023DBB2C1
:1070C800002B00D0F0E7FB68002B02D0F86802F034
:1070D8008FF800BF1037BD4680BD00BF2C080020C8
:1070E80080B582B000AF0023FB7180226B2168203D
:1070F80000F0DEF96420FBF70FF800226B2168200E
:1071080000F0D6F96420FBF707F8012000F048F8F2
:10711800002000F057F8322000F098F800223821BB
:10712800682000F0C5F900226A21682000F0C0F943
:1071380000222321682000F0BBF982223721682031
:1071480000F0B6F97521682000F0D4F90346FB7108
:10715800FB79712B16D101226B21682000F0A8F968
:1071680000226C21682000F0A3F9322000F06EF8AC
:1071780000210C2000F0BEF90346FB71FB79482B77
:1071880009D101E0012307E011220A210C2000F0B7
:107198008FF9002300E0012318460837BD4680BD5B
:1071A80080B582B000AF0346FB71FB79DB00DBB230
:1071B8001A461B21682000F07BF903461846083759
:1071C800BD4680BD80B582B000AF0346FB71FB7938
:1071D800DB00DBB21A461C21682000F069F903467F
:1071E80018460837BD4680BD80B584B000AF034659
:1071F800FB800023FB73FB88BB2B02D90123FB73A5
:1072080019E0FB88612B02D90223FB7313E0FB888A
:10721800292B02D90323FB730DE0FB88132B02D91A
:107228000423FB7307E0FB88092B02D90523FB73B2
:1072380001E00623FB73FB7B1A461A21682000F045
:1072480037F9034618461037BD4680BD80B584B06F
:1072580000AF0346FB80FB88B3F57A7F02D94FF471
:107268007A73FB80FB88032B01D80423FB80FB88FF
:107278004FF47A7292FBF3F3DBB2013BFB73FB7BB7
:107288001A461921682000F013F90346FB73FB889E
:107298005B089BB21846FFF7A7FF0346184610374E
:1072A800BD4680BD0000000080B584B000AF3B1D26
:1072B80002224121682000F0D7F83B791B021AB25C
:1072C8007B791BB21343FB81B7F90E301846F9F7E7
:1072D800F9F813A3D3E90023F9F788FA02460B4615
:1072E800104619464FF000020F4BF8F79FFF024671
:1072F8000B4610461946F9F711FC0346BB600B49CB
:10730800B868F9F769FD03461846F9F72BFF0346F5
:107318001BB218461037BD4680BD00BFAFF30080D2
:1073280052B81E85EBDD7440000035400000C842AD
:1073380080B586B000AFF860B9607A6007F11003D5
:1073480006224321682000F08FF80346FB75FB7D79
:10735800002B1AD1BB7C1B021AB2FB7C1BB2134355
:107368001AB2FB681A803B7C1B021AB27B7C1BB2E8
:1073780013431AB2BB681A803B7D1B021AB27B7D8D
:107388001BB213431AB27B681A80FB7D1846183764
:10739800BD4680BD80B586B000AFF860B9607A6040
:1073A80007F1100306223B21682000F05DF8034630
:1073B800FB75FB7D002B1AD13B7C1B021AB27B7C30
:1073C8001BB213431AB2FB681A80BB7C1B021AB2A9
:1073D800FB7C1BB213431AB2BB681A803B7D1B02AD
:1073E8001AB27B7D1BB213431AB27B681A80FB7DED
:1073F80018461837BD4680BD80B586B000AFF86026
:10740800B9607A6007F11003062203210C2000F00E
:107418002BF80346FB75FB7D002B1AD17B7C1B02E6
:107428001AB23B7C1BB213431AB2FB681A80FB7C6E
:107438001B021AB2BB7C1BB213431AB2BB681A8078
:107448007B7D1B021AB23B7D1BB213431AB27B68C9
:107458001A8011220A210C2000F02AF8FB7D184618
:107468001837BD4680BD000080B586B004AF3B60CC
:107478000346FB710B46BB7113467B71FB799BB2CC
:107488005B0099B2BB799AB27B799BB24FF4967044
:10749800029001933B68009301230448FBF7F2FF35
:1074A800002318460837BD4680BD00BFA000002055
:1074B80080B586B004AF0346FB710B46BB7113461B
:1074C8007B71FB799BB25B0099B2BB799AB24FF49E
:1074D80096730293012301937B1D009301230448B3
:1074E800FBF7D6FE002318460837BD4680BD00BF0F
:1074F800A000002080B588B004AF03460A46FB719F
:107508001346BB71FB799BB25B0099B2BB799AB207
:107518004FF4967302930123019307F10F0300932D
:1075280001230448FBF7AEFFFB7B18461037BD4626
:1075380080BD00BFA000002080B582B000AF00234E
:10754800FB7126E0FB79503BDBB20021184600F0C6
:107558002BF80021002000F027F80021102000F06F
:1075680023F80023BB710DE0BA79FB790D49D200ED
:107578000A4413441B780121184600F015F8BB791A
:107588000133BB7197F90630002BEDDAFB79013333
:10759800FB71FB79072BD5D900BF00BF0837BD4663
:1075A80080BD00BFF401002080B584B000AF034661
:1075B8000A46FB711346BB71BB79002B06D001222A
:1075C8004FF480711C48FBF7EFFC05E000224FF4F4
:1075D80080711948FBF7E8FC0023FB731EE00022CA
:1075E80020211548FBF7E0FC97F90730002B05DA56
:1075F800012240211048FBF7D7FC04E0002240217B
:107608000D48FBF7D1FC012220210B48FBF7CCFCED
:10761800FB795B00FB71FB7B0133FB73FB7B072B67
:10762800DDD901224FF480710348FBF7BDFC00BF90
:107638001037BD4680BD00BF0018014080B582B03C
:1076480000AF0023FB7114E00023BB710AE0BA7994
:10765800FB790C49D2000A44134400221A70BB7902
:107668000133BB7197F90630002BF0DAFB7901334F
:10767800FB71FB79072BE7D9FFF75EFF00BF0837DF
:10768800BD4680BDF401002080B485B000AF03463C
:10769800FB710B46BB7113467B710023FB7397F993
:1076A8000730002B41DBBB793F2B3ED8BB79DB0889
:1076B800DBB2C3F10703BB73BB7903F007037B732A
:1076C8007B7BC3F10703012202FA03F3FB737B7987
:1076D800002B12D0FA79BB7B1649D2000A44134416
:1076E8001878FA79BB7BF97B0143C8B21149D200FB
:1076F8000A44134402461A7018E0FA79BB7B0D4914
:10770800D2000A4413441B785AB297F90F30DB436E
:107718005BB2134059B2FA79BB7BC8B20549D200B3
:107728000A44134402461A7000E000BF1437BD46ED
:1077380080BC7047F401002090B585B000AF0446C6
:10774800084611461A462346FB710346BB710B4691
:107758007B7113463B71BB793B737B79203B7B7113
:107768000023BB734DE03B790C2B0BD17A79B97BA5
:10777800284813465B0013449B0003440B441B78C2
:10778800FB7307E07A79BB7B234912010A4413444F
:107798001B78FB7300237B732DE097F90F30002BC8
:1077A80007DA97F82020B979FB791846FFF76CFFBC
:1077B8000CE097F82030002B0CBF01230023DBB22C
:1077C8001A46B979FB791846FFF75EFFFB7B5B0029
:1077D800FB73BB790133BB71BA793B7BD21A3B7916
:1077E8009A4205D13B7BBB71FB790133FB7105E004
:1077F8007B7B01337B737B7B072BCED9BB7B013330
:10780800BB73BA7B3B799A42ADD300BF00BF143734
:10781800BD4690BDB0BD000824C2000880B485B044
:1078280000AF03460A46FB711346BB710123FB6098
:1078380004E0FA79FB6802FB03F3FB60BB795A1E8C
:10784800BA71002BF5D1FB6818461437BD4680BCC9
:107858007047000090B587B002AF3A601A460346F9
:10786800FB710B46BB7113467B710023BB7300236E
:10787800FB7351E07A79FB7BD31ADBB2013BDBB2B5
:1078880019460A20FFF7CAFF02463B68B3FBF2F12C
:10789800264BA3FB0123DA0813469B0013445B0025
:1078A800CA1A13467B73BB7B002B1DD1FA7B7B79ED
:1078B800013B9A4218DA7B7B002B13D197F82030D2
:1078C8005B08DBB2FA7B02FB03F3DAB2FB79134401
:1078D800D8B297F82030B979012200922022FFF718
:1078E8002BFF16E00123BB7397F820305B08DBB24F
:1078F800FA7B02FB03F3DAB2FB791344D8B27B7B41
:107908003033DAB297F82030B97901240094FFF7C0
:1079180013FFFB7B0133FB73FA7B7B799A42A9D374
:1079280000BF00BF1437BD4690BD00BFCDCCCCCC46
:1079380080B584B002AF03463A60FB710B46BB7159
:107948001FE0FB797A2B04D90023FB71BB79103334
:10795800BB71BB793A2B05D90023FB71FB79BB714D
:10796800FFF76CFE3B681A78B979F8790123009320
:107978000C23FFF7E1FEFB790833FB713B68013309
:107988003B603B681B78002BDBD100BF00BF08378A
:10799800BD4680BD80B500AF002280213948FBF785
:1079A80003FB6420FAF7B8FB012280213548FBF776
:1079B800FBFA0021AE20FFF7F7FD0021D520FFF7E5
:1079C800F3FD00215020FFF7EFFD0021A820FFF76D
:1079D800EBFD00213F20FFF7E7FD0021D320FFF753
:1079E800E3FD00210020FFF7DFFD00214020FFF725
:1079F800DBFD00218D20FFF7D7FD00211420FFF7C4
:107A0800D3FD00212020FFF7CFFD00210220FFF742
:107A1800CBFD0021A120FFF7C7FD0021C020FFF703
:107A2800C3FD0021DA20FFF7BFFD00211220FFF778
:107A3800BBFD00218120FFF7B7FD0021EF20FFF7F4
:107A4800B3FD0021D920FFF7AFFD0021F120FFF79A
:107A5800ABFD0021DB20FFF7A7FD00213020FFF759
:107A6800A3FD0021A420FFF79FFD0021A620FFF71A
:107A78009BFD0021AF20FFF797FDFFF7DFFD00BF5B
:107A880080BD00BF0018014080B500AF094803F071
:107A980041FDFFF779FAFFF723FBFFF77BFF064865
:107AA800FEF7C0FC012205490548FDF7ACFC00BF04
:107AB80080BD00BF6CBD00084C06002058060020A1
:107AC8006C08002080B500AF0448FEF7FDFD00F00B
:107AD8007FF800F005F800BF80BD00BF4C0600200D
:107AE80090B58DB002AF314A07F1200392E8030048
:107AF80018600433198007F120031A46002100207A
:107B0800FFF716FF2A4A07F1140307CA03C31A80AE
:107B18000233120C1A7007F114031A460C210020C4
:107B2800FFF706FF234B3C1D0FCB07C4238002340D
:107B38001B0C23703B1D1A4618210020FFF7F8FE86
:107B48001D4A30210020FFF7F3FE1C4BB3F900302B
:107B58001A460C230093032330210C20FFF77AFEEA
:107B6800174A30212420FFF7E3FE164BB3F9003003
:107B78001A460C230093032330213020FFF76AFEB6
:107B8800114A30214820FFF7D3FE104BB3F90030DB
:107B98001A460C230093032330215420FFF75AFE82
:107BA800FFF7CAFC00BF2C37BD4690BD8CBD00084E
:107BB80094BD0008A0BD000880BD00080A00002090
:107BC80084BD00080C00002088BD00080E000020BD
:107BD80080B588B000AFFAF795FA0246514B1B689A
:107BE800D31A202B94BF01230023DBB2002B40F0D3
:107BF8009580FAF787FA03464A4A1360FFF754FB61
:107C08000346FB830023FB8107F10E0207F11001F5
:107C180007F112031846FFF7BDFB00233B8107F16C
:107C2800080207F10A0107F10C031846FFF780FB69
:107C380000237B80BA1C391DBB1D1846FFF7DCFBEF
:107C48003948FEF76EFD034638491846F9F7C4F877
:107C580003461846F9F786FA0346BB833248FEF70F
:107C68007BFD034631491846F9F7B6F8034618462E
:107C7800F9F778FA03467B831D237B761D2001F0F4
:107C880018FE03467B617B69CE221A707B69FA2253
:107C98005A707B6903229A707B7E043BDAB27B6957
:107CA800DA707B69FA8B9A80B7F912207B69DA80DF
:107CB800B7F910207B691A81B7F90E207B695A81C0
:107CC800B7F90C207B699A81B7F90A207B69DA81B8
:107CD800B7F908207B691A82B7F906207B695A82AE
:107CE800B7F904207B699A82B7F902207B69DA82A6
:107CF8007B69BA8B1A837B697A8B5A837B69AD223D
:107D08001A777B7E9BB219467869FFF7AFF97B69D2
:107D1800002B04D0184601F069FA00E000BF2037B4
:107D2800BD4680BD640600204C06002000007A4451
:107D380080B58EB000AF78600B467B80002387F853
:107D4800373097F837207B889A4280F2398197F844
:107D580037307A6813441B78CE2B40F02B8197F884
:107D6800373001337A6813441B78FA2B40F02281AC
:107D780097F8373002337A6813441B7887F836301F
:107D880097F83630052B67D197F8373003337A6880
:107D980013441B78FB76FA7E798897F83730CB1A2C
:107DA800033B9A4280F2068197F8373004337A68A9
:107DB80013441B78BB7697F8373005337A68134439
:107DC8001B787B767B7E1B021AB2BB7E1BB21343E9
:107DD800FB82B7F916301846F8F7AAFF03467A4926
:107DE8001846F9F7ADF803463B6197F83730063384
:107DF8007A6813441B78FB7397F8373007337A682F
:107E080013441B78BB73BB7B1B021AB2FB7B1BB2F0
:107E18001343BB81B7F90C301846F8F789FF0346BE
:107E280069491846F9F78CF80346BB604FF480613E
:107E38006648FBF7D1F897F8373008337A68134467
:107E48001B78AD2B40F0B680BB684FF00002396953
:107E58005F48FEF715FBADE097F83630062B40F08B
:107E6800A98097F8373003337A6813441B7887F86A
:107E7800353097F83520798897F83730CB1A033B97
:107E88009A4280F2978097F8373004337A6813441F
:107E98001B7887F8343097F8373005337A681344FD
:107EA8001B7887F8333097F833301B021AB297F8EB
:107EB80034301BB213433B86B7F930301846F8F715
:107EC80037FF034643491846F9F73AF80346FB6279
:107ED80097F8373006337A6813441B7887F82B30C5
:107EE80097F8373007337A6813441B7887F82A30B5
:107EF80097F82A301B021AB297F82B301BB213439B
:107F08003B85B7F928301846F8F712FF0346314980
:107F18001846F9F715F803467B6297F837300833A7
:107F28007A6813441B7887F8233097F83730093379
:107F38007A6813441B7887F8223097F822301B029E
:107F48001AB297F823301BB213433B844FF4806175
:107F58001E48FBF741F8B7F920301846F8F7E8FE55
:107F680003461C491846F8F7EBFF0346FB6197F8F0
:107F780037300A337A6813441B78AD2B1AD1FB6962
:107F88007A6AF96A1248FEF7B1FBF86AF9F7EAF873
:107F980003461AB2104B1A80786AF9F7E3F80346D9
:107FA8001AB20E4B1A80F869F9F7DCF803461AB2D0
:107FB8000B4B1A8097F83730013387F83730C0E613
:107FC80000BF3837BD4680BD00007A440018014024
:107FD8004C0600200000C8420A0000200C000020C7
:107FE8000E00002080B584B000AF78607B681B6805
:107FF8004E4A934240F095804FF480614C48FAF71E
:10800800EBFF4C4B1B78FB73FB7B413B0A2B79D86E
:1080180001A252F823F000BFA9800008B980000827
:10802800CB800008DB800008EB800008FD8000089A
:108038004D8000085F800008718000088580000876
:10804800978000084FF000034FF000023A493B4880
:10805800FEF716FA60E03A4B4FF000024FF00001CD
:108068003648FEF70DFA57E04FF000034FF00002D4
:108078004FF000013148FEF703FA4DE0314B4FF065
:1080880000024FF000012D48FEF7FAF944E04FF0E6
:1080980000034FF000022C492848FEF7F1F93BE0B5
:1080A8004FF00003244A24492448FEF7E9F933E055
:1080B8004FF00003204A4FF000012048FEF7E0F996
:1080C8002AE04FF00003204A1B491C48FEF7D8F964
:1080D80022E04FF00003184A1B491848FEF7D0F970
:1080E8001AE04FF00003184A4FF000011348FEF75A
:1080F800C7F911E04FF00003134A13490F48FEF780
:10810800BFF909E04FF000034FF000024FF0000103
:108118000A48FEF7B5F900BF012206490B48FDF7EA
:1081280072F900BF1037BD4680BD00BF0044004053
:108138000018014058060020CDCC4C3E4C060020CB
:10814800CDCC4C3FCDCC4CBFCDCC4CBE6C08002028
:1081580080B588B006AF786039607B68012B26D17E
:108168003B684FF6FF72934221D1134B05934FF4AE
:1081780080530493114B03934FF4005302930F4B16
:108188000193082300930E4B4FF400420D490E480B
:10819800FEF70AFD0D4A0E490B4801F022F80D487A
:1081A800FEF79CF8094A0C490A4801F01AF800BF82
:1081B8000837BD4680BD00BFAC070020000C014059
:1081C8000014014000180140F405002000000020C0
:1081D800396C00084C060020C167000880B500AF64
:1081E8004FF6FF710120FFF7B3FF80BD80B582B065
:1081F80000AF7860391D4FF6FF7301220348FDF781
:1082080069F87B6818460837BD4680BD2C080020F1
:1082180080B500AFF9F71EFF00F056F8FDF70CFF28
:10822800FDF7E4FE00F068FE00F014FC00F008FA28
:1082380000F08AFA00F0D8FB00F088FEFDF7D0FFC6
:1082480000F0D6FA00F028FB00F07AFB00224FF489
:1082580080611948FAF7A8FE002208211748FAF7A2
:10826800A3FE002204211548FAF79EFE00221021E1
:108278001248FAF799FE002220211048FAF794FED6
:10828800002220210E48FAF78FFE00224FF4805179
:108298000948FAF789FE00224FF400610948FAF705
:1082A80083FE00224FF400410648FAF77DFEFFF7EF
:1082B800EBFBFFF707FCFCE7001801400008014052
:1082C80000100140000C014080B590B000AF07F1EC
:1082D800180328220021184603F000F83B1D00224D
:1082E8001A605A609A60DA601A610123BB614FF420
:1082F8008033FB6100233B620123BB6202237B6363
:108308004FF48033BB634FF4E013FB6307F11803AA
:108318001846FBF779FE0346002B01D000F019F848
:108328000F237B600223BB600023FB604FF4806354
:108338003B6100237B613B1D02211846FCF7E4F8F2
:108348000346002B01D000F004F800BF4037BD46BB
:1083580080BD80B400AF00BFBD4680BC7047000040
:1083680080B485B000AF154B9B69144A43F00103F4
:108378009361124B9B6903F00103BB60BB680F4B11
:10838800DB690E4A43F08053D3610C4BDB6903F081
:1083980080537B607B680A4B5B68FB60FB6823F05B
:1083A800E063FB60FB6843F00073FB60044AFB6812
:1083B800536000BF1437BD4680BC704700100240B0
:1083C8000000014080B400AF00BFBD4680BC7047CC
:1083D80080B400AFFEE780B400AFFEE780B400AF22
:1083E800FEE780B400AFFEE780B400AF00BFBD4633
:1083F80080BC704780B400AF00BFBD4680BC7047EA
:1084080080B400AF00BFBD4680BC704780B500AFE8
:10841800F9F766FE00BF80BD80B500AF0248FAF7E5
:10842800C5F900BF80BD00BFF008002080B500AFCF
:108438000248FAF7BBF900BF80BD00BFAC080020B6
:1084480080B500AF0348FDF77BF90248FEF7BAFD97
:1084580000BF80BD2C08002080B500AF0248FDF7A2
:108468006FF900BF80BD00BF6C08002080B400AF6A
:1084780001231846BD4680BC704780B582B000AF66
:108488007860396002F0E2FE034616221A604FF067
:10849800FF3318460837BD4680BD80B582B000AFAF
:1084A80078604FF0FF317868FFF7E7FFFEE780B5A7
:1084B80086B000AFF860B9607A6000237B610AE09B
:1084C800AFF300800146BB685A1CBA60CAB21A7082
:1084D8007B6901337B617A697B689A42F0DB7B6850
:1084E80018461837BD4680BD80B586B000AFF86025
:1084F800B9607A6000237B6109E0BB685A1CBA60E6
:108508001B781846FFF772FE7B6901337B617A6935
:108518007B689A42F1DB7B6818461837BD4680BDF8
:1085280080B584B000AF7860114B1B68002B02D176
:108538000F4B104A1A600E4B1B68FB600C4B1A68F5
:108548007B6813446A46934207D902F07FFE0346CC
:108558000C221A604FF0FF3306E0054B1A687B685F
:108568001344034A1360FB6818461037BD4680BDA4
:10857800680600206009002080B483B000AF7860EE
:108588004FF0FF3318460C37BD4680BC704780B4A7
:1085980083B000AF786039603B684FF400525A608E
:1085A800002318460C37BD4680BC704780B483B0A2
:1085B80000AF7860012318460C37BD4680BC704771
:1085C80080B485B000AFF860B9607A6000231846BF
:1085D8001437BD4680BC704780B400AF154B1B688C
:1085E800144A43F001031360124B5A681149124BA5
:1085F80013404B600F4B1B680E4A23F0847323F41F
:10860800803313600B4B1B680A4A23F480231360E2
:10861800084B5B68074A23F4FE035360054B4FF48D
:108628001F029A60054B4FF000629A6000BFBD467A
:1086380080BC7047001002400000FFF800ED00E029
:1086480080B592B000AF07F1400300221A605A606B
:1086580007F1240300221A605A609A60DA601A61EE
:108668005A619A613B1D20220021184602F036FE0D
:10867800334B344A1A60324B47225A60304B00223F
:108688009A602F4B44F61F62DA602D4B00221A6164
:108698002B4B00225A612A4B00229A612848FCF78A
:1086A800F8F80346002B01D0FFF753FE00233B6484
:1086B80000237B6407F1400319462148FCF728FD95
:1086C8000346002B01D0FFF744FE60237B620023A2
:1086D800BB620023FB6200233B6300237B63002310
:1086E800BB630023FB6307F12403002219461448E7
:1086F800FCF7FEF90346002B01D0FFF72AFE002302
:108708007B600023BB600023FB6000233B610023E8
:108718007B614FF40053BB6100233B623B1D19464C
:108728000748FCF739FD0346002B01D0FFF711FE7F
:10873800034800F077FB00BF4837BD4680BD00BF47
:108748006C060020002C014080B58CB000AF07F10A
:108758000C0324220021184602F0C0FD3B1D002214
:108768001A605A60214B4FF080421A601F4B00225A
:108778005A601E4B00229A601C4B4FF6FF72DA605B
:108788001A4B00221A61194B00229A610323FB60DD
:1087980000233B6101237B610023BB610023FB6154
:1087A80000233B6201237B620023BB620023FB6240
:1087B80007F10C0319460D48FCF7D4F80346002BC3
:1087C80001D0FFF7C6FD00237B600023BB603B1D83
:1087D80019460648FCF79CFC0346002B01D0FFF71E
:1087E800B8FD00BF3037BD4680BD00BFAC060020D5
:1087F80080B58CB000AF07F10C0324220021184685
:1088080002F06CFD3B1D00221A605A60204B214A81
:108818001A601F4B00225A601D4B00229A601C4BA5
:108828004FF6FF72DA601A4B00221A61184B0022C9
:108838009A610323FB6000233B6101237B610023D2
:10884800BB610023FB6100233B6201237B620023A1
:10885800BB620023FB6207F10C0319460C48FCF7C6
:1088680081F80346002B01D0FFF773FD00237B60DE
:108878000023BB603B1D19460548FCF749FC03462D
:10888800002B01D0FFF765FD00BF3037BD4680BD26
:10889800EC0600200004004080B58CB000AF07F162
:1088A8000C0324220021184602F018FD3B1D00226B
:1088B8001A605A60204B214A1A601F4B00225A60E6
:1088C8001D4B00229A601C4B4FF6FF72DA601A4B60
:1088D80000221A61184B00229A610323FB600023CF
:1088E8003B6101237B610023BB610023FB61002303
:1088F8003B6201237B620023BB620023FB6207F11A
:108908000C0319460C48FCF72DF80346002B01D040
:10891800FFF71FFD00237B600023BB603B1D19464A
:108928000548FCF7F5FB0346002B01D0FFF711FDC6
:1089380000BF3037BD4680BD2C070020000800402E
:1089480080B58CB000AF07F10C0324220021184633
:1089580002F0C4FC3B1D00221A605A60204B214AD9
:108968001A601F4B00225A601D4B00229A601C4B54
:108978004FF6FF72DA601A4B00221A61184B002278
:108988009A610323FB6000233B6101237B61002381
:10899800BB610023FB6100233B6201237B62002350
:1089A800BB620023FB6207F10C0319460C48FBF776
:1089B800D9FF0346002B01D0FFF7CBFC00237B60D7
:1089C8000023BB603B1D19460548FCF7A1FB034685
:1089D800002B01D0FFF7BDFC00BF3037BD4680BD7E
:1089E8006C070020000C004080B582B000AF3B4609
:1089F80000221A605A60154B154A1A60134B472219
:108A08005A60124B00229A60104B4FF6FF72DA60E0
:108A18000E4B00229A610D48FBF710FF0346002B0E
:108A280001D0FFF796FC00233B6000237B603B46A8
:108A380019460648FCF76CFB0346002B01D0FFF7EC
:108A480088FC00BF0837BD4680BD00BFAC070020CA
:108A58000010004080B592B000AF07F1400300223B
:108A68001A605A6007F1240300221A605A609A605B
:108A7800DA601A615A619A613B1D2022002118466A
:108A880002F02CFC454B464A1A60444B00225A60BF
:108A9800424B00229A60414B41F61F42DA603F4B3D
:108AA80000221A613D4B00225A613C4B00229A6118
:108AB8003A48FBF7EEFE0346002B01D0FFF749FCCE
:108AC80000233B6400237B6407F1400319463348C5
:108AD800FCF71EFB0346002B01D0FFF73AFC60238E
:108AE8007B620023BB620023FB6200233B630023FD
:108AF8007B630023BB630023FB6307F1240300228D
:108B080019462648FBF7F4FF0346002B01D0FFF770
:108B180020FC07F12403042219462048FBF7E8FF4C
:108B28000346002B01D0FFF714FC07F124030822A9
:108B380019461A48FBF7DCFF0346002B01D0FFF764
:108B480008FC07F124030C2219461448FBF7D0FF50
:108B58000346002B01D0FFF7FCFB00237B600023BA
:108B6800BB600023FB6000233B6100237B614FF463
:108B78000053BB6100233B623B1D19460748FCF7C5
:108B88000BFB0346002B01D0FFF7E3FB034800F083
:108B980049F900BF4837BD4680BD00BFEC0700203B
:108BA8000034014080B485B000AF78607B681B68F2
:108BB800124A93420CD1124B9B69114A43F4006349
:108BC80093610F4B9B6903F40063FB60FB6810E043
:108BD8007B681B680B4A93420BD1094B9B69084A77
:108BE80043F400539361064B9B6903F40053BB6045
:108BF800BB6800BF1437BD4680BC7047002C0140DD
:108C0800001002400034014080B590B000AF786099
:108C180007F12C0300221A605A609A60DA607B68B8
:108C28001B68B3F1804F4FD1684BDB69674A43F04B
:108C38000103D361654BDB6903F00103BB62BB6AC7
:108C4800624B9B69614A43F0040393615F4B9B69E4
:108C580003F004037B627B6A5C4B9B695B4A43F0CD
:108C680008039361594B9B6903F008033B623B6A15
:108C78004FF40043FB6200233B6300237B6307F14F
:108C88002C0319465248F9F7FBFF0823FB6200231F
:108C98003B6300237B6307F12C0319464D48F9F722
:108CA800EFFF4D4B5B68FB63FB6B23F44073FB6387
:108CB800FB6B43F0E063FB63FB6B43F48073FB6384
:108CC800454AFB6B53607CE07B681B68434A9342D0
:108CD80024D13E4BDB693D4A43F00203D3613B4B51
:108CE800DB6903F00203FB61FB69384B9B69374A78
:108CF80043F004039361354B9B6903F00403BB61A4
:108D0800BB69C023FB6200233B6300237B6307F13D
:108D18002C0319462E48F9F7B3FF52E07B681B680D
:108D28002F4A934224D1294BDB69284A43F0040394
:108D3800D361264BDB6903F004037B617B69234B1A
:108D48009B69224A43F008039361204B9B6903F017
:108D580008033B613B69C023FB6200233B6300239C
:108D68007B6307F12C0319461A48F9F789FF28E0B5
:108D78007B681B681B4A934223D1144BDB69134A57
:108D880043F00803D361114BDB6903F00803FB6070
:108D9800FB680E4B9B690D4A43F0040393610B4B30
:108DA8009B6903F00403BB60BB680323FB620023D9
:108DB8003B6300237B6307F12C0319460448F9F74A
:108DC8005FFF00BF4037BD4680BD00BF00100240B6
:108DD80000080140000C0140000001400004004070
:108DE80000080040000C004080B485B000AF7860F7
:108DF8007B681B68094A93420BD1094BDB69084A17
:108E080043F01003D361064BDB6903F01003FB60EA
:108E1800FB6800BF1437BD4680BC70470010004097
:108E28000010024080B58AB000AF786007F11403E3
:108E380000221A605A609A60DA607B681B68284AC8
:108E480093422BD1274B9B69264A43F040039361F9
:108E5800244B9B6903F040033B613B694FF400736B
:108E68007B610223BB6102233B6207F114031946AD
:108E78001D48F9F705FF1D4B5B687B627B6A23F091
:108E8800C0037B627B6A43F0E0637B627B6A43F0EA
:108E9800C0037B62154A7B6A53601DE07B681B68D0
:108EA800134A934218D10F4B9B690E4A43F01003A3
:108EB80093610C4B9B6903F01003FB60FB684FF454
:108EC80070737B610223BB6102233B6207F11403C9
:108ED80019460848F9F7D4FE00BF2837BD4680BDBB
:108EE800002C014000100240001801400000014021
:108EF800003401400010014080B500AF114B124A08
:108F08001A60104B4FF4E1325A600E4B00229A60FF
:108F18000C4B0022DA600B4B00221A61094B0C2221
:108F28005A61084B00229A61064B0022DA61054813
:108F3800FCF783F90346002B01D0FFF70AFA00BFBC
:108F480080BD00BF2C0800200038014080B500AF6C
:108F5800114B124A1A60104B4FF416525A600E4BBE
:108F680000229A600C4B0022DA600B4B00221A6137
:108F7800094B0C225A61084B00229A61064B0022C9
:108F8800DA610548FCF759F90346002B01D0FFF7D1
:108F9800E0F900BF80BD00BF6C080020004400401D
:108FA80080B58CB000AF786007F11C0300221A600E
:108FB8005A609A60DA607B681B686D4A934240F099
:108FC80087806C4B9B696B4A43F480439361694B80
:108FD8009B6903F48043BB61BB69664B9B69654A27
:108FE80043F004039361634B9B6903F004037B61C3
:108FF8007B694FF40073FB6102233B620323BB626E
:1090080007F11C0319465C48F9F73AFE4FF48063F0
:10901800FB6100233B6200237B6207F11C031946B6
:109028005548F9F72DFE554B554A1A60534B002207
:109038005A60524B00229A60504B8022DA604F4BA4
:1090480000221A614D4B00225A614C4B00229A6152
:109058004A4B0022DA614948F9F790F90346002B98
:1090680001D0FFF776F97B68444A5A63434A7B6824
:109078005362444B444A1A60424B10225A60414B97
:1090880000229A603F4B8022DA603E4B00221A6130
:109098003C4B00225A613B4B00229A61394B00221B
:1090A800DA613848F9F76AF90346002B01D0FFF76F
:1090B80050F97B68334A1A63324A7B68536200224C
:1090C80000212520F9F723F92520F9F73CF94AE092
:1090D8007B681B682D4A934245D1264BDB69254A9C
:1090E80043F40033D361234BDB6903F400333B6162
:1090F8003B69204B9B691F4A43F0200393611D4B3A
:109108009B6903F02003FB60FB682023FB610223BB
:109118003B620323BB6207F11C0319461C48F9F79D
:10912800AFFD4023FB6100233B6200237B6207F114
:109138001C0319461648F9F7A3FD164B5B68FB623A
:10914800FB6A43F0E063FB62FB6A43F00803FB62DF
:10915800104AFB6A5360002200212620F9F7D7F84D
:109168002620F9F7F0F800BF3037BD4680BD00BFB4
:10917800003801400010024000080140AC080020FF
:1091880058000240F008002044000240004400401B
:109198000014014000000140002103E00B4B5B5824
:1091A800435004310A480B4B42189A42F6D30A4AF4
:1091B80002E0002342F8043B084B9A42F9D3FFF738
:1091C8000BFA02F049F8FFF723F87047C4CF0008FC
:1091D8000000002080000020800000205C090020A2
:1091E800FEE70B460146184602F022B802F060B8C6
:1091F800FFF7FCBF1EB400F09CF81EBCF8F73AFD60
:109208000378472B17D143784E2B14D18378552BED
:1092180011D1C378432B0ED10379432B0BD143795A
:109228002B2B08D183792B2B05D1C07901288CBF32
:109238000020012070470020704700002DE9F3410D
:109248001D4603780E46472B0246C17913D1437851
:109258004E2B10D18378552B0DD1C378432B0AD1CF
:109268000379462B07D143794F2B04D18379522BAD
:1092780001D1002930D01046FFF7C2FF002380F04B
:109288000100C0B2002401944BBB50BB01290ABFA6
:1092980052F8203CA2F12003783B01290CBF52F878
:1092A800202C58321C680192236820469B689847F6
:1092B800C8B10227019B1B68019333682146D3F884
:1092C80010803046012301AAC04770B1019B2B6072
:1092D800384602B0BDE8F08101230846D2E7044CC5
:1092E800E2E7044CE0E70127E7E70746F0E700BFBD
:1092F8002CC8000834C8000810B5044600F032F83D
:1093080002462046A4F12001FFF77AFF60B154F825
:10931800043C0133012B44F8043C03D1936844F81E
:10932800083C9160012010BD9368002BF9D000F033
:10933800A9FA10B500F016F8826801460AB900F0DB
:10934800A1FA02F120042046FFF75AFF40B1D36981
:10935800013BD36113B9906988609361204610BDC1
:109368008860FBE7004870473409002000231A464C
:1093780030B510F8015B05F07F04944023432C06B8
:1093880002F10702F5D40B6030BD00231A4630B550
:1093980010F8014B04F07F0595402B43250602F198
:1093A8000702F5D41F2A06D8640642BF4FF0FF34DF
:1093B80004FA02F213430B6030BD50282DE9F34143
:1093C8000646884615461F4608D1D01C20F00300E3
:1093D80050F8044B3C6002B0BDE8F08100F00F0388
:1093E8000C2B2ED8DFE803F025071D25292D2D2D60
:1093F8002D1821252900284601A9FFF7B7FF019C50
:10940800002CE7D006F07003102B08BFA8463306DF
:10941800444448BF2468DDE7284601A9FFF7B5FFA3
:10942800EDE7284630F8024BEAE7284630F9024BC8
:10943800E6E7284650F8044BE2E7284650F8084B80
:10944800DEE701F0EDFE08B50346FF2B084610D015
:1094580003F07002302A12D007D8202A0BD002D885
:1094680013F0600F05D001F0DBFE402A0BD0502A24
:10947800F9D1002008BDBDE8084001F0CEBEBDE826
:10948800084001F0C7BEBDE80840F8F7C9BD70B58F
:109498000C460146204615461E46FFF7D4FF3346C4
:1094A80001462A462046BDE87040FFF786BF73B5DF
:1094B8000C461546064628B3F8F7B2FD0346204683
:1094C8002B6010F8011BFF291ED002462B1D3046C9
:1094D800FFF7DDFF10F8013BFF2B2B7516D010238B
:1094E80001A92B75FFF742FF019B0344EB6010F8BD
:1094F800013B01A96B75FFF739FF019B03442B6101
:1095080002B070BD0346DAE76B60E3E70023EDE7DE
:109518001FB503AB009300230A461946F8F70AF86B
:10952800039805B05DF804FB00232DE9F04F91B0D6
:10953800059300F00303012B06460C4617460ED090
:10954800022B03D0002B3BD101073BD539462046DF
:10955800F8F752FD90B3092011B0BDE8F08F02076B
:1095680006D40D6A38460D21FFF7D2FF85422BD06D
:109578000220002306F008060DF1280A06430C22F3
:1095880019463846CDF800A00A94F7F7F7FF062EDB
:109598001CD1D4E90A59D4F83080B8F1000F0CBFB7
:1095A8004FF0010B4FF0030B16F0080600F00C818A
:1095B800BBF1010F40F0048100F064F90820CBE70B
:1095C80001F02EFE0120D4E70620D2E73846F8F74E
:1095D8002DFD81460028B9D0524601463846FFF78E
:1095E80066FF394605469DF83C00FFF72CFF0F2122
:1095F8000C903846FFF78CFF20F0010808F1FF387F
:109608000E9BAB4240F2C4802A469DF83D1006AB43
:109618000020FFF73CFF9DF83D10024607AB0020F5
:10962800FFF735FF08AB02469DF83D100020FFF715
:109638002EFF09A9FFF79AFE0A9B069A05461344CE
:10964800434501D90E9DDBE7079A13444345D7D913
:10965800DDF82080B8F1000F01D00B9B9844099DDC
:1096680015B10E98013D0544B8F1000F3FF46EAFF7
:10967800002D00F0F78016F00803029334D047233A
:1096880023704E2363705523A3704323E37046234E
:1096980023714F2363715223A3710023E3714FF0A9
:1096A800000B07A92846FFF770FE08A90390FFF7EB
:1096B8006CFE0799002968D03ADD9DF83C00FF2828
:1096C80032D000F00703042B3FF67AAF01A252F81C
:1096D80023F000BF35970008C995000803970008D4
:1096E800359700082D970008E379012B0CBF54F833
:1096F800203C04F158030593D1E702250D9A09ABE4
:1097080005FB11220C99FFF758FE099931B17CB37A
:109718000022204605ABFFF791FD48B34FF0030B3D
:10972800079D39E00825E9E70025E7E70425E5E78F
:10973800C1F17F5101F57F110D9B01F57F513F313B
:1097480003EB8105DCB1029ACAB9059B043D099374
:1097580055F8041F41B10022204609AB2944FFF700
:109768006DFD0028F4D0012181F001010029D5D137
:10977800089D002D72D0039B2B441D4691E753F89A
:109788002110B1FA81F14909F0E74FF0010BEFE739
:1097980000254FF0010BA846F3077FF505AFBBF195
:1097A800020F3FF4D3AE0D213846059EFFF7B0FEF9
:1097B800C4E90A59C4E90806C4F830800620CBE693
:1097C800002D22DA00F070F8BBF1010F02D120461B
:1097D80000F0AFF9002D18DA524649463846FFF72F
:1097E80066FE39469DF83C00FFF72DFEEB430D9AC7
:1097F8000C9002EB830353F826200AB10136FAE7EE
:109808000422C4E90A60C4E90C23002309AE1A46FD
:109818001946384600960994F7F7B0FE002301224E
:109828001946384600960995F7F7A8FE0F213846DD
:10983800FFF76EFE002300F0010040EA08000990DF
:109848000F22194638460096F7F798FEBBF1020F2B
:1098580002D12046FFF750FD07207DE6BBF1000F3F
:109868003FF474AE4FF0020B96E700BF08B580478F
:1098780001F0D6FC024B1868BFF35B8F704700BF3E
:109888001800002008B5FFF7F5FFFFF7EFFF08B550
:109898008047FFF7F7FF0000024B1868BFF35B8FA4
:1098A800704700BF1400002008B5FFF7F5FFFFF769
:1098B800EEFF012838BF012010B50446204601F00C
:1098C800EFFC30B900F09EF908B901F0A9FC804717
:1098D800F4E710BDFFF7EDBF10B50446024B036077
:1098E80000F0B4F8204610BDBCC8000810B5044606
:1098F800FFF7F2FF20460C2100F0FCF8204610BDCF
:109908002DE9F041DDF81880064690450F461546CA
:109918001C460BD0B0682A460368CDF818801E6A2A
:1099280039462346B446BDE8F0416047194600F081
:1099380057F80028EED00620BDE8F0812DE9F14F58
:109948000D46DDE90A4BDDE90CA6194681461746A6
:10995800984600F045F890B1002D3460377109DB66
:109968002C44A2450CBF06240124B471002001B088
:10997800BDE8F08F0235F9D10123B371F6E75445FC
:1099880006D15946484600F02BF808B17771EDE743
:10999800D9F808003A460368CDE90CA6CDE90A4B88
:1099A800DC6929464346A44601B0BDE8F04F60474C
:1099B8002DE9F04107460C4615461E4600F079F899
:1099C80048B9B8682A46036821469F693346BC46A9
:1099D800BDE8F0416047BDE8F0817047002070475E
:1099E800814208B50ED0406803782A2B0CD049680C
:1099F8000B782A2B08BF0131F8F722FBB0FA80F068
:109A0800400908BD0120FCE70020FAE77FB50024E3
:109A18001023CDE90234036815469E6912686B4627
:109A280000948DF80440B0479DF8043003F0060315
:109A3800062B09BF01202046009B2B6004B070BD97
:109A48000098904214BF01200620704710B50446C4
:109A5800024B0360FFF7C1FF204610BD30C9000864
:109A680010B50446FFF7F2FF2046082100F042F83F
:109A7800204610BD2DE9F041DDF818801F46DDE9CC
:109A8800083498450646154607D10799FFF7A8FFF9
:109A980018B165710020BDE8F08139463046FFF7FE
:109AA8009FFF0028F6D00123C4F800802571A37118
:109AB800F0E738B515461C46FFF792FF20B108239A
:109AC800E36006232560237138BD2DE9F041054682
:109AD8000C4616461F46FFF783FF48B9032F07D8E1
:109AE8002368324629462046BDE8F0415B6918479D
:109AF800BDE8F081FFF77ABB0378472B17D143788D
:109B08004E2B14D18378552B11D1C378432B0ED10A
:109B18000379432B0BD143792B2B08D183792B2B3A
:109B280005D1C07901288CBF002001207047002092
:109B3800704710B5044648B100F03BF82046FFF7DF
:109B4800DBFF18B154F8140CFFF790FEFFF79AFEEC
:109B580038B50246FFF7D0FF044640B1002552F859
:109B6800184C104600F025F81DB1FFF79DFE0125A1
:109B7800F7E72046FFF78BFE0378472B17D143788A
:109B88004E2B14D18378552B11D1C378432B0ED18A
:109B98000379432B0BD143792B2B08D183792B2BBA
:109BA80005D1C07901288CBF002001207047002012
:109BB800704738B50446FFF7D5FB024605682046CE
:109BC800A4F12001FFF7D8FF28B90DB1FFF75AFE1D
:109BD8001160284638BD54F80C3C2046002BB4BF11
:109BE800C3F10103013344F80C3C53688D4203F17F
:109BF800FF3353601CBF44F8105C1160656AF7F7C7
:109C080091FCE6E7024B1868BFF35B8F704700BF13
:109C180040090020000000002DE9F04FC64B21F05C
:109C2800004683B09E4204468A46019111DDC34B2B
:109C38009E4200F3B88000F0B380C14BC14AC24CC9
:109C4800BAF1000FD8BF13462046194603B0BDE845
:109C5800F08FBE4B9E4200F3C180A3F1DE739E429B
:109C680040F3AE804FF0FF3B019B22461946204649
:109C7800F6F792FC02460B4680468946F6F78CFCBE
:109C880095A3D3E9002306460F46F6F785FC94A36F
:109C9800D3E90023F6F7CAFA32463B46F6F77CFCCE
:109CA80091A3D3E90023F6F7C1FA32463B46F6F70B
:109CB80073FC8FA3D3E90023F6F7B8FA32463B4684
:109CC800F6F76AFC8CA3D3E90023F6F7AFFA32461D
:109CD8003B46F6F761FC8AA3D3E90023F6F7A6FA18
:109CE80042464B46F6F758FC87A3D3E90023804643
:109CF800894630463946F6F74FFC85A3D3E9002359
:109D0800F6F792FA32463B46F6F746FC82A3D3E9C9
:109D18000023F6F789FA32463B46F6F73DFC80A366
:109D2800D3E90023F6F780FA32463B46F6F734FCCF
:109D38007DA3D3E90023F6F777FA32463B46F6F7D8
:109D48002BFCBBF1FF3F02460B466ED0404649460E
:109D5800F6F76CFA7E4E2246019BF6F71DFC7D4B0A
:109D680006EBCB064FEACB0B9B44DBE90023F6F767
:109D78005BFA2246019BF6F757FA0B460246D6E9EC
:109D88000001F6F751FABAF1000F04460B46BFF688
:109D98005BAF01F100432046194603B0BDE8F08FE0
:109DA80000283FF44AAF019B224620461946F6F7A1
:109DB8003DFA04460B462046194603B0BDE8F08F2D
:109DC8005BA3D3E90023F6F731FA0022624BF6F7DA
:109DD80073FE00283FF446AF534635E700F0C6F857
:109DE8005E4B04469E420D4634DCA3F550239E424A
:109DF80059DC02460B46F6F719FA0022564BF6F7DD
:109E080013FA00224FF0804306460F4620462946A3
:109E1800F6F70CFA02460B4630463946F6F7E6FCEA
:109E28004FF0000B044601911EE740464946F6F7FD
:109E3800FDF92246019BF6F7AFFB02460B4620468A
:109E48000199F6F7F1F904460B462046194603B086
:109E5800BDE8F08F424B9E421ADA0022414BF6F7DA
:109E6800E3F9002206460F4620463E4B2946F6F700
:109E780093FB0022384BF6F7D9F902460B463046D9
:109E88003946F6F7B3FC4FF0020B04460191EBE6B6
:109E980002460B4600203449F6F7A8FC4FF0030BA6
:109EA80004460191E0E600222B4BF6F7BDF90022AB
:109EB80006460F462046284B2946F6F7B7F90246CC
:109EC8000B4630463946F6F791FC4FF0010B044635
:109ED8000191C9E6AFF3008011DA22E33AAD903F71
:109EE800EB0D76244B7BA93F513DD0A0660DB13FC9
:109EF8006E204CC5CD45B73FFF8300922449C23F31
:109F08000D5555555555D53F2F6C6A2C44B4A2BFF5
:109F18009AFDDE522DDEAD3F6D9A74AFF2B0B33FBD
:109F2800711623FEC671BC3FC4EB98999999C93F35
:109F38009C7500883CE4377EFFFF0F440000F07FEB
:109F4800FB21F93FFB21F9BF182D4454FFFFDB3FEC
:109F580058C9000878C900080000F03FFFFFF23F29
:109F6800008003400000F83F0000F0BF21F00041EE
:109F7800704700BFF0B5144D21F00043AB4287B0E5
:109F88001ADD124DAB4205DD02460B46F6F74CF9D9
:109F980007B0F0BD02AA00F01BF8DDE9042304466F
:109FA800DDE90201640004F00204C4F10104009434
:109FB80000F056FE07B0F0BD0124002200230094F3
:109FC80000F04EFE07B0F0BDFB21E93FFFFFEF7F39
:109FD8002DE9F04F8C4F21F00045BD42144606464E
:109FE8008DB040F38680894A8B46954227DC7CA356
:109FF800D3E90023002940F3B881F6F715F9844B1B
:10A0080006469D420F4600F08B8077A3D3E90023D4
:10A01800F6F70AF902460B463046C4E900233946EA
:10A02800F6F702F970A3D3E90023F6F7FDF84FF02D
:10A03800010AC4E9020150460DB0BDE8F08F754A27
:10A04800954240F38E80744A95425EDC4FEA255A69
:10A05800AAF2164AA5EB0A510F46F6F737FDF6F7AE
:10A0680031FA804689463046394642464B46CDE964
:10A078000689F6F7D9F80022684BF6F78DFA0F46ED
:10A088000646F6F723FD0546F6F71CFA02460B4688
:10A0980030463946CDE90823F6F7C6F800225F4B6B
:10A0A800F6F77AFA02460B46CDE90A230022002386
:10A0B800F6F7DAFC002800F05681002D0CBF0123CA
:10A0C8000223022056495246CDE90001214606A83E
:10A0D80000F0A2F9BBF1000F8246ACDA6268E368CF
:10A0E80002F1004203F10043C0F1000A6260E3603C
:10A0F800A1E74FF0000A00220023C4E900015046FE
:10A10800C4E902230DB0BDE8F08F02465B46F6F7BE
:10A118008BF84FF0000AC4E90201C4E900018AE79C
:10A1280033A3D3E90023F6F77FF833A3D3E9002359
:10A1380006460F46F6F778F802460B463046C4E95D
:10A1480000233946F6F770F82BA3D3E90023F6F776
:10A158006BF84FF0010AC4E9020150460DB0BDE8A2
:10A16800F08FFFF703FF26A3D3E9002306460F4627
:10A17800F6F712FA00222B4BF6F758F8F6F7A6FC7A
:10A188008246F6F79FF916A3D3E90023804689464D
:10A19800CDE90489F6F700FA02460B4630463946FF
:10A1A800F6F742F810A3D3E9002306460F464046C7
:10A1B8004946B046B946CDE90289F6F7EDF9BAF154
:10A1C8001F0F06460F4631DC174B0AF1FF3253F8D2
:10A1D8002230AB422AD002460B46404649469EE012
:10A1E80000004054FB21F93F3163621A61B4D03D4D
:10A1F8000000601A61B4D03D7370032E8A19A33B26
:10A2080083C8C96D305FE43FFB21E93F7BD9024039
:10A21800FB21F93FFB213941FFFFEF7F000070412F
:10A2280018CA00080000E03F98C900083B46DDE96D
:10A2380002013246F5F7F8FFC1F30A53C3EB155391
:10A24800102B894680464FEA25556CDD66A3D3E975
:10A258000023DDE90401F6F79FF906460F46DDE91C
:10A26800020132463B46F5F7DFFF80468946DDE9C5
:10A27800020142464B46F5F7D7FF32463B46F5F713
:10A28800D3FF5BA3D3E9002306460F46DDE90401AB
:10A29800F6F782F932463B46F5F7C6FF06460F4603
:10A2A800404649463B463246CDE90289F5F7BCFFB0
:10A2B800C1F30A53ED1A312D8946804633DD4EA38A
:10A2C800D3E90023DDE90401F6F766F9DDE9025672
:10A2D80080468946424631464B462846F5F7A4FF54
:10A2E80002460B4628463146CDE90223F5F79CFF86
:10A2F80042464B46F5F798FF41A3D3E900230646AB
:10A308000F46DDE90401F6F747F932463B46F5F713
:10A318008BFF06460F46DDE9020132463B46F5F75C
:10A3280083FF80468946DDE9020142464B46C4E97F
:10A338000023F5F779FF32463B46F5F775FF0246ED
:10A348000B46BBF1000F0546C4E90223BFF673AE06
:10A3580009F1004301F10041C4E90083C4E9025155
:10A36800CAF1000A67E60323ABE6F5F75FFF284B5F
:10A3780006469D420F4616D023A3D3E90023F5F7DE
:10A3880055FF02460B463046C4E900233946F5F727
:10A398004BFF1DA3D3E90023F5F748FF4FF0FF3A21
:10A3A800C4E9020147E610A3D3E90023F5F73EFF0D
:10A3B8000FA3D3E9002306460F46F5F737FF0246F9
:10A3C8000B463046C4E900233946F5F72DFF08A3AC
:10A3D800D3E90023F5F72AFF4FF0FF3AC4E9020159
:10A3E80029E600BFAFF300800000601A61B4D03DD9
:10A3F8007370032E8A19A33B0000002E8A19A33B11
:10A40800C14920259A837B393163621A61B4D03DF2
:10A41800FB21F93F000000002DE9F04F1C46ADF587
:10A42800197D0B91611E08930391B84BA29912F103
:10A43800140F53F8213007460593C0F24183B449FD
:10A44800D31E81FB0301DB17C3EBA1030793013381
:10A45800A3EB8303DB00D3180693079A039BD61A52
:10A46800059A12EB03091BD409F101090024002500
:10A47800DDF88CA2B1440DF1800808E05AF82600F6
:10A48800F6F720F801364E45E8E8020108D0002E1C
:10A49800F4DA2046294601364E45E8E80201F6D1AD
:10A4A800059B002BA7F108030493C0F2B883194653
:10A4B800089BDDF80C90DA000292059A01EBC308BC
:10A4C80020A901EBC30AD3180DF5E07B0193039B88
:10A4D800002BC0F2B081574600240025049E77E97E
:10A4E8000223F6E90201F6F757F802460B46204622
:10A4F8002946F5F79BFE464504460D46EFD1019BDC
:10A5080009F101099945EBE802450AF1080ADED18B
:10A51800059A0CA901EB820304980299083B0144AF
:10A528008B4609930BAB03EB820301920A93019AC2
:10A5380098A901EBC203002A53E928452ADD0DF545
:10A54800E07A0DF130090AEBC2080022714B20466F
:10A558002946F6F721F8F6F7B9FAF5F7B3FF00221E
:10A568006D4B06460F46F6F717F802460B4620468F
:10A578002946F5F759FEF6F7A9FA78E902230446C1
:10A58800394649F8044B3046F5F750FED0450446A5
:10A598000D46DAD1DDF81890204629464A4600F0E3
:10A5A800BFFD00224FF07F5304460D46F5F7F4FF38
:10A5B80000F03AFD0022594BF5F7EEFF02460B4634
:10A5C80020462946F5F730FE04460D46F6F77EFA92
:10A5D8008046F5F777FF02460B46204629464C464B
:10A5E800F5F722FE002C06460F4640F39980019BA2
:10A5F800C9F11802581E0CAB53F82030C9F11705E1
:10A6080043FA02F101FA02F29B1A43FA05F50CAA81
:10A61800002D42F82030884400F38C80002200236B
:10A6280030463946F6F720FA002800F05082019BA0
:10A63800059A03F1FF3A524510DC002203F18043EA
:10A64800013B0CA90A9801EB830353F804198342D0
:10A6580042EA0102F9D1002A40F0F080059B0CAAD9
:10A66800013B52F82330002B40F0E0800123099A87
:10A6780052F8041901330029FAD001994A1C91466D
:10A68800CB180293079B089902EB030A019B0AF176
:10A69800804A0B44984620AB03EBC808A39B0AF1F9
:10A6A800FF3A03EB8A0A70AB03EBC20301935AF833
:10A6B800040FF5F707FF039B4746002BC8E9000185
:10A6C80008F108081FDB00240025049E083F01E06C
:10A6D80077E80201F6E90223F5F75EFF02460B462A
:10A6E80020462946F5F7A2FD5E4504460D46EFD102
:10A6F800019B09F10109E3E802450193029B994591
:10A70800D5DD019313E700240025F1E760CB0008AD
:10A71800ABAAAA2A0000703E000070410000204049
:10A728006BD1019B0CAA013B52F82350ED15002D6B
:10A738007FF774AF019B08F10108002B40F3C58136
:10A748000C9C002C51D1019B012B20D001220CAB79
:10A7580053F8044F002C4BD0531C0CA9C4F180743F
:10A7680041F822400199994210DD0CAC0CAA52F82C
:10A7780023206FF07F4004EB830304EB810100E0AA
:10A788001A68821A43F8042B8B42F9D10124069BDC
:10A79800002B0EDD012B00F07A81022B09D1019BE1
:10A7A8000CA95A1E0CAB53F82230C3F3150341F819
:10A7B8002230022D7FF432AF32463B460020BC499E
:10A7C800F5F732FD06460F46002C3FF427AF069AF0
:10A7D8000020B74900F0A4FC02460B463046394633
:10A7E800F5F722FD06460F4618E701230022B4E7D5
:10A7F800019901328A42ABD1C9E70022AD4BF6F785
:10A8080051F9054600283FF409AF019B08F10108FA
:10A81800002BC8BF022593DC32463B460020A449E2
:10A82800F5F702FD022506460F46F7E6019B5A1C7E
:10A838009146029226E70024002560E6069A0CABB2
:10A8480053F82A30183ACDF81C800395069273B94C
:10A85800019B0CA903F18043023B01EB830353F8EE
:10A8680004190AF1FF3A183A0029F8D00692002094
:10A87800069A8F4900F054FCBAF1000F04460D46C1
:10A88800C0F2D18170AB03EBCA0B0CAA0AF1010329
:10A89800069302EB83084FEACA030BF108090493F5
:10A8A80058F8040DF5F70EFE22462B46F5F774FE10
:10A8B80006460F46204629467F4B002269E9026773
:10A8C800F5F76AFE0CAB984504460D46E8D148AB4F
:10A8D800CDE9013ADDF814A04FF00009BAF1000FF4
:10A8E8002CDB71A3D3E900235F4600240025002652
:10A8F800DFF8C88103E0B14510DBF8E80223F7E888
:10A908000201F5F749FE02460B4620462946F5F7AF
:10A918008DFC0136B24504460D46ECDA019B029ADD
:10A9280003EBC9039145C3E90045ABF1080B09F1F5
:10A93800010306D0BAF1000F9946D2DA00240025A7
:10A94800ECE7A29BDDF808A0022B23DC002B00F328
:10A95800F18018D1A29B049D1C46019E0835354400
:10A96800184675E902232146F5F760FCAE42034616
:10A978000C46F5D1039A0AB104F100441846214661
:10A988000B9BC3E90001079B03F007000DF5197D38
:10A99800BDE8F08FA29B032BF5D1BAF1000F00F0B0
:10A9A8005881019B049A13449B46D3E900455BE90F
:10A9B80002672046294632463B46F5F737FCA04653
:10A9C800A94604460D4622462B4630463946F5F739
:10A9D8002BFC4B464246F5F729FCCBE900016BE915
:10A9E8000245019B5B45E2D1BAF1010F40F3318189
:10A9F800049B019A0DF5947B13449A46D3E90045CC
:10AA080002935AE902672046294632463B46F5F743
:10AA18000DFCA046A94604460D4622462B46304664
:10AA28003946F5F701FC42464B46F5F7FFFBCAE904
:10AA380000016AE90245D345E3D100231E46029C82
:10AA4800019A083402F11005184674E902233146C8
:10AA5800F5F7ECFBA54203460E46F5D1039A002A0A
:10AA680040F0B18018463146019A0B9ED2E9024562
:10AA7800DDE94823C6E90023079BC6E9040103F082
:10AA88000700C6E902450DF5197DBDE8F08F019B69
:10AA98000CA95A1E0CAB53F82230C3F3160341F825
:10AAA800223086E6AFF3008000000040FB21F93F2A
:10AAB8000000F03F0000E03F0000703E28CB000897
:10AAC80000216FF017030791C5E400245FE63946BB
:10AAD800069F30467A420395CDF81C8000F020FB93
:10AAE80000225D4B04460D46F5F7DCFF002860D0D8
:10AAF80000225A4B20462946F5F74EFDF5F7E6FFAA
:10AB08000646F5F7DFFC0022534BF5F745FD0246F4
:10AB18000B4620462946F5F787FBF5F7D7FF019B3B
:10AB28000CAA03F1010A183742F82300069742F8E5
:10AB38002A609CE60026019B0699984603EBC1070C
:10AB4800314677E902233046F5F770FBB8450646EB
:10AB5800F7D1039B002B51D134460D4632460B9E4C
:10AB68000B46DDE94801C6E90045F5F75DFBBAF19A
:10AB7800000F03460E4610DD012448AD1846F5E9DE
:10AB880002233146F5F752FB0134A24503460E462F
:10AB9800F4DA039A0AB106F10046184631460B9BCF
:10ABA800C3E90201079B03F007000DF5197DBDE815
:10ABB800F08F20462946F5F789FF019B0CAA9A4693
:10ABC80042F8230053E6019A0B98154604460361A0
:10ABD800AB6806F10046466151682868D268A360F0
:10ABE800079B01F1004102F10042206003F00700D9
:10ABF8006160E2600DF5197DBDE8F08F0B9D01F1F4
:10AC080000440B46DDE948013246C5E90064F5F722
:10AC18000BFBBAF1000F03460E46ADDCBBE7089B01
:10AC2800DB00029374E4A29B022B06DC002B0DDCF4
:10AC38007FF4A9AEA29B1C469CE6A29B032B7FF443
:10AC4800A2AE002348AA1E46019207E70026314615
:10AC58007FE700231E4601E7000070410000703EB8
:10AC68002DE9F04FC04D21F0004489B0AC428B462D
:10AC7800904699468246079100941BDCF5F726FF1B
:10AC880000283BD15346129A01321343234300F064
:10AC9800B881129B012B00F0C18152465B4600200F
:10ACA800B249F5F7A3FD04460D462046294609B0EA
:10ACB800BDE8F08FAE4B009A9A421FDD002904DAF6
:10ACC8000BF100439B4609F10049524688A1D1E99E
:10ACD80000015B46F5F7A8FA04460D4686A1D1E9BE
:10ACE800000142464B46F5F79FFA22462B46F5F7F8
:10ACF8009DFA4FF0000882468B46C14652465B4695
:10AD080050465946F5F748FC02460B4606460F469C
:10AD1800F5F742FC324604460D463B465046594636
:10AD2800CDE90267F5F738FC75A3D3E90023064699
:10AD38000F4620462946CDE90467F5F72DFC72A396
:10AD4800D3E90023F5F772FA22462B46F5F724FCDF
:10AD58006FA3D3E90023F5F769FA22462B46F5F7E6
:10AD68001BFC6DA3D3E90023F5F760FA22462B46B6
:10AD7800F5F712FC6AA3D3E90023F5F757FA224640
:10AD88002B46F5F709FC68A3D3E90023F5F74EFA3B
:10AD9800DDE90223F5F700FC65A3D3E900230646A5
:10ADA8000F4620462946F5F7F7FB63A3D3E90023AE
:10ADB800F5F73CFA22462B46F5F7EEFB60A3D3E9FC
:10ADC8000023F5F733FA22462B46F5F7E5FB5EA399
:10ADD800D3E90023F5F72AFA22462B46F5F7DCFBE0
:10ADE8005BA3D3E90023F5F721FA22462B46F5F7B2
:10ADF800D3FB59A3D3E90023F5F718FA02460B460B
:10AE080030463946F5F712FADDE9046732463B4623
:10AE1800F5F7C2FB42464B46F5F708FADDE902238F
:10AE2800F5F7BAFB42464B46F5F700FA4CA3D3E9CF
:10AE3800002304460D4630463946F5F7ADFB224659
:10AE48002B46F5F7F3F902460B4606460F465046E1
:10AE58005946F5F7EBF9464B009A04469A420D46D7
:10AE680000F38A80129B012B3DD002460B4600203E
:10AE78003E49F5F7BBFC00248046894652465B46AE
:10AE8800CDE9020120462946CDE900890094F5F76D
:10AE9800CBF902460B4630463946F5F7C5F9A046C8
:10AEA800A946DDE9004522462B46F5F775FB224603
:10AEB8002B4682468B4640464946F5F76DFB0022F5
:10AEC8002C4BF5F7B3F902460B4650465946F5F7B1
:10AED800ADF9DDE90223F5F75FFB22462B46F5F7CE
:10AEE800A5F904460D462046294609B0BDE8F08F6D
:10AEF800182D4454FB21E93F075C143326A6813CF6
:10AF0800D47ABF74702AFB3EE9A7F0320FB8123F1B
:10AF180068108D1AF726303F1583E0FEC8DB573FCF
:10AF280093846EE9E326823FFE41B31BBAA1AB3F8F
:10AF3800735360DBCB75F3BEA69237A0887E143FAF
:10AF48000165F2F2D844433F280356C9226D6D3F8C
:10AF580037D60684F464963F7AFE10111111C13F6A
:10AF6800635555555555D53FFFFF2F3E0000F0BF9F
:10AF78002794E53F0000F03F1298F5F7A3FA224620
:10AF8800804689462B4620462946F5F705FB42466A
:10AF9800CDE900014B4620462946F5F747F9024618
:10AFA8000B46DDE90001F5F721FC32463B46F5F793
:10AFB8003BF902460B4650465946F5F735F9024625
:10AFC8000B46F5F733F902460B4640464946F5F776
:10AFD8002BF9079B04464FEAA37B0BF0020BCBF13E
:10AFE80001000D46F5F76EFA02460B462046294643
:10AFF800F5F7D2FA04460D462046294609B0BDE8C1
:10B00800F08F50465946FEF7B1FF02460B46002026
:10B018000449F5F7EBFB04460D4664E754465D46E4
:10B0280061E700BF0000F03FF8B5C1F30A57A7F287
:10B03800FF35132D0B460C460246064620DC002D34
:10B0480040DB354F2F4101EA070C5CEA000C14D0B5
:10B058002FA3D3E90023F5F7E9F800220023F5F739
:10B068002BFD40B1002C03DA4FF480132B411C4414
:10B07800002624EA07043246234610461946F8BD3E
:10B08800332D07DDB5F5806FF7D1F5F7CFF8024618
:10B098000B46F2E74FF0FF3CA7F213472CFA07F7ED
:10B0A8000742EAD01AA3D3E90023F5F7BFF8002234
:10B0B8000023F5F701FD0028DDD0002C1BDB26EA74
:10B0C8000706D8E712A3D3E90023F5F7AFF8002263
:10B0D8000023F5F7F1FC0028CDD0002C02DB002678
:10B0E8003446C8E724F000430C4A1E43002E18BF1C
:10B0F80014460026BFE7142D08D00122C5F13403F9
:10B1080002FA03F39E1928BFA418D8E70134D6E73A
:10B118009C7500883CE4377EFFFF0F000000F0BFFD
:10B12800F8B5C1F30A5304460D460E46174673BBDD
:10B13800034621F00046334328D0314B0022F5F76F
:10B148002BFA304B04469F420D461ADB0E46C1F3DC
:10B158000A53363B40F2FE723B44934220DC002BFC
:10B168003CDC13F1350F2CDA4CF250339F4217DCDC
:10B1780005F0004343F0D27141F4B731224841F061
:10B188001F011BA3D3E90023F5F706FAF8BD40F227
:10B19800FF729342DED102460B46F5F747F8F8BD39
:10B1A80005F0004444F0FC4141F45F1141F41051B2
:10B1B80011A3D3E90023154841F03C01F5F7ECF958
:10B1C800F8BD26F0FF4626F4E006363346EA03517A
:10B1D800204600220E4BF5F7DFF9F8BD26F0FF46B2
:10B1E80026F4E006204646EA0351F8BDAFF3008096
:10B1F80059F3F8C21F6EA5019C7500883CE4377EA0
:10B2080000005043B03CFFFF59F3F8C29C7500881A
:10B218000000903C08B500F003F808B5FFF7FAFF06
:10B22800062008B500F0B6F90120FDF736F9000050
:10B2380010B504460448134620B10A4602202146A8
:10B24800AFF3008010BD00BF00000000014B18687C
:10B25800704700BF1C00002070B500260C4D0D4C37
:10B26800641BA410A64209D100F046FD00260A4D31
:10B278000A4C641BA410A64205D170BD55F8043BC6
:10B2880098470136EEE755F8043B98470136F2E750
:10B29800B8CF0008B8CF0008B8CF0008C0CF000862
:10B2A800024B0146186800F06DB800BF1C00002072
:10B2B800024B0146186800F019B800BF1C000020B6
:10B2C8000A44914200F1FF3300D1704710B511F8DC
:10B2D800014B914203F8014FF9D110BD03460244D6
:10B2E800934200D1704703F8011BF9E738B50546CA
:10B2F800002943D051F8043C0C1F002BB8BFE418B8
:10B3080000F042FC1E4A1368104633B963601460AB
:10B318002846BDE8384000F03DBCA3420AD9216860
:10B328006218934201BF1A685B6852182260636012
:10B338000460EDE71A465B680BB1A342FAD91168BD
:10B348005018A0420BD12068014450188342116064
:10B35800DED118685B68014411605360D8E702D9F0
:10B368000C232B60D4E7206821188B4201BF196891
:10B378005B680918216063605460C9E738BD00BF85
:10B3880044090020F8B5CD1C25F0030508350C2D1F
:10B3980038BF0C25002D064601DBA94203D90C2332
:10B3A80033600020F8BD00F0EFFB21490A6814461D
:10B3B8009CB9204F3B6823B92146304600F0B2F8CB
:10B3C80038602946304600F0ADF8431C23D10C23E1
:10B3D8003046336000F0DEFBE3E723685B1B17D4DD
:10B3E8000B2B03D923601C44256004E06368A24248
:10B3F8000CBF0B605360304600F0CCFB04F10B002F
:10B40800231D20F00700C21ACCD01B1AA350C9E78D
:10B4180022466468CCE7C41C24F00304A042E3D0AD
:10B42800211A304600F07EF80130DDD1CFE700BFA9
:10B43800440900204809002070B50E46054618B199
:10B4480083690BB900F09CFAAB69AC6813B928465C
:10B4580000F096FA2C4B9C4220D16C68636EDB0797
:10B4680005D4A389980502D4A06D00F027FBA38911
:10B4780019071DD52369DBB1013EA36816F8011F22
:10B48800013BA36039BB002B38DA22460A21284643
:10B4980000F09CF8013011D00A2511E01B4B9C42AA
:10B4A80001D1AC68DAE71A4B9C4208BFEC68D5E7D3
:10B4B8002146284600F0DCF80028DDD04FF0FF35A3
:10B4C800636EDA0705D4A3899B0502D4A06D00F04A
:10B4D800F6FA284670BD002B04DAA2699A4206DC07
:10B4E8000A2904D023685A1C22601970C5E722462D
:10B4F800284600F06BF80130BFD1DFE70A25236842
:10B508005A1C22601D70DBE794CB0008B4CB0008FE
:10B5180074CB0008024B01461868FFF78DBF00BFC7
:10B528001C00002038B50023054D044608462B6052
:10B53800FCF7F6FF431C02D12B6803B1236038BD2A
:10B54800580900201F2938B504460D4604D916238A
:10B5580003604FF0FF3038BD426C12B152F8213011
:10B568004BB9204600F030F82A4601462046BDE88F
:10B57800384000F017B8012B0AD0591C03D1162304
:10B5880003600120E7E70024284642F82540984751
:10B598000020E0E7024B01461868FFF7D3BF00BF61
:10B5A8001C00002038B50023064D04460846114605
:10B5B8002B60FCF762FF431C02D12B6803B12360A8
:10B5C80038BD00BF58090020FCF750BFF8B50E463B
:10B5D8001446054618B183690BB900F0D1F9214B1F
:10B5E8009C422BD16C68A369A360A3891A072FD545
:10B5F80023696BB323692068F6B2C01A63693746BA
:10B60800834204DC2146284600F026F930BBA368B3
:10B618000130013BA36023685A1C22601E706369D5
:10B62800834204D0A389DB0706D50A2E04D121461C
:10B63800284600F011F988B93846F8BD0A4B9C42F3
:10B6480001D1AC68CFE7094B9C4208BFEC68CAE758
:10B658002146284600F00CF80028CBD04FF0FF37E1
:10B66800EAE700BF94CB0008B4CB000874CB00080D
:10B67800324B70B51D6806460C4625B1AB6913B947
:10B68800284600F07DF92E4B9C420FD16C68A389A7
:10B69800B4F90C2019072CD4DD0611D40923336022
:10B6A80042F040034FF0FF30A3813EE0254B9C421F
:10B6B80001D1AC68EBE7244B9C4208BFEC68E6E795
:10B6C800580712D5616B41B104F14403994202D085
:10B6D8003046FFF70BFE00236363A38923F024039E
:10B6E800A3810023636023692360A38943F00803CF
:10B6F800A38123694BB9A38903F42073B3F5007FB1
:10B7080003D02146304600F0FFF9A089B4F90C2097
:10B7180010F001030AD00023A36063695B42A361B0
:10B72800236943B910F08000BAD170BD810758BFB2
:10B738006369A360F4E70020F7E700BF1C0000205E
:10B7480094CB0008B4CB000874CB00088A892DE993
:10B75800F041054610070C4658D44B68002B05DC11
:10B768000B6C002B02DC0020BDE8F081E66A002E9D
:10B77800F9D0002312F480522F682B6032D0606D0C
:10B78800A3895A0705D56368C01A636B0BB1236C8C
:10B79800C01A00230246E66A2846216AB047431CBD
:10B7A800A38906D129681D292CD82A4ACA40D60758
:10B7B80028D5002262602269D904226004D5421C7F
:10B7C80001D12B6803B96065616B2F600029CAD06D
:10B7D80004F14403994202D02846FFF787FD002070
:10B7E8006063C1E7216A01232846B047411CC7D1DD
:10B7F8002B68002BC4D01D2B01D0162B01D12F6034
:10B80800B1E7A38943F04003A381ADE70F69002F97
:10B81800A9D0930718BF00230E6808BF4B69A6EB91
:10B8280007080F608B60B8F1000F9CDD43463A466D
:10B838002846216AA66AB047002806DCA3894FF08B
:10B84800FF3043F04003A3818EE70744A8EB0008CC
:10B85800E9E700BF0100402038B50B6905460C46F2
:10B8680013B90025284638BD18B183690BB900F013
:10B8780087F8144B9C421BD16C68B4F90C30002B30
:10B88800EFD0626ED00704D4990502D4A06D00F001
:10B8980015F928462146FFF759FF636E0546DA0772
:10B8A800E0D4A3899B05DDD4A06D00F008F9D9E7A1
:10B8B800054B9C4201D1AC68DFE7044B9C4208BFB2
:10B8C800EC68DAE794CB0008B4CB000874CB000826
:10B8D800002310B50446C0E90033C0E9043383608F
:10B8E80081814366C2818361194608225C30FFF773
:10B8F800F5FC054B24626362044BA362044BE362CC
:10B90800044B236310BD00BFA9BB0008CBBB0008D4
:10B9180003BC000827BC0008014900F0AFB800BF0D
:10B9280061B8000870B568254A1E55430E4605F1F2
:10B938007401FFF727FD044640B10021C0E9001655
:10B948000C30A06005F16802FFF7C8FC204670BD06
:10B95800014800F0B3B800BF54090020014800F0C6
:10B96800AEB800BF54090020014800F0A7B800BFD6
:10B978004F090020014800F0A2B800BF4F0900207D
:10B9880010B50446FFF7F0FFA3691BB1BDE81040EE
:10B99800FFF7F0BFC4E912332365134B134A1B6842
:10B9A800A262A34208BF0123204608BFA36100F09A
:10B9B8001FF86060204600F01BF8A060204600F0E9
:10B9C80017F800220421E0606068FFF781FF012278
:10B9D8000921A068FFF77CFF02221221E068FFF727
:10B9E80077FF0123A361D1E770CB000821B90008D4
:10B9F800F8B50746FFF7ACFF1E4B1E68B36913B9CD
:10BA08003046FFF7BDFF4836D6E90134013B03D580
:10BA180033680BB33668F7E7B4F90C50D5B9164B51
:10BA280004F15800E360656600F047F8FFF796FFF9
:10BA380008222946C4E90155C4E904552560A561D1
:10BA480004F15C00FFF74AFCC4E90D55C4E912553E
:10BA58002046F8BD6834D9E704213846FFF762FF6D
:10BA6800044630600028D5D1FFF778FF0C233B60EF
:10BA7800EEE700BF70CB00080100FFFF2DE9F84397
:10BA880006468846002700F14804D4E90195B9F133
:10BA9800010905D52468002CF7D13846BDE8F8839C
:10BAA800AB89012B07D9B5F90E30013303D02946EC
:10BAB8003046C04707436835E9E770477047704725
:10BAC80070B50E46B1F90E10144600291D4696B001
:10BAD80007DA00232B60B3891A0610D44FF4806369
:10BAE8000EE06A4600F0C2F80028F2DB019A02F480
:10BAF8007042A2F500535A425A412A60EEE74023A9
:10BB08000020236016B070BD8B8973B59D0706466B
:10BB18000C4607D504F147032360236101236361C1
:10BB280002B070BD6A4601ABFFF7CAFF009905462F
:10BB38003046FFF727FC48B9B4F90C309A05EFD422
:10BB480023F0030343F00203A381E3E70D4BB36241
:10BB5800A389206043F08003A381009B2061636177
:10BB6800019B5BB13046B4F90E1000F091F828B192
:10BB7800A38923F0030343F00103A381A0890543AC
:10BB8800A581CDE721B900080148FFF797BF00BF9D
:10BB9800500900200148FFF792BF00BF500900205C
:10BBA80010B50C46B1F90E1000F094F80028ABBFA0
:10BBB800636DA3891B1823F48053ACBF6365A3810D
:10BBC80010BD2DE9F0411F468B890546DB050C4663
:10BBD800164605D502230022B1F90E1000F068F8C8
:10BBE800A389324623F48053A38128463B46B4F9FF
:10BBF8000E10BDE8F04100F017B810B50C46B1F9C9
:10BC08000E1000F055F8431CA38915BF606523F496
:10BC1800805343F48053A38118BFA38110BDB1F9A9
:10BC28000E1000F013B8000038B504460846114657
:10BC38000022054D2A601A46FCF756FC431C02D127
:10BC48002B6803B1236038BD5809002038B500239C
:10BC5800054D044608462B60FCF78EFC431C02D1B8
:10BC68002B6803B1236038BD5809002038B500237C
:10BC7800064D0446084611462B60FCF788FC431C19
:10BC880002D12B6803B1236038BD00BF58090020DA
:10BC980038B50023054D044608462B60FCF786FCA2
:10BCA800431C02D12B6803B1236038BD580900201A
:10BCB80038B50446084611460022054D2A601A4642
:10BCC800FCF77EFC431C02D12B6803B1236038BD0E
:10BCD8005809002038B50446084611460022054D8B
:10BCE8002A601A46FCF7E3FB431C02D12B6803B118
:10BCF800236038BD58090020F8B500BFF8BC08BC5F
:10BD08009E467047F8B500BFF8BC08BC9E46704711
:10BD180002030405060708090A0B0C0D0E0F101084
:10BD280001000200030004000500060007000800E7
:10BD380009000A000B000C000D000E000F00100097
:10BD4800627574746F6E3A2564206C783D256420A2
:10BD58006C793D25642072783D25642072793D25F3
:10BD6800640D0A006865696D61726F626F7420699D
:10BD78006E69742E2E0D0000503A0000493A0000FA
:10BD8800443A000068656C6C6F0000006865696D76
:10BD980061726F626F740000726F626F742E637AE3
:10BDA80078792E636F6D000000000000000000002D
:10BDB80000000000000000003F40000000000000FC
:10BDC80000003000400030004000000009000BC0B7
:10BDD8003D000BC03D00090018C024407FE0224010
:10BDE80031800000180024C01B000D803240018003
:10BDF80003801C4027401C80074000401000600062
:10BE080000000000000000000000000000001F808B
:10BE1800204040200000402020401F8000000000FB
:10BE2800090006001F800600090000000400040045
:10BE38003F800400040000000010006000000000C3
:10BE480000000000040004000400040004000000D6
:10BE5800000000400000000000000000002001C0B9
:10BE680006003800400000001F802040204020408D
:10BE78001F800000000010403FC00040000000008C
:10BE880018C0214022402440184000001080204063
:10BE9800244024401B80000002000D0011003FC018
:10BEA800014000003C8024402440244023800000BE
:10BEB8001F802440244034400380000030002000CC
:10BEC80027C03800200000001B8024402440244064
:10BED8001B8000001C0022C0224022401F8000005E
:10BEE8000000000008400000000000000000000002
:10BEF8000460000000000000000004000A001100B7
:10BF080020804040090009000900090009000000DC
:10BF180000004040208011000A00040018002000A2
:10BF280023402400180000001F802040274029409B
:10BF38001F400000004007C039000F0001C000404A
:10BF480020403FC0244024401B8000001F80204028
:10BF5800204020403080000020403FC0204020404A
:10BF68001F80000020403FC024402E4030C0000009
:10BF780020403FC024402E00300000000F001080F9
:10BF8800204022403380020020403FC004000400CB
:10BF98003FC02040204020403FC0204020400000BB
:10BFA8000060202020203FC02000200020403FC00B
:10BFB80024400B0030C0204020403FC020400040BB
:10BFC800004000C03FC03C0003C03C003FC0000030
:10BFD80020403FC00C4023003FC020001F8020406D
:10BFE800204020401F80000020403FC02440240003
:10BFF800180000001F802140214020E01FA0000001
:10C0080020403FC02440260019C0004018C02440EA
:10C018002440224031800000300020403FC02040B2
:10C028003000000020003F80004000403F8020009A
:10C0380020003E0001C0070038002000380007C07B
:10C048003C0007C038000000204039C0060039C055
:10C05800204000002000384007C038402000000081
:10C06800304021C02640384020C0000000000000B9
:10C078007FE0402040200000000070000C0003809A
:10C08800004000000000402040207FE00000000049
:10C0980000002000400020000000000000100010F8
:10C0A8000010001000100010000000004000000008
:10C0B80000000000000002800540054003C0004069
:10C0C80020003FC0044004400380000000000380BB
:10C0D800044004400640000000000380044024405F
:10C0E8003FC00040000003800540054003400000B9
:10C0F800000004401FC0244024402000000002E04B
:10C10800055005500650042020403FC0044004005C
:10C1180003C000400000044027C0004000000000A9
:10C1280000100010041027E00000000020403FC06D
:10C138000140070004C00440204020403FC00040A8
:10C148000040000007C0040007C0040003C000004E
:10C15800044007C00440040003C0004000000380FE
:10C168000440044003800000041007F00450044019
:10C1780003800000000003800440045007F0001012
:10C18800044007C00240040004000000000006400C
:10C198000540054004C00000000004001F80044062
:10C1A80000400000040007800040044007C0004031
:10C1B8000400070004C0018006000400060001C056
:10C1C800070001C006000000044006C0010006C0C8
:10C1D800044000000410071004E001800600040079
:10C1E8000000044005C006400440000000000000B4
:10C1F80004007BE040200000000000000000FFF089
:10C2080000000000000040207BE004000000000067
:10C218004000800040002000200040000000000096
:10C228000000000000000000000000000000000006
:10C2380000001FCC000C00000000000000000800F7
:10C24800300060000800300060000000022003FC9D
:10C258001E20022003FC1E200220000000000E18F1
:10C2680011043FFF10840C78000000000F001084B8
:10C278000F3800C0077818840078000000780F8411
:10C2880010C411240E9800E4008400080800680017
:10C298007000000000000000000000000000000026
:10C2A800000007E0181820044002000000004002C7
:10C2B8002004181807E000000000000002400240B7
:10C2C80001800FF0018002400240000000800080E1
:10C2D80000800FF800800080008000000001000D41
:10C2E800000E0000000000000000000000000080B8
:10C2F8000080008000800080008000800000000C2A
:10C30800000C000000000000000000000000000613
:10C31800001800600180060018002000000007F0E7
:10C32800080810041004080807F0000000000804BA
:10C3380008041FFC000400040000000000000E0CAC
:10C3480010141024104411840E0C000000000C1866
:10C3580010041104110412880C700000000000E0A1
:10C368000320042408241FFC0024000000001F9858
:10C37800108411041104108810700000000007F0E8
:10C3880008881104110418880070000000001C00BF
:10C39800100010FC13001C001000000000000E38F4
:10C3A80011441084108411440E3800000000070066
:10C3B800088C10441044088807F0000000000000B2
:10C3C8000000030C030C0000000000000000000047
:10C3D80000010106000000000000000000000080CD
:10C3E8000140022004100808100400000220022066
:10C3F8000220022002200220022000000000100477
:10C4080008080410022001400080000000000E000F
:10C418001200100C106C10800F00000003E00C18C4
:10C4280013E4142417C4082807D000000004003CB3
:10C4380003C41C40074000E4001C000410041FFC57
:10C448001104110411040E880070000003E00C1898
:10C4580010041004100410081C10000010041FFC25
:10C46800100410041004080807F0000010041FFC52
:10C478001104110417C410040818000010041FFC4C
:10C488001104110017C010000800000003E00C1888
:10C498001004100410441C780040000010041FFC15
:10C4A80010840080008010841FFC10040000100419
:10C4B80010041FFC10041004000000000003000119
:10C4C800100110011FFE10001000000010041FFCD6
:10C4D800110403801464181C1004000010041FFCCD
:10C4E8001004000400040004000C000010041FFCE9
:10C4F8001F0000FC1F001FFC1004000010041FFC9C
:10C508000C04030000E010181FFC100007F00808D6
:10C51800100410041004080807F0000010041FFCA1
:10C5280010841080108010800F00000007F0081899
:10C5380010241024101C080A07F2000010041FFC25
:10C548001104110011C011300E0C000400000E1C63
:10C5580011041084108410441C38000018001000C6
:10C5680010041FFC100410001800000010001FF831
:10C5780010040004000410041FF8100010001E002E
:10C5880011E0001C007013801C0010001FC0103C3C
:10C5980000E01F0000E0103C1FC000001004180C51
:10C5A800163401C001C01634180C100410001C0009
:10C5B800130400FC13041C00100000000804101CE5
:10C5C8001064108413041C041018000000000000FC
:10C5D80000007FFE400240024002000000003000E0
:10C5E8000C0003800060001C0003000000004002F3
:10C5F800400240027FFE0000000000000000000032
:10C608002000400040004000200000000001000120
:10C6180000010001000100010001000100004000CC
:10C62800400020000000000000000000000000980A
:10C63800012401440144014400FC000410001FFCD3
:10C6480000880104010400880070000000000070E8
:10C658000088010401040104008800000000007043
:10C6680000880104010411081FFC0004000000F800
:10C67800014401440144014400C8000000000104D1
:10C6880001040FFC1104110411001800000000D669
:10C6980001290129012901C90106000010041FFC14
:10C6A800008401000100010400FC000400000104F2
:10C6B800190419FC00040004000000000000000335
:10C6C80000010101190119FE0000000010041FFCFF
:10C6D8000024004001B4010C010400000000100413
:10C6E80010041FFC0004000400000000010401FC09
:10C6F8000104010001FC0104010000FC010401FC2B
:10C70800008401000100010400FC0004000000F89E
:10C71800010401040104010400F80000010101FF03
:10C72800008501040104008800700000000000700A
:10C73800008801040104010501FF0001010401044E
:10C7480001FC00840104010001800000000000CC0D
:10C7580001240124012401240198000000000100A3
:10C76800010007F80104010400000000010001F8BD
:10C77800000400040004010801FC00040100018019
:10C788000170000C001001600180010001F0010C33
:10C79800003001C00030010C01F00100000001046C
:10C7A800018C00740170018C0104000001010181F9
:10C7B8000171000E00180160018001000000018471
:10C7C800010C013401440184010C00000000000048
:10C7D8000000000001003EFC400240020000000092
:10C7E80000000000FFFF0000000000000000400201
:10C7F80040023EFC01000000000000000000600054
:10C808008000800040004000200020000000000060
:10C8180000000000010203040607080900000000E8
:10C828000102030430C900083CC8000830C90008E8
:10C838005CC800084E31305F5F6378786162697662
:10C848003131355F5F666F726365645F756E7769F6
:10C858006E6445004E31305F5F6378786162697657
:10C868003131395F5F666F726569676E5F657863DE
:10C87800657074696F6E4500BCC800088CC80008F4
:10C88800F8C800084E31305F5F6378786162697676
:10C898003132305F5F73695F636C6173735F7479A2
:10C8A80070655F696E666F4500000000000000005B
:10C8B80080C80008E1980008F5980008E599000884
:10C8C800E5990008D39A0008159A0008B999000854
:10C8D800459900080999000830C90008E8C8000807
:10C8E800537439747970655F696E666F0000000073
:10C8F800BCC8000804C90008E0C800084E31305F11
:10C908005F637878616269763131375F5F636C6144
:10C9180073735F747970655F696E666F45000000B8
:10C9280000000000F8C80008559A0008699A000835
:10C93800E5990008E5990008D39A0008159A0008B7
:10C94800BB9A00087D9A0008499A00080000000078
:10C958004FBB610567ACDD3F182D4454FB21E93F0F
:10C968009BF681D20B73EF3F182D4454FB21F93FFE
:10C97800E2652F227F2B7A3C075C143326A6813C84
:10C98800BDCBF07A8807703C075C143326A6913C2F
:10C99800FB21F93FFB2109407CD91240FB211940BA
:10C9A8007A6A1F407CD92240BBFD2540FB212940E3
:10C9B8003A462C407A6A2F405C4731407CD9324055
:10C9C8009C6B3440BBFD3540DB8F3740FB21394041
:10C9D8001BB43A403A463C405AD83D407A6A3F40F8
:10C9E8004C7E40405C4741406C1042407CD94240FC
:10C9F8008CA243409C6B4440AC344540BBFD454051
:10CA0800CBC64640DB8F4740EB584840FB214940A6
:10CA180083F9A200444E6E00FC291500D157270067
:10CA2800DD34F50062DBC0003C999500419043007D
:10CA38006351FE00BBDEAB00B761C5003A6E24004F
:10CA4800D24D42004906E00009EA2E001C92D100AE
:10CA5800EB1DFE0029B11C00E83EA700F535820059
:10CA680044BB2E009CE98400B4267000417E5F0020
:10CA7800D6913900538339009CF439008B5F8400C8
:10CA880028F9BD00F81F3B00DEFF97000F9805004E
:10CA9800112FEF000A5A8B006D1F6D00CF7E3600F4
:10CAA80009CB2700464FB7009E663F002DEA5F007E
:10CAB800BA277500E5EBC7003D7BF100F7390700A1
:10CAC80092528A00FB6BEA001FB15F00085D8D007F
:10CAD800300356007BFC4600F0AB6B0020BCCF0057
:10CAE80036F49A00E3A91D005E619100081BE60078
:10CAF80085996500A0145F008D40680080D8FF000C
:10CB080027734D0006063100CA561500C9A87300E0
:10CB18007BE260006B8CC00000000040FB21F93F05
:10CB2800000000002D44743E000000809846F83C48
:10CB38000000006051CC783B00000080831BF03976
:10CB48000000004020257A38000000802282E33669
:10CB5800000000001DF3693502000000030000001A
:10CB68000400000006000000200000200000000073
:10CB780000000000000000000000000000000000AD
:10CB8800000000000000000000000000000000009D
:10CB9800000000000000000000000000000000008D
:10CBA800000000000000000000000000000000007D
:10CBB800000000000000000000000000000000006D
:0CCBC80000000000000000000000000061
:10CBD4005DC9FF7F84069701B0B0B009FFFF01492A
:10CBE4000A0400001804DC0100220400004404E6E6
:10CBF40001004C0400005E04F001006604000074AF
:10CC040004FA01007E040000A20104840200AA01C7
:10CC1400040000BA01048E0200C201040000D00125
:10CC240004980200E2014000000000000197018125
:10CC3400B0B008840000000011970181B0B00B84EB
:10CC44000000000001970181B0B0088400000000DA
:10CC540003970181B0B008840000000001970181AE
:10CC6400B0B008840000000001970181B0B00884CE
:10CC74000000000001970181B0B0088400000000AA
:10CC840001970181B0B0088400000000A1C8FF7FB3
:10CC940084049701B0B0B009FFFF010C1A0400002E
:10CCA4002A043E004404000001970181B0B00884C6
:10CCB4000000000005970181B0B00B840000000063
:10CCC40001970181B0B0088400000000039701813E
:10CCD400B0B008840000000003970181B0B008845C
:10CCE4000000000001970181B0B00884000000003A
:10CCF40001970181B0B00884000000000197018110
:10CD0400B0B008840000000003970181B0B008842B
:10CD14000000000003970181B0B008840000000007
:10CD240003970181B0B008840000000005970181D9
:10CD3400B0B008840000000005970181B0B00884F9
:10CD44000000000005970181B0B0088400000000D5
:10CD540001970181B0B008840000000001970181AF
:10CD6400B0B008840000000003970181B0B00884CB
:10CD7400000000000A970181B0B00984000000009F
:10CD840007970181B0B00884000000000D9701816D
:10CD9400B0B008840000000003970181B0B008849B
:10CDA4000000000008B10181B0B000840000000060
:0CCDB40008B10181B0B000840000000054
:10CDC000F843FF7F010000008844FF7FB0A9028084
:10CDD0002045FF7FB0B0A8807045FF7F01000000B4
:10CDE0007C45FF7FB0B0AA80B045FF7FAE71B280B6
:10CDF0006C46FF7F010000006846FF7FAB3F388034
:10CE0000C046FF7F01000000CC46FF7FB0B0AA8083
:10CE10000847FF7F01000000B847FF7FAB0EB280DC
:10CE20002448FF7FB0AF0880C44AFF7F01000000A4
:10CE3000C84AFF7FAD3F0280284DFF7F0100000000
:10CE4000044FFF7F00840480184FFF7F0100000023
:10CE5000144FFF7FB0AD0480A851FF7FB0A80380BE
:10CE6000C851FF7F44FFFF7FCC51FF7F48FFFF7F0A
:10CE7000D851FF7F010000006C94FF7F58FDFF7FB9
:10CE8000AC95FF7FACFDFF7F0096FF7FB0FDFF7F7D
:10CE90004098FF7FB4FDFF7F5C98FF7FB8FDFF7F68
:10CEA0008A98FF7F010000009499FF7FB4FDFF7F07
:10CEB000AC99FF7F01000000249AFF7FB0FDFF7F47
:10CEC000A49AFF7FB4FDFF7FB09BFF7F01000000AD
:10CED000B49DFF7FB0FDFF7FE09DFF7F010000005C
:10CEE000AC9EFF7FACFDFF7F009FFF7FC0FDFF7FFB
:10CEF000209FFF7FC4FDFF7F28A0FF7FC8FDFF7F2D
:10CF000054A0FF7F0100000088A0FF7F0884978065
:10CF1000BCA0FF7FBCFDFF7F5CA1FF7FC0FDFF7F4A
:10CF2000C8A1FF7FC4FDFF7F80A2FF7FC8FDFF7FF8
:10CF30009CA2FF7FCCFDFF7FB8A2FF7FD0FDFF7FCB
:10CF400014A3FF7FD4FDFF7F68A3FF7FD8FDFF7F81
:10CF5000E8A3FF7FDCFDFF7F44A4FF7FE0FDFF7FB0
:10CF6000A0A4FF7FE4FDFF7F08A5FF7FE8FDFF7F12
:10CF700048A5FF7FECFDFF7F84A5FF7FF0FDFF7FCD
:10CF8000C0A5FF7F0100000008ABFF7F08849780E9
:10CF900058ABFF7FE4FDFF7F40ACFF7FE8FDFF7FE4
:10CFA00098ADFF7FECFDFF7F44B0FF7FF0FDFF7F7A
:08CFB000A8B1FF7F01000000A1
:08CFB8000D020008E5810008EC
:04CFC000E90100087B
:10CFC4000000000010000000010064006400640020
:10CFD4000024F4008D98000829B2000820000020E5
:10CFE4000000000094CB0008B4CB000874CB000808
:10CFF400000000000000000000000000000000002D
:10D00400000000000000000000000000000000001C
:10D01400000000000000000000000000000000000C
:10D0240000000000000000000000000000000000FC
:10D0340000000000000000000000000000000000EC
:04000005080091A1BD
:00000001FF
