:020000040800F2
:10000000C077002079C20008590400085B0400088A
:100010005D0400085F04000861040008000000009F
:10002000000000000000000000000000B90200080D
:100030006304000800000000FD020008E54000081D
:1000400093C2000893C2000893C2000893C200083C
:1000500093C2000893C2000893C2000893C200082C
:1000600093C2000893C2000893C2000893C200081C
:1000700093C2000893C2000893C2000893C200080C
:1000800093C2000893C2000893C2000893C20008FC
:10009000F11B000893C2000893C2000893C2000835
:1000A00093C20008A52E000893C200081F2C000868
:1000B00051200008612000087120000893C2000848
:1000C00093C2000893C2000893C2000893C20008BC
:1000D00093C20008A5380008F9340008A5370008C5
:1000E00093C2000893C2000893C2000893C200089C
:1000F00093C2000893C2000893C2000893C200088C
:1001000093C2000893C200088120000893C200082F
:1001100093C2000893C2000893C2000893C200086B
:1001200093C2000893C2000893C2000893C200085B
:1001300000F002F800F0B0F80AA090E8000C824449
:100140008344AAF10107DA4501D100F0A5F8AFF226
:10015000090EBAE80F0013F0010F18BFFB1A43F0A5
:1001600001031847B0B50100D0B501000A444FF0B3
:10017000000C10F8013B13F0070408BF10F8014B06
:100180001D1108BF10F8015B641E05D010F8016B4B
:10019000641E01F8016BF9D113F0080F1EBF10F8AF
:1001A000014BAD1C0C1B09D16D1E58BF01F801CBD2
:1001B000FAD505E014F8016B01F8016B6D1EF9D555
:1001C0009142D6D37047000000230024002500266A
:1001D000103A28BF78C1FBD8520728BF30C148BFAA
:1001E0000B6070476E2913F02A87702913F0F38390
:1001F000662919F0FC80652919F0F980672919F042
:10020000F680612919F0F58003681B0A28BF41F0C8
:100210008001692913F06483642913F061837529CF
:1002200013F05E836F2914F02F82782913F0BF83B7
:10023000E92914F0C981E42914F0C681F52914F0E4
:10024000C381EF2914F02C82F82913F0BE830368D0
:10025000DB0928BF41F08001632914F0388173293C
:1002600014F03D81E32914F03B84F32914F0408419
:10027000002070471FB514F01DFA04000020002173
:1002800017F0D0FD401C60600020002117F0B4FD85
:10029000E0601FBD10B510BD14F0C4FC1146FFF79F
:1002A000E9FF00F08EF814F0EBFC03B4FFF7F2FF67
:1002B00003BC03F037FF0000224B19680868B0E860
:1002C000F00F80F30988BFF36F8F4FF0000080F3C9
:1002D00011884EF00D0E70470000000006480068BF
:1002E000006880F3088862B661B6BFF34F8FBFF332
:1002F0006F8F00DF00BF00BF08ED00E0EFF3098063
:10030000BFF36F8F0F4B1A6820E9F00F106008B52C
:100310004FF0500080F31188BFF34F8FBFF36F8F02
:100320000DF052F84FF0000080F31188BDE808404E
:1003300019680868B0E8F00F80F30988BFF36F8F81
:10034000704700BF8C020020EFF30580704700006B
:100350007CB50EF0EDF900240525CDE900542346C7
:10036000802221A125480CF0A1FDCDE900540023F5
:10037000802223A126480CF099FDCDE900540023EA
:10038000802224A127480CF091FD0320CDE9000430
:100390004FF4007500232A4623A126480CF086FD61
:1003A0000420CDE9000400232A4623A125480CF0AF
:1003B0007DFD254800680CF0A4FDBDE87C400EF0F2
:1003C000D1B91CB501F090F91F4904200023CDE9F3
:1003D000000182011DA1AFF287000CF067FD0DF056
:1003E0000BF900201CBD00004765745F436F6D6D05
:1003F0006F6E645F5461736B00000000350A000883
:100400004765745F53656E736F725F5461736B0001
:10041000350B0008436163756C6174655F546173EB
:100420006B000000810E000853686F775F546173A2
:100430006B00000031130008444154415F74617344
:100440006B000000E53A0008000000207374617240
:10045000745F7461736B00007047FEE7FEE7FEE7B0
:10046000FEE770470CB500224C48009201920168EB
:1004700041F4803101604FF4A063016801F4003160
:1004800001910099491C0091019911B90099994273
:10049000F3D10168890333D50121019140490A68EC
:1004A00042F010020A600A6822F003020A600A6839
:1004B00042F002020A60416841604168416041685F
:1004C00041F480614160416821F47C1141604168E0
:1004D00041F4E8114160016841F0807101600168F8
:1004E0008901FCD5416821F003014160416841F078
:1004F000020141604168C1F381010229FAD10CBDBA
:1005000001920CBD254810B5016841F00101016060
:100510004168244A114041600168234A114001604A
:10052000016821F480210160416821F4FE014160ED
:100530004FF41F018160FFF795FF1C494FF00060E9
:10054000086010BD154A10B55068194B10F00C0129
:10055000184803D0042901D0082901D0036012E013
:100560005168536801F470114FF0020413F4803F96
:1005700004EB914102D053689B0301D50E4B00E080
:100580000B4B5943016051680A4AC1F30311121D14
:10059000515C0268CA40026010BD000000100240B9
:1005A000002002400000FFF8FFFFF6FE08ED00E02B
:1005B00000127A000400002000093D002DE9F84FE8
:1005C00004469046FE49104618F098FCFD4918F084
:1005D00007FB18F065FA0546009117F0DBFB4FF0BA
:1005E000FF394A4618F039FFDFF8DCA300225346F2
:1005F00018F07AF806460F46204618F051FA8B4656
:10060000044632463B4617F03BFF17F021FCEF4E05
:10061000F0622846009917F0BDFB4A4618F01DFF0E
:100620000022534617F046FC22465B4617F028FF8F
:1006300017F00EFC44463063204618F031FAB4F54A
:10064000000F02DBE24AE34B01E0E34AE34B17F021
:1006500017FF17F0FDFBE24980F000400860BDE89D
:10066000F88F2DE9F05FD94C0646DFF878A3DFF864
:1006700078B34FF40009DFF87483206A15460F46FB
:100680004E4503DB514618F037FA04E0464503D3E4
:10069000514618F0F3FD2062CC484F45406A03DB19
:1006A000514618F029FA04E0474503D3514618F0A3
:1006B000E5FD6062C5484D45806A03DB514618F090
:1006C0001BFA04E0454503D3514618F0D7FDA0625C
:1006D00016F0FF4F06D086F000423146206A00F047
:1006E000D6FF03E05946206A18F07AFA17F0FF4F58
:1006F000206206D087F000423946606A00F0C7FFEA
:1007000003E05946606A18F06BFA606215F0FF402A
:1007100005D085F000422946A06A00F0B8FFA0622B
:10072000BDE8F09F2DE9F041A84CE078217908431D
:1007300061790843A1790843E179084315D1AC48B0
:100740000025AD4E0278AB48AC4F00684142092A03
:1007500026D2DFE802F025050C1216181A211B001C
:1007600018F03CFBC4E90505E561BDE8F08118F02F
:1007700035FB143484E86100F7E76561C4E9065687
:10078000F3E70846F3E70846EAE7084618F026FBD1
:10079000143484E8A100E8E76561C4E90657E4E79A
:1007A0006561A561E0E72DE9F0414FF4FA64944DED
:1007B000671022463946286800F059FF914E28609C
:1007C00022463946306800F052FF22468E4C306097
:1007D0003946206800F04BFF2060A0F2DC543168FD
:1007E0002D686FF06300A1F2DC51A5F2DC55844264
:1007F00002DD642C00DA0024814202DD642900DA83
:100800000021854202DD642D00DA002579484FF091
:10081000FA080668714391FBF8F018F0DFFA6B4FA5
:100820007443786194FBF8F018F0D8FAB861684224
:1008300070434FF4FA7190FBF1F018F0CFFAF861C1
:100840007878002891D000217961B961401EF96162
:1008500078708AE72DE9F0415C4EB079002884D0A9
:100860006A486C4904786A480D786FF01301007883
:10087000803C8038803D8C4202DD142C00DA00245C
:10088000884202DD142800DA00208D4202DD142D9A
:1008900000DA0025574940424FF064080F6878435A
:1008A00090FBF8F018F09AFA7C43706194FBF8F032
:1008B00018F094FAB06168427843962190FBF1F009
:1008C00018F08CFAF06150E72DE9F05F3F4DDFF84A
:1008D000FCA0343568789AF802108046884202D02D
:1008E0004D4981F80080E878A9784FF47A7600EBDA
:1008F000012004B294FBF6F006FB104017F059FDFE
:10090000464A474B17F0BCFD074694FBF6F0894674
:1009100017F04FFD4B463A4617F0CCFA17F098FA0D
:10092000CAF80800834668792979544600EB01200B
:1009300007B297FBF6F006FB107017F03AFD374A46
:10094000374B17F09DFD814697FBF6F08A4617F06E
:1009500030FD4A46534617F0ADFA17F079FAE060D9
:100960008246E879A97900EB012005B295FBF6F003
:1009700006FB105017F01DFD284A294B17F080FD8B
:10098000074695FBF6F0894617F013FD4B463A46AD
:1009900017F090FA17F05CFA0546206121480168CB
:1009A00058460E4618F0AAFA60613146504618F0D3
:1009B000A5FAA0610349284618F0A0FA004933E0DF
:1009C000DA0F4940000034430000F03F18000020D7
:1009D0000C022B8716D9F63F1904560E2DB2FD3F97
:1009E0004001002000002041CDCC8C3F00008080E1
:1009F00034010020380100200000F0C10000F04167
:100A000070010020740100207C010020A001002062
:100A1000A1010020A201002035010020FCA9F1D293
:100A20004D62503FDC00002018F0DAF8E06184F8F5
:100A3000028075E608B503F063FB3A4C3A4EDFF8E6
:100A4000EC80DFF8EC9000900A2168460CF096FBF1
:100A5000606910F0FF4F07D1A06910F0FF4F03D17C
:100A6000E06910F0FF4F01D00220207002F0DDFAA3
:100A70002079012805D06179012902D0E178012986
:100A80000DD1D4E90F12C4E90D12E178012904D087
:100A9000012802D06079012801D1FFF715FFA07964
:100AA00008B1FFF7D7FEE079012801D1FFF77BFEFF
:100AB000E0782179084361790843A1790843E17915
:100AC000084301D1FFF72EFE3568684218F086F919
:100AD0000746284618F082F901463A46606900F058
:100AE000D6FD60613568684218F078F907462846F7
:100AF00018F074F901463A46A06900F0C8FDA061FB
:100B000042464946E06900F0C2FD0246E061D4E990
:100B10000501FFF7A6FD04F1200007C8FFF74EFD11
:100B200092E7000018000020380100200000A041DA
:100B30000000A0C108B503F0E3FA3A4C3A4FDFF8E1
:100B4000EC80DFF8EC903B4E3B4D40F24C4A00907D
:100B50000A2168460CF012FB022001F05CFA4042C8
:100B6000A860032001F057FAE860042001F053FA6E
:100B700040422861052001F04EFA4042686101F0D0
:100B8000CAFA216851451ADA2C4A2D492D4803F03A
:100B9000E5F8254A2549264803F0C7F82A4A2B4993
:100BA0002B4803F0A4F82068401C2060B9F800002E
:100BB0003080B8F8000070803888B08020E01F4A8C
:100BC0001F492048C4F800A003F0C8F8164A174986
:100BD000174803F0AAF81C4A1C491D4803F087F87F
:100BE0003188B9F80020511AA9F800107188B8F8B6
:100BF0000020511AA8F80010B0883988081A3880E7
:100C00002878401CC0B228700A28A1D10020287082
:100C100014210E2000F02BFE696818F06FF90D49C1
:100C2000086095E7EC010020DC010020DA010020DB
:100C3000D8010020FC01002068000020E201002013
:100C4000E0010020DE010020E8010020E601002094
:100C5000E401002044010020F0B5C34E002401252A
:100C6000059F002804DAC6F88841C6F88C5103E0D5
:100C7000C6F88851C6F88C4101DAC0F10000DFF8EF
:100C8000ECC2ACF80000002904DAC6F89451C6F8AA
:100C9000904103E0C6F89441C6F8905101DAC1F1E1
:100CA0000001B3480180B348B349002A04DDC0F80D
:100CB0009441C1F8B05103E0C0F89451C1F8B0417B
:100CC00001DAC2F10002AD480280AD48002B04DD1C
:100CD000C0F8BC41C0F8AC5103E0C0F8BC51C0F84A
:100CE000AC4101DAC3F10003A6480380A64807809F
:100CF000F0BD70B50D1A284618F070F8A34CA16825
:100D000018F0FCF80646A06B281A18F067F861681E
:100D100018F0F4F8314617F0EFFE0646606B18F055
:100D20005DF8314617F0E8FE18F01CF84FF4E15179
:100D30006063884202DC4942884200DA6163A5634D
:100D4000606B70BD70B50D1A284618F047F88F4CCF
:100D5000A16818F0D3F80646E06A281A18F03EF8A1
:100D6000616818F0CBF8314617F0C6FE0646A06A57
:100D700018F034F8314617F0BFFE17F0F3FF4FF4C8
:100D8000E151A062884202DC4942884200DAA16255
:100D9000E562A06A70BD70B50D1A284618F01EF8FD
:100DA0007A4CA16818F0AAF80646206A281A18F0AA
:100DB00015F8616818F0A2F8314617F09DFE064656
:100DC000E06918F00BF8314617F096FE17F0CAFFED
:100DD0004FF4E151E061884202DC4942884200DA86
:100DE000E1612562E06970BD70B50D1A284617F003
:100DF000F5FF664CA16818F081F806466069281A6C
:100E000017F0ECFF616818F079F8314617F074FEBE
:100E10000646206917F0E2FF314617F06DFE17F025
:100E2000A1FF4FF4E1512061884202DC494288422F
:100E300000DA21616561206970BD5549534A8842D5
:100E400003DB4D48D0F8000110B91078401C107039
:100E5000137850480021322B03D9012303701170FD
:100E600004E00078012801D0002070473F4A0120AB
:100E70001180121D1180121D1180121D11807047EA
:100E80001CB503F03DF9444D01900A2101A80CF076
:100E900075F92868FFF7D1FF0028F6D13F480068B0
:100EA00017F060FF01463E480068FFF79DFF374C92
:100EB000E0633C48006817F055FF01463A48006877
:100EC000FFF769FF20643948006817F04BFF0146BF
:100ED00037480068FFF736FF60643648006817F04F
:100EE00041FF014634480068FFF703FFA06434481F
:100EF0003249006818F002F8324917F071FE3249A1
:100F000017F0FAFD17F02EFF41F6F4267742E06461
:100F100032463946E06B00F0AAFBE06332463946C0
:100F2000206C00F0A4FB206432463946606C00F06F
:100F30009EFB606432463946A06C00F098FBA064CA
:100F400040F6C4124FF4FA71E06C00F090FBE064DC
:100F50000090A06C4342606C4242D4E90F014042D1
:100F6000FFF77AFE91E7000000002142343401408F
:100F70003834014000002242000023423C3401404A
:100F80000080214240340140402C0140800000207C
:100F900000002841350100204401002044000020C9
:100FA0007000002048000020740000206000002035
:100FB00078000020640000207C0000200000FA443B
:100FC00040010020000034430080BB44F8B5F148E4
:100FD000EF49006817F092FF17F0C4FEEE4E0021B3
:100FE000EEA27060084601F04CFC0D2000F011FCF0
:100FF00040F2AB21B0FBF1F20C24012300212820A8
:10100000009401F003FCE7A20021372001F039FC35
:10101000E64DB5F90400002809DAE5A200215A20BE
:1010200001F02FFC0094B5F90400424207E0E1A270
:1010300000215A2001F025FC0094B5F90420032377
:101040000021642001F0E2FBDBA20A21002001F074
:1010500018FCDB4DB5F9000000280ADAD4A20A21F9
:10106000412001F00EFC0094B5F900000523424236
:1010700008E0D0A20A21412001F003FC0094B5F958
:10108000002005230A214B2001F0C0FBCDA2142132
:10109000002001F0F6FBCC4DCC4F2868B84208D3B5
:1010A000C3A214210F2001F0ECFB286880F000405F
:1010B00005E0C0A214210F2001F0E3FB286817F01F
:1010C0006DFE0246142105230846009401F09EFBA4
:1010D000BF4D2868002809DAB5A214213C2001F090
:1010E000D0FB009428680523424207E0B1A21421F6
:1010F0003C2001F0C6FB00942A68052314214B20F4
:1011000001F084FBB3A21E21002001F0BAFBB24D16
:101110002868B84208D3A6A21E210F2001F0B1FB17
:10112000286880F0004005E0A2A21E210F2001F0F7
:10113000A8FB286817F032FE024605231E21142062
:10114000009401F063FBA54D2868002809DA98A2F5
:101150001E213C2001F095FB0094286805234242A3
:1011600007E094A21E213C2001F08BFB00942A682A
:1011700005231E214B2001F049FB99A228210020C4
:1011800001F07FFB974D2868002801DA88A200E073
:1011900088A22821142001F074FB00940423282144
:1011A0001E202A6801F032FB8FA228213C2001F08A
:1011B00068FB8E4D2868002809DA7DA2282150207E
:1011C00001F05FFB009428680423424207E079A203
:1011D0002821502001F055FB00942A68042328217F
:1011E0005A2001F013FB8248007808B181A214E074
:1011F0008248007808B182A20FE08348007808B1E5
:1012000082A20AE08348007808B183A205E08448FE
:10121000007808B183A200E084A23221002001F00E
:1012200030FB84480078A8B383A232212D2001F03E
:1012300028FB82A23221582001F023FB80A2322118
:101240006E2001F01EFB7068642590FBF5F202230E
:1012500032214B20009401F0D9FA7068022390FBF0
:10126000F5F105FB110232216220009401F0CEFA63
:10127000706890FBF5F105FB11000A2806DA0223DD
:10128000002232215C20009401F0C0FABDE8F84051
:1012900001F009BA6BA2C8E7F8B56B483C4D00688D
:1012A00017F0FEFB694A6A4B17F0EAF817F052F89C
:1012B000044668482946006817F020FE17F052FDE2
:1012C000354A01461078B0B10020634D10700026F9
:1012D0002A78012A11D010B33948B0F900305F489C
:1012E000B0F900205E48B0F9001001B05DA0BDE883
:1012F000F04012F083BA0120E7E75E48006817F07B
:1013000031FD04465C48006817F02CFD02465B483E
:10131000234601685AA012F071FA2E70F8BD5C489D
:101320000096CAB20378E1B25AA012F067FAF8BD8B
:1013300008B502F0E5FE0090142168460BF01EFF90
:10134000FFF7AAFFFFF742FE142000F02DFFF3E79E
:1013500070B51B48B0F9000017F040FD012102F004
:1013600009FC012002F02DFC0B4C00214D4AA0701D
:1013700061704D4D161D06E013885B06FCD56B5C55
:101380003380491C6170C9B28142F5D370BD000041
:101390000000C84244010020D400002054595045A8
:1013A0003A0000004249415300000000FC010020C7
:1013B0002D0000002B0000004759524F5F5A0000DB
:1013C000DC0100204C3A0000440000200000808036
:1013D00070000020523A00004800002074000020F5
:1013E0004D410000BC0000204D420000C000002024
:1013F0001E00002020505332200000001C0000205E
:1014000055415254310000001D00002055415254F6
:10141000330000001B0000202043414E200000004C
:101420001F00002020522D4320000000204150507A
:1014300020000000350100204F4646002E0000002D
:10144000560000004F204E00400100209A999999C3
:101450009999B93F200300203F010020DA010020C4
:10146000D80100207B4225643A25643A25647D2416
:1014700000000000880000208400002038010020C7
:101480007B4325643A25643A25647D2400000000EE
:101490005C0000207B4125643A25643A25643A25A6
:1014A000647D240000380140C40700202DE9F34F7B
:1014B000894C87B0216A0591089817F0DFFE6169B1
:1014C000009117F01BFDA16917F016FB04F144050C
:1014D0000490D5F804A0A068514617F0CFFED5F8C7
:1014E0000890494617F0CAFE7C4A1060E96881F00E
:1014F000004656609660E7688846D760009917F006
:10150000FDFC296817F0F8FA83463046009917F079
:10151000F5FC0646514617F0EFFA0390304649466F
:1015200017F0EAFA82463846009917F0E7FC414680
:1015300017F0E2FA81460499079817F09FFE80465B
:101540006062207817F092FC5946029017F0D6FCA2
:101550000646A0625146029817F0D0FCE062009067
:101560003146029817F0CAFC216917F0C5FA074600
:1015700020633946304617F033FB606301903946EB
:10158000009817F02DFBA0630090E663DDE90201EF
:1015900017F0B4FC074620643146019817F0AEFC02
:1015A000594617F0D9FD28603946019817F0A6FC76
:1015B000039917F0D1FD68603146009817F09EFC42
:1015C000514617F0C9FDA8603946009817F096FCFF
:1015D000494617F0C1FDE8604146019817F08EFCBE
:1015E000049917F089FAA0614146009817F086FC2B
:1015F000059917F081FA01462062089817F03EFE1F
:10160000E06109B0BDE8F08F2DE9F0418046084661
:1016100017F046FA324A334B16F032FF2E4C05468D
:101620000E46A06917F03CFA2A46334616F042FCF3
:101630000E46616805460F464FF07E5017F01EFEBD
:1016400017F02EFA2A46334616F01AFF05460E46C4
:101650003946404617F052FC17F022FA2A46334624
:1016600016F028FC16F0F4FBA061BDE8F081914271
:1016700006DA884200DA0846904200DD10467047DC
:10168000904200DA10468842F9DD0846704770B58E
:101690000E46044615461146304617F0FBFB0CD2A9
:1016A0003146204617F0F6FB00D234462946204644
:1016B00017F0F0FC0DD22C460BE02946204617F01F
:1016C000E9FB00D22C463146204617F0E3FC00D25D
:1016D0003446204670BD0000E000002010030020CA
:1016E0007B14AE47E17A743F38B54FF4407002F096
:1016F0007BFD02F09BFC00F025FD00F03CFD224C40
:101700000120C4F8A8014FF4FA7004F5D47402F073
:10171000C3FC0025256000F0DAFC01F0D1F800F0F0
:10172000C5FC4FF4E134204602F006FD4FF416509C
:1017300001F08BFE204601F0C2FF062303220221A6
:101740000120009500F0B2F800F026FB00F084FBC9
:1017500000F0CFFB00F016FC002141F61F4000F026
:101760004AFE472142F20F7001F046F900F012F8EC
:1017700000F056FE02F0B8FB01F0DBFC01F02DFE9C
:1017800003490248086038BD00802142ECC99842F4
:10179000DC00002030B587B001214FF4047003F065
:1017A00078FD4FF4004003F008FD1020ADF8140060
:1017B00000248DF8174005A9384803F02CFB384D5C
:1017C000284602F069FD4FF46020CDE902040120B3
:1017D0008DF804408DF8100000948DF8054069469E
:1017E000284602F075FD0121284602F099FD2846A1
:1017F00002F0B3FD284602F0B5FD0028FAD12846D4
:1018000002F0B7FD284602F0B9FD0028FAD107B072
:1018100030BD10B5224C014607230122204602F0BC
:10182000D7FD0121204602F0B0FD0221204602F042
:10183000A3FE0028F9D02046BDE8104002F00CBEFF
:1018400010B50E20FFF7E5FF16F0CAFD4FF0663227
:10185000144B16F015FE0022134B16F011FE6FF01C
:101860000B0217F0FAFDBDE8104016F0F1BA70B5A2
:101870000E46002407E0FFF7E3FF294617F03CF986
:10188000641C0546E4B2B442F5D3304617F0EEFAD4
:1018900001462846BDE8704017F0A2B9001001408B
:1018A0000024014066660A40000026402DE9FC5FE6
:1018B0000024E8B3E1B3DAB3D3B3491E401E01F00C
:1018C000FF09C7B2521E5B1E0121D6B29DB2084667
:1018D00003F0DFFC0121202003F0DBFC012148069E
:1018E00003F0E0FC01214FF4EB1003F01FFB02209A
:1018F000ADF8000003208DF802001820DFF80884FE
:101900008DF803006946404603F085FA4FF0010A5E
:10191000ADF800A048208DF803006946404603F06A
:101920007AFAFA4800230360016841F0010100E0FF
:1019300002E00160021D08E00120BDE8FC9F641C7C
:10194000A4B2642C01D90220F7E71168C907F6D0C8
:1019500001688346016001680160016801600168F7
:1019600041F0100101600168016001680160E74910
:101970001C310B60D1F80080DDF830C048EA8C7C67
:10198000C1F800C0D1F800C04CEA07670F60D1F879
:1019900000C04CEA09570F600F6847EA06460E6020
:1019A0000E682E430E60016821F0010101604FF6C0
:1019B000F07005E0641CA4B2844201D90320BCE7A6
:1019C0001168C907F6D1D248016841F001010160F0
:1019D000CF491C310A6822F001020A60CC4A0C325D
:1019E000146844F001041460021D14681460C84AAD
:1019F000143214681460C64A40321360121D13601A
:101A00000A6842F001020A6001680360BF481430AE
:101A1000016841F00201016014208DF804008DF886
:101A200005A003218DF806108DF807A001A802F08B
:101A3000E0FB01220221584603F0C8F800207CE7B1
:101A4000F0B50646B148059D08300468640101D52B
:101A5000002008E00468240101D5012003E00068AB
:101A6000C0003CD50220AB4C002704EB0014C4F8A6
:101A7000807599B3F600D4F880753743C4F8807543
:101A8000D4F8806546EA8101C4F88015D4F8801541
:101A900041EA4201C4F88015D4F8842503F00F010F
:101AA00022F00F02C4F88425D4F884250A43C4F830
:101AB00084252979D5F8052041EA0221C4F88C153E
:101AC0002978D5F8012041EA0221C4F88815D4F814
:101AD000801541F00101C4F88015F0BD01E0FF2040
:101AE000FBE77605C7E78949083128B1012810D0FE
:101AF00002281BD00520704708680A6800F0010022
:101B000002F002020243086800F0806042EA1060BE
:101B1000704708680A6800F0010002F00202024300
:101B2000086800F0006042EA5060704708680A6880
:101B300000F0010002F002020243086800F0805049
:101B400042EA9060704718B1012804D00020704725
:101B50006E480C3001E06D481030006800F0030062
:101B60007047F0B56B4CDDE9057504EB0014D4F853
:101B7000B06516F004061670D4F8B02533D0D2083C
:101B80000A60D4F8B01501F002011970D4F8B41548
:101B900001F00F013970D4F8B8152970D4F8B815D0
:101BA000090A6970D4F8B815090CA970D4F8B815E9
:101BB000090EE970D4F8BC152971D4F8BC15090ACE
:101BC0006971D4F8BC15090CA971D4F8BC15090EBB
:101BD000E97150B1012805D14C481030016841F03D
:101BE0002001016079E7520DCAE748480C30F5E75B
:101BF000F0B549A088B0D0E90010CDE90210484DF9
:101C000007A8CDE9000506AB05AA04A90020FFF747
:101C1000A8FF444A107858B10498A0F58071213982
:101C200004D14148296801606968416008B054E7FF
:101C30003E4B002002A92E5C0F5CBE4202D1641C08
:101C4000E4B200E00024401CC0B21C600828F2D3BB
:101C5000082CEBD336490020087036490870364905
:101C60000870364908703649087001201070DDE7A9
:101C700038B500240B4600902246214640F2016010
:101C8000FFF7DEFE054640F6FF7301E0641CA4B2D8
:101C90002846FFF728FF072801D09C42F6D39C4234
:101CA00001D3012038BD002038BD00B5014686B003
:101CB0000020FFF748FF002816D002A8CDE9000158
:101CC00005AB04AA03A90020FFF74BFF03981228D5
:101CD00005D19DF8100010B99DF8140010B1002036
:101CE0008DF808009DF8080006B000BD38B5002446
:101CF0000B4600902246214640F20170FFF7A0FEFD
:101D0000054640F6FF731FE00014014000640040E8
:101D100000660040006000400A0C0F13181E2501E9
:101D2000480100201B00002054000020D0000020AB
:101D30005C0000201E0000201F0000201C0000206E
:101D40001D000020641CA4B22846FFF7CCFE072823
:101D500001D09C42F6D39C4201D3012038BD002023
:101D600038BD38B500240091082322462146FFF7EC
:101D700067FE054640F6FF7301E0641CA4B22846E6
:101D8000FFF7B1FE072801D09C42F6D39C4201D355
:101D9000012038BD002038BD10B5012188B00846AB
:101DA00003F080FA01210C2003F073FA01210846A8
:101DB00003F06FFA0121B64803F0B8F80121B548E5
:101DC00003F0B4F84FF40040ADF80C0004248DF893
:101DD0000F4003A9B04803F01EF80820ADF80C002E
:101DE0008DF80F4003A9AD4803F015F8684603F0DD
:101DF000BBFD00204FF6FF71ADF80410ADF80000F8
:101E0000ADF80600ADF8020024076946204603F04D
:101E100027FB00231A460321204603F046FE04A8B0
:101E200003F0B5FD0A21ADF8181004A9204603F00F
:101E3000CFFC0121204603F0E1FF0122114620469C
:101E400003F0CBFD0021204603F0AFFF0121204627
:101E500003F0AEFD08B010BD10B588B0012102201E
:101E600003F020FA0121042003F013FA01210846AF
:101E700003F00FFAC020ADF8180004208DF81B0005
:101E800006A9854802F0C7FF684603F06DFD0020F3
:101E90004FF6FF71ADF80410ADF80000804CADF8BE
:101EA0000600ADF802006946204603F0D9FA002387
:101EB0001A460321204603F0F8FD03A803F067FD4E
:101EC0000A21ADF8141003A9204603F081FC01217A
:101ED000204603F093FF01221146204603F07DFDCA
:101EE0000021204603F061FF0121204603F060FD40
:101EF000B0E710B588B00121042003F0D3F9012127
:101F0000082003F0C6F9C020ADF8180004208DF8B1
:101F10001B0006A9614802F07EFF684603F024FD1D
:101F200000204FF6FF71ADF80410ADF800005D4CD5
:101F3000ADF80600ADF802006946204603F090FABD
:101F400000231A460321204603F0AFFD03A803F047
:101F50001EFD0A21ADF8141003A9204603F038FC39
:101F60000121204603F04AFF01221146204603F0DA
:101F700034FD0021204603F018FF0121204603F024
:101F800017FD67E710B588B00121082003F08AF932
:101F90000121042003F07DF90320ADF8180004208E
:101FA0008DF81B0006A93C4802F035FF684603F097
:101FB000DBFC00204FF6FF71ADF80410ADF8000017
:101FC000394CADF80600ADF802006946204603F032
:101FD00047FA00231A460321204603F066FD03A8B2
:101FE00003F0D5FC0A21ADF8141003A9204603F034
:101FF000EFFB0121204603F001FF0122114620469C
:1020000003F0EBFC0021204603F0CFFE0121204627
:1020100003F0CEFC1EE70021022807D003280BD0D6
:1020200004280CD005280DD0002070474FF08042C6
:10203000B2F9240091847047194A243204E0194A05
:10204000243201E0184A2432B2F9000011807047AE
:102050004FF08040018A018A21F00101018270471E
:102060000F4810300188018821F00101018070477C
:102070000C4810300188018821F00101018070476F
:10208000094810300188018821F001010180704762
:10209000000230000001180000080140000C01405F
:1020A0000004004000080040000C004008B5012179
:1020B000602003F0EEF84FF48070ADF80000482087
:1020C0008DF8030069461A4802F0A5FE08BD08B560
:1020D0000121402003F0DDF80120ADF80000482088
:1020E0008DF803006946134802F095FE08BD1248BA
:1020F0001249027812B1D1F8202122B1D1F8201171
:10210000012904D005E00021017001207047012160
:1021100001700020704700B5FFF7E9FF012804D1E6
:102120000749087810B10020087000BD0120FBE7C6
:10213000001401400018014050010020008022429C
:102140003501002038B50121402003F0A2F84FF4FA
:102150008064ADF8004010208DF8030003201C4D72
:102160008DF802006946284602F055FE21462846B1
:1021700002F0BBFE38BD38B50121082003F089F814
:102180004FF48064ADF8004010208DF80300032068
:10219000104D8DF802006946284602F03CFE2146AB
:1021A000284602F0A4FE38BD10B50B4B002460B1E8
:1021B0000A4A1168491C1160814205D1D3F8A8016F
:1021C000C043C3F8A801146010BDC3F8A84110BDF6
:1021D00000180140000C014000002342540100207F
:1021E0002DE9F84F01215C2003F053F80820ADF8E9
:1021F000000010248DF8034003258DF80250694635
:10220000824802F008FE0420ADF800008DF803407B
:102210008DF8025069467D4802F0FDFDADF80040A2
:102220008DF803408DF802506946784802F0F3FDBE
:102230002026ADF800608DF803408DF80250694605
:10224000724802F0E8FD4FF48058ADF80080DFF8E6
:10225000C0B18DF803408DF802506946584602F02F
:10226000DAFDADF80060DFF8AC918DF803408DF831
:1022700002506946484602F0CEFDE701ADF8007015
:10228000DFF894A18DF803408DF80250694650465E
:1022900002F0C1FDE602ADF800608DF803408DF854
:1022A00002506946504602F0B6FD0821574802F038
:1022B0001EFE0421554802F01AFE1021534802F078
:1022C00016FE2021514802F012FE4146584602F007
:1022D0000EFE2021484602F00AFE3946504602F022
:1022E00006FE3146504602F002FEBDE8F88F2DE9A9
:1022F000F0410D460446012188B0480302F0C9FFB1
:102300000121102002F0C5FF4FF47072ADF81C20BF
:1023100018228DF81F2003208DF81E0007A93D48C4
:1023200002F079FDADF81440ADF81050DFF8EC8004
:1023300001250024ADF81650ADF8124004A940461E
:1023400003F08EF86026ADF800606F02ADF8025021
:10235000ADF80640ADF80840ADF80E70694640464D
:1023600003F0B7F80821404603F000FCADF8006028
:10237000ADF80250ADF80640ADF80840ADF80E706B
:102380006946404603F0DAF80821404603F0FEFBB8
:10239000ADF80060ADF80250ADF80640ADF8084069
:1023A000ADF80E706946404603F004F90821404636
:1023B00003F0F6FBADF80060ADF80250ADF8064052
:1023C000ADF80840ADF80E706946404603F02CF9B0
:1023D0000821404603F0EAFB0121404603F09EFB42
:1023E0000121404603F0E4FA0121404603F0EAFAF5
:1023F00008B0BDE8F08170B50C460546FFF7F0FE69
:1024000021462846BDE8704071E700000008014001
:102410000018014000100140000C01400034014050
:10242000F8B50121082002F034FF4FF48070ADF8B8
:10243000000010248A4E8DF8034003258DF80250C9
:102440006946304602F0E7FC6001ADF800008DF807
:1024500003408DF802506946304602F0DCFC290248
:10246000304602F042FDF8BD70B57D48001D0168A0
:1024700021F0F0010160016841F030010160794C08
:102480000120C4F8A401C4F8A001042004F5D0740C
:1024900001F0EAFD00256560042001F0E5FD2560FE
:1024A00070BD6F4810B5001D016821F0F00101609A
:1024B000016841F0300101606A4C0020C4F8A001BD
:1024C000C4F8A401042004F5D07401F0CDFD01206E
:1024D00020606060BDE81040042001F0C5BD70B50B
:1024E0005F480024001D016821F0F00101600168CF
:1024F00041F0800101605B4D0126C5F8A4613046C2
:1025000001F0B2FDC5F8A061012001F0ADFD07E0CA
:10251000641CE4B2FA2C03D9FFF7C3FF012070BD9D
:10252000D5F824010028F3D1C5F8A00170BD70B51D
:102530004C4C0025C4F8A0514948001D016821F009
:10254000F0010160016841F030010160C4F8A4515C
:10255000022004F5D07401F087FD012020600220E4
:1025600001F082FD256070BD70B53E4C0026C4F8B8
:10257000A0613B48001D016821F0F0010160016885
:1025800041F0300101600125C4F8A451022004F596
:10259000D07401F069FD2560022001F065FD266020
:1025A00070BD2DE9F04105462D48001D016821F060
:1025B000F0010160016841F030010160294E0027FF
:1025C000C6F8A0713C464FF00108E809C6F8A4011E
:1025D0006806050E022001F047FDC6F8A081022022
:1025E00001F042FDC6F8A071022001F03DFD641C1F
:1025F000E4B2082CE9D3BDE8F0812DE9F04781462B
:1026000017480024001D016821F0F00101600168F5
:1026100041F080010160134E254627464FF0010826
:10262000C6F8A071022001F01FFDC6F8A081600667
:10263000040ED6F8240108B1641CE4B2012001F0B4
:1026400013FD6D1CEDB2082DEAD3B9F1000F04D0D3
:10265000FFF76DFF2046BDE8F087FFF785FFF9E73C
:10266000000C01400080214230B50023DD4A0124E6
:1026700011B1C2F8A04101E0C2F8A0310021C2F8B6
:102680009431050602D5C2F8984101E0C2F89831AC
:10269000C2F894414006491C000EC9B20829EED385
:1026A000C2F8A04130BD70B5CF4E002505F1B00095
:1026B000C0B20021FFF7D8FF00210846FFF7D4FF82
:1026C00000211020FFF7D0FF002406EBC4000121F9
:1026D000405DFFF7C9FF641CE4B2802CF5D36D1C8C
:1026E000EDB2082DE2D370BD00B500218D20FFF7BB
:1026F000BBFF00211420FFF7B7FF0021AF205DF8DA
:1027000004EBB1E700B500218D20FFF7ADFF0021FC
:102710001020FFF7A9FF0021AE205DF804EBA3E72E
:1027200010B40021B04B0A46002003EBC004401C4B
:10273000C0B262548028F8D3491CC9B20829F3D327
:1027400010BCB0E710B57F2816D83F2914D807234E
:10275000A3EBD10301F00701C1F107040121A1405E
:10276000A14CDBB204EBC000002AC25CC9B201D0AC
:102770000A4300E08A43C25410BD2DE9F04F203ACD
:102780009C460D468246884602F0FF090026DDF889
:1027900024B02FE0BCF10C0F08D0944901EB0910D4
:1027A0000027845D200607D55A4609E0904909EBC9
:1027B000490001EB8000F3E7BBF1000F12D00022CB
:1027C00029465046FFF7BEFF60066D1C040EEDB2B1
:1027D000A5EB0800604507D10AF10100454600F06D
:1027E000FF0A05E00122EBE77F1CFFB2082FD9D3D7
:1027F000761CF6B26645CDD3BDE8F08F03460120C6
:1028000000E05843491EC9B2FBD270472DE9FF4F83
:1028100081B00027DDF838B01D46924680463C4620
:102820004FF001094FEA5B0627E0281B401EC1B2AA
:102830000A20FFF7E3FFBAFBF0F00A21B0FBF1F248
:1028400001FB120027B9691E8C4201DA48B1012749
:102850003030C2B206FB0480C0B25B46CDF80090B7
:1028600006E006FB0480C0B25B462022CDF8009053
:102870000299FFF782FF641CE4B2AC42D5D305B0E5
:10288000BAE7F8B516460D460446012714E07A2C3F
:1028900002D900241035EDB23A2D03D90024254683
:1028A000FFF73EFF009732780C2329462046FFF7BA
:1028B00064FF0834E4B2761C30780028E7D1F8BD14
:1028C00038B50121402002F0E4FC4FF4F070ADF87F
:1028D000000010208DF8030002208DF802006946E8
:1028E000444802F098FA012002F07CFB002002F03C
:1028F0006BFC002001F074FE002002F073FB394CE9
:102900000020C4F89C01642004F5CE7401F0C4FBDF
:10291000012020600021AE20FFF7A6FE0021D52077
:10292000FFF7A2FE00215020FFF79EFE0021A82005
:10293000FFF79AFE00213F20FFF796FE0021D320EB
:10294000FFF792FE00210846FFF78EFE002140208F
:10295000FFF78AFE00218D20FFF786FE002114205C
:10296000FFF782FE00212020FFF77EFE00210220DB
:10297000FFF77AFE0021A120FFF776FE0021C0209C
:10298000FFF772FE0021DA20FFF76EFE0021122011
:10299000FFF76AFE00218120FFF766FE0021EF208D
:1029A000FFF762FE0021D920FFF75EFE0021F12033
:1029B000FFF75AFE0021DB20FFF756FE00213020F2
:1029C000FFF752FE0021A420FFF74EFE0021A620B3
:1029D000FFF74AFE0021AF20FFF746FEFFF7A0FEFB
:1029E00038BD00000000234234030020A6990108EE
:1029F00032950108001801402DE9F0410D460446CA
:102A0000012188B0084602F044FC0121C80202F00E
:102A100040FC0121402002F03CFC0121F94802F079
:102A200085FA4FF4D442ADF81C2018228DF81F20EF
:102A300003208DF81E0007A9F34802F0ECF9ADF869
:102A40001440ADF81050DFF8C48301250024ADF820
:102A50001650ADF8124004A9404602F001FD602670
:102A6000ADF800606F02ADF80250ADF80640ADF869
:102A70000840ADF80E706946404602F02AFD082174
:102A8000404603F073F8ADF80060ADF80250ADF8C1
:102A90000640ADF80840ADF80E706946404602F0B9
:102AA0004DFD0821404603F071F8ADF80060ADF827
:102AB0000250ADF80640ADF80840ADF80E7069461A
:102AC000404602F077FD0821404603F069F8ADF872
:102AD0000060ADF80250ADF80640ADF80840ADF822
:102AE0000E706946404602F09FFD0821404603F003
:102AF0005DF80121404603F011F80121404602F043
:102B000057FF0121404602F05DFF08B0BDE8F081AB
:102B1000F0B50E460546012189B0084602F0B9FB22
:102B20000121C80202F0B5FB0121402002F0B1FBF7
:102B30000121B44802F0FAF94FF4D444ADF81C4036
:102B40002821B14F8DF81F1007A9384602F063F90C
:102B50002146384602F0CBF9ADF810600024AB4EA8
:102B6000ADF81450ADF81640ADF8124004A9304647
:102B700002F076FC01250F20ADF80040ADF80450BE
:102B8000ADF80800ADF80240ADF8064069463046A1
:102B900002F01EFE0420ADF80000ADF80450ADF8C0
:102BA0000240ADF80640ADF808406946304602F0F4
:102BB0000FFE0C20ADF80000ADF80450ADF8024057
:102BC000ADF80640ADF808406946304602F000FE18
:102BD00019208DF80C008DF80D408DF80E408DF801
:102BE0000F5003A801F005FB1B208DF80C008DF899
:102BF0000D408DF80E408DF80F5003A801F0F9FA42
:102C000001221621304602F0E8FE0121304602F092
:102C1000D9FE0121304602F0CBFE09B0F0BD2DE90E
:102C2000F0477B4901250024087968B1794802788A
:102C300052B9794A1470794A147005707848047052
:102C400078480470784804700878704E8946000609
:102C50004FF6FF774FF4FA7831D40221304603F073
:102C6000D0F860B30221304603F0D7F899F800009D
:102C7000400639D599F8040008B989F8045030465F
:102C800003F0A8F8A9F80800B9F806104A468842E7
:102C900001D2976300E09463401A916B08449061FD
:102CA000916A401A00D54042404500DD916190692B
:102CB000906289F800400021304602F0C1FF99F887
:102CC0000100000640D40421304603F09AF8D8B33E
:102CD0000421304603F0A1F899F80100400648D5D8
:102CE00099F8040070B10FE0304603F073F8014624
:102CF000A9F8061099F8001041F0400189F8001079
:102D00000221D9E789F80450304603F065F8A9F8A4
:102D10000C00B9F80A104A46884201D2D76300E095
:102D2000D463401AD16B0844D061D16A401A00D5EF
:102D30004042404500DDD161D069D06289F8014050
:102D40000021304602F088FF99F80200000640D4C6
:102D50000821304603F055F8D8B30821304603F077
:102D60005CF899F80200400660D599F8040070B14B
:102D70000FE0304603F030F80146A9F80A1099F840
:102D8000011041F0400189F801100221D9E789F8CA
:102D90000450304603F022F8A9F81000B9F80E10DC
:102DA0004A46884201D2176400E01464401A116C4C
:102DB00008441062116B401A00D54042404500DDC6
:102DC0001162106A106389F802400021304602F057
:102DD00057FF99F80300CA46000661D41021304617
:102DE00003F00FF800285BD01021B146304603F005
:102DF00014F89AF803005646400645D5307918B3C2
:102E000023E013E0C000160000180140002C014030
:102E1000580100201F0000205C0000201E00002040
:102E20001C0000201D0000201B000020304602F086
:102E3000D5FF0146A9F80E1099F8021041F04001A3
:102E400089F802100221C1E735714D46484602F06B
:102E5000C7FFB082718A884201D2776400E074644F
:102E6000401A716C08447062716B401A00D5404280
:102E7000404500DD7162706A7063F470002128467D
:102E8000BDE8F04702F010BF4C46484602F0A8FFEC
:102E90007082F078022140F04000F0702046EFE7A9
:102EA000BDE8F0870248018821F0010101807047E8
:102EB000102C0140FC49085C70472DE9F84F0125B2
:102EC0008046ADF80050F84800264670ADF8005036
:102ED000F64FF74CDFF8DCB381464FF6FF7A25E07A
:102EE000BDF8000010EA080F02D0C7F88C5101E0CD
:102EF000C7F88C61C4F8B051052001F0B5F8C4F8EA
:102F0000B061052001F0B0F8C4F8B051DBF83C0125
:102F100030B199F80110BDF80020114389F8011073
:102F2000BDF800100AEA4100ADF80000BDF800004D
:102F3000FF28D5D9BDE8F84F102001F095B82DE94C
:102F4000FC4700268DF800600125ADF80450D84CF0
:102F5000C4F8B461D84F3878FFF7AFFF7878FFF73F
:102F6000ACFF02208DF80000DFF84883CE4F4FF60B
:102F7000FF792CE0ADF804501DE0C4F8B0510520F5
:102F800001F072F8C4F8B061052001F06DF8C4F8E2
:102F9000B051D8F83C0140B19DF80000BDF80410D4
:102FA000385C08439DF800107854BDF8041009EA15
:102FB0004100ADF80400BDF80400FF28DDD9102061
:102FC00001F052F89DF80000401C8DF800009DF8BB
:102FD00000000928CED3C4F8B451BDE8FC87002016
:102FE000B14A01461154401CC0B20928FAD37047B7
:102FF00070B5FFF7F4FFFFF7A2FFAB48AE4AB0F899
:103000000340AD48401F521D04810020012512F8E5
:10301000103000F101005B1E05FA03F12142C0B23D
:1030200002D01028F3D3002070BD10B5FFF7E0FFE9
:10303000A1499D4A491F04280871D3790B70137A5E
:103040004B7053798B709279CA700FD19B49087875
:1030500000280BD19A4A107001220A709949087011
:1030600099490870994908709949087010BD08B5C8
:10307000142501F045F8DFF840A2DFF84092954EA4
:10308000DFF854B2AAF1050A0090322168460AF02E
:1030900075F8FFF7CAFF9AF804005146042802D1D8
:1030A00099F80020DAB399F800000128EDD188786A
:1030B0009AF8014069428038803C884202DDA8428B
:1030C00000DA00208C4202DDAC4200DA00248349A1
:1030D000D1F800801E2100FB08F090FBF1F015F004
:1030E0007DFE07463060604200FB08F0962190FBB1
:1030F000F1F015F073FE5C46CBF8000010F1FF4FC5
:1031000002D387F000413160754F394615F068FDF4
:1031100020603946306815F063FD3060B5E7FFE7A1
:10312000012289F80020664A00201070654A10705C
:10313000BDE738B50121682002F0ABF80820ADF8F2
:10314000000010258DF8035003248DF802406946D5
:10315000644801F060FEE802ADF8000028208DF818
:1031600003006946604801F056FE2003ADF80000F8
:103170008DF803508DF8024069465C4801F04BFE23
:1031800038BD70B54A4D0020C5F8B4014A4C05F56C
:10319000DA752078FFF791FE6078FFF78EFE012048
:1031A000286041484078732801D0012070BD00207C
:1031B00070BD70B53E4C054600200E46C4F8B40103
:1031C000102004F5DA7400F04FFF0120FFF775FEC0
:1031D0004220FFF772FE0020FFF76FFE2846FFF740
:1031E0006CFE3046FFF769FE0020FFF766FE002008
:1031F000FFF763FE0020FFF760FE0020FFF75DFE93
:1032000001202060BDE87040102000F02DBF10B5F7
:10321000274C0020C4F8B401102004F5DA7400F043
:1032200023FF0120FFF749FE4220FFF746FE002062
:10323000FFF743FE0020FFF740FE0020FFF73DFEB2
:1032400001202060BDE81040102000F00DBF10B537
:10325000174C0020C4F8B401102004F5DA7400F013
:1032600003FF0120FFF729FE4320FFF726FE002081
:10327000FFF723FE0120FFF720FE0020FFF71DFED1
:103280000020FFF71AFE0020FFF717FE0020FFF7CF
:1032900014FE0020FFF711FE01202060BDE8104061
:1032A000102000F0E1BE0000340700200080224220
:1032B0000080214200002342A50100201E000020C2
:1032C0005C0000201F0000201C0000201D000020CA
:1032D0001B000020340000202C00002038010020BA
:1032E0000000C8420014014000180140000C0140D9
:1032F00010B54A4C0020C4F8B401012004F5DA747A
:10330000FFF7DBFD4420FFF7D8FD0020FFF7D5FDD8
:103310000120FFF7D2FD0320FFF7CFFD0020FFF7CC
:10332000CCFD0020FFF7C9FD0020FFF7C6FD0020FF
:10333000FFF7C3FD01202060BDE81040102000F021
:1033400093BE10B5354C0020C4F8B401102004F52C
:10335000DA7400F089FE0120FFF7AFFD4D20FFF782
:10336000ACFD0020FFF7A9FD0020FFF7A6FD01201E
:10337000FFF7A3FD01202060BDE81040102000F001
:1033800073BE10B5254C0020C4F8B401102004F51C
:10339000DA7400F069FE0120FFF78FFD4320FFF78C
:1033A0008CFD0020FFF789FD0020FFF786FD5A20E5
:1033B000FFF783FD5A20FFF780FD5A20FFF77DFDC0
:1033C0005A20FFF77AFD5A20FFF777FD0120206091
:1033D000BDE81040102000F047BE10B5FFF717FF02
:1033E000FFF715FFFFF713FFFFF731FFFFF780FF30
:1033F000BDE81040C5E710B509480A4C007840B157
:103400000948C1792170017A61704179A170807990
:10341000E070FFF7EDFD207110BD0000008021423B
:103420001E000020A001002034070020FE490A8869
:103430005206FCD5FC49091D08807047FB490880ED
:10344000081F01884906FCD5704730B505460121A3
:1034500087B0084601F01DFF0121202001F019FF6F
:103460000121480401F01EFF0121082001F05EFD4A
:103470002020ADF8100003208DF812001820EC4C2D
:103480008DF8130004A9204601F0C5FC4020ADF8DA
:10349000100048208DF8130004A9204601F0BBFC61
:1034A00026208DF8140001218DF8151000248DF8C8
:1034B00016408DF8171005A800F09BFEADF80440EB
:1034C000ADF80640ADF80840ADF80C40D74C0C20E4
:1034D000ADF80A00241F00956946204602F0D0FC92
:1034E000012240F22551204602F047FD01212046ED
:1034F00002F039FD07B030BD2DE9F047CB4840F26E
:103500002551001F02F0F0FD002871D0C748068841
:10351000C848C94AC94BCA4901270025412E06D0CF
:103520004B2E22D0492E22D04A2E20D018E0C54C56
:1035300094F800C0BCF1000F12D1DFF80CC340F2C8
:103540004C48DCF800C0C4450ADB2770BF4C25702E
:10355000BF4C2570BF4C2570BF4C2570BF4C2570EB
:10356000097829B101290BD01BE00F700CE00D7018
:10357000A6F1410107291AD9082E11DC067010E0C6
:10358000432E08D0472E09D015701D70412E0ED045
:10359000452E0CD004E015701F7001E017701D70EF
:1035A0000570AF48582E06D0592E07D009E0A6F175
:1035B00040010170F5E70168323101E001683239FC
:1035C000016082460446006815F008FCA54AA64939
:1035D000FEF75DF815F0C6FB2060A449A44C7B2ED5
:1035E00007D07D2E0BD02078012803D0022808D0E8
:1035F0005BE0277060780E54401C607055E002203C
:103600002070C878502806D04878232845D06078A4
:10361000A070894629E0974807703EE06178081A53
:1036200014F0C7FE02460B460020934913F0D6FD66
:103630000646A0780F468046484410F8010C303802
:1036400014F0B7FE32463B4614F01AFF06460F460A
:10365000A06815F025FA32463B4614F02BFC14F016
:10366000F7FBA060A8F10100A070C0B20428D5D279
:1036700099F80100303803280FD2DFE800F0020883
:103680000B00A06815F06EFBCAF8000005E07B494E
:10369000A06801E07A49A068086025706570A5708F
:1036A00032217248A56010F0B2FB0020BDE8F0871F
:1036B00074490880081F01884906FCD5704770B519
:1036C0000546012186B0084601F0E3FD01211020E6
:1036D00001F0DFFD0121880401F0E4FD01216A48C9
:1036E00001F024FC4FF48060ADF8100003248DF845
:1036F00012401820654E8DF8130004A9304601F0E1
:103700008AFBF014ADF8100048208DF8130004A9CE
:10371000304601F080FB27208DF8140001218DF840
:1037200015108DF816408DF8171005A800F061FDF2
:103730000020ADF80400ADF80600ADF80800ADF8C3
:103740000C00504C0C20ADF80A00241F009569466F
:10375000204602F095FB012240F22551204602F05E
:103760000CFC0121204602F0FEFB06B070BD30B516
:1037700003460020012909D13C4C0022323403E0E9
:10378000A55C6840521CD2B29A42F9D3002908D1F4
:10379000364A643203E0545C6040491CC9B2994225
:1037A000F9D330BD70B5374C40F22551241F204667
:1037B00002F09AFCB0B3204602F02FFCC2B22248BD
:1037C00040F24C41006888426ADB294C0020012607
:1037D000217969B120490B7853B91A4B18701B4BEA
:1037E00018701B4B18701B4B18700E701B4908701B
:1037F0001E4DE17864357B2A6A5400D091B1491C92
:10380000C9B2E1700B294BD1E070A87A7D2847D16D
:1038100000210920FFF7ABFF697A884240D1207967
:1038200008B935E03CE034E0003801400444004091
:1038300000140140340100203C0100203D01002023
:103840003E0100205C000020EC0100201E00002052
:103850001F0000201C0000201D0000201B00002075
:1038600038010020000048430000A041400700202C
:10387000CC0100203F0100200000244084000020F3
:10388000880000200448004010001400001001408F
:1038900026719C499A4851F8652F02604968416039
:1038A000002070BD70B5984C40F22551204602F0C2
:1038B0001BFCE8B3204602F0B0FBC2B2934840F2D2
:1038C0004C410068884235DB914C00200126A179EB
:1038D00069B190490B7853B98F4B18708F4B1870A2
:1038E0008F4B18700E708F4908708F490870854D86
:1038F000617964357B2A6A5400D0C9B1491CC9B2C8
:1039000061710B2916D16071A87A7D2812D100212E
:103910000920FFF72CFF697A88420BD1A07900B902
:10392000A6717849764851F8652F0260496800E031
:1039300000E04160002070BD1CB57549C879401C8D
:10394000C0B2C871032801D30020C871C0B20321DE
:10395000B0FBF1F201FB12036A4AA3B1B0FBF1F331
:1039600001FB1303012B17D0B0FBF1F301FB130094
:1039700002281BD152F8420F00905068019069460E
:103980004FF4817010E052F8320F009050680190AF
:1039900069464FF4807007E052F83A0F0090506883
:1039A0000190694640F20110FEF7DBF91CBD10B52D
:1039B000544C00233234E05CFFF77AFEE05CFFF702
:1039C00035FD5B1CDBB2182BF5D3BDE81040B3E727
:1039D0002DE9F84F4B4C7B20323420767D2084F843
:1039E0002E005248076852480568781900EBD070DD
:1039F000401015F0F3F94F490968884615F0F0F8C2
:103A00004D4915F07BFA15F0ADF9064660830020AC
:103A1000A083E81B15F0E2F9414615F0E1F84749AB
:103A200015F0DEF8444915F069FA15F09BF90546E2
:103A3000E083434840490088608400904148008802
:103A40004042A084804640480088E08483463F4846
:103A50000088208582463E48008847423D48678569
:103A60000088A08581463C48006815F047FA15F0AB
:103A700079F9014620847B202070384800786070F6
:103A8000300AA070E670002020716071280AA071D1
:103A9000E5710098000A2072009860724FEA1820C1
:103AA000A07284F80B804FEA1B20207384F80DB0BD
:103AB0004FEA1A20A07384F80FA0380A20746774A4
:103AC0004FEA1920A07484F81390080A20756175D4
:103AD00001211620FFF74BFEA07594F82E00E0752B
:103AE000BDE8F88F08B500F00BFB00903221684666
:103AF00009F044FBFFF76CFFFFF759FFF6E7000002
:103B0000540000204007002000380140EC01002054
:103B1000CC0100201C0000205C0000201E000020C2
:103B20001F0000201D0000201B000020700000204E
:103B300074000020DC00002000007A4452B81E3ED1
:103B4000DE010020E0010020E2010020D801002079
:103B5000DA010020DC0100204401002035010020B2
:103B600003788B54114443784B7082788A70C07804
:103B7000C870704703B50A2912D8002910D00B2944
:103B80000ED2DFE801F00D06080E10121416181AF6
:103B90001C00012200E0052229496846FFF7E0FFEA
:103BA0000CBD0922F8E70D22F6E71122F4E71522F1
:103BB000F2E71922F0E71D22EEE72122ECE72522A9
:103BC000EAE70A2839D890B31D4924220B280A7045
:103BD00033D2DFE800F032060A0E12161A1E222730
:103BE0002D000520487106207047092048720A20E0
:103BF00070470D2048730E20704711204874122022
:103C000070471520487516207047192048761A20ED
:103C100070471D2048771E207047212081F8210021
:103C200022207047252081F825002620704704E0D7
:103C3000292081F829002A20F8E70020F6E7000073
:103C4000C407002070B515460E460446FEF70CFC6E
:103C50006006000EFEF7A5FCFEF741FC50B93046A9
:103C6000FEF79FFCFEF73BFC2846FEF79AFCFEF7AA
:103C700036FC18B1FEF715FC012070BDFEF711FCF3
:103C8000002070BD2DE9F0411C4615460F46064642
:103C9000FEF7EAFB7006000EFEF783FCFEF71FFC42
:103CA00020B1FEF7FEFB0120BDE8F0813846FEF7AB
:103CB00078FCFEF714FCFEF7D7FB012000EB460072
:103CC000C0B2FEF76EFCFEF70AFC08E0012D0CD036
:103CD0000120FEF792FC6D1E04F8010BEDB2002DE1
:103CE000F4D1FEF7DEFB0020DEE70020F1E72DE94E
:103CF000FC4115460E4607466B46062203210C2062
:103D0000FFF7C0FF040008D1BDF800003880BDF8FF
:103D100002003080BDF80400288011220A210C2006
:103D2000FFF790FF2046BDE8FC817CB514460D46A8
:103D300006466B46062243216820FFF7A3FF0028B2
:103D40000BD1BDF8021049BA3180BDF8001049BA54
:103D50002980BDF8041049BA21807CBD7CB5144689
:103D60000D4606466B4606223B216820FFF78AFF78
:103D700000280BD1BDF8001049BA3180BDF80210FF
:103D800049BA2980BDF8041049BA21807CBDA14AF6
:103D900010B5111F081F06F0C5F958B19E49D1F89A
:103DA000A801E8B30020C1F8A801BDE81040C82070
:103DB00000F072B9974C40F24C40203C616981425E
:103DC00011DA04F10A02911E881EFFF7C7FF221DB7
:103DD000911E881EFFF7A9FF04F11002911EBDE895
:103DE0001040881E83E78B4A6061163A911E881E38
:103DF000FFF7B4FF874A1C3A911E881EFFF795FF14
:103E0000844A103A911E881EFFF771FF814822886C
:103E1000001D0188511A218041886288511A00E0F2
:103E200005E061808088A188081AA08010BD01206B
:103E3000B9E770B50D460446FEF716FB6006000EA6
:103E4000FEF7AFFBFEF74BFB2846FEF7AAFBFEF79B
:103E500046FBFEF709FB012000EB4400C0B2FEF771
:103E6000A0FBFEF73CFB0020FEF7C7FB0446FEF775
:103E700018FB204670BDBC2801D3012210E0622847
:103E800001D302220CE02A2801D3032208E01428DF
:103E900001D3042204E00A2801D3052200E006220F
:103EA0001A216820CEE610B504464FF47A70844299
:103EB00001D9044602E0042C00D20424B0FBF4F043
:103EC000401EC2B219216820FFF7BCFE6008BDE8A1
:103ED0001040D0E7C006020E1C216820B2E6C006E2
:103EE000020E1B216820ADE610B5FEF799FA80227C
:103EF0006B216820FFF7A6FE642000F0CDF80022B9
:103F00006B216820FFF79EFE0120FFF7E8FF0020ED
:103F1000FFF7E0FF3220FFF7C6FF002238216820BC
:103F2000FFF790FE00226A216820FFF78BFE002237
:103F300023216820FFF786FE822237216820FFF7C1
:103F400081FE75216820FFF774FF712812D10122CC
:103F50006B216820FFF776FE00226C216820FFF7B6
:103F600071FE3220FFF79FFF00210C20FFF761FF59
:103F7000482801D0012010BD11220A210C20FFF792
:103F800061FE002010BD08B56B4602224121682069
:103F9000FFF778FEBDF8000040BA00B214F009FA4D
:103FA0001E4A1F4B14F042F800221E4B13F082FFF2
:103FB00013F04EFF1C4914F0A1FF14F0D3FE00B221
:103FC00008BD2DE9F0411D4616460C460746FEF792
:103FD0004BFA7806000EFEF7E4FAFEF780FA60B9B5
:103FE0002046FEF7DEFAFEF77AFA00240BE0285DA1
:103FF000FEF7D7FAFEF773FA18B1FEF752FA01206E
:1040000052E6641CE4B2B442F1D3FEF74AFA00204F
:104010004AE60000F80100200000234252B81E8545
:10402000EBDD7440000035400000C84210B50420AC
:1040300000F01FF938483949394A0068B0FBF1F3FC
:10404000B0FBF1F14FF47A704143137001205080BE
:104050004FF0E020026942F0020202614161016911
:1040600041F00101016110BD70B54FF0E025002164
:104070006C692B4AAB6912785043AA699A42FCD00A
:1040800002D2A3EB020302E0A4EB0206334419447C
:1040900013468142F1D370BD70B5044609F0F0FCBF
:1040A00001280CD01E4D6888844203D3B4FBF0F085
:1040B00009F0BEF86888B4FBF0F100FB11444FF43E
:1040C0007A706043BDE87040CEE770B505460024C5
:1040D0004FF47A7603E03046FFF7C6FF641CAC422B
:1040E000F9D370BD10B509F0CBFC012803D0BDE8B1
:1040F00010400AF048BB0A484168491C416010BDA5
:1041000010B509F0BDFC012803D0BDE8104009F04E
:10411000C0BA0348406810BD0400002040420F00B0
:104120000402002070472D490A885206FCD52B4A0C
:10413000C1B2121D1180704730B50446012187B00D
:10414000084601F0A6F8012144F2040001F0A1F8AC
:104150004FF40070ADF8100003208DF81200182005
:104160001F4D8DF8130004A9284600F054FE2815B1
:10417000ADF8100048208DF8130004A9284600F07F
:104180004AFE25208DF8140001218DF81510022219
:104190008DF816208DF8171005A800F02AF80020D9
:1041A000ADF804000094ADF80600ADF80800ADF8D5
:1041B0000C000C200B4CADF80A006946204601F0BB
:1041C0005FFE012240F22551204601F0D6FE01217A
:1041D000204601F0C8FE07B030BD0000004400409A
:1041E0000008014000380140284908432849086078
:1041F000704730B50F23C27801780125F2B1244A07
:10420000126801F1E02102F4E062C2F5E062120AF4
:10421000C2F10404D3404278A24084781C40144385
:10422000220181F80024007800F01F018D40400930
:10423000800000F1E020C0F8005130BD01F01F0007
:1042400085404809800000F1E020C0F8805130BD71
:10425000104A114001430E48001F016070470C4A8C
:10426000121D0029116801D0014300E08143116053
:1042700070474FF0E0210428086903D020F00400C3
:104280000861704740F00400FAE700000000FA05FA
:104290000CED00E080FFFF1FC54910B5884202D138
:1042A000012144150AE0C349884202D101210415C5
:1042B00004E0C14988420AD10121CC03204600F024
:1042C000FAFF2046BDE81040002100F0F4BF10BD09
:1042D00010B54268B94B0C791A400B6842EA0422C7
:1042E000134343608268B64B1A40D1E9024323432B
:1042F0004C7942EA440213438360C26A097C22F487
:104300007002491EC9B242EA0151C16210BD0021CA
:104310000160017141718160C160012101747047C8
:104320000029816802D041F0010101E021F0010182
:10433000816070470029816802D041F4807101E0FA
:1043400021F4807181607047002A4268C9B201D0AF
:104350000A4300E08A4342607047816841F00801E7
:1043600081607047014600208968090700D5012057
:104370007047816841F00401816070470146002068
:104380008968490700D5012070470029816802D05B
:1043900041F4A00101E021F4A001816070470146D1
:1043A00000208968490200D5012070474268491EF3
:1043B00022F4604242EA413141607047002941687D
:1043C00002D041F4006101E021F4006141607047D6
:1043D00070B5072609290AD9C568A1F10A0404EBBA
:1043E0004404A640B543A3401D43C56007E00569EA
:1043F00001EB4104A640B543A3401D4305611F23C3
:10440000072A09D2446B521E02EB820293409C435E
:1044100091400C43446370BD0D2A09D2046BD21F36
:1044200002EB820293409C4391400C43046370BDB5
:10443000C46A0D3A02EB820293409C4391400C43C4
:10444000C46270BD0029816802D041F4801101E08E
:1044500021F4801181607047C06C80B2704754486D
:104460004C30006870470029416802D041F48061F7
:1044700001E021F48061416070470029416802D069
:1044800041F4805101E021F480514160704782681D
:1044900022F4E0420A43826070470029816802D01A
:1044A00041F4004101E021F400418160704700299E
:1044B000816802D041F4021101E021F4021181600F
:1044C0007047014600208968890200D501207047A5
:1044D00070B5072609290AD9C568A1F10A0404EBB9
:1044E0004404A640B543A3401D43C56007E00569E9
:1044F00001EB4104A640B543A3401D430561836B16
:10450000C3F30154121B921C02EB82021F2494403D
:10451000A34391400B43836370BD826B491E22F419
:10452000401242EA01518163704708B50844009087
:10453000026008BD08B5084428300090006880B2C9
:1045400008BD42681F4B1A400A43426070474162EF
:1045500082627047426822F01F020A43426070473D
:10456000134908310028086802D040F4000001E037
:1045700020F40000086070470246002012680A42DA
:1045800000D001207047C9430160704710B5024652
:10459000002054680B0AC9B20C401168194202D0BD
:1045A000002C00D0012010BD6FEA1121016070477E
:1045B0000024014000280140003C0140FFFEF0FFC4
:1045C000FDF7F1FFFFFD3FFF10B5012000F085FE74
:1045D000BDE81040002000F080BE1F490860704711
:1045E0001D49091F086070471B49843108607047E6
:1045F0001A4A118821F46071014311807047174AEB
:10460000118821F07F01014311807047134A08B5DA
:104610002C3A10440090016008BD104908B52C39AF
:1046200008440090008808BD0B489C300068C0B268
:1046300070470A480830018841F001010180704745
:104640000548A0300068C0B27047044808300188AF
:1046500041F002010180704704860D422C6C00403D
:10466000FE4910B588424FF0010101D14C0601E02E
:104670004FF08064204600F027FE2046BDE8104041
:10468000002100F021BE10B50368002223F00203D0
:104690000360036843F0010303604FF6FF7300E01B
:1046A000521C4468E40701D19A42F9D14268D2070A
:1046B0003ED08A79012A02683CD022F08002026052
:1046C000CA79012A026838D022F0400202600A7AD0
:1046D000012A026834D022F0200202604A7A012ABC
:1046E000026830D022F0100202608A7A012A026841
:1046F0002CD022F008020260CA7A012A026828D06F
:1047000022F0040202608A78CC78920742EA0462BE
:104710000C7942EA04424C79098842EA0452491E63
:104720000A43C261016821F001010160002114E027
:10473000002010BD42F08002C1E742F04002C5E710
:1047400042F02002C9E742F01002CDE742F0080231
:10475000D1E742F00402D5E7491C4268D20701D0F4
:104760009942F9D14068C007E2D1012010BDF0B5EF
:10477000827ABB4D012191402A6842F001022A60F1
:10478000B74E1C3632688A433260B54A047BB54B5B
:104790000C32A4B914688C4314604488C78844EA76
:1047A0000744877A03EBC707C7F840460488878821
:1047B00044EA0744877A03EBC707C7F84446047BFB
:1047C000012C12D114680C431460847A026803EB44
:1047D000C4044FEA3242C4F84026847A426803EBAC
:1047E000C4034FEA3242C3F844269D4AC37A121DDD
:1047F000002B136806D00B431360994A03891432C7
:1048000013B104E08B43F7E713688B43136003890C
:10481000012B02D113680B431360407B012802D1A6
:10482000306808433060286820F001002860F0BD3F
:1048300000218171C171017241728172C1728170F6
:10484000C170032101710221417101210180704772
:1048500083490A6842F001020A600A6843F60E734F
:104860009A430A600A6842EA00200860086820F05B
:104870000100086070470029016802D041F48031CE
:1048800001E021F48031016070470029016813D0F4
:1048900041F080010160D0F8841141F48071C0F8CA
:1048A0008411D0F8941141F48071C0F89411D0F8BB
:1048B000A41141F4807112E021F080010160D0F870
:1048C000841121F48071C0F88411D0F8941121F47E
:1048D0008071C0F89411D0F8A41121F48071C0F84F
:1048E000A411704730B50246002093685B0108D4DC
:1048F0009068000101D5012003E09068C00037D521
:10490000022002EB0012D2F8803103F00103C2F85A
:1049100080310B7A73B3D2F880414D681C434B7AD7
:1049200043EAC5031C43C2F880418B7A03F00F03AE
:104930008B72D2F8843123F00F03C2F88431D2F89D
:1049400084318C7A2343C2F88431CB7ACC6843EA31
:104950000423C2F88831CB7B096943EA0121C2F8FC
:104960008C11D2F8801141F00101C2F8801130BDE4
:10497000042030BDD2F880314C7A23430C8843EABE
:104980004453C2F88031D0E7002221B1012905D07B
:10499000022906D112E08268334801E08268334878
:1049A00002403349501A8A4214D00ADCA2B16FF097
:1049B000806010180FD002280CD10FE082682D48BB
:1049C000EEE7B0F5007F09D02B49401803D0B0F5D1
:1049D000003F03D00020704702207047012070473D
:1049E00041B101290AD0022903D1816841F40001B3
:1049F00081607047816841F08001F9E7816841F486
:104A00000041F5E710B500EB0113D3F8B04114F005
:104A100004041472D3F8B04145D0E4085460D3F8CC
:104A2000B04104F002045472D3F8B44104F00F040E
:104A30009472D3F8B441240AD474D3F8B841D47230
:104A4000D3F8B841240A1473D3F8B841240C547332
:104A5000D3F8B841240E947310E0000000640040C5
:104A600000660040006000400300000400030008EE
:104A700000010008000003100001FFF7D3F8BC415B
:104A8000D473D3F8BC41240A1474D3F8BC41240C69
:104A90005474D3F8BC311B0E937439B1016941F0E1
:104AA0002001016110BD640D1460B8E7C16841F0D8
:104AB0002001C16010BD21B1016941F020010161F7
:104AC0007047C16841F02001C16070470246002074
:104AD00029B1012902D1106900F003007047D068A4
:104AE000FAE700234FF6FF7221B1012917D00229FE
:104AF00024D03AE0016821F0020141F00101016097
:104B000000E0521E416801F00301012901D0002A92
:104B1000F7D1406800F00300012823D124E00168A8
:104B200021F00301016000E0521E4168890701D0B5
:104B3000002AF9D14068800714D115E0016821F0FE
:104B4000010141F00201016000E0521E416801F0E4
:104B50000301022901D0002AF7D1406800F00300C8
:104B6000022801D0002300E00123184670470268A4
:104B7000002122F0010242F002020260406800F0CF
:104B80000300022800D101210846704702684FF651
:104B9000FF71002322F00202026000E0491E426819
:104BA000920701D50029F9D14068800700D401237C
:104BB000184670478069C0F3021000017047806991
:104BC000000E70478069C0F307407047002A4269B1
:104BD00001D00A4300E08A43426170470246002048
:104BE00011F4700F03D0926904E001207047CB01EB
:104BF00004D552680A401103F7D170470B0101D563
:104C00009268F7E78B0101D5D268F3E71269F1E703
:104C1000534A914202D1002181617047C1F31302CE
:104C20008B0101D5C26070474B0101D5026170470D
:104C3000090101D58260704742607047024600203A
:104C400053690B424AD0B1F5807F3BD013DC082971
:104C50002ED007DC012926D0022927D004293DD1F6
:104C6000D0682BE0102925D0202926D0402935D125
:104C70001069102130E0B1F5004F2BD00BDCB1F5FD
:104C8000007F22D0B1F5806F22D0B1F5006F25D121
:104C90009069702120E0B1F5803F11D0B1F5003F5F
:104CA0001CD15068E5E790682E4915E0D06802E015
:104CB000D068DEE7106903210EE0106908210BE0DF
:104CC0005068FBE79069012106E09069022103E04A
:104CD000906900E05068042100F03BB8704730B59F
:104CE000082310240422B1F5007F1DD010DC2029F8
:104CF00029D007DC012921D0042922D0082900D19C
:104D0000C46030BD402920D0B1F5807FF9D10BE0DF
:104D10000025B1F5004F06D008DCB1F5806F03D057
:104D2000B1F5006FEDD18561426030BDB1F5803FD6
:104D30000DD0B1F5003FF8D1446030BD0949816024
:104D400030BDC36030BD036130BD046130BD436020
:104D500030BD024600200A4200D00120704700000A
:104D60007000F030010101008F4910B5884206D172
:104D70000121042000F09FFA002104203BE08B4930
:104D8000884206D10121082000F095FA0021082070
:104D900031E08749884206D10121102000F08BFACA
:104DA0000021102027E08349884206D101212020DC
:104DB00000F081FA002120201DE07F49884206D1C1
:104DC0000121402000F077FA0021402013E07B49C8
:104DD000884206D10121802000F06DFA0021802058
:104DE00009E0774988420AD184150121204600F064
:104DF00062FA00212046BDE8104000F05CBA10BD08
:104E000010B50121084600F056FA0021BDE8104017
:104E1000012000F050BAF0B5CC78002204F00F0366
:104E2000E40601D58C7823430C784FF00F0C14F076
:104E3000FF0F4FF0010E1BD005680E880EFA02F42A
:104E40002640A64210D196000CFA06F725EA07077D
:104E500003FA06F5CE783D43282E02D0482E02D024
:104E600002E0446100E00461521C082AE5D30560B9
:104E70000A88FF2A1CD94468002202F108060EFAAB
:104E800006F50E882E40AE420ED196000CFA06F7BB
:104E9000BC4303FA06F7CE783C43282E00D1456187
:104EA000CE78482E00D10561521C082AE5D3446013
:104EB000F0BD4FF6FF710180022181700421C170A5
:104EC00070470246002092680A4200D001207047D5
:104ED000806880B2704702460020D2680A4200D043
:104EE00001207047C06880B270470161704741611E
:104EF00070470AB10161704741617047C1607047F6
:104F000041F4803282618161826181698069704788
:104F10002C4B10B51A684FF68074224042EA0010FC
:104F20000843186010BD2849C8617047F0B5254C8A
:104F3000002801DAE36900E06368450D2E0185B2BF
:104F4000C0F30157B540C0F30342032F05D0C6029A
:104F50000AD503269640B34307E023F070626368E6
:104F600023F07063636002E0AB4343F0706201B111
:104F70002A43002801DAE261F0BD6260F0BD10B59D
:104F80008A0721F003040F49120F21440F238C6874
:104F900093409C438C608B68904003438B6010BDB2
:104FA0000949C1F8DC00704700080140000C0140CD
:104FB000001001400014014000180140001C014095
:104FC00000200140000001400000204210B50121F6
:104FD0000C07204600F078F92046BDE8104000217B
:104FE00000F072B921490862704720490861704792
:104FF0001F4A116821F0E0010143116070471B490D
:10500000C1F8A00070471A4B1A6822F0030202434D
:105010001A601848026842F004020260012905D0B3
:1050200020BF016821F004010160704730BFF8E73C
:105030000F48016841F004010160016841F002017C
:1050400001600C48016841F00401016030BF704705
:10505000074A0146002052680A4200D001207047EA
:1050600003490A6842EA80000860704700000E4267
:105070000070004010ED00E0A548016841F001011A
:1050800001604168A34A114041600168A24A114091
:105090000160016821F480210160416821F4FE0172
:1050A00041604FF41F018160704799490A6822F4FA
:1050B00080320A600A6822F480220A60B0F5803FDC
:1050C00007D0B0F5802F03D1086840F4A020086015
:1050D0007047086840F48030F9E70346002059091A
:1050E0008B4A01290AD002290AD0516A03F01F0213
:1050F000012393400B4200D0012070471168F5E76F
:10510000116AF3E718B500204FF4A0640090312035
:10511000FFF7E3FF0099491C0091A14201D000284C
:10512000F5D03120FFF7D9FF002800D0012018BDAD
:10513000774A116821F0F80141EAC0001060704719
:10514000764908607047724B5A68084322F47C1213
:105150001043586070477149086670476C4A51683F
:1051600021F003010143516070476948406800F035
:105170000C007047664A516821F0F001014351600C
:105180007047634A516821F4E06101435160704700
:105190005F4A516821F4605141EAC0005060704795
:1051A0005B4A0029517A01D0014300E081435172EA
:1051B00070475A49C1F8D8007047554A516821F4E0
:1051C00040410143516070475149002281F820203D
:1051D00081F82020012802D0042802D1052081F87E
:1051E000200070474E490860704749490A6A0243E7
:1051F0000A6270474A4944390860704730B5444AEA
:105200005168484B11F00C0103D0042901D0082942
:1052100001D0036012E05168536801F470114FF03F
:10522000020413F4803F04EB914102D053689B03C6
:1052300001D53D4B00E03B4B5943016051680F23C2
:1052400003EA1111394B5C5C0168E140416054682C
:10525000072505EA14241C5D21FA04F484605468CF
:1052600005EAD4241B5DD940C1605268032303EAD8
:1052700092322E4B1B1F9A5CB1FBF2F1016130BDE3
:10528000234A0029516901D0014300E08143516163
:1052900070471F4A0029916901D0014300E0814312
:1052A000916170471A4A0029D16901D0014300E099
:1052B0008143D1617047164A0029D16801D001436A
:1052C00000E08143D1607047114A0029116901D083
:1052D000014300E081431161704711494039086082
:1052E00070470E49C86470470949C871704708483B
:1052F000416A41F0807141627047054A01460020D1
:1053000092680A4200D001207047014988727047B4
:10531000001002400000FFF8FFFFF6FE00004242CE
:105320008004424200127A0000093D00140200206D
:10533000F94910B5884202D10121C41486E0B0F1C8
:10534000804F09D0F54988420DD101210220FFF795
:10535000BBFF0021022064E001210846FFF7B4FFF3
:10536000002101205DE0EE49884206D101210420A0
:10537000FFF7AAFF0021042053E0EA49884206D142
:1053800001210820FFF7A0FF0021082049E0E6499D
:10539000884206D101211020FFF796FF002110203E
:1053A0003FE0E249884206D101212020FFF78CFF2F
:1053B0000021202035E0DE49884202D10121441439
:1053C00044E0DC49884202D10121CC043EE0DA49C4
:1053D000884202D101210C0538E0D849884202D127
:1053E00001214C0532E0D649884206D101214020F6
:1053F000FFF76AFF0021402013E0D249884206D11E
:1054000001218020FFF760FF0021802009E0CE49C4
:1054100088420AD1841501212046FFF755FF00215B
:105420002046BDE81040FFF74FBFC849884202D16F
:1054300001210C040AE0C649884202D101214C0432
:1054400004E0C44988420AD101218C042046FFF7B8
:1054500032FF2046BDE810400021FFF72CBF10BDF1
:1054600030B50288AC4CB24DA0420DD0A8420BD052
:10547000B0F1804F08D0A94B984205D0A84B984274
:1054800002D0A84B984203D122F070034A881A43F5
:10549000A54B984206D0A54B984203D022F4407306
:1054A000CA881A4302808A8882850A880285A042B7
:1054B0000AD0A84208D0A54A904205D0A44A9042FA
:1054C00002D0A44A904201D1097A01860121818249
:1054D00030BD30B5028C22F001020284028C838838
:1054E000048B22F0020224F073050C882C430D89F2
:1054F00015434A882A43884DA8420BD08C4DA842B8
:1055000008D0924DA84205D0914DA84202D0914DAD
:10551000A8420DD122F008054A8923F440732A439A
:1055200022F004058A882A438D891D43CB892B43A9
:1055300083800483C9888186028430BD70B5028C63
:1055400022F010020284028C8388048B0D8824F4DC
:10555000E6464FF6FF7404EA052535430E8922F02E
:10556000200204EA061616434A8804EA021232436D
:10557000694EB04202D06E4EB04215D122F0800684
:105580004A8923F4406304EA0212324322F04006BF
:105590008A8804EA021232438E8904EA86061E4390
:1055A000CB8904EA8303334383800583C988018759
:1055B000028470BD70B5028C22F480720284028C69
:1055C0008388848B0D8824F0730425430E894FF65D
:1055D000FF7422F4007204EA062616434A8804EA9D
:1055E000022232434C4EB04202D0514EB04215D14D
:1055F00022F400664A8923F4405304EA022232432B
:1056000022F480668A8804EA022232438E8904EA00
:1056100006161E43CB8904EA031333438380858334
:10562000C9888187028470BD70B5028C22F48052D3
:105630000284058C8288838B0C8823F4E6464FF61F
:10564000FF7303EA0424344325F400560D8903EA6A
:10565000053535434E8803EA06362E432E4DA842C3
:1056600002D0334DA84205D122F480458A8903EA4D
:1056700082122A4382808483C988A0F8401006845D
:1056800070BD828B22F440628283828B4FF6FF735F
:1056900003EA01210A4382837047828B22F00C02C5
:1056A0008283828B0A4382837047028B22F440629A
:1056B0000283028B4FF6FF7303EA01210A43028340
:1056C0007047F0B5048C24F010040484078B048C1C
:1056D0004FF6FF7527F4734705EA03333B4305EAAA
:1056E00002221A430C4B05EA011698420ED0104BC9
:1056F00098420BD0B0F1804F08D0084B984205D0AB
:10570000074B984202D0074B984225D124F0200144
:10571000314341F0100124E0002C0140000400401E
:1057200000080040000C0040001000400014004041
:1057300000340140004C0140005001400054014041
:1057400000180040001C00400020004000400140C4
:10575000004401400048014024F0A0030B4343F003
:10576000100102830184F0BD028B22F00C0202833F
:10577000028B0A430283704770B5048C24F0010445
:105780000484058B048C4FF6FF7606EA031313435B
:1057900025F0F305F84A2B4390420ED0F74A904289
:1057A0000BD0B0F1804F08D0F54A904205D0F54AB1
:1057B000904202D0F44A904202D124F0020201E069
:1057C00024F00A020A4342F001010383018470BD00
:1057D0002DE9F84F0D4604460888E74FDFF89CC3D3
:1057E000DFF89C83DFF89C934988AA882B894FF0C7
:1057F000804A48B304282FD04FF6FF7608289346F6
:1058000032D0208C9E4620F480502084A38B208CA4
:1058100006EA0132009223F4734306EA0B221A438C
:1058200006EA0E331343BC420AD0644508D05445FF
:1058300006D0444504D04C4502D0D34A944242D1CC
:1058400020F40050009940E02046FFF795FFE988DA
:105850002046BDE8F84F87E72046FFF732FFE9888A
:105860002046BDE8F84F20E7208C20F4807020848B
:10587000B4F81CE0208C06EA031306EA01222EF09D
:10588000F30E43EA0B0343EA0E030092BC420AD034
:10589000644508D0544506D0444504D04C4502D058
:1058A000B94A944203D120F40070009901E020F439
:1058B0002060084340F48070A3832084E988204658
:1058C000BDE8F84FE9E620F40240084340F4805078
:1058D000A3832084E9882046BDE8F84FD1E62DE96E
:1058E000F0410C46002649880746012501B90226E9
:1058F000A288012A00D10225208823890028384661
:1059000010D0FFF7DEFEE1883846FFF7CEFE238990
:105910002A4631463846FFF72FFFE1883846BDE872
:10592000F04121E7FFF728FFE1883846FFF71CFF29
:1059300023892A4631463846FFF7C3FEE1883846B8
:10594000BDE8F041B1E610B50A884B88CC881A430F
:105950008B8823431A430B891A434B8989891A433D
:105960000A43A0F8442010BD4FF6FF71818000214A
:105970000180C18041800172704700210180418017
:105980008180C180018141818181C1817047002175
:105990000180418001228280C18001817047002105
:1059A000018041808180C180018141818181704776
:1059B0000029018802D041F0010101E021F001013C
:1059C00001807047002930F8441F02D041F40041A3
:1059D00001E0C1F30E0101807047002A828901D0E5
:1059E0000A4300E08A4382817047818270471143F5
:1059F000A0F848107047002A828901D00A4300E0CD
:105A00008A4382817047018921F007010181704733
:105A1000028922F070020A430281704700B50346F2
:105A2000FFF7F6FF188940F00700188100BD70B538
:105A300016460D46602904464FF0010231460AD051
:105A4000FFF79AFE29462046FFF7E2FF208940F043
:105A50000700208170BDFFF734FEF3E730B50489FD
:105A60004FF6FF7505EA03231343E4B20B432343C8
:105A7000038130BD10B50446FFF7F0FF208940F0E8
:105A80007700208110BD10B50446FFF7E7FF20899D
:105A900040F48040208110BD0185828270470288D9
:105AA00022F070020A430280704770B50589048BAA
:105AB000068C25F007050D434FF6FC410C4040F2E3
:105AC00001110C434FF6FF7101EA031126F0220683
:105AD0001143314305810483018470BD028B22F0A0
:105AE00070020A4302837047028B4FF6FF7322F461
:105AF000E04203EA0121114301837047828B22F0C7
:105B000070020A4382837047828B4FF6FF7322F440
:105B1000E04203EA01211143818370470029018893
:105B200002D041F0800101E021F080010180704746
:105B30000029818802D041F0040101E021F0040134
:105B4000818070470029818802D041F0080101E07E
:105B500021F00801818070470029818802D041F03E
:105B6000010101E021F0010181807047028B22F0E8
:105B700008020A4302837047002C014000340140B0
:105B80000004004000080040000C0040028B4FF66B
:105B9000FF7322F4006203EA012111430183EAE763
:105BA000828B22F008020A438283E4E7828B4FF65D
:105BB000FF7322F4006203EA012111438183DAE7D3
:105BC000028B22F004020A430283D4E7028B4FF6D1
:105BD000FF7322F4806203EA012111430183CAE7C3
:105BE000828B22F004020A438283C4E7828B4FF641
:105BF000FF7322F4806203EA012111438183BAE733
:105C0000028B22F080020A430283B4E7028B4FF634
:105C1000FF73C2F30E0203EA012111430183AAE7D5
:105C2000828B22F080020A438283A4E7828B4FF6A4
:105C3000FF73C2F30E0203EA0121114381839AE745
:105C4000028C22F002020A43028494E7028C22F0C2
:105C500008020A4302848EE7028C4FF6FF7322F09B
:105C6000200203EA01111143018484E7028C4FF6FC
:105C7000FF7322F0800203EA0111114301847AE7E5
:105C8000028C4FF6FF7322F4007203EA01211143E4
:105C9000018470E7028C4FF6FF7322F4006203EA7E
:105CA00001211143018466E7028C4FF6FF7322F451
:105CB000005203EA0131114301845CE710B501236E
:105CC000048C8B409C430484038C8A4013430384DC
:105CD00010BD10B50423048C8B409C430484038CBA
:105CE0008A401343038410BD30B50124058C00F1B4
:105CF00018038C40A543058489B108290FD0091FDA
:105D0000C1F34E001844016821F4E04101600168CC
:105D10004FF6FF7303EA02221143016030BD03EB2B
:105D20005100016821F0700101600168F4E7002969
:105D3000018802D041F0020101E021F0020101805E
:105D400019E70029018802D041F0040101E021F0A7
:105D5000040101800FE70029818802D041F0800111
:105D600001E021F08001818005E7028822F008022D
:105D7000028002880A430280FDE6828822F07002D7
:105D8000828082880A438280F5E6028922F0070237
:105D9000028102890A430281EDE6028922F0800233
:105DA000028102890A430281E5E68184E3E6818576
:105DB000E1E68186DFE60187DDE68187DBE6A0F8A4
:105DC0004010D8E6028822F44072028002880A431A
:105DD0000280D0E6808ECEE6008FCCE6808FCAE6C9
:105DE000B0F84000C7E6808CC5E6008DC3E60246E9
:105DF0000020128A0A4200D00120BCE6C943018279
:105E0000B9E602460020138A92890B4202EA010297
:105E100002D0002A00D00120ADE6C9430182AAE6E3
:105E2000C44910B588420AD101218C032046FFF7EE
:105E300042FA2046BDE810400021FFF73CBABE49B7
:105E4000884202D101214C0410E0BC49884202D1B1
:105E500001218C040AE0BA49884202D10121CC0414
:105E600004E0B84988420AD101210C052046FFF719
:105E70002BFA2046BDE810400021FFF725BA10BDDF
:105E800030B50446008A85B00D464CF6FF710840D7
:105E9000E98801432182A0894EF6F3110840A988C0
:105EA0002A8911436A8902431143A181A08A4FF6CE
:105EB000FF410840A9890143A1826846FFF79EF986
:105EC0009C48844201D1039800E00298A18909040A
:105ED00000EBC00101EB0010296801D5490000E08A
:105EE0008900B0FBF1F06422B0FBF2F109010B096B
:105EF0006FF018056B4300EB8300A3891D044FF07E
:105F0000320306D503EBC000B0FBF2F000F007004F
:105F100005E003EB0010B0FBF2F000F00F000843C7
:105F2000208105B030BD4FF4165101600021818001
:105F3000C18001810C2242818181704710B5028AA3
:105F40004FF2FF031A400B884C8823438C88C98882
:105F50000C4323431343038210BD00210180418081
:105F60008180C18070470029818902D041F40051AD
:105F700001E021F400518181704710B5C1F3421353
:105F800001F01F040121A140012B07D0022B07D0F3
:105F90001430002A026805D00A4304E00C30F8E708
:105FA0001030F6E78A43026010BD002A828A01D0D1
:105FB0000A4300E08A4382827047028A22F00F027D
:105FC0000282028A0A4302827047828922F40062B6
:105FD000828182890A43828170470029818902D0A7
:105FE00041F0020101E021F0020181817047028A43
:105FF00022F020020282028A0A43028270470029AC
:10600000018A02D041F4804101E021F48041018203
:106010007047C1F30801818070478088C0F3080091
:106020007047818941F0010181817047028BD2B2B2
:106030000283028B42EA012101837047028B02F442
:106040007F420283028B0A43028370470029818AC0
:1060500002D041F0200101E021F02001818270474F
:106060000029818A02D041F0100101E021F01001E5
:10607000818270470029818A02D041F0080101E045
:1060800021F00801818270470029818902D041F402
:10609000004101E0C1F30E01818170470029818A2E
:1060A00002D041F4006101E021F400618182704777
:1060B000828A22F004028282828A0A4382827047A4
:1060C0000029818A02D041F0020101E021F00201A1
:1060D000818270470246002012880A4200D00120C7
:1060E0007047C9430180704770B501F01F05012654
:1060F0000024C1F3421306FA05F2012B0FD0022B44
:106100000FD0838A4FEA11210088134206FA01F664
:1061100000EA060001D000B10124204670BD838949
:10612000F0E7038AEEE70A0A01219140C9430180A2
:106130007047000000380140004400400048004023
:10614000004C00400050004010B501464822FE4877
:106150000DF07FFDFC48F43800F5A071D0F8302137
:106160004A63D0F834218A67D0F83801C1F8BC00FE
:10617000032802D1012005F0BFFE002010BD10B59C
:106180004822F1490DF065FD002010BDEE490020C8
:106190004C31C1F89001704770B50020EA4C0546BB
:1061A0004C3404EB8001401CC1F86C510928F8DB29
:1061B0002421E6480DF02BFE00204FF07E524FF0D8
:1061C000804304EB0011401CC1F84831C1F86C2138
:1061D0000328F6DBC4F8905170BDDB4810B54FF4CE
:1061E000A071F4380DF013FED7484FF4CC714C3049
:1061F0000DF00DFEFFF7D0FFBDE810404DF2930308
:106200004822D349D34805F071BFCF484C30406A8B
:106210007047CD484C30806E7047CB484C30D0F83A
:10622000AC007047426201607047C74A4C3251620D
:10623000106070474FF47A7290FBF2F2C2494C3111
:10624000C1E90A020A6C002A03D1C34A92FBF0F0AA
:10625000086470474FF47A7290FBF2F2BA494C31FD
:10626000C1E91B02D1F88420002A04D1BA4A92FB6A
:10627000F0F0C1F8840070474FF47A7290FBF2F2AC
:10628000B1494C31C1E92C02D1F8C820002A04D10F
:10629000B14A92FBF0F0C1F8C8007047AA494C31EE
:1062A000C96A01607047A8494C31096F01607047A5
:1062B000A5494C31D1F8B41001607047A2494FF4A0
:1062C0007A724C31C1F8280190FBF2F0C1F82C0130
:1062D00070479D494C31086470479B494C31C1F867
:1062E0008400704798494C31C1F8C80070479648FF
:1062F0004C30B0F8B800C0F30020704792484C30E2
:10630000008EC0F3002070478F484C30B0F8740006
:10631000C0F3002070478C4A00204C32B2F8741051
:10632000C90500D5D06F118EC90503D5916B814287
:1063300000D90846B2F8B810C90504D5D2F8C01083
:10634000814200D90846B2F8FC10C90504D5D2F83C
:106350000411814200D9084670477B4A4C3291664D
:1063600050647047784A4C32C2F8AC10C2F88800CA
:1063700070472DE9F0410C4605461646096800684D
:1063800004F0F3FD07466168686804F0EEFD074419
:10639000A168A86804F0E9FD384430602168E86825
:1063A00004F0E3FD07466168286904F0DEFD074458
:1063B000A168686904F0D9FD384470602168A86953
:1063C00004F0D3FD07466168E86904F0CEFD074498
:1063D000A168286A04F0C9FD3844B060BDE8F081C6
:1063E0003EB50446B0F904000D46C0030090B4F970
:1063F000060004F10C03C0030190B4F908006A46DA
:10640000C0030290606A4100208880B205F0F6FA6D
:106410000098296804F11803A0EB6100009001982E
:1064200069686A46A0EB610001900298A968A0EB38
:1064300061000290606A4100208880B205F0DEFAB7
:10644000206B40F0200020633EBD002803D03E4971
:106450000EC980E80E00704770B50D46044601462F
:1064600039480C2206460DF085FB40B1364894E8C9
:106470000E0080E80E003146D430FFF7B1FF3248FD
:1064800000224C300821C0F8BC50A0F5A070C0F824
:106490003851BDE87040084604F038BD2A49F43947
:1064A000C1F83C0170472848F438D0F83C017047E7
:1064B00070B50D46040011D0014623480C2220304F
:1064C00006460DF057FB48B11F4894E80E002030F7
:1064D00080E80E0031467030FFF782FF1A48002234
:1064E0004C3010218567A0F5A070C0F83451BDE88C
:1064F0007040084604F00ABD134900224C318867F9
:10650000A1F5A071C1F834011021084604F0FEBCC9
:1065100070B50D4C0D46F43CA0B1D10702D0016816
:10652000C4F81411910702D54168C4F81811510735
:1065300002D58068C4F81C010349203101F17000C4
:10654000FFF74EFF004809E0E4080020780A002029
:106550007F6100084961000840420F004C30002272
:106560008567C4F83451BDE870401021084604F036
:10657000CDBC70B50D4604000FD00146F8480C2282
:1065800006460DF0F7FA40B1F54894E80E0080E8B1
:106590000E0031464030FFF723FFF1484030A0F5B0
:1065A000A0744563C4F83051D0F8E40050B1042120
:1065B000C4F80C010022084604F0A8FC0120C4F82D
:1065C000100170BD4FF4D810F1E7E649D1F8100181
:1065D000012800D000200022C1F81021704710B51A
:1065E00018B1DF4A1CCA80E81C00002903D0DD482E
:1065F000D0F80C01086010BD10B520B1D84A143293
:106600001CCA80E81C00002903D0D648D0F820011D
:10661000086010BD70B5D24C154604F14004026804
:10662000636F8E0611D4A4F848208188A4F84A101C
:106630000089A4F84C0043F08000A4F12C016067AD
:1066400001F17000FFF7CCFE0DE0E26542682266C2
:106650008068606643F02000606701F00300C14974
:10666000A067C1F83401606F40F4A0706067E06F0C
:10667000C4E91F50002070BD10B5B94A03685364C7
:106680008088A2F8480002F14000026B42F4E072F8
:106690000263826BC0E90E12B149FFF7A1FE002030
:1066A00010BDAF4A0021403202EB8103D3F83C31E8
:1066B00040F82130491C0329F6DB7047A84930B463
:1066C0000022403150F8223001EB8204521CC4F801
:1066D0003031032AF6DBD1F89021012A0BD00022B9
:1066E00001EB820450F82230521CC4F83C31032ADA
:1066F000F6DB30BC70479C4A014630BC02F10C000E
:1067000005F040BA3EB5964C15468A0604F14004A1
:1067100018D4FFF7D3FF6846FFF7C3FF009824F8AB
:106720008C0F019860808E490298A0800C3901F18D
:10673000D400FFF755FE54F82C0F40F0800044F8C9
:10674000B80915E00268C4F8A0204268C4F8A42083
:106750008068C4F8A800D4F8B80040F02000C4F85D
:10676000B80001F003007F49C4F8BC00C1F838014B
:1067700054F8C00F64E80250206840F4A070206014
:1067800000203EBD764A403242F8E40F906940F462
:10679000E0709061106AC2E908100020704770B57F
:1067A000714B71C82C3B01F4007183E87100A3F5B3
:1067B0008870C0F82421D0F8202142F4E0720A4306
:1067C000C0F82021002070BD654900204031486795
:1067D0007047634900204031C1F8B80070476049F4
:1067E00000204031C1F8200170475D490020403150
:1067F000086370475A4900204031C1F8FC007047D7
:106800002DE9F047DFF85C8184469146002002467E
:10681000D8F800400DE002EB420308EB83035D680B
:10682000654502D09B688B4202D10520BDE8F08708
:10683000521C9442EFDC132C28DC00220CB917E028
:10684000521C944206DD02EB420308EB83039B6873
:106850008B42F5DB944209D10AE004EB440308EBD8
:106860008303083B641EE0CB83E8E0009442F4DC41
:1068700002EB420208EB8202C2F804C0C2E902192C
:10688000D8F80010491CC8F80010CFE7374A38A1E3
:10689000062004F0F9F90620C8E730B5314A002196
:1068A000136819E001EB410402EB8404646884423C
:1068B00011D11068491C88420ADD01EB410002EB4E
:1068C0008000001D90E838000C3880E83800F0E7C0
:1068D000401E106002E0491C8B42E3DC002030BD0A
:1068E0001F4940310A6B530602D542F0100008637D
:1068F0004A6F530602D542F010024A67D1F8B82019
:10690000530603D542F01002C1F8B820D1F8FC209C
:10691000530603D542F01002C1F8FC20D1F8202123
:10692000530603D542F01002C1F8202151F8300F70
:1069300020F0400041F8740B51F8300C20F040007A
:1069400041F8300C486920F040004861886D20F023
:1069500040008865C86F20F04000C867704700009D
:10696000F0080020F00700206C0A0020C4B60108DF
:106970004D504C002DE9F0418448002490F830102F
:10698000490600D5022490F87410490601D544F058
:10699000010490F8B810490601D544F0040490F8B9
:1069A000FC10490601D544F0080490F82001400687
:1069B00001D544F0100400263546754F0DE005EB77
:1069C000450007EB8000C168214205D041686F484F
:1069D000884708B106B906466D1C3868A842EEDC47
:1069E000FFF77EFF3046F9E430B520B1674B5C33EA
:1069F00038CB80E8380065480AB1C36F13600029BE
:106A000002D090F87800087030BD604B30B5183374
:106A100038CB80E838005D480AB1836B13600029E9
:106A200002D090F83400087030BD584B30B50C33AC
:106A300038CB80E8380055480AB1836B13600029D1
:106A400002D090F83400087030BD504918310EC99A
:106A500080E80E0082E74D4B30B5A03338CB80E89C
:106A600038004A4812B1D0F8C0301360002908D06D
:106A7000474AD2F83C210AB1002001E090F8BC005E
:106A8000087030BD414B10B5D3F8E440046012B13A
:106A9000D3F804011060002902D0D3F80001086087
:106AA00010BD3A48406B59E73948D0F83C0108B16D
:106AB000002053E73548D0F8BC004FE73348806FDB
:106AC0004CE7324909680160002047E72F49496CCB
:106AD0000160002042E72D4A002102EB8103D3F838
:106AE000483140F82130491C0929F6DB36E72DE909
:106AF000F041264F064600246FF01D0807EB840581
:106B000056F82400C5F8480156F8240012F066F93A
:106B1000414612F0D0FC641CC5F86C01092CEDDB79
:106B20005CE41A4A002102EB8103D3F86C3140F88F
:106B30002130491C0929F6DB10E72DE9F041134FFC
:106B40000646002407EB840556F82400C5F86C01BE
:106B500056F824001E2112F0AEFC12F003F9641C5A
:106B6000C5F84801092CEDDB38E4084A002102EBA6
:106B70008103D3F8303140F82130491C0329F6DB7A
:106B8000ECE602490120C1F89001E7E63009002057
:106B9000F007002010B5FFF727FFD748007E40061A
:106BA00001D5012010BD002010BD10B5FFF72DFF4D
:106BB000D148007D400601D5012010BD002010BD48
:106BC00010B5FFF748FFCC48007F400601D50120F3
:106BD00010BD002010BDF0B5C74B93E8F00080E871
:106BE000F000187C0870586A1060186AF0BD2DE932
:106BF000F047C14C8146884620689246014604F021
:106C000073FA0746E168206804F06EFA0646D4E994
:106C1000010104F069FA0546A068014604F064FA2F
:106C20003844AD1BA0F1804012F0D8F80646284643
:106C300012F0D4F831460FF0E9FEB04912F05EF9D7
:106C4000AF4911F0CDFF10F1FF4F02D3AD4911F064
:106C500053FF102112F02FFC12F084F8C9F8000045
:106C6000207C88F80000616ACAF80010206ABDE83C
:106C7000F0872DE9F74FDFF880A2064686B0DAF8F4
:106C800000005446014604F02FFA8046D4E9000182
:106C900004F02AFA0390A168206804F025FA019014
:106CA000E168206804F020FA07466068014604F0B5
:106CB0001BFAD4E9010104F017FA0546E16860689F
:106CC00004F012FA0090A068014604F00DFA814623
:106CD000D4E9020104F008FA0290E068014604F0E9
:106CE00003FA049009EB0800EC1BA0F1804012F0BD
:106CF00075F80546204612F071F8044629460FF053
:106D000085FEDFF8F8B1594612F0F8F87E4911F027
:106D100067FF0746DDE9020100EB01092946084645
:106D200012F0ECF805462146084612F0E7F829462D
:106D300011F0E2FE11F018F80446484612F04EF841
:106D400021460FF063FE594612F0D8F8DFF8B091F3
:106D5000494611F045FF0499054601EB0804B4F1DA
:106D6000804409D515F1FF4F294601D2584600E06D
:106D7000664812F083FA0546DDE90001401A12F078
:106D80002DF88046204612F029F841460FF03EFECD
:106D9000594612F0B3F8494611F022FFDFF870812E
:106DA000414612F06BFA0446404504DB0146584662
:106DB00012F064FA04465748844204D921465348E5
:106DC00012F05CFA04462846102112F074FB11F010
:106DD000C9FF30602046102112F06DFB11F0C2FF98
:106DE00070603846102112F066FB11F0BBFFB060F6
:106DF000079A9AF8101011700899DAF824200A609E
:106E0000DAF8200009B0BDE8F08F70B50D460146F4
:106E10001446394804F0A8FB3748017C2970416AC0
:106E20002160006A70BD2DE9F041334A04462432E6
:106E30004FF47A75A2F114012F4805F00AF82E4993
:106E4000206B4861636F8B61D4F8B820CA61C705B5
:106E500001D5E56A0026DF0504D5276FAF4201DAC8
:106E60003D460126D70505D5D4F8B470AF4201DA06
:106E70003D460226D4F820715FEAC75C04D5D4F8F9
:106E80002CC1AC4500DA0326012E08D0022E0ED00C
:106E9000032E12D0C0F380100862A06B03E0C3F38E
:106EA00080100862E06F48620020BDE8F081C2F304
:106EB00080100862D4F8C000F5E7C7F380100862BC
:106EC000D4F82401EFE707224FF461711248FFF76D
:106ED00097BC10B5282108480CF099FFBDE8104078
:106EE0000E4805F0D7B810B50B48FFF7D6FCBDE843
:106EF00010400A4805F0ADB8C80A0020000034432D
:106F0000DB0F49400000B443DB0F49C0000034C32D
:106F10000000B4420000B4C2276E0008C76E00082B
:106F20003EB504466846FFF75FFD009811F056FF36
:106F3000F84D294611F0E2FF2060019811F04EFF54
:106F4000294611F0DBFF6060029811F047FF2946E7
:106F500011F0D4FFA060F04890F82800400601D559
:106F600001203EBD00203EBD30B589B0044606A8D4
:106F7000FFF73AFD02A804F00BFF02990698A0EB78
:106F8000A130069003990798A0EBA13007900499CF
:106F90000898A0EBA1300890069811F01FFFDD4D76
:106FA000294611F0ABFF2060079811F017FF294622
:106FB00011F0A4FF6060089811F010FF294611F04D
:106FC0009DFFA060012009B030BD3EB50446D24807
:106FD00003790B7080681060684604F0D9FE009851
:106FE000801311F0FBFECB4D294611F087FF206086
:106FF0000198801311F0F2FE294611F07FFF6060C6
:107000000298801311F0EAFE294611F077FFA06084
:1070100001203EBD3EB504466846FFF7F6FC0098E9
:1070200011F0DCFEBD4D294611F068FF206001988B
:1070300011F0D4FE294611F061FF6060029811F052
:10704000CDFE294611F05AFFA060B34890F8240005
:10705000400601D501203EBD00203EBD3EB50446A0
:107060006846FFF7E2FC009811F0B8FEAB4D2946E8
:1070700011F044FF2060019811F0B0FE294611F094
:107080003DFF6060029811F0A9FE294611F036FF1D
:10709000A060A14890F82400400601D501203EBD23
:1070A00000203EBD70B59C4D04466FF01D0628794A
:1070B0000870A868106068690028A86915DB11F0DD
:1070C0008DFE314612F0F7F92060E86911F086FE76
:1070D000314612F0F0F96060286A11F07FFE314607
:1070E00012F0E9F9A060686918E0404211F076FEFC
:1070F000314612F0E0F92060E869404211F06EFE7E
:10710000314612F0D8F96060286A404211F066FEFC
:10711000314612F0D0F9A0606869404211F05EFE7D
:10712000314612F0C8F9E06004F05FFF2061286B7F
:1071300070BD794B10B51C6914601A780A70002173
:1071400003EB8102D2F8B82040F82120491C032922
:10715000F6DB93F82C00400601D5012000E000206A
:107160000021D96210BD10B56B4C23790B70A1685A
:10717000116000F0EBF8206B10BD2DE9FF41664A6D
:10718000654E0546083200274FF47A74311D02F12E
:107190000C0004F05EFE286B7062686FB062D5F878
:1071A000B800F0622A6BD00500D5EC6A686FC105A3
:1071B00004D5296FA14201DA0C460127D5F8B81091
:1071C000CB0505D5D5F8B430A34201DA1C46022719
:1071D000D5F820314FF0FF3C5FEAC35807D5D5F80A
:1071E0002C81A04500DA032700EA010402E002EA4C
:1071F00000040C40E40500D46746DFB1012F1ED027
:10720000022F22D0032F26D000203063424A03A948
:1072100010326846FFF71FFC9DF90C0000246F46F2
:107220006FF00F08306095F8B80000F0500040286B
:1072300017D024E0C2F380103063A86B03E0C0F3E2
:1072400080103063E86FB060E0E7C1F38010306316
:10725000D5F8C000F7E7C3F380103063D5F82401F8
:10726000F1E757F8240011F0B9FD014604EB4400A2
:1072700000EBC40006EB8000343004F015FCD5F8B8
:10728000B800C0F38111032913D040060AD557F87E
:10729000240011F0A3FD414612F00DF906EB840124
:1072A000C1F8B800641C032CBDDB04B00020BDE8AD
:1072B000F08157F8240011F091FD014604EB4400E1
:1072C00000EBC40006EB8000343004F001FCE2E780
:1072D000AFF25910FFF7E1BA07224FF46171AFF234
:1072E0006510FFF78DBA70B5C4210B480CF08FFD07
:1072F000094D002404EB440000EBC40005EB8000C2
:107300000749343004F0C3FB641C032CF2DB00207B
:1073100070BD00000AE81C39F00A002035FA8E34EE
:107320002402002010B5FFF7DEFFAFF25300BDE8E6
:10733000104004F0AFBE10B5AFF2C110FFF7ADFAC8
:10734000AFF26B00BDE8104004F083BE30B589B0E9
:107350000446384D684600F024F80398009980F000
:1073600000400FF053FB294611F0C8FD206007983C
:10737000089980F000400FF049FB294611F0BEFD4E
:10738000606006980FF0E0F8294611F0B7FDA060A4
:10739000206810F1FF4F03D3274911F0ADFB2060A7
:1073A00011E630B589B004464FF04255694623488E
:1073B00004F0DAF8009811F011FD294611F09EFD55
:1073C0002060019811F00AFD294611F097FD6060D8
:1073D000029811F003FD294611F090FDA06003987A
:1073E00011F0FCFC294611F089FDE060049811F0D1
:1073F000F5FC294611F082FD2061059811F0EEFCA4
:10740000294611F07BFD6061069811F0E7FC2946E2
:1074100011F074FDA061079811F0E0FC294611F00D
:107420006DFDE061089811F0D9FC294611F066FD68
:107430002062C8E5E12E65420000B443040B002041
:10744000F8B5FE4C0023224694F82460D2E90012DD
:107450005D1E56B190B102200DE01078497C6B465C
:107460000122FCF7AEFD60B90DE0A67A4EB128B15D
:10747000607C58B901208DF80000EEE78DF80030EF
:10748000EBE72846F8BD9DF8000060740020F8BDC9
:1074900038B50024E94D18E02868427BA24212D09A
:1074A000007EA0420FD008786B4601222146FCF7EF
:1074B000E9FB10B14FF0FF3038BD9DF800202146A8
:1074C000DFA00CF09BF9641CE4B269680879A04263
:1074D000E2D8002038BDD94A30B40B4611684FF0CD
:1074E000FF344D7B854206D0097E814203D051682E
:1074F0000A79824202D8204630BC70470C78014697
:10750000204630BC0122FCF7BDBB38B5CB4D04464C
:1075100095F82300A04201D1002038BD0CB13020E5
:1075200000E000208DF80000A87C28B19DF8000044
:1075300040F002008DF8000095F8220028B19DF877
:10754000000040F080008DF8000028686B460122A2
:10755000C17D68680078FCF734FD10B14FF0FF3052
:1075600038BD85F82340D7E72DE9FC41044610F0EB
:10757000700F4FF0000601D0012004E014B18DF827
:10758000006002E040208DF80000AC4D6B46012207
:107590002868417D68680078FCF713FD4FF0FF37DD
:1075A00008B1AE726EE09DF8000020F04000287334
:1075B0008DF80060600602D404208DF80000A0065B
:1075C00005D49DF8000040F002008DF80000E006B0
:1075D00005D49DF8000040F001008DF80000200760
:1075E00005D49DF8000040F038008DF800002868B0
:1075F0006B460122817D68680078FCF7E2FC002878
:10760000CFD11CB1082C01D0FFF77FFF286801AB58
:107610000122017968680078FCF734FB90BBE00731
:1076200007D011208DF800009DF8040040F02000E4
:1076300006E010208DF800009DF8040020F02000E6
:107640008DF8040095F8240000289DF8040002D06D
:1076500040F0800001E020F080008DF804002868F0
:107660006B46012290F8261068680078FCF7A9FCA8
:1076700040B9286801AB0122017968680078FCF7FD
:10768000A0FC10B13846BDE8FC81AC722E753220EA
:10769000FCF702FD0020F6E738B54FF0FF35A0B14A
:1076A000664CE189814210D364280ED8B1FBF0F01A
:1076B000401E8DF8000020686B46012290F82410CF
:1076C00060680078FCF77DFC08B1284638BD9DF85D
:1076D0000000E189401CB1FBF0F02085002038BD9E
:1076E000F8B5564D0446A87CA04201D10020F8BD53
:1076F00052484FF0FF366B46D0E900104FF00102C0
:107700000979007834B3FCF7BDFA70BB9DF800002E
:107710006B4620F020008DF80000286801220179D6
:1077200068680078FCF74DFCF8B90320FCF7B4FC5E
:1077300002208DF8000095F8220078B382202BE01B
:1077400028686B460122C17D68680078FCF739FC27
:1077500058B92EE0FCF796FA38B9A87AC0079DF818
:10776000000003D040F0200002E00CE020F02000F8
:107770008DF8000028686B4601220179686800785E
:10778000FCF71FFC08B13046F8BD0320FCF784FC71
:1077900095F8220000B180208DF8000095F82300B4
:1077A0000028CDD09DF8000040F030008DF800009A
:1077B000C6E7AC749AE7F8B50120FFF791FF0C24F7
:1077C0004FF0FF356B46012200212046FCF75AFAA4
:1077D00018B99DF80000482804D0641CE4B20F2CAE
:1077E000F0D901E00F2C03D919A00CF007F8D5E06F
:1077F000124E1027204686F82A408DF800706B46FE
:1078000001220A21FCF7DDFB0028F0D10120FCF762
:1078100043FC1F208DF8000096F82A006B460122D9
:107820000A21FCF7CEFB00287ED10120FCF734FCB6
:10783000032296F82A006B46102113E03C02002038
:10784000252335783A20252335780D0A00000000DD
:10785000436F6D70617373206E6F7420666F756E09
:10786000642E0A00FCF70EFA00285DD19DF8000096
:107870006B468030B0859DF8010001228030F08594
:107880009DF802000A21803030868DF8007096F84D
:107890002A00FCF796FB002846D10120FCF7FCFBF0
:1078A0000020FFF71DFF40208DF8000030686B4678
:1078B0000122817E70680078FCF783FB00286DD17F
:1078C00096F82A006B4640F080008DF80000306882
:1078D0000122817F70680078FCF773FB00285DD17E
:1078E00002208DF8000030686B460122C17F70686D
:1078F0000078FCF766FBB8B988208DF80000306886
:107900006B46012290F8201070680078FCF759FB54
:1079100050B996F82A008DF8000030686B4690F850
:1079200021107068007800E038E00122FCF749FB84
:10793000A0BB0A208DF8000030686B46012290F849
:10794000221070680078FCF73CFB38BB81208DF872
:10795000000030686B46012290F8231070680078B0
:10796000FCF72FFBD0B911208DF8000030686B4672
:10797000012290F8261070680078FCF722FB68B9A5
:1079800003208DF8000030686B46012290F8271024
:1079900070680078FCF715FB002800D02846F8BD79
:1079A000F8B5F94D4FF0FF36A87A00287ED00024B4
:1079B0008DF8004028686B460122417C6868007899
:1079C000FCF7FFFA002871D128686B460122417943
:1079D00068680078FCF7F5FA002867D128686B46DC
:1079E0000122017968680078FCF7EBFA00285DD184
:1079F00095F82400E0B30C208DF8000028686B4651
:107A00000122017968680078FCF7DBFA002871D15F
:107A10003220FCF741FBC0208DF80000A87AC00797
:107A200002D0E0208DF8000028686B460122017921
:107A300068680078FCF7C5FA00285BD1687C18B14B
:107A400002208DF8000001E08DF8004028686B46A8
:107A50000122417C68680078FCF7B3FA30BB8DF8EE
:107A6000004028686B4601224179686800783DE053
:107A7000FFE704208DF8000028686B460122017999
:107A800068680078FCF79DFA80B9A87C88B9A87A64
:107A9000C0070ED060208DF8000028686B460122D8
:107AA000017968680078FCF78CFA00E022E008BBF6
:107AB00001E04020EFE73220FCF7EEFA687C18B1D5
:107AC00001208DF8000001E08DF8004028686B4629
:107AD0000122417C68680078FCF773FA50B9286885
:107AE000A94B01224179686810330078FCF769FAE4
:107AF000002800D03046F8BD2DE9F041A24D20F01D
:107B00000104002695F8240010B10020BDE8F081A2
:107B1000A87A4FF0FF3838B120402F7C2874A0425B
:107B200000D0464624B901E04046EFE7287D40B149
:107B30000120FFF785FC3CB1FFF732FF20B12F7425
:107B4000F2E70020FFF77CFC3046DFE738B58E4CCB
:107B50004FF0FF35A17A31B3BC2801D3012010E0EA
:107B6000622801D302200CE02A2801D3032008E078
:107B7000142801D3042004E00A2801D3052000E0E2
:107B800006208DF80000E07A9DF80010884201D1AF
:107B9000002038BD20686B4601228178606800783B
:107BA000FCF70FFA08B1284638BD9DF80000E072D6
:107BB000EEE72DE9F84304464FF0FF38282845D872
:107BC0000727714D002654B10120FFF79EFC012CC0
:107BD00017D0022C17D0052C17D804201CE0002049
:107BE000FFF793FC8DF800608DF8017028686B46F4
:107BF0000222417D68680078FCF7E3F930BB2E75FE
:107C00002FE0022008E0032006E00A2C01D805201E
:107C100002E0142C03D806208DF8000001E08DF856
:107C2000007028686B460122417A68680078FCF78A
:107C3000C8F958B920208DF8000028686B46012249
:107C4000417D68680078FCF7BCF910B14046BDE89A
:107C5000F8830820A8722E73012028750020FFF7F2
:107C60004BFF0020F3E7F8B5474D04464FF0FF37D0
:107C7000A87A28B395F8240010BB287D48B12CB110
:107C8000282C03D82046FFF794FF2BE00020FFF7B5
:107C900090FF4FF47A76042C01D2042402E0B4421F
:107CA00000D93446B6FBF4F0401E8DF80000286879
:107CB0006B460122417868680078FCF782F908B1C8
:107CC0003846F8BD9DF80000401CB6FBF0F0E88196
:107CD000288D642800D36420FFF7DEFCE889400883
:107CE000FFF734FF0020F8BD38B5274C4FF0FF35C3
:107CF000A17A19B3022806D0042806D008280ED08D
:107D000010281BD10DE0002000E008208DF80000B5
:107D1000607A9DF80010B0EBD10F04D005E0102080
:107D2000F4E71820F2E7002038BD20686B460122F6
:107D3000C17960680078FCF744F908B1284638BD7D
:107D40009DF80000C0086072EDE738B50E4C4FF0AA
:107D5000FF35A17A49B3FA2809D0B0F5FA7F08D0E7
:107D6000B0F57A7F12D0B0F5FA6F1ED110E0002086
:107D700000E008208DF80000207A9DF80010B0EB9C
:107D8000D10F07D008E000003C0200201020F1E7EE
:107D90001820EFE7002038BD20686B46012281796A
:107DA00060680078FCF70DF908B1284638BD9DF8E9
:107DB0000000C0082072EDE77CB5FF4C80208DF8F4
:107DC000000020686B460122417D60680078FCF766
:107DD000F8F84FF0FF36002851D16420FCF75CF929
:107DE00000258DF8005020686B460122417D6068B7
:107DF0000078FCF7E6F8E8BBE57448208DF8000051
:107E000020686B460122017A60680078FCF7D9F897
:107E100080BBFF2004F80A0F310C04F8020C04F8B0
:107E2000010C6070A180A0712072E1830120A0701C
:107E300020766576E572A572E56025616561A576B7
:107E4000E576A5834FF4FA60FFF77FFF90B9022033
:107E5000FFF74AFF70B92A20FFF778FE50B93220A9
:107E6000FFF701FF30B90020FFF746FE10B9FFF71A
:107E7000A2FC00E003E00A20FFF70EFC08B1304648
:107E80007CBD0020FFF770FB00207CBD70477CB5F7
:107E90000446C9484FF0FF35817A11F0700F08D0C1
:107EA000016840686B46897B00780622FBF7EAFE92
:107EB00008B128467CBDBDF8000040BA2080BDF85E
:107EC000020040BA6080BDF8040040BAA0800020E3
:107ED0007CBD7CB50446B8484FF0FF35817A090770
:107EE00008D5016840686B46C97B00780622FBF71D
:107EF000C9FE08B128467CBDBDF8000040BA20800C
:107F0000BDF8020040BA6080BDF8040040BAA0800D
:107F100000207CBDF8B5A84C07464FF0FF35A07A8D
:107F200040B120686B460222017C60680078FBF754
:107F3000A9FE08B12846F8BDBDF80000646840BA43
:107F400005B2E08810F092FF0646B4F9080010F080
:107F500045FF0446284610F041FF214611F08EF9F6
:107F6000314610F03DFE954910F0C6FD102111F08C
:107F7000A2FA10F0F7FE38600020F8BD2DE9FC41B0
:107F80008D4D04466B466868022277210078FBF726
:107F900079FE4FF0FF3780B968686E46022200789C
:107FA0007A21B31CFBF76EFE38B96868331D0222D4
:107FB00000787D21FBF766FE10B13846BDE8FC81F4
:107FC000BDF8000040BA2060BDF8020040BA606011
:107FD000BDF8040040BAA0600020EFE72DE9FC41A5
:107FE000754D04466B466868022206210078FBF74F
:107FF00049FE4FF0FF3780B968686E46022200786C
:108000000821B31CFBF73EFE38B96868331D022215
:1080100000780A21FBF736FE08B13846CEE7BDF8F6
:10802000000040BA2060BDF8020040BA6060BDF8B0
:10803000040040BAA0600020C0E72DE9FC415E4D7D
:1080400004466B466868022213210078FBF71AFE8B
:108050004FF0FF3780B968686E460222007815211C
:10806000B31CFBF70FFE38B96868331D0222007895
:108070001721FBF707FE08B138469FE7BDF800005F
:1080800040BA2060BDF8020040BA6060BDF804004C
:1080900040BAA060002091E77CB5002100910191D9
:1080A00050F82120524240F82120491C0329F7DBD7
:1080B0000188414E090A8DF8001001788DF80110F1
:1080C00081886B46090A8DF8021001798DF803103A
:1080D00001890222090A8DF80410007A8DF8050042
:1080E000706813210078FBF76CFF4FF0FF3588B9FB
:1080F00070686C46022200781521A31CFBF761FF13
:1081000040B97068231D022200781721FBF759FF40
:10811000002800D028467CBD70B586B000210446FA
:10812000009101910291039102A80491FFF756FF7B
:108130004FF0FF35F0BB2168029821F00101401A91
:1081400002906168039821F00101401A0390A16830
:10815000049821F00101401A04900298164E000A7A
:108160008DF8000002988DF8010003986B46000A14
:108170008DF8020003988DF8030004980222000A8B
:108180008DF8040004988DF80500706806210078C9
:10819000FBF717FF70B970686C460222007808215F
:1081A000A31CFBF70EFF28B97068231D022200787C
:1081B0000A2105E008E000003C02002000000C421B
:1081C000FBF7FFFE002800D0284606B070BD70B552
:1081D00086B000210446009101910291039102A80A
:1081E0000491FFF7CBFE4FF0FF35E8BB2168029802
:1081F00021F00101401A02906168039821F0010109
:10820000401A0390A168049821F00101401A0490DB
:108210000298000A8DF8000002988DF8010003987A
:10822000000A8DF8020003988DF803000498000AF4
:108230008DF8040004988DF80500FE4E6B4602226E
:10824000706877210078FBF7BCFE68B970686C46EF
:10825000022200787A21A31CFBF7B3FE20B97068D4
:10826000231D0222007800E004E07D21FBF7A9FE37
:108270000028AAD02846A8E7EE49097A39B1012991
:1082800007D002290AD003290BD0002103E0FA21EC
:1082900001E04FF4FA710180002070474FF47A71C9
:1082A000F9E74FF4FA61F6E7E24A517A41B1012960
:1082B00008D002290FD003290FD04FF0FF307047AC
:1082C000022100E004210170D17C11B10178490044
:1082D0000170002070470821F5E71021F3E7D54928
:1082E000C97A072913D2DFE801F01204060A0C0E3E
:1082F0001000BC2100E062210180002070472A218B
:10830000FAE71421F8E70A21F6E70521F4E700214E
:10831000F2E7C84991F8242012B14FF0FF307047BE
:10832000C989018000207047C249098D0180002061
:108330007047C049097A41B1012908D002290AD001
:1083400003290AD04FF0FF307047BB4900E0BB491A
:10835000016000207047BA49FAE7BA49F8E7B54A20
:10836000517A41B1012909D0022911D0032912D033
:108370004FF0FF3070474FF4804101E04FF400515F
:108380000180D17C11B1018849080180002070472B
:108390004FF48051F4E74FF40061F1E7A549097CFF
:1083A000017000207047A349897A01B10121017051
:1083B0000020704738B505469E484FF0FF34817A5B
:1083C00041B1016840686B46897C00780222FBF766
:1083D00059FC08B1204638BDBDF8000040BA2880DD
:1083E000002038BD2DE9FE4F884692498146002481
:1083F00091F824001E4625464FF0FF3BD0BB0020DD
:108400003070887AB0B3087CA0B3420600D502244D
:10841000820600D5A41CC20600D5A41C000700D506
:10842000A41D8A460968DAF804006B46097B0078C7
:108430000222FBF727FCE8B9BDF8000047BAA742C3
:1084400077D3DAF804004188B7EB510F13D9DAF883
:10845000001000786B46C97C0122FBF713FC48B979
:108460009DF80000C00606D5FFF79AFA6FF00100EC
:10847000BDE8FE8F0AE0DAF80010DAF804006B4677
:10848000497B00782246FBF7FDFB08B15846EFE731
:10849000B7FBF4F00C99401E087000203070ECB36C
:1084A0009AF8101050460A07694613D5BDF8002007
:1084B000062552BAA8F80020BDF8022052BAA8F842
:1084C0000220BDF8042052BAA8F80420327842F005
:1084D00008023270A5420CD0027C520609D54A1916
:1084E000AD1C128852BAA9F80020327842F040023E
:1084F0003270A5420CD0027C920609D54A19AD1CF7
:10850000128852BAA9F80220327842F02002327062
:10851000A5420ED09AF81000C00600E009E008D588
:108520004819008840BAA9F80400307840F01000DB
:10853000307000209CE72DE9F8433E4E0546174673
:1085400096F8240089464FF0FF3890B3B07A80B394
:1085500030686B460222017B70680078FBF792FB63
:1085600038BBBDF8000044BAAC4202D200203870DB
:108570001FE070684188B4EB510F11D93168007861
:108580006B46C97C0122FBF77DFB90B99DF800008A
:10859000C00605D5FFF704FA6FF00100BDE8F883C7
:1085A0003068EAB24B46417B70680078FBF76AFBA3
:1085B00008B14046F2E7B4FBF5F0401E38700020E9
:1085C000ECE71C4981F82200002070472DE9FC41AE
:1085D0000A2507240120FFF783F8164E10278DF88F
:1085E000007096F82A006B4601220A21FBF7E9FC8D
:1085F00008B10720E2E440208DF8000096F82A0038
:108600006B4601220C21FBF7DCFCE0BB18208DF847
:10861000000096F82A006B4601220A21FBF7D1FCE4
:1086200088BB0A20FBF738FD012296F82A006B462A
:10863000022109E03C0200200000034300008342C5
:108640003333034233338341FBF71CFBD8B99DF826
:108650000000C00706D16D1EEDB2E2D29DF8000009
:10866000C00731D096F82A006B4606220321FBF79B
:1086700009FB40B99DF801009DF80010000200249C
:1086800000B2084300E01FE04FF4C871C8308842D0
:1086900000D901249DF803009DF80220000200B2D9
:1086A0001043C830884201D944F002049DF8050007
:1086B0009DF80410000200B2084300F54860B0F5D0
:1086C000166F01D944F004048DF8007016F82A0FD3
:1086D0006B4601220C21FBF774FC8DF8007030789A
:1086E0006B4601220A21FBF76CFC0020FEF7F8FF25
:1086F000204663E42DE9FE4F054601208DF8000079
:108700004FF0000816460C468DF80180FD4F6B4671
:1087100002223868417D78680078FBF752FC4FF000
:10872000FF3B00287CD1C820FBF7B6FC8DF8008009
:1087300038686B460122417C78680078FBF741FC81
:108740000028EFD138686B460122417978680078BB
:10875000FBF737FC0028E5D138686B460122417DE4
:1087600078680078FBF72DFC0028DBD138686B4671
:108770000122817E78680078FBF723FC0028D1D1A4
:1087800038686B460122017978680078FBF719FC9C
:108790000028C7D14FF00C0A8DF800A038686B464E
:1087A0000122017978680078FBF70BFC002837D1AB
:1087B0000F20FBF771FC786B6B460122407A8DF835
:1087C00000003868817878680078FBF7FAFB0028A9
:1087D00026D1786B6B460122007A8DF8000038684C
:1087E000417878680078FBF7ECFB00287AD1786B49
:1087F000807A0EB140F0E0008DF8000038686B46DA
:108800000122817978680078FBF7DBFB002869D1C9
:108810003EB1786BC07A40F0E0008DF8000002E0D5
:1088200048E08DF8008038686B460122C17978688D
:108830000078FBF7C6FBE8BB16B1C820FBF72CFCA1
:1088400040208DF8000038686B4601220179786875
:108850000078FBF7B6FB68BB78208DF8000038681D
:108860006B460122417978680078FBF7AAFB08BBC8
:10887000C820FBF711FC8DF800803868C1466B46B4
:108880004179786801220078FBF79BFB90B9396841
:108890007868B846097B00786B460222FBF7F2F94C
:1088A00040B9BDF80000C5F8089040BAB0FBFAF036
:1088B000C6B200E016E0C5F80490C5F80090C4F810
:1088C0000890C4F804900027C4F8009038E0D8F865
:1088D0000010D8F804006B46497B00780C22FBF7A7
:1088E000D1F908B15846C3E5BDF80000236840BA85
:1088F00002B2BDF802001A4440BA01B2BDF8040049
:108900002260626840BA11446160A16800B2084404
:10891000A060BDF806002B6840BA02B2BDF808009E
:108920001A4440BA01B2BDF80A002A606A6840BA27
:1089300011446960A96800B208447F1CFFB2A860B6
:10894000B742C4D328688322C117090441EA104101
:10895000000400230AF01BFF324600230AF017FF31
:10896000286068688322C117090441EA10410004A5
:1089700000230AF00CFF324600230AF008FF68606B
:10898000A8688322C117090441EA104100040023AA
:108990000AF0FDFE324600230AF0F9FEA8602068C6
:1089A0004FF48045C117090441EA104100042A46EA
:1089B00000230AF0ECFE324600230AF0E8FE2060B5
:1089C00060682A46C117090441EA104100040023E7
:1089D0000AF0DDFE324600230AF0D9FE6060A0688E
:1089E0002A46C117090441EA1041000400230AF095
:1089F000CEFE324600230AF0CAFEA060002802DD47
:108A0000A0F5803001E000F58030A06000202FE567
:108A10002DE9F74F07463B4890B0154640680026C1
:108A2000B14600780AAB03220D21FBF72BF938B1D0
:108A300015B135A00AF0E2FE072013B0BDE8F08FB3
:108A400045B19DF82A309DF829209DF8281036A0C0
:108A50000AF0D4FE00240DF1280A0DF11C081AF8C2
:108A60000400A0B1364901EB400030F8020C10F0D0
:108A7000FDF948F82400102110F01DFD48F82400ED
:108A80006FF00D0110F017FD48F8240004E00021FC
:108A900048F824104FF00109641C032CDFDBB9F106
:108AA000000F71D027480F9027480E9075B127A06E
:108AB0000AF0A4FE4FF04042294B2AA00AF09EFE85
:108AC0004FF020422B4B2CA00AF098FE0024119866
:108AD00057F8241050F824908846A9EB010010F0B4
:108AE0007DF904A941F82400009055B1404610F0EA
:108AF00075F90FF0D5FF82468B46484610F06EF9A7
:108B000043E050E03C02002052656164696E6720DA
:108B10004F545020526567697374657220457272B4
:108B20006F722E0A00000000416363656C204F5491
:108B3000503A25642C2025642C2025640A0000006E
:108B400000A0010866666646CDCC2C4741434345EC
:108B50004C3A435249544552494120420D0A0000C3
:108B6000CCCCCC404D696E204D473A2025372E3471
:108B7000660D0A009999E5404D6178204D473A20ED
:108B800025372E34660D0A002AE00FF089FF804653
:108B9000894600980FF084FF8DE8000F02460B46CF
:108BA000F9A00AF02BFE0DF110080F9958F82400D7
:108BB00010F070F905D358F824000E9910F06AFAF5
:108BC00007D21DB12146FAA00AF018FE0120A040EC
:108BD0000643641C032CFFF67AAF002E69D08EE0AA
:108BE00015B1FEA00AF00AFE0024119857F82410CF
:108BF00050F824808946A8EB010010F0EFF804A992
:108C000041F8240000901DB3404610F0E7F80FF043
:108C100047FF83468846484610F0E0F80FF040FFD3
:108C20008246894600980FF03BFFCDE902B8CDE9B6
:108C300000A902460B46EEA00AF0E0FD07A850F896
:108C400024000FF02DFF02460B46F6A00AF0D6FDD9
:108C500007A850F8241004A850F824000FF0C0FF13
:108C60004FF07E5110F00AFB0DF12C0848F824005B
:108C700055B10FF015FFF04B0022CDE9002302465D
:108C80000B46EEA00AF0BAFD58F824004FF07C51D4
:108C900020F0004010F0FEF907D21DB12146EFA0F0
:108CA0000AF0ACFD0120A0400643641C032C9CDBB1
:108CB00093E74FF08E4825B10022EE4BEEA00AF06C
:108CC0009DFD002440460FF0EBFE8946804657F894
:108CD00024000FF06EFB21F0004142464B460FF09E
:108CE000CDFC09D22DB157F824202146ECA00AF082
:108CF00085FD0120A0400643641C032CE7DB3046C1
:108D00009BE62DE9F74F0746EF48002690B04068F4
:108D10001546B14600780AAB03223146FAF7B2FF96
:108D200030B11DB1AFF220200AF068FD072084E6C3
:108D300045B19DF82A309DF829209DF82810E3A020
:108D40000AF05CFD00240DF1280A0DF11C081AF848
:108D5000040098B1E34901EB400030F8020C10F038
:108D600085F848F82400102110F0A5FB48F82400ED
:108D7000DD490FF035FF48F8240004E0002148F8F1
:108D800024104FF00109641C032CE0DBB9F1000F43
:108D900049D0D6480E903DB1D5A00AF02FFD002253
:108DA000D84BD9A00AF02AFD0024119857F82410B6
:108DB00050F824A08846AAEB010010F00FF804A98F
:108DC00041F824000090CDB1404610F007F80FF0B4
:108DD00067FE83468946504610F000F80FF060FEAB
:108DE0008246884600980FF05BFECDE900A8CDE9E9
:108DF00002B902460B4664A00AF000FD04A80E99D1
:108E000050F8240010F046F807D21DB12146C3A047
:108E10000AF0F4FC0120A0400643641C032CC4DBD0
:108E2000002E66D08BE015B1C6A00AF0E7FC002446
:108E3000119857F8241050F824808946A8EB0100B7
:108E40000FF0CCFF04A941F82400009025B3404660
:108E50000FF0C4FF0FF024FE82468B4648460FF009
:108E6000BDFF0FF01DFE8146884600980FF018FEEA
:108E70000B4601A9CDF8009081E8000D02465CA0E8
:108E80000AF0BCFC07A850F824000FF009FE0246C7
:108E90000B4664A00AF0B2FC07A850F8241004A8FE
:108EA00050F824000FF09CFE0DF12C0848F8240027
:108EB00055B10FF0F5FD604B0022CDE900230246CD
:108EC0000B465EA00AF09AFC58F824004FF07C5143
:108ED00020F000400FF0DEFF07D21DB121469EA01A
:108EE0000AF08CFC0120A0400643641C032C9FDB8D
:108EF00096E7DFF87C8225B100229E4B9EA00AF007
:108F00007DFC002440460FF0CBFD8946804657F893
:108F100024000FF04EFA21F0004142464B460FF07C
:108F2000ADFB09D22DB157F8242021469CA00AF0B0
:108F300065FC0120A0400643641C032CE7DB30469F
:108F40007BE52DE9FF4FADF5057D054601205E4F20
:108F500000268DF810008DF8116038680C469A468E
:108F6000417D7868B04604AB00780222FBF729F80F
:108F7000002807D1C820FBF78FF88DF810803868DB
:108F8000417C1FE196E10000426961735F7368698B
:108F900066743D25372E34662C2073743D25372E9C
:108FA00034662C207265673D25372E34660A000032
:108FB000416363656C204641494C20617869733A8E
:108FC0002564203C3D203232356D67206F72203E93
:108FD0003D203637356D670A0000000041434345A8
:108FE0004C3A435249544552494120410A0000003D
:108FF000426961735F53686966743D25372E346634
:109000002C20426961735F5265673D25372E3466B7
:109010002C20426961735F485753543D25372E34E5
:10902000660D0A004F54502076616C75653A202514
:10903000372E34660D0A00000000E03F726174694B
:109040006F3D25372E34662C207468726573686F07
:109050006C643D25372E34660D0A000041434345BC
:109060004C204661696C2041786973203D2025645D
:109070000A0000000000E040416363656C3A43521F
:1090800049544552494120433A2062696173206C3A
:10909000657373207468616E2025372E34660A006C
:1090A0004641494C45443A20416363656C206178F0
:1090B00069733A2564203D20256C64203E203530BC
:1090C000306D670A000000003C0200204779726F93
:1090D000204F54503A25642C2025642C2025640D03
:1090E0000A00000000A00108000003430000704ACD
:1090F0004759524F3A435249544552494120420D33
:109100000A00000000004E414D6178204450533A5F
:109110002025372E34660D0A000000004759524FB3
:10912000204641494C20617869733A256420677272
:109130006561746572207468616E20363064707386
:109140000A0000004759524F3A4352495445524988
:109150004120410A000000004779726F2046616992
:109160006C2041786973203D2025640A00000000CE
:109170000000A049000034414779726F3A435249D8
:10918000544552494120433A2062696173206C651D
:109190007373207468616E2025372E34660A0000D0
:1091A0004641494C45443A204779726F20617869BD
:1091B000733A2564203D20256C64203E20323064C3
:1091C00070730A00786804AB01220078FAF7F9FEA0
:1091D00000286FD1386804AB0122417978680078A3
:1091E000FAF7EFFE0028F4D1386804AB0122417D84
:1091F00078680078FAF7E5FE0028EAD1386804AB11
:109200000122817E78680078FAF7DBFE0028E0D141
:10921000386804AB0122017978680078FAF7D1FE4A
:109220000028D6D10C208DF81000386804AB01223C
:10923000017978680078FAF7C4FE0028C9D10F20B8
:10924000FAF72AFF786B04AB0122407A8DF8100000
:109250003868817878680078FAF7B3FE0028B8D1CA
:10926000786B04AB0122007A8DF8100038684178E1
:1092700078680078FAF7A5FE0028AAD18798002818
:10928000786B807A01D040F0E0008DF810003868EB
:1092900004AB0122817978680078FAF792FE002801
:1092A00097D1879838B1786BC07A40F0E0008DF89C
:1092B000100002E09AE08DF81080386804AB0122BB
:1092C000C17978680078FAF77CFE00288BD1C82035
:1092D000FAF7E2FE40208DF81000386804AB012256
:1092E000017978680078FAF76CFE00287ED1782042
:1092F0008DF81000386804AB012241797868007855
:10930000FAF75FFE002871D1A86068602860A0604D
:1093100060602060BAF1000F02D0F6A00AF06EFA89
:10932000BB460A20FAF7B8FEDBF80010DBF80400B1
:10933000D846097B007804AB0222FAF7A3FC002888
:109340006CD1BDF810000C2140BAB0FBF1F0C7B2EF
:10935000C6F1C800B84200DAC7B207EB4700800682
:10936000020ED8F80010D8F8040004AB497B00784E
:10937000FAF788FCD0BB0021084633E004AA0A446F
:10938000D4F80080B2F802C013889CFA9CFC5BBA47
:109390000FFA8CF91BB2B2F804C04344236063682F
:1093A0009CFA9CFC4B446360A3680FFA8CFC6344FA
:1093B000A360D388D5F800805BBA0FFA83FC1389C9
:1093C0005289C444C5F800C05BBAD5F804C01BB2CA
:1093D00063446B6052BAAB6812B2401C1A44C0B20C
:1093E0000C31AA60B842C9D33E4400E016E0C82E52
:1093F00097DBBAF1000F03D03146C5A00AF0FEF9A1
:1094000000208DF81000DBF80010DBF8040004AB3E
:10941000497900780122FAF7D4FD28B14FF0FF30E6
:109420000DF5097DBDE8F08F28688322C117090476
:1094300041EA1041000400230AF0A9F9F717324667
:109440003B460AF0A4F9286068688322C117090422
:1094500041EA1041000400230AF099F932463B46E4
:109460000AF095F96860A8688322C117090441EAE7
:109470001041000400230AF08AF932463B460AF004
:1094800086F9A86020684FF48048C117090441EAB2
:1094900010410004424600230AF079F932463B4667
:1094A0000AF075F92060009060684246C11709040F
:1094B00041EA1041000400230AF069F932463B46B4
:1094C0000AF065F983466060A0684246C117090446
:1094D00041EA1041000400230AF059F932463B46A4
:1094E0000AF055F9A060002802DDA0F5803001E007
:1094F00000F58030A060BAF1000F49D0A0680FF0ED
:109500006DFC6FF00F0949460FF0D5FF0FF0C8FA58
:109510000746884658460FF061FC49460FF0CBFFDE
:109520000FF0BEFA04460E4600980FF057FC49466D
:109530000FF0C1FF0FF0B4FA8DE8D0010B460246E0
:1095400077A087990AF05AF9A8680FF047FC4946B6
:109550000FF0B1FF0FF0A4FA0746884668680FF0D5
:109560003DFC49460FF0A7FF0FF09AFA04460E465D
:1095700028680FF033FC49460FF09DFF0FF090FA7A
:109580008DE8D00102460B4672A087990AF036F9A1
:10959000002045E738B57C4C94F8241081421DD05A
:1095A000002500B394F82500D0B10020FDF748FF56
:1095B0000020FEF795F8E08CFEF755FB8DF8005083
:1095C00060686B46012200782321FAF7FAFC01203B
:1095D00084F82400FDF734FFFEF7E2F9002038BDDF
:1095E0004FF0FF3038BD0020FDF72AFF207C8DF8BA
:1095F000000060686B46012200782321FAF7E1FC45
:1096000084F82450E8E72DE9F74F8AB014000F469C
:1096100002D05EA00AF0F2F85B4D95F8240020B16C
:109620000020FFF7B7FF012600E0002607A8FEF79D
:1096300023FE06A8FEF738FE09A8FEF750FE08A88C
:10964000FEF767FE95F80AB095F810A0A94614B188
:1096500055A00AF0D3F800252346002239460A987F
:10966000FFF76FFC10B16D1C022DF5DB022D2AD027
:1096700014B152A00AF0C2F800252346012203A922
:109680006846FFF75EFC10B16D1C022DF5DB022D64
:109690001CD0224603A93846FFF7BAF9C0B280466B
:1096A0001CB101464BA00AF0A9F8224669460A9867
:1096B000FFF727FBC7B21CB139464EA00AF09EF84F
:1096C00000254FB109E02CB151A001E014B15CA01C
:1096D0000AF094F80025D3E00125B8F1000F01D17C
:1096E00045F00205FEF772FFC7B20CB13946C1E082
:1096F000C3E000005374617274696E67204269614F
:1097000073204C6F6F702052656164730A00000013
:1097100053616D706C65733A2025640A0000000087
:10972000416363656C206F66667365742064617461
:10973000612048575354206269743D25643A2025BE
:10974000372E34662025372E34662025372E346692
:109750000D0A00004779726F206F6666736574208A
:10976000646174612048575354206269743D2564D4
:109770003A2025372E34662025372E3466202537AB
:109780002E34660D0A0000003C0200205374617202
:1097900074696E67204D5055363530302048575328
:1097A00054210D0A000000005265747269657669E3
:1097B0006E67204269617365730D0A0052657472A9
:1097C000696576696E6720535420426961736573D9
:1097D0000A000000416363656C2053656C66205489
:1097E00065737420526573756C74733A2025640A2E
:1097F000000000004779726F2053656C6620546545
:10980000737420526573756C74733A2025640A0072
:1098100052657472696576696E6720426961736525
:1098200073204572726F72202D20706F737369629E
:109830006C6520493243206572726F720A00000025
:1098400052657472696576696E6720535420426967
:1098500061736573204572726F72202D20706F7373
:109860007369626C6520493243206572726F720AB7
:1098700000000000F0A009F0C1FF0FB945F0040599
:1098800014B1F5A009F0BAFFFF2189F8081089F892
:10989000091089F80B104FF6FF72A9F80E2089F80D
:1098A0000A1089F81010012189F80C10BDF81C006D
:1098B000FEF74BFA9DF81800FEF716FABDF82400E3
:1098C000FEF744F9BDF82000FEF7CDF95846FDF744
:1098D0004BFE5046FEF710F916B10120FFF75AFE75
:1098E00028460DB09EE52DE9FF47DF4C81468846AE
:1098F00094F8240020B10020FFF74CFE012500E081
:10990000002501A8FEF7B8FC6846FEF7CDFC03A8C9
:10991000FEF7E5FC02A8FEF7FCFCA77A267C0022F5
:1099200041464846FEF7E6FEFF2020726072E07274
:109930004FF6FF71E181A0722074012020734FF077
:109940000708BDF80400FEF700FA9DF80000FEF7D6
:10995000CBF9BDF80C00FEF7F9F8BDF80800FEF7EA
:1099600082F93846FDF700FE3046FEF7C5F815B11E
:109970000120FFF70FFE04B04046BDE8F087F8B5C0
:1099800017000D464FF0FF341FD0B74EB17AE1B14A
:10999000010A8DF80010C0B28DF8010041197068FD
:1099A0004289914211D8316800786B46C97E022203
:1099B000FAF707FB48B93068EAB23B46017E7068A7
:1099C0000078FAF7FEFA002800D02046F8BDF8B576
:1099D00017000D464FF0FF341FD0A34EB17AE1B10E
:1099E000010A8DF80010C0B28DF8010041197068AD
:1099F0004289914211D8316800786B46C97E0222B3
:109A0000FAF7DFFA48B93068EAB23B46017E70687F
:109A10000078FAF737F9002800D02046F8BD2DE984
:109A2000FF4FDFF844A2054685B09AF8250091461D
:109A300088464FF0FF3BB8BBB8F1000F34D000248C
:109A40001EE0281B102800DD102086B208EB04075A
:109A50003A4631462046FFF792FF28BB6A46314618
:109A60002046FFF7B4FFF8B93846324669460AF097
:109A700081F818B16FF0010009B0D3E4A01984B2E5
:109A8000AC42DED34FEA19208DF810008DF811900A
:109A9000DAF80000544604AB417FDAF804000222F1
:109AA0000078FAF78EFA08B15846E5E7012084F805
:109AB00025000898E0840020DEE76B4991F8241027
:109AC000017000207047FEB5674D04464FF0FF3629
:109AD000A87AC00709D028686B46082290F8281099
:109AE00068680078FAF7CEF808B13046FEBD9DF8F8
:109AF0000000C10701D0800702D56FF00100FEBD54
:109B00009DF80700000602D56FF00200FEBDBDF80B
:109B1000010000B22080BDF8031009B26180BDF8D9
:109B2000052012B2A280B5F92C30584300122080D3
:109B3000B5F92E00414308126080B5F93000424368
:109B40001012A0800020FEBD474949688989018024
:109B5000002070472DE9F843434C1600024604F1FB
:109B600016034FF0FF3099464FF001084FF0000503
:109B70007CD0B2F57F7F01D9FF2705E0042A01D20E
:109B8000012701E0C2F38707B6F5207F6FD8607D1B
:109B9000F0B994F8240028B10020FFF7FBFC84F80A
:109BA000208001E084F820504846FEF765FB2E48EF
:109BB0001830FEF779FB2C481A30FEF790FB2A4844
:109BC0001C30FEF7A6FBA07AA0772748217CC1773E
:109BD0000020FDF735FC8DF800508DF801504FF056
:109BE00007098DF8029020686B46032201796068AE
:109BF0000078FAF7E6F900283AD18DF8007020686D
:109C00006B460122817A60680078FAF7DAF978BB4E
:109C1000012E05D0022E05D0052E05D804203BE0EC
:109C2000022039E0032037E00A2E01D8052033E076
:109C3000142E1ED806202FE0436F6D7061737320C1
:109C400053656C66205465737420526573756C742B
:109C5000733A2025640A000045786974696E6720AC
:109C6000485753540A0000003C02002046E07BE0C5
:109C700048E0282E02D88DF800900FE0502E01D831
:109C8000082009E0A02E01D8092005E0B6F5A07F44
:109C900001D80A2000E00B208DF8000020686B46F8
:109CA0000122417A60680078FAF78BF950BBC02036
:109CB0008DF8000020686B460122017D6068007805
:109CC000FAF77FF9F0B920208DF8000020686B4684
:109CD0000122417D60680078FAF773F990B940205D
:109CE0008DF8000020686B460122417C6068007896
:109CF000FAF767F930B984F8158034E01A46002184
:109D0000535C9BB34746FF264FF6FF782672667278
:109D1000E672A4F80E80A67226742773A07FFDF762
:109D200023FCE08AFEF711F8207EFDF7DDFF608B53
:109D3000FDF70CFFA08BFDF796FFE07FFDF7DCFE43
:109D400094F8200010B10120FFF724FC8DF800509A
:109D500020686B460122017D60680078FAF731F9CE
:109D60000028D3D165750020BDE8F883FFE7491CC2
:109D70000C29C5D3F8E710B588B0002202A905A8C0
:109D8000FFF741FC072802D0012008B010BD68464B
:109D9000FEF7CFFA05980FF021F800990C460FF066
:109DA000ADF80EF0DFFF059006980FF017F821468A
:109DB0000FF0A4F80EF0D6FF069007980FF00EF8FB
:109DC00021460FF09BF80EF0CDFF079005A800F09C
:109DD000B8FA01A8FEF7C3FABDF80400029941439E
:109DE00002910399414303910499414302A80491CC
:109DF00000F009FB0020C8E790F90010002902DDFF
:109E00004FF00000704702DA4FF00400704790F9FD
:109E10000110002902DD4FF00100704702DA4FF017
:109E20000500704790F90200002802DD4FF00200A3
:109E3000704702DA4FF0060070474FF00700704796
:109E40007FB503A8FDF7B8FF002878D1FAF74CF8E2
:109E500001F0CAFE10F0FF0F12D108F0CEFE07F09D
:109E6000EEFC07F0F1F907F078FF06F0A0FC08F02F
:109E700024FAFDF72EF801F0EBFE10F0FF0F02D0F0
:109E8000012004B070BD7920FDF76EFB10F0FF0FCC
:109E900001D00220F5E77820FDF72EFE10F0FF0F2D
:109EA00001D00320EDE76420FDF7DDFE10F0FF0F89
:109EB00001D00420E5E70A20FDF7EEFB10F0FF0FCC
:109EC00001D00520DDE76846FEF723FA02A8FEF779
:109ED000D3F901A8FEF7E8F9D048D14D406884894C
:109EE000BDF80000B5FBF0F0FCF7A4F9BDF80000E8
:109EF000B5FBF0F0FCF7AEF9CA48FCF7BDF9C7486E
:109F0000383001F024FDBDF80810C903FCF78DF9C5
:109F1000C248383001F01BFD9DF80410C903FCF75E
:109F20001CFABE48413001F012FDE103FCF71AFAB9
:109F300000F084F910F0FF0F02D00620A1E723E023
:109F4000B648383001F003FD00F080F910F0FF0F43
:109F500001D0072095E740F2731000F0C2FC10F02A
:109F6000FF0F01D008208CE7642000F0B3FA10F056
:109F7000FF0F01D0092084E70120FFF70BFB10F051
:109F8000FF0F01D00B207CE700207AE72DE9F74F87
:109F90008EB00CA906A8CDE900010BAB02AA09A955
:109FA00007A800F0ABFD18B1012011B0BDE8F08F9B
:109FB000BDF81800C0057DD502980EF00FFF6FF0B8
:109FC0001D0421460FF077FA814603980EF006FF34
:109FD00021460FF070FA804604980EF0FFFE2146ED
:109FE0000FF069FA064605980EF0F8FE21460FF0CC
:109FF00062FA8246012148460FF05DFA0746314673
:10A000000EF07CFF04464FF0404140460EF076FFD4
:10A01000054651460EF072FF21460EF06DFD0EF022
:10A020003FFD0CF059F94FF0663B5A467E4B0EF05F
:10A0300027FA0DF00DFF0E990860012130460FF050
:10A040003AFA314600900EF059FF04462846414640
:10A050000EF054FF21460FF011F94FF07E510EF033
:10A060004BFD0EF01DFD04460D46384641460EF0F0
:10A0700045FF0746514600980EF040FF39460EF066
:10A080003BFD0EF00DFD22462B460CF0FFFB5A4621
:10A09000654B0EF0F5F90DF0DBFE0F9908605146A7
:10A0A00008460EF02BFF0746314608460EF026FF05
:10A0B000054600E034E0414608460EF01FFF044626
:10A0C000494608460EF01AFF21460EF015FD2946B6
:10A0D0000FF0D4F839460FF0D1F80EF0E1FC044649
:10A0E0000D46514648460EF009FF074631464046A8
:10A0F0000EF004FF39460EF0FFFC01210FF0DBF9F2
:10A100000EF0CEFC22462B460CF0C0FB5A46464BC6
:10A110000EF0B6F90DF09CFE10990860002044E79F
:10A12000022042E72DE9F041A2B0164688460746D4
:10A130001FAC17ADCDE9005402AB1AAA15A918A897
:10A1400000F0DCFC0028F5D1BDF85C0010F0700FC9
:10A150000BD018A80299FCF78FFA02A903A8FDF703
:10A16000D9FEDDE90210FCF70DFBBDF85C0000072D
:10A170000DD5BDF954001090BDF956001190BDF9F0
:10A1800058001290002110A8029AFCF743FA02A985
:10A1900013A8FFF798FCE8B9BDF94C000D90BDF984
:10A1A0004E000E90BDF950000F900D990A2091FBC2
:10A1B000F0F11E4A11800E991D4A91FBF0F11180B9
:10A1C0000F9991FBF0F01B49088000210DA8029A1D
:10A1D000FCF798FAFCF7CEFB1EAA20A904A8FCF70E
:10A1E00048FD04980EF0FAFD6FF00F0421460FF0C1
:10A1F00062F9C8F8000005980EF0F0FD0E490EF067
:10A200007DFE3860069840420EF0E8FD21460FF0D2
:10A2100052F9306022B00020BDE8F0813C020020FD
:10A2200040420F00A086010066A64C40E4010020D9
:10A23000E6010020E8010020000080B7C8234FF4A9
:10A240008062FE4940F6F630FFF7E9BB2DE9FF4199
:10A250000446FBA002AB00680290FAA000680390DD
:10A26000F9A00668F9A0056804F00300195C8DF8F0
:10A270000010C4F3C1015A5C8DF80120C4F38112AF
:10A280009B5C8DF8023003AB185C8DF80400585CC1
:10A290008DF80500985C8DF806006A46032140F2AF
:10A2A0002640FFF76CFB4FF0FF37E0BB01AA03210C
:10A2B00040F22A40FFF763FBA8BBCDE900656007C9
:10A2C0000BD59DF8000040F001008DF800009DF8CE
:10A2D000040040F001008DF80400A0060BD59DF8A5
:10A2E000010040F001008DF801009DF8050040F0EC
:10A2F00001008DF80500E0050BD59DF8020040F047
:10A3000001008DF802009DF8060040F001008DF874
:10A3100006006A4603214FF48860FFF730FB10B94E
:10A3200001AA032100E004E040F23140FFF727FBDF
:10A3300018B1384604B0BDE8F081C548048100205A
:10A34000F8E7F8B5C249098901F0030250F8224044
:10A350004A0700D56442C1F3C10250F822308A0690
:10A3600000D55B42C1F3811250F82220C80500D508
:10A370005242B84984FB0140850045EA947083FB52
:10A38000014382FB0121950F45EA8105010E8DF8FD
:10A390000010010C8DF80110010A8DF80210A40FB5
:10A3A0008DF8030044EA83046A4604214FF4747074
:10A3B000FFF7E5FA4FF0FF3688B9200E8DF8000060
:10A3C000200C8DF80100200A8DF802008DF8034062
:10A3D0006A4604214FF47570FFF7D1FA08B1304690
:10A3E000F8BD280E8DF80000280C8DF80100280A11
:10A3F0008DF802008DF803506A4604214FF4767000
:10A40000FFF7BDFAF8BD2DE9FF41044603A8FDF7AB
:10A41000A6FFBDF80C00420CC3038D48018901F072
:10A4200003004D0754F8200000D54042C1F3C10598
:10A430008E0654F8255000D56D42C1F38116C9052A
:10A4400054F8264000D56442A0FB0367C11701FB06
:10A45000037100FB0210810041EA9670A5FB0367BF
:10A46000E91701FB037105FB02118D0045EA9671A6
:10A47000A4FB0367E51705FB037304FB023293009B
:10A4800043EA9672030E8DF80030030C8DF801300C
:10A49000030A8DF802308DF80300080E8DF80400D1
:10A4A000080C8DF80500080A8DF80600100E8DF8CE
:10A4B0000800100C8DF80900100A8DF80A008DF8BC
:10A4C00007108DF80B206A460C214FF42570FFF71A
:10A4D00056FA2FE730B504465FA185B007C98DE86D
:10A4E00007004FF0FF35C82C16D8C820B0FBF4F198
:10A4F000491E080A8DF80C008DF80D1003AA0221E0
:10A5000040F21620FFF73BFA30B96A460C2140F6BC
:10A51000C120FFF734FA10B1284605B030BD4C48D1
:10A5200084810020F9E74A49898901800020704729
:10A530002DE9FC41054640074FF0FF367CD0B1F5D0
:10A54000C86F79D808460EF091FC46490EF048FBDA
:10A55000074601A8FDF7A8FE9DF80400022806D0D2
:10A5600004280DD008282ED0102865D134E00E2103
:10A5700038460EF0A0FF0EF011FC84B23A4907E015
:10A580000D2138460EF097FF0EF008FC374984B2D3
:10A5900038460EF0B3FC0EF001FC210A8DF80010D5
:10A5A00080B28DF80140010A8DF802108DF8030089
:10A5B000E8076C4620D0224602214FF4EA70FFF7EC
:10A5C000DEF9C8BB11E00C2138460EF074FF0EF026
:10A5D000E5FB84B22649DBE70B2138460EF06BFF22
:10A5E0000EF0DCFB84B22349D2E7A21C02214FF417
:10A5F0009270FFF7C4F9F8B9A8070DD56A46022191
:10A600004FF4EC70FFF7BBF9B0B9A21C02214FF474
:10A610009470FFF7B4F978B9680731D56A4602211A
:10A620004FF4EE70FFF7ABF930B9A21C02214FF4E2
:10A630009670FFF7A4F91FE01FE0000000A20108D8
:10A640004CCD6C000CC92C003656760026466600B0
:10A65000B40B002009E3CA02FEF2ABC4AAF1DFDFAB
:10A66000BBAFDFDF00004843000040460000C045AC
:10A67000000040450000C04410B13046BDE8FC81F8
:10A680000020FBE708B500218DF80010C10702D0BB
:10A6900030218DF80010810705D59DF8001041F09C
:10A6A0000C018DF80010400705D59DF8000040F022
:10A6B00003008DF800006A4601214FF4A470FFF7F3
:10A6C0005EF908BD08B560B1042800D90420401E19
:10A6D0008DF800006A46012140F24F10FFF74FF954
:10A6E00008BD0120F3E70521B0FBF1F008B5010A30
:10A6F0008DF800108DF801006A4602214FF4EF70CA
:10A70000FFF73DF908BD0521B0FBF1F008B5010ADE
:10A710008DF800108DF801006A4602214FF4ED70AB
:10A72000FFF72DF908BD4FF47A7290FBF2F008B5EF
:10A730004843010E8DF80010010C8DF80110010A3C
:10A740008DF802108DF803006A4604214FF4AE70B4
:10A75000FFF715F908BD0521B0FBF1F008B5010AB6
:10A760008DF800108DF801006A4602214FF4AD709B
:10A77000FFF705F908BD0521B0FBF1F008B5010AA6
:10A780008DF800108DF801006A4602214FF4AC707C
:10A79000FFF7F5F808BD38B504004FF0FF3506D0D7
:10A7A0006A4604214FF45870FFF711F908B12846A2
:10A7B00038BD00989DF8031000BA20F0FF00084350
:10A7C0002060002038BD08B5010E8DF80010010C86
:10A7D0008DF80110010A8DF802108DF803006A4609
:10A7E00004214FF45870FFF7CAF808BD38B50400CB
:10A7F0004FF0FF3506D06A4604214FF47170FFF721
:10A80000E6F808B1284638BD009800BA20F0FF01EC
:10A810009DF80300014301EB8100800020600020CF
:10A8200038BD1421B0FBF1F008B5010E8DF8001011
:10A83000010C8DF80110010A8DF802108DF803004B
:10A840006A4604214FF47170FFF799F808BD08B506
:10A8500060B120208DF8000028208DF80100302004
:10A860008DF8020038208DF8030004E0A3220421B3
:10A87000684609F0A2FA6A46042140F69E20FFF7D6
:10A880007EF8FDF78DF808BD08B560B1C0208DF8E1
:10A890000000C2208DF80100C4208DF80200C620FF
:10A8A0008DF8030004E08B220421684609F085FA44
:10A8B0006A46042140F69820FFF761F8FDF770F82A
:10A8C00008BD0EB54FF4976308B1E1A000E0E3A026
:10A8D00007C88DE807006A4609211846FFF74FF8B8
:10A8E0000EBD3EB5044602208DF80000CA208DF84A
:10A8F0000100E3208DF8020009208DF803006A466C
:10A9000004216820FFF73BF8A3208DF800006106C2
:10A9100009D5C0218DF80110C8218DF80210C2217F
:10A920008DF8031005E08DF801008DF802008DF818
:10A93000030014F4C07F09D0C4218DF80410CC2189
:10A940008DF80510C6218DF8061005E08DF804007D
:10A950008DF805008DF806008DF808008DF80700C9
:10A960008DF809006A460A2140F6A720FFF707F88C
:10A97000A0074FF0D80503D020208DF8000001E09B
:10A980008DF800506A46012140F6B620FEF7F7FF29
:10A99000A00601D5012000E00020FFF792FF14F48B
:10A9A000C07F1ED0E0050AD5B2208DF800008B20B4
:10A9B0008DF80100B6208DF802009B2009E0B02040
:10A9C0008DF8000080208DF80100B4208DF8020081
:10A9D00090208DF803006A46042140F6A220FEF77D
:10A9E000CEFFE0074FF40B6323D0F8208DF8000072
:10A9F0006A4601211846FEF7C2FFFA210720FFF739
:10AA000097FD0720FFF73EFE0120FFF75BFE642065
:10AA1000FFF769FE4FF4FA70FFF775FEC821924800
:10AA2000FFF781FE2820FFF796FE0A20FFF7A3FE1E
:10AA300006E08DF800506A4601211846FEF79FFF98
:10AA4000A00703D5D9208DF8000001E08DF8005053
:10AA50006A46012140F23D70FEF791FF600701D583
:10AA6000012000E00020FFF70FFFE00601D50120E4
:10AA700000E00020FFF7EBFE7C4D44F00800688109
:10AA8000FCF78EFF0020A873600601D50620A8738E
:10AA900014F4C07F02D0A87B801DA87314F0140F9B
:10AAA00002D0A87B1030A873A00702D0A87B001D9D
:10AAB000A87300203EBD6D49498901800020704780
:10AAC00000B56BA187B00EC98DE80E006BA10DF12A
:10AAD0000C0C0EC98CE80E0040F68223012807D02A
:10AAE000022803D04FF0FF3007B000BD6A4600E0F7
:10AAF00003AA0B211846FEF742FFF5E72DE9FF4FA9
:10AB000089B01646DDE916520024DFF860810F4651
:10AB100081462C80A24698F80E006946FDF70BFD91
:10AB20004FF0FF3B18B158460DB0BDE8F08FB8F8B4
:10AB30000A0010F0140F3CD0009909BA21F0FF0C64
:10AB40009DF803104CEA010CC6F800C0019909BA3F
:10AB500021F0FF039DF807100B43736002999DF8E5
:10AB60000B2009BA21F0FF011143B160039A9DF84F
:10AB70000F4012BA22F0FF022243F2604FEA2C4645
:10AB800009141B1412147643494303FB036302FBAD
:10AB9000021119441024A1F17061B1F1007F04D9B0
:10ABA000FCF7FEFEA5F800A0BDE7298841F48071FE
:10ABB000298041066A460ED51119A41D0B885BBA7F
:10ABC0003B804B885BBA7B80898849BAB9802988E9
:10ABD00041F00801298010F4C07F11D01119A41D83
:10ABE0000B885BBAA9F800304B885BBAA9F8023031
:10ABF000898849BAA9F80410298841F07001298090
:10AC0000800718D01444E07800F0C00500F03F0140
:10AC10006078C00707D0C80801F00701D8F8002005
:10AC2000491C02B190476078000704D5D8F8041099
:10AC300009B1A80988470C98FDF728F9002073E7A7
:10AC40000A490860002070470849486000207047A2
:10AC5000B8AAB38DB4980D355D000000B8AAAAAAB1
:10AC6000B088C3C5C700000009E3CA02B40B0020C6
:10AC7000D8B1B9F38BA391B609B4D900DAB1B9F35D
:10AC80008BA391B6DAB4DA000FB42DE9F041044693
:10AC9000C6B0092C3DD2DFE804F005050505050521
:10ACA000053C05004FAA68464E9908F095FD061E22
:10ACB00030DD182140A809F0AAF824208DF8000101
:10ACC00001208DF801018DF802410D208DF815014C
:10ACD0000A208DF81601002540AFE84617E0701BEA
:10ACE000122800DB1220C4B21221F81C09F06DF802
:10ACF00008EB05012246F81C08F0ABFF002449468A
:10AD0000385DF9F710FA641C172CF8DB1235B542E0
:10AD1000E5DB002046B0BDE8F0015DF814FB50B55E
:10AD200087B0040048D01821684609F070F8242044
:10AD30008DF8000002208DF8010020686E46010E9B
:10AD40008DF80310010C8DF80410010A8DF8051020
:10AD50008DF806006068010E8DF80710010C8DF863
:10AD60000810010A8DF809108DF80A00A068010E7C
:10AD70008DF80B10010C8DF80C10010A8DF80D10D8
:10AD80008DF80E00E068010E8DF80F10010C8DF8A3
:10AD90001010010A8DF811108DF812000D208DF899
:10ADA00015000A208DF8160000242946305DF9F7B9
:10ADB000BAF9641C172CF8DB07B050BD50B587B04A
:10ADC0000C0006467ED01821684609F020F82420A1
:10ADD0008DF8000003208DF801008DF802600D2031
:10ADE0008DF815000A208DF81600072E6AD2DFE8CC
:10ADF00006F050505044500477002068010E000CBB
:10AE00008DF803108DF804006068010E8DF80510B0
:10AE1000000C8DF80600A068010E000C8DF80710DC
:10AE20008DF80800E068010E8DF80910000C8DF80F
:10AE30000A002069010E000C8DF80B108DF80C0033
:10AE40006069010E8DF80D10000C8DF80E00A069E0
:10AE5000010E000C8DF80F108DF81000E069010E46
:10AE60008DF81110000C8DF81200206A010E000CF4
:10AE70008DF813108DF814003EE0E068010E8DF897
:10AE80000F10010C8DF81010010A8DF811108DF8BB
:10AE900012002068010E8DF80310010C8DF80410CB
:10AEA000010A8DF805108DF806006068010E8DF816
:10AEB0000710010C8DF80810010A8DF809108DF8A3
:10AEC0000A0000E021E0A068010E8DF80B10010CD3
:10AED0008DF80C10010A8DF80D108DF80E000BE0A6
:10AEE0002068010E8DF80310010C8DF80410010A82
:10AEF0008DF805108DF8060000246E462946305D59
:10AF0000F9F711F9641C172CF8DB55E7002A04D176
:10AF1000064B1A688A4302431A607047034A0100CD
:10AF2000106801D0002111607047000088020020E5
:10AF300010B507210EF0BFFAFE490DF051FE0DF0DD
:10AF40002DFFFD49C0B251F8200010BD10B50721FA
:10AF50000EF0B1FAF7490DF043FE0DF01FFF40303F
:10AF6000F549C0B251F8200010BD80FB0101800FEF
:10AF700040EA8100704730B50B4604460968006816
:10AF8000FFF7F3FF054659686068FFF7EEFF2D1ADB
:10AF90009968A068FFF7E9FF2D1AD968E068FFF704
:10AFA000E4FF281A106059682068FFF7DEFF0546A5
:10AFB00019686068FFF7D9FF0544D968A068FFF7F2
:10AFC000D4FF05449968E068FFF7CFFF281A506066
:10AFD00099682068FFF7C9FF0546D9686068FFF7E0
:10AFE000C4FF2D1A1968A068FFF7BFFF0544596810
:10AFF000E068FFF7BAFF28449060D9682068FFF73F
:10B00000B4FF054699686068FFF7AFFF05445968CB
:10B01000A068FFF7AAFF2D1A1968E068FFF7A5FFDF
:10B020002844D06030BD02680A60426852424A60DB
:10B03000826852428A60C0684042C860704730B53A
:10B0400091B00446002000900B4615468968606860
:10B05000FFF78BFF02465968A068FFF786FF101ABA
:10B0600001901968A068FFF780FF02469968206880
:10B07000FFF77BFF101A029059682068FFF775FFF1
:10B08000024619686068FFF770FF101A039008AA5B
:10B0900069462846FFF76FFF0CA92846FFF7C3FF54
:10B0A00004AA0CA908A8FFF766FF069810B905982E
:10B0B00000280BD0059800F07EFD0446069800F0AD
:10B0C0007AFD21460BF0A2FC80F0004011B030BDAB
:10B0D00003460020014653F82120491C521302FB6D
:10B0E00002000329F7DB704780FB0101400F40EAB3
:10B0F000C10070470A46C117890710B541EA90019F
:10B100008007D31708F043FB10BD80FB010110B589
:10B1100008F02AFB10BD10B503680C6823441360C7
:10B1200043684C682344536083688C68234493606D
:10B13000C068C9680844D06010BD2DE9F0470026FA
:10B14000884604463746354614E054F8250000F09A
:10B150003BFD81468A4654F8250000F035FD4A46FD
:10B1600053460DF08DF932463B460CF0A3FE0646E1
:10B170000F466D1C4545E8DB002213463046394634
:10B180000DF07CFA1ED2304639460CF0C7FD02465F
:10B190000B46002069490CF049FF06460F46002582
:10B1A0000CE054F825000DF004F932463B460DF052
:10B1B00067F90DF0CFF844F825006D1C4545F0DB2C
:10B1C000BDE8F0874FF0804020600120002102E0C0
:10B1D00044F82010401C4045FADBF1E70421ACE7BD
:10B1E00070B500680DF0E5F86FF01D020EF035F94E
:10B1F00004460D460022514B0DF040FA02D20024C5
:10B200004E4D08E000224E4B204629460DF0FCF83A
:10B2100001D24B4D0024204629460AF091FE01221E
:10B220000EF01BF90022474B0DF02AF9BDE87040E3
:10B23000454A464B0CF0FABE70B590B00646002069
:10B24000009091E829000DF1040C14468CE82900C7
:10B2500008AA69463046FFF78EFE0CA93046FFF774
:10B26000E2FE04AA0CA908A8FFF785FE05AB93E847
:10B27000070084E8070010B070BD2DE9F0470C46C8
:10B2800005461646C968C0680DF038FE8146A168BB
:10B29000A8680DF033FE8046616868680DF02EFEE8
:10B2A0000746216828680DF029FE39460DF0E6FFB3
:10B2B00041460DF0E3FF49460DF0E0FF3060A16824
:10B2C000E8680DF01BFE8146E168A8680DF016FEE7
:10B2D0000746216868680DF011FE8046616828689D
:10B2E0000DF00CFE41460DF007FC39460DF004FC54
:10B2F00049460DF0C3FF70606168E8680DF0FEFD1F
:10B3000081462168A8680DF0F9FD8046E16868680B
:10B310000DF0F4FD0746A16828680DF0EFFD3946F1
:10B320000DF0ACFF41460DF0E7FB49460DF0E4FBA4
:10B33000B0600DE0D00F4940F8AD01080000F03FCB
:10B340000000F0BF00806640112D4454FB210940ED
:10B350002168E8680DF0D2FD81466168A8680DF0AB
:10B36000CDFD8046A16868680DF0C8FD0746E1681C
:10B3700028680DF0C3FD39460DF0BEFB41460DF0C7
:10B380007DFF49460DF0B8FBF06019E770B50D463A
:10B3900006461446096800680DF0AEFB2060696837
:10B3A00070680DF0A9FB6060A968B0680DF0A4FB9F
:10B3B000A060E968F0680DF09FFBE06070BD2DE9CA
:10B3C000F05F0446C068804601460DF097FDD4F852
:10B3D00008908346494648460DF090FDD4F804A0F5
:10B3E0000646514650460DF089FD27680546394608
:10B3F00038460DF083FD29460DF07EFB31460DF0F9
:10B400007BFB59460DF078FB0546B0F1804F51DAD1
:10B410004FF0FF310EF04FF8834629460DF06EFDD8
:10B4200029460DF06BFD4FF07F5631460DF094FE2E
:10B4300029460DF063FD0546014658460DF05EFDB8
:10B4400029460DF05BFD31460DF086FE29460DF0D4
:10B4500055FD0546014658460DF050FD29460DF0B4
:10B460004DFD31460DF078FE29460DF047FD0546AD
:10B47000014658460DF042FD29460DF03FFD31468C
:10B480000DF06AFE29460DF039FD054601463846A5
:10B490000DF034FD2060294650460DF02FFD606010
:10B4A000294648460DF02AFDA060294640460DF089
:10B4B00025FD05E04FF07E50206000206060A06018
:10B4C000E060BDE8F09F2DE9F0410446C068014608
:10B4D0000DF014FD0746A06801460DF00FFD06466D
:10B4E000606801460DF00AFD0546206801460DF032
:10B4F00005FD29460DF000FB31460DF0FDFA3946F9
:10B500000DF0FAFA0CF030FC054610F0FF4F13D0A6
:10B51000294620680DF064FB2060294660680DF024
:10B520005FFB60602946A0680DF05AFBA0602946C9
:10B53000E0680DF055FB05E04FF07E5020600020E4
:10B540006060A060E060BDE8F08102680A60426867
:10B5500082F000424A60826882F000428A60C068DD
:10B5600080F00040C860704710B5024640680B4646
:10B570000146FFF7B9FD044610680146FFF7B4FD28
:10B580002044A0F180401860D2E90101FFF7ACFD32
:10B5900004461168D068FFF7A7FD201A5860D168EB
:10B5A0005068FFF7A1FD044611689068FFF79CFD05
:10B5B00020449860D2E90101FFF796FD0446116826
:10B5C000D068FFF791FD2044D86090680146FFF7EE
:10B5D0008BFD044610680146FFF786FD2044A0F16C
:10B5E00080401861D2E90201FFF77EFD0446D2E9EE
:10B5F0000010FFF779FD201A5861D1685068FFF7F5
:10B6000073FD044611689068FFF76EFD201A98617B
:10B61000D2E90201FFF768FD0446D2E90010FFF706
:10B6200063FD2044D861D0680146FFF75DFD044604
:10B6300010680146FFF758FD2044A0F180401862D1
:10B6400010BD10B544680C6083684B60C2688A60A6
:10B650000068002805DA604208605842486050429D
:10B66000886010BD020E0A70020C4A70020A8A70CD
:10B67000C870084670470168C07809BA21F0FF0118
:10B6800008437047008840BA00B27047008800B293
:10B690007047020A0A704870084670472DE9F04367
:10B6A000002489462646DDF81C801CE0002106EBBC
:10B6B00046070D4609EBC7070FE09C4200D1641C0A
:10B6C000414500D1491C04EB440C00EBCC0C5CF868
:10B6D00021C047F825C0491C6D1CD2F800C08C451C
:10B6E000EBDC641C761C1168A142DFDC481E106094
:10B6F000BDE8F0832DE9F04F994600238B461E46A6
:10B70000DDF824A01FE0002106EB46050C460BEBFC
:10B71000051713E04B4500D15B1C514500D1491C76
:10B7200003EB430500EB051505EBC105491CD5E905
:10B73000008C07EBC405641CC5E9008C15688D42BC
:10B74000E8DC5B1C761C11689942DCDC481E10604A
:10B75000BDE8F08F2DE9F0470E68A6B08A46054691
:10B760004FF00009022E02D000273C4635E0A969BF
:10B7700068680DF0C3FB0446E96928680DF0BEFB5C
:10B7800026B02146BDE8F0470DF078BDCAF800604C
:10B790003B46524601A928460094FFF77FFF5146D9
:10B7A00001A8FFF7D7FF80463819C00702D04FF035
:10B7B000FF3000E001200DF011FB07EB470105EB26
:10B7C000C10151F824100DF099FB41460DF096FB94
:10B7D00049460DF091F98146641CB442D6DB4846D7
:10B7E00026B0EDE42DE9F34FCBB007464C98002589
:10B7F0002E46D0F80080B8F1020F02D0A9464C4680
:10B8000045E0D7E90201D7E90C230CF039FE0446E4
:10B810000D46D7E90001D7E90E230CF031FE4DB0FB
:10B8200022462B46BDE8F04F0DF050B84C994B46E0
:10B830003846C1F80080009402A94C9AFFF75AFFDD
:10B8400002A84C99FFF7CEFF824609EB04008B4615
:10B85000C00702D04FF0FF3000E001200CF0A9FD3E
:10B86000844609EB490007EB001000EBC400D0E967
:10B87000002360460CF004FE52465B460CF000FECE
:10B880002A4633460CF016FB05460E46641C44451A
:10B89000CCDB284631464DB05AE7D04AD0499042D9
:10B8A00001DB0DF0EBBCCF4A904201D30DF024B97F
:10B8B000704770B50D46FFF7F0FF04462846FFF7C6
:10B8C000ECFF014620460DF0D9FCC44AC449904221
:10B8D00003DBBDE870400DF0D1BCC24A904203D9F1
:10B8E000BDE870400DF008B970BD10B5044641F2D6
:10B8F0000550002204E0A35C00EB40101844521CE9
:10B900008A42F8DB10BD90F90010002902DD4FF0EB
:10B910000000704702DA4FF00400704790F9011000
:10B92000002902DD4FF00100704702DA4FF00500F8
:10B93000704790F90200002802DD4FF002007047C6
:10B9400002DA4FF0060070474FF00700704770B5FD
:10B950000446FFF7D8FF0546E01CFFF7D4FF45EA91
:10B96000C005A01DFFF7CFFF45EA801080B270BD73
:10B9700030B500F00303440751F823504FF0FF3374
:10B9800001D51C4600E001246543C0F3C1041560E5
:10B9900051F82450840601D51C4600E0012465437B
:10B9A000C0F38114556051F82410C00500D4012360
:10B9B0005943916030BD30B50D6844074FF0FF33F7
:10B9C00001D51C4600E00124654300F0030442F861
:10B9D00024504D68840601D51C4600E001246543CF
:10B9E000C0F3C10442F824508968C40500D401237F
:10B9F000C0F38110594342F8201030BDF0B5044621
:10BA000000F003000E4652F8207060074FF0FF353B
:10BA100001D5284600E001207843FFF7A6FA186018
:10BA2000C4F3C10052F82070A00601D5284600E0FA
:10BA3000012078433146FFF798FA5860C4F381102B
:10BA4000E10552F8200000D4012568433146FFF794
:10BA50008CFA9860F0BD70B50446806801460DF020
:10BA60004DFA0546606801460DF048FA0646206822
:10BA700001460DF043FA31460DF03EF829460DF02F
:10BA80003BF80DF00DF8BDE870400CF047B910B56B
:10BA900000220260426051F8223000EB8204521C06
:10BAA0002361052AF7DB10BD70B5416281620D4646
:10BAB000044680694FF07E510DF01EF8E1690DF0EB
:10BAC0001BF8014628460DF08BF82060606070BDC1
:10BAD0002DE9F0414162466804460F46C06931468F
:10BAE0000DF00CFA256880462946A0690DF006FA8B
:10BAF00039460DF031FB41460DF0C0FB074631469B
:10BB000060690DF0FBF90646294620690DF0F6F94B
:10BB100039460CF0F1FF31460CF0EEFF216A0DF0D2
:10BB2000EDF9A062C4E900750DE52DE9F0410D467F
:10BB3000064614465168A8680DF0E0F90746A1686A
:10BB400068680DF0DBF939460DF098FB3060A168AC
:10BB500028680DF0D3F907462168A8680DF0CEF9E2
:10BB600039460DF08BFB7060216868680DF0C6F9EE
:10BB70000746616828680DF0C1F939460DF07EFB73
:10BB8000B060E0E4F0B50E460746002400252B46E1
:10BB900003EB4300204456F8231057F82000FFF72A
:10BBA000E4F95B1C0544032BF2DB42F82450641CCF
:10BBB000032CEBDBF0BD10B50DF010F9BDE8104023
:10BBC0006FF01D010DF077BC10B50CF0F2FBBDE875
:10BBD00010406FF01D020DF040BC0000DB0F49402B
:10BBE000DB0FC940DB0F49C010B500F075FA00F05B
:10BBF00029FA50B100F026FA2223244A24A100F0A9
:10BC000039F8BDE8104000F01DBAFAF7E6FA50B175
:10BC1000FAF7E3FA25231D4A1DA100F02BF8BDE831
:10BC20001040FAF7DABA00F052F900280AD000F012
:10BC30004EF92723154A16A100F01CF8BDE8104064
:10BC400000F045B910BD114914390160002070475A
:10BC500010B500F02DFA00280BD000F029FA0B4A9D
:10BC600042230D320AA100F005F8BDE8104000F0B3
:10BC70001FBA10BD0EB50092CDE901300B460AA2E5
:10BC800000210620FFF700F80EBD00000CB20108ED
:10BC90002E2E5C444D505C444D505F4D504C5F43E4
:10BCA0005C6D706C2E63000025737C25737C2564AD
:10BCB0002072657475726E696E672025640A0000D3
:10BCC00030B5DE4A52F87C3F43F0020342F858395F
:10BCD00039C842F8141982E8390030BD30B5D74A66
:10BCE00052F87C3F43F0010342F85C3939C842F80E
:10BCF000201B82E8390030BD70B5D04A02F1400304
:10BD000078CB80E87800106A086070BDCB48406F3F
:10BD10007047CA4948677047C848006D7047C749AF
:10BD200008657047C5498A6E026091F864007047E3
:10BD3000C249002291F86430834207D1022801D021
:10BD40008A667047886E401C886670478A6681F8EC
:10BD50006400012800D0022000220321FFF7D6B89A
:10BD6000B6490DC8283181E80D007047B349283124
:10BD70000EC980E80E007047B0490DC8343181E823
:10BD80000D007047AD4934310EC980E80E00704790
:10BD900070B5AA4C0546E1686068FFF7A5F906464C
:10BDA0002168A068FFF7A0F9301A2860D4E90201E1
:10BDB000FFF79AF90646D4E90010FFF795F93044E9
:10BDC0006860E0680146FFF78FF906462068014683
:10BDD000FFF78AF93044A0F18040A860002070BDD0
:10BDE000964910B510311EC980E81E00002010BD14
:10BDF00070B5924D044695F87C0080070AD02A461B
:10BE000002F1100101F13000FFF7B5F8E86F20F002
:10BE10000300E86795E80F0084E80F00002070BD7C
:10BE20007FB504466846FFF7E3FF0546009800F03B
:10BE3000FCF82060019800F0F8F86060029800F0CB
:10BE4000F4F8A060039800F0F0F8E06004B0284631
:10BE500070BD70B515460C46FFF7CAFFFAF75BFADE
:10BE60002860FAF744FA10B1FAF71EFE04E0FAF778
:10BE700045FA18B1FAF715FE206070BDFAF744FADA
:10BE80000028F9D0FAF71AFEF6E76C49C1F88000ED
:10BE90000020704710B507224FF44871AFF215002B
:10BEA000FAF7AEFC002010BD10B58821634807F0FA
:10BEB000AEFF62484FF0804141638163C16301641A
:10BEC000016101605E49C0F88410002010BD10B50A
:10BED000FFF7EAFF002805D1AFF24700BDE81040A8
:10BEE00000F0D8B810BD5548406D704753494865BB
:10BEF00070475248006F70475049086770474F4974
:10BF0000886770474D48806F70474C490DC858315D
:10BF100081E80D007047494958310EC980E80E008C
:10BF200070473EB5040017D000221146FAF75CFDB9
:10BF30006846FFF72DFF20680099A0EBA130206034
:10BF400060680199A0EBA1306060A0680299A0EB45
:10BF5000A130A06000203EBD05203EBD10B528B137
:10BF600000221146FAF740FD002010BD052010BD4B
:10BF7000FEB5050003D06846FFF7F0FF08B10520C5
:10BF8000FEBD00246E466FF00F0756F824000CF03B
:10BF900025FF39460DF08FFA45F82400641CE4B201
:10BFA000032CF2D30020FEBDFEB5050017D0002201
:10BFB00011466846FAF729FD00246E466FF00F0718
:10BFC00056F824000CF00AFF39460DF074FA45F8D3
:10BFD0002400641CE4B2032CF2D30020FEBD052033
:10BFE000FEBD1649C1F8840070471448D0F884009B
:10BFF0007047FEB5050003D06846FFF792FF08B111
:10C000000520FEBD00246E466FF00F0756F8240091
:10C010000CF0E4FE39460DF04EFA45F82400641C9D
:10C02000E4B2032CF2D30020FEBD10B50CF0D6FE16
:10C03000BDE810406FF01D010DF03DBAC40B0020AB
:10C04000DB0F494010B55421224807F0E0FE0020E4
:10C0500010BD10B51F4C0021226817E004EB8103CE
:10C060005B68834211D1501E884209D0501A820069
:10C0700004EB810000F10801001D121F07F060FEB3
:10C080002068401E2060002010BD491C8A42E5DC6B
:10C09000052010BD0F4A1168142901DB05207047E7
:10C0A00002EB810148601068401C1060002070475E
:10C0B00070B500252C46074E07E006EB840040686B
:10C0C000804708B105B90546641C3068A042F4DC1D
:10C0D000284670BD4C0C002010B54FF4CC7165485B
:10C0E00007F095FE63490C20486010BDF0B5614D26
:10C0F00000242E6808E004EB440705EB8707D7F817
:10C10000B0709F4204D0641CA642F4DC142E01DB04
:10C110000520F0BD06EB460405EB8404C4F8B030FE
:10C120002B6803EB430305EB8303C3F8A8202B68BC
:10C130000C3205EB83039860286805EB800081656D
:10C140006868104468602868401C28600020F0BDC2
:10C15000484949680160002070472DE9F0410C29E9
:10C160004AD382680646A2F5E643F13B44D13568DE
:10C1700006F10C000C3D04462946FFF7B6FB71683A
:10C18000DFF8F080814237D131E000264046A268D6
:10C19000D8F8001008E006EB460300EB8303D3F861
:10C1A000B030934204D0761CB142F4DC4FF0FF363D
:10C1B0000C3D04F10C07002E15DB2168A94212DCAE
:10C1C00006EB460208EB8200D0F8A80081420AD1B3
:10C1D0003846FFF78AFB616881420DD108EB860083
:10C1E00081683846884720682D1A02D4C4190C2D5E
:10C1F000CBDC0020BDE8F0816B20FBE72DE9F047A8
:10C2000081461C4842688A4232D809F10C07BA4676
:10C210000024804617E006EB84003D460C37816D14
:10C220003846884704EB440006EB8006384656F84B
:10C23000A81FFFF75AFB686030682860B068A860E4
:10C240003068641C0744D8F800004646A042E2DC8F
:10C2500071684C46354650460C39FFF746FB606026
:10C2600047F2F130A060686820600020BDE8F087E8
:10C270006B20FBE7A00C00200948804709480047D5
:10C28000FEE7FEE7FEE7FEE7FEE7FEE7FEE7FEE786
:10C29000FEE7FEE704480549054A064B70470000E3
:10C2A0000505000831010008C0710020C07700209A
:10C2B000C0730020C073002000F108014FF0FF326E
:10C2C000C0E90112C16001610021016070470021D5
:10C2D0000161704742684A6093688B609368596057
:10C2E000916008610168491C0160704730B50C68B5
:10C2F000621C02D000F1080202E0026904E01A4662
:10C3000053681D68A542FAD953684B6099608A60EA
:10C31000516008610168491C016030BDD0E90132FB
:10C3200001699A60D0E901235A604A68824201D1CA
:10C3300082684A60002202610868401E08607047F7
:10C3400070B50D46040005D140F21B12F2A1F7A012
:10C3500007F054FA02F0ECF9D4E90F20216802FB4F
:10C36000001161600021A1632168A1600A46D4E93F
:10C370000F01401E00FB0121E16021464FF0FF301C
:10C3800001F8440F487004F110004DB1FFF794FF1D
:10C3900004F12400FFF790FF02F0E4F9012070BDE2
:10C3A00021690029F8D001F0A3FA0028F4D0E3496C
:10C3B0004FF080500860BFF34F8FBFF36F8FEBE7F4
:10C3C0002DE9F04117460E46050005D14FF4C47221
:10C3D000D1A1D6A007F012FABEB105FB06F0543089
:10C3E00002F056FA04000ED004F154007EB1206031
:10C3F000C4E90F5620460121FFF7A2FF84F85070D0
:10C4000000212046A164BDE8F0810020E7E7246018
:10C41000EEE72DE9F041856B174604460026026CD5
:10C4200082B1C7B1E06807F014FCE168206C091A1A
:10C43000E1602268914202D26168081AE060022F2E
:10C4400016D017E02068A8B9606801F062FB0646C4
:10C45000002060600EE0A06807F0FBFB216CA06884
:10C460000844A0606168884204D32068A06001E0AD
:10C4700005B16D1E6D1CA5633046C4E72DE9F3417F
:10C480000F4600980026846C2CB940F6CE12A2A16B
:10C49000A6A007F0B3F9A06BE16B884205D340F684
:10C4A000CF129DA1A1A007F0A9F9A06BE16B884272
:10C4B0000CD294F945503A4669462046FFF7A9FF49
:10C4C0000646681C05D06D1C84F845503046BDE812
:10C4D000FC81606A0028F9D004F1240001F008FA18
:10C4E0000028F3D00126F1E72DE9F041044602F0DF
:10C4F0001FF994F9455004F1240610E0A06C20B116
:10C5000000212046FFF7BAFF04E0606A48B13046D8
:10C5100001F0EEF908B101F0A4FA6D1E6DB2002D24
:10C52000ECDC4FF0FF3684F8456002F01BF902F0B6
:10C53000FFF894F9445004F1100709E0206948B16C
:10C54000384601F0D5F908B101F08BFA6D1E6DB2D5
:10C55000002DF3DC84F84460BDE8F04102F002B93C
:10C560002DE9FF4F83B099468B4604004FF000063B
:10C5700005D140F2D92268A16CA007F03FF9BBF1C8
:10C58000000F07D1206C28B140F2DA2262A167A027
:10C5900007F034F9B9F1020F08D1E06B012805D09A
:10C5A00040F2DB225CA161A007F028F901F068FAF3
:10C5B00038B9059828B140F2DE2257A15BA007F0F8
:10C5C0001DF94FF0000A4FF08057DFF8708102F03C
:10C5D000AFF8A06BE16B884206D3B9F1020F03D02C
:10C5E000059800B316B325E04A4659462046FFF7A2
:10C5F00010FFA16C21B149462046FFF73FFF05E03F
:10C60000616A19B104F1240001F072F928B1C8F887
:10C610000070BFF34F8FBFF36F8F02F0A3F80120BC
:10C6200007B0BDE8F08F02F09DF821E0684601F008
:10C63000CEF9012602F096F800F09BFD02F078F8A2
:10C6400094F94400401C01D184F844A094F94500B9
:10C65000401C01D184F845A002F084F805A9684681
:10C6600001F0C6F930B12046FFF73EFF00F0F3FCC1
:10C670000020D5E702F05CF8A06BE16B884201D1A5
:10C68000012500E0002502F06DF895B104F11000DD
:10C69000059901F0D4F82046FFF726FF00F0DBFCF7
:10C6A000002894D1C8F80070BFF34F8FBFF36F8F8D
:10C6B0008DE72046FFF718FF00F0CDFC87E710B5A7
:10C6C000024600210120FFF77BFE040007D0002175
:10C6D000416001600B460A46C160FFF741FF2046FA
:10C6E00010BD10B5040005D140F241220AA10FA0EF
:10C6F00007F084F801F0C1F96168884220D1E06850
:10C70000401EE06005D100231A4619462046FFF777
:10C7100027FF012010BD00002E2E5C467265655279
:10C72000544F535C71756575652E63004572726F69
:10C73000723A25732C25640D0A00000004ED00E018
:10C740000020E7E730B4026C0B46002A0BD0C1682A
:10C750001144C1604468A14201D30168C16030BC8A
:10C76000184607F076BA30BC70472DE9FF4F83B00A
:10C770009B468A4604004FF0000607D140F2DC4297
:10C78000AFF26C01AFF25C0007F038F8BAF1000FBD
:10C7900009D1206C38B140F2DD42AFF28401AFF232
:10C7A000740007F02BF801F06BF948B9059838B11F
:10C7B0004FF49C62AFF2A001AFF2900007F01EF8B8
:10C7C0004FF000094FF08057DFF8188601F0B0FFF6
:10C7D000A56B35B351462046E668FFF7B3FFBBF1C2
:10C7E000000F11D0E660606A50B104F1240001F03E
:10C7F0007FF828B1C8F80070BFF34F8FBFF36F8F79
:10C8000001F0B0FF01200BE76D1EA563206810B991
:10C8100001F02FFA606020690028F1D004F11000C7
:10C82000E5E7059808B11EB106E001F09BFF27E09F
:10C83000684601F0CCF8012601F094FF00F099FC65
:10C8400001F076FF94F94400401C01D184F8449033
:10C8500094F94500401C01D184F8459001F082FF15
:10C8600005A9684601F0C4F8002820460AD0FFF761
:10C870003BFE00F0F0FB204600F0A6FA0028A5D011
:10C880000020CDE600F0A0FAD8B1206830B901F060
:10C890004FFF606801F0FFF801F064FF04F124002D
:10C8A000059900F0CCFF2046FFF71EFE00F0D3FBF9
:10C8B00000288BD1C8F80070BFF34F8FBFF36F8F84
:10C8C00084E72046FFF710FE00F0C5FB7EE770B559
:10C8D0000D46040007D14FF41E72AFF2C411AFF23F
:10C8E000B41006F08BFF01F0C8F86168884204D1EB
:10C8F000E068401CE060012070BD00232A46194614
:10C900002046FFF732FF0028F6D0E168491CE160BD
:10C9100070BD70B50C46050007D140F2BD22AFF2E4
:10C920000821AFF2F81006F069FFAC4207D940F2D7
:10C93000BE22AFF21C21AFF20C2006F05FFF0222F4
:10C9400000212846FFF73CFD002800D0846370BD1D
:10C950002DE9F047984615468946040007D140F274
:10C960009F32AFF24C21AFF23C2006F047FFB9F105
:10C97000000F09D1206C38B14FF46872AFF2682112
:10C98000AFF2582006F03AFFB8F1020F0AD1E06B7F
:10C99000012807D040F2A132AFF28421AFF2742017
:10C9A00006F02CFF01F003FF5020EFF3118780F316
:10C9B0001188BFF34F8FBFF36F8FA06BE16B88427D
:10C9C00007D3B8F1020F04D0002087F31188BDE827
:10C9D000F08794F94560424649462046FFF719FD25
:10C9E000701C04D0761C84F845600120EDE7A06C33
:10C9F000012620B141462046FFF740FD06E0606A6F
:10CA00000028F2D004F1240000F072FF0028ECD0DE
:10CA1000002DEAD02E60E8E72DE9F0410D46040034
:10CA200007D140F23C42AFF21031AFF2003006F0D5
:10CA3000E5FE206C38B14FF48862AFF22431AFF2DA
:10CA4000143006F0DBFE206848B9606838B140F267
:10CA50004542AFF23C31AFF22C3006F0CFFE01F090
:10CA6000A6FE5020EFF3118680F31188BFF34F8F9D
:10CA7000BFF36F8FA16BE06B88421FD994F945001B
:10CA8000491CA163411C04D0401C84F845000120CE
:10CA900015E0A06C012720B100212046FFF7EEFC35
:10CAA00006E0606A0028F2D004F1240000F020FFC4
:10CAB0000028ECD0002DEAD02F60E8E7002086F3B4
:10CAC0001188A0E42DE9F04790468946040007D17B
:10CAD0004FF4B462AFF2C031AFF2B03006F08EFE68
:10CAE000B9F1000F09D1206C38B140F2A152AFF278
:10CAF000D831AFF2C83006F081FE01F058FE502068
:10CB0000EFF3118780F31188BFF34F8FBFF36F8F5F
:10CB1000A66BF6B194F9445049462046FFF712FE41
:10CB2000761EA663681C04D06D1C84F84450012056
:10CB300010E020690028FAD004F1100000F0D8FEBF
:10CB40000028F4D0B8F1000FF1D00121C8F800108E
:10CB5000EDE7002087F3118839E72DE9F0410E4613
:10CB6000040007D140F2FC52AFF25441AFF244400E
:10CB700006F044FE4EB9206C48B140F2FD52AFF2CF
:10CB80006841AFF2584006F039FE206C38B940F2E7
:10CB9000FE52AFF27C41AFF26C4006F02FFE01F086
:10CBA00006FE5020EFF3118580F31188BFF34F8FFD
:10CBB000BFF36F8FA06B30B131462046E768FFF7B7
:10CBC000C1FD0120E76085F311881CE410B5040065
:10CBD00007D140F22F62AFF2C041AFF2B04006F091
:10CBE0000DFE01F0A5FDA46B01F0BCFD204691E512
:10CBF00010B5040007D140F24162AFF2E441AFF258
:10CC0000D44006F0FBFD01F093FDD4E90E10441A68
:10CC100001F0A8FD20467DE510B5040007D140F2E3
:10CC20005162AFF20C51AFF2FC4006F0E7FDA06B91
:10CC300070E56D4A002102EBC1035B68834206D1B7
:10CC4000002042F8310002EBC10148607047491CE6
:10CC50000829F0D3704710B5040007D140F25D6297
:10CC6000AFF24C51AFF23C5006F0C8FD2046FFF742
:10CC7000E0FF2046BDE8104001F075BEC06C704773
:10CC8000C164704790F85000704710B5040007D198
:10CC900040F29372AFF28051AFF2705006F0AEFDE9
:10CCA000A06B08B1002035E5012033E510B5040084
:10CCB00007D140F2BA72AFF2A051AFF2905006F035
:10CCC0009DFDA06BE16B884201D1012022E500208F
:10CCD00020E510B5444B002253F832401CB1521CE1
:10CCE000082AF9D316E543F8321003EBC201486075
:10CCF00010E510B500243C4A214602EBC1035B68F5
:10CD0000834202D152F8314002E0491C0829F4D391
:10CD10002046FFE470B515460E46044601F008FDB6
:10CD200094F944100020491C01D184F8440094F97E
:10CD30004510491C01D184F8450001F013FDA06B9A
:10CD400028B92A46314604F1240000F0B6FD2046F9
:10CD5000BDE87040FFF7C8BB00220421FFF730BBDD
:10CD600070B50D46044601F0E3FCA06C08B9A06B59
:10CD700008B1002401E0A564012401F0F3FC204681
:10CD800070BD10B50446806C884201D1A06B08B11B
:10CD90000020BFE401F0CCFC0020A06401F0E2FC24
:10CDA0000120B7E408B500230A4669460093FFF75F
:10CDB000DCFC009808BD08B500210A4600916946D0
:10CDC000FFF780FE009808BD10B5044601F0B0FCE6
:10CDD000A06B20B1002401F0C5FC20469AE4012498
:10CDE000F9E7000004ED00E0380E00202DE9F041E5
:10CDF000054601F09DFCFE4EB068401CB0603068F6
:10CE0000FC4F10B1706930B32BE03560B068012879
:10CE100027D1002404EB840007EB8000FFF74CFAD5
:10CE2000641C202CF6D3F448FFF746FAF24814307D
:10CE3000FFF742FAF0482830FFF73EFAEE483C3060
:10CE4000FFF73AFAEC485030FFF736FAEA487063D9
:10CE50001430B06305E03068E96AC06A884200D8DF
:10CE60003560706A0121401C70626864E86A32694A
:10CE700081401143316100EB800007EB8000291DE8
:10CE8000FFF728FA01F06EFC706900280CD03068BA
:10CE9000E96AC06A884207D2D8494FF080500860DA
:10CEA000BFF34F8FBFF36F8FBDE8F0812DE9FF5FB8
:10CEB0008346DDE90E87994616468A46900001F0C2
:10CEC000E7FC05001AD05C2001F0E2FC040012D05F
:10CED00025630021CDE90241CDE900874B4632466A
:10CEE0005146584601F087F82046FFF77FFF0120A2
:10CEF00004B0BDE8F09F284601F035FD4FF0FF304B
:10CF0000F6E770B5044601F013FCB94D04B92C687E
:10CF1000201DFFF703FA58B9E06AB64A00EB80011A
:10CF200052F8211021B901218140286988432861E4
:10CF3000A06A18B104F11800FFF7F0F9686A401C04
:10CF400068622868844208D1AB48211D3C30FFF755
:10CF5000C1F96868401C686007E0A868401EA860C6
:10CF6000204601F0A1F801F092F801F0FBFB68699E
:10CF7000002812D0286884420FD1286B28B140F2D3
:10CF800065429FA1A3A006F039FC9C494FF0805058
:10CF90000860BFF34F8FBFF36F8F70BD2DE9F04175
:10CFA000934F0026386B38B1B869401CB861F869F6
:10CFB00000B10126304677E7FD686D1CFD6011D198
:10CFC000786B006828B140F6DA128DA191A006F0C6
:10CFD00015FC786BB96B7963B863386A401C3862AA
:10CFE00001F055F8B86ADFF80C82854209D3786BF6
:10CFF000006880B1786BC068C468606885420DD2F3
:10D00000B8623868C06A00EB800158F82100012836
:10D01000CDD90126CBE74FF0FF30F1E7201DFFF718
:10D020007DF9A06A18B104F11800FFF777F9E06AFA
:10D0300001213A6981401143396100EB800108EB1D
:10D040008100211DFFF746F9E06A3968C96A884204
:10D05000CDD30126CBE72DE9F047654D00242746C7
:10D06000286B28B940F2E97265A16AA006F0C6FBF8
:10D0700001F05EFB286B401E2863286BF0BBA8689C
:10D080005D4928310126C8B3DFF868918846D8F891
:10D090000010E9B1D8F80C00C46804F11800FFF7DB
:10D0A0003DF9201DFFF73AF9E06A2A6906FA00F116
:10D0B0001143296100EB800109EB8100211DFFF77D
:10D0C00009F9E06A2968C96A8842E0D3EE61DEE7BF
:10D0D0000CB100F0DCFFAC693CB1FFF75FFF00B1C1
:10D0E000EE61641EF9D10020A861E86930B14349BE
:10D0F000012738070860BFF34F8F00E001E0BFF35E
:10D100006F8F01F02FFB3846BDE8F0872DE9F04125
:10D11000374E0F460446F5683068001DFFF7FEF8ED
:10D1200038B9306890F82C1001208840316981436B
:10D130003161601C08D13FB13168BDE8F0412E4833
:10D140005030091DFFF7C6B830682C44AC4244602B
:10D15000316805D2B06BBDE8F041091DFFF7C6B8D4
:10D16000706B091DFFF7C2F8B06A844200D2B46246
:10D170009AE61F48016B491C016370472DE9F04195
:10D180000E4605004FF0000405D140F279421CA183
:10D1900020A006F033FB2EB940F27A4218A11DA060
:10D1A00006F02CFB124F386B28B140F27B4214A1E1
:10D1B00018A006F023FBFFF7DCFFFA682868811946
:10D1C000904202D9884202D804E0884201D89142B4
:10D1D00000D9012429601CB1881A0021FFF796FFAD
:10D1E000FFF739FF002822D14FF08050034919E0A2
:10D1F0008C020020780E0020F810002004ED00E0E2
:10D200002E2E5C4672656552544F535C7461736B8D
:10D21000732E63004572726F723A25732C25640D6C
:10D220000A0000000860BFF34F8FBFF36F8F3BE62B
:10D2300010B5040014D0FE49096B39B140F2CF4259
:10D24000AFF24401AFF2340006F0D8FAFFF791FFD5
:10D2500000212046FFF75AFFFFF7FDFE002807D107
:10D26000F4494FF080500860BFF34F8FBFF36F8FCA
:10D2700010BD70B5050007D140F2FB42AFF280014E
:10D28000AFF2700006F0BAFAE94E3068854201D17B
:10D29000002070BD01F04CFA6C6901F063FA706B0C
:10D2A000844202D0B06B844201D1022070BDE248BA
:10D2B000844204D1A86A0028F7D1032070BDDE485B
:10D2C0001438844202D00CB1012070BD042070BD1E
:10D2D00010B5044601F02CFA0CB9D5480468E46A8C
:10D2E00001F040FA204610BD10B5044601F05FFA87
:10D2F0005020EFF3118180F31188BFF34F8FBFF3FC
:10D300006F8F0CB9CA480468E06A81F3118810BDB8
:10D310002DE9F04100260D460446202908D34FF49C
:10D32000B062AFF22411AFF2141006F067FA1F25B5
:10D3300001F0FEF9BE4F04B93C68E06CA8423FD052
:10D340003968854206D98C4207D03968C96AA94232
:10D3500002D902E08C4200D10126E16A8846884267
:10D3600000D1E562E564A069002802DBC5F1200078
:10D37000A061B24D08EB8800616905EB8000814235
:10D3800015D1201DFEF7CAFF012120B93A6901FA23
:10D3900008F082433A61E06A3A6981401143396199
:10D3A00000EB800005EB8000211DFEF793FF3EB1EE
:10D3B000A0494FF080500860BFF34F8FBFF36F8FCD
:10D3C000BDE8F04101F0CEB970B5994D286B10B1B0
:10D3D0000120E86170BD0020E8612869974EB0FA2D
:10D3E00080F0C0F11F0000EB800456F8240038B92B
:10D3F00040F6F722AFF2F811AFF2E81006F0FEF9AE
:10D4000006EB840000F108024168496841609142DE
:10D4100001D149684160C868286070BD70B5044694
:10D4200001F086F9824D04B92C68201DFEF776FFC5
:10D4300058B9E06A814A00EB800152F8211021B905
:10D4400001218140286988432861A06A18B104F14C
:10D450001800FEF763FF211D7748FEF73BFF01F040
:10D4600081F9686928B101F063F900F010FE01F05C
:10D4700079F92868844213D1686990B1286B38B172
:10D4800040F25762AFF28821AFF2782006F0B6F989
:10D4900068494FF080500860BFF34F8FBFF36F8F24
:10D4A00070BD6548A9680068884202D100202860E4
:10D4B00070BDBDE8704087E770B50025040007D156
:10D4C00040F28162AFF2C821AFF2B82006F096F9BF
:10D4D00059496069884205D1A06A2839884201D03B
:10D4E00000B90125284670BD70B504002BD0504D01
:10D4F0002868844231D001F01BF92046FFF7DCFF99
:10D50000E8B1201DFEF70AFFE06A01212A69814087
:10D5100011432961494900EB800001EB8000211D86
:10D52000FEF7D8FEE06A2968C96A884207D34149F4
:10D530004FF080500860BFF34F8FBFF36F8FBDE88F
:10D54000704001F00FB940F2AB62AFF24C31AFF274
:10D550003C30BDE8704006F051B970BD2DE9F04196
:10D560000026040007D140F2E262AFF26C31AFF264
:10D570005C3006F043F901F01AF95020EFF3118501
:10D5800080F31188BFF34F8FBFF36F8F2046FFF7F3
:10D5900093FFF0B1264F386B20B1274804F11801F2
:10D5A000283814E0E06A3968C96A884200D3012645
:10D5B000201DFEF7B3FEE06A01213A698140114364
:10D5C00039611E4900EB800001EB8000211DFEF750
:10D5D00081FE85F31188304666E4184E4FF0805482
:10D5E000144D00F06BFD30680128FAD92C60BFF3B0
:10D5F0004F8FBFF36F8FF4E71CB50D4800242C301C
:10D60000CDE90040234682220DA10F48FFF74EFCD2
:10D61000012803D100F06DFE01281BD0401C2BD146
:10D6200040F28472AFF22841AFF2184002B00DE030
:10D630008C02002004ED00E048110020780E00204C
:10D6400049444C4500000000DBD50008BDE810400F
:10D6500006F0D4B8502080F31188BFF34F8FBFF38A
:10D660006F8FFA484FF0FF31816201214161C46040
:10D67000BDE81C4001F01AB81CBD502080F3118891
:10D68000BFF34F8FBFF36F8FF0490020486101F067
:10D6900043B8EE48C068704710B501F088F8EB4811
:10D6A000C06810BDE9488068704710B510B10446E5
:10D6B0001CB10AE0E5480468FAE740F68D02AFF2D3
:10D6C000C041AFF2B04006F099F804F1340010BD4B
:10D6D0002DE9F0471E4691460C4607000ED0054640
:10D6E00005F13400C4E90050E86A2061286BE0616C
:10D6F000686CA060207B032803D00AE0D34805684B
:10D70000EEE7FFF736FDA86A08B102202073FFF7A5
:10D71000A2FC4FF00008E86CC4E90508052E01D012
:10D72000267303E03846FFF7A4FD2073B9F1000F1C
:10D730000AD00021286B01E0401C491C0278A52A70
:10D74000FAD088082084DFE4A4F82080DCE42DE906
:10D75000F0478146086892460C460025F8B14868B3
:10D7600001F1080640684860B04201D14068486055
:10D77000D0F80C80606842686260B24201D15168A2
:10D780006160606805EBC50109EB8101C76853461C
:10D7900001223846FFF79CFF6D1C4745EAD1284619
:10D7A000B2E42DE9F04717460A4606460024202534
:10D7B000FFF7DFFCDFF89482D8F8080082423AD302
:10D7C000DFF88C926D1E05EB850104EBC40009EBBC
:10D7D000810106EB80000122FFF7B9FF0444002D10
:10D7E000F0D104EBC40006EB800002224546D8F8D5
:10D7F0003410FFF7ACFF044404EBC40006EB8000D8
:10D800000222A96BFFF7A3FF044404EBC40006EB5C
:10D81000800004228F49FFF79AFF04448D4904EBEE
:10D82000C40006EB800003221431FFF790FF04448C
:10D830000FB100203860FFF70EFC204664E470B59D
:10D840000D46040007D140F60732AFF24C61AFF24B
:10D850003C6005F0D3FF7D48016820461831FEF793
:10D8600045FD2846BDE8704001214FE42DE9F04117
:10D8700017460E46050007D140F61832AFF2806118
:10D88000AFF2706005F0BAFF704C206B38B940F60B
:10D890001C32AFF29461AFF2846005F0AFFF2168F3
:10D8A00046F000408861216828461831FEF712FDD5
:10D8B0003846BDE8F041012128E470B514460E4613
:10D8C000050007D140F63232AFF2CC61AFF2BC6056
:10D8D00005F094FF5D48016828461831FEF7FAFC10
:10D8E0000CB14FF0FF3621463046BDE870400DE4E4
:10D8F0002DE9F041C068C4683CB940F66232AFF22D
:10D900000071AFF2F06005F079FF04F118000746EE
:10D91000FEF704FD4D4D286B012660B14D48394698
:10D920001438FEF7D7FCE06A2968C96A884212D920
:10D930000120EE611CE4201DFEF7F0FCE06A2A697C
:10D9400006FA00F111432961414900EB800001EB27
:10D950008000211DE5E700200AE470B53B4D064636
:10D960000C46286B38B940F69A32AFF26C71AFF2C0
:10D970005C7005F043FF44F000403060F4683CB94F
:10D9800040F6A232AFF28871AFF2787005F036FF40
:10D990003046FEF7C3FC201DFEF7C0FCE06A0126FE
:10D9A0002A6906FA00F111432961294900EB800038
:10D9B00001EB8000211DFEF78DFCE06A2968C96A31
:10D9C000884202D90120EE6170BD002070BD10B503
:10D9D000040007D140F6C232AFF2DC71AFF2CC7076
:10D9E00005F00CFF1948016A2160C068606010BD35
:10D9F00070B50D46040007D140F6CC32AFF60001F9
:10DA0000AFF2F07005F0FAFE3DB940F6CD32AFF658
:10DA10001001AFF6000005F0F1FE00F089FE0B4AA0
:10DA2000D06829684B1C0FD02368126A934202D039
:10DA30006268824210D96268801A88420CD2081A41
:10DA400028602046FFF7C3FF002406E08C02002078
:10DA5000780E002034110020012400F083FE2046BF
:10DA600070BDFF490120C8617047002800D0806C5C
:10DA70007047002800D081647047F94800687047FB
:10DA8000F748416919B1006B18B1002070470120B7
:10DA900070470220704770B5040039D0F04DE06A3D
:10DAA0002968C96A884233D2A069002804DB286843
:10DAB000C06AC0F12000A061E06AEA4E00EB80007D
:10DAC000616906EB800081421FD1201DFEF726FC14
:10DAD000012150B9E06A00EB800256F8222022B9F9
:10DAE0002A6901FA00F082432A612868C06AE0626C
:10DAF0002A6981401143296100EB800006EB800018
:10DB0000211DBDE87040FEF7E5BB2868C06AE062F1
:10DB100070BD70B504004FF0000640D0D04D2868AD
:10DB2000844207D040F6C862AFF62C11AFF61C1045
:10DB300005F064FE206D38B940F6CA62AFF64011B8
:10DB4000AFF6301005F05AFE206D401E2065E26CE5
:10DB5000E16A914223D010BB201DFEF7DFFBC149D3
:10DB6000012250B9E06A00EB800351F8233023B959
:10DB70002B6902FA00F083432B61E06CE062C0F194
:10DB80002000A061E06A2B6982401A432A6100EB01
:10DB9000800001EB8000211DFEF79CFB0126304632
:10DBA00070BD2DE9FF41002705460770AC4881682C
:10DBB0000291806800EBC000800000F069FE060062
:10DBC0004BD000220299FFF7ECFDCDE90207384661
:10DBD0003AE000EBC00006EB8001087B01280FD083
:10DBE00002280FD003280FD004280FD00024496842
:10DBF000284605F0EBFF284606F00CF8202109E046
:10DC00005224F4E74224F2E75324F0E74424EEE7F9
:10DC10002954401C0F28FBD32F540544039800EBD4
:10DC2000C00006EB80008268018CCDE90012036918
:10DC300022468DA1284605F0EDFD284605F0EAFFB5
:10DC400005440398401C039002998842C1D304B054
:10DC50003046BDE8F04100F086BEBDE8FF81804956
:10DC600008680A688069D26A0968C2F120028A617C
:10DC700070477B49086818B10868026D521C02653C
:10DC80000868704770B50C46064600F051FD744DAB
:10DC90002868406D80B92968012081F858005CB17E
:10DCA00001212046FFF732FA73494FF08050086097
:10DCB000BFF34F8FBFF36F8F00F054FD00F038FDBE
:10DCC0002868446D002034B116B12968486502E027
:10DCD0002A68611E5165296881F8580000F042FDEC
:10DCE000204670BD2DE9F0411E4615468846074680
:10DCF00000F01EFD5A4C206890F85800022814D0FD
:10DD00002068416DB94341652168012081F85800C0
:10DD10005EB101213046FFF7F9F957494FF08050C5
:10DD20000860BFF34F8FBFF36F8F00F01BFD00F053
:10DD3000FFFC15B12068406D2860206890F85800FD
:10DD400001280DD02068416D21EA080141650125B7
:10DD50002168002081F8580000F004FD28463BE4CB
:10DD60000025F5E72DE9F0411F4690460D460400D9
:10DD70004FF0010607D141F2FE02AFF67C31AFF65B
:10DD80006C3005F03BFD00F0D3FC0FB1606D3860E6
:10DD900094F85800022184F85810B8F1050F0ED2FB
:10DDA000DFE808F00D03060C0A00616D294301E06D
:10DDB000616D491C616502E0022803D06565012898
:10DDC00002D02AE0002628E0201DFEF7A7FA244D05
:10DDD000E06A01212A69814011432961214900EB50
:10DDE000800001EB8000211DFEF774FAA06A38B1B3
:10DDF00041F23612AFF6F831AFF6E83005F0FEFC2E
:10DE0000E06A2968C96A884207D91B494FF08050E7
:10DE10000860BFF34F8FBFF36F8F00F0A3FC304655
:10DE200088E52DE9F0471F46DDF8209092460D4623
:10DE300004004FF0010807D141F26912AFF64041EA
:10DE4000AFF6304005F0DAFC00F0B1FC5020EFF303
:10DE5000118680F31188BFF34F8FBFF36F8F0DE0F2
:10DE60008C020020780E00200925630925750925FC
:10DE7000750925750D0A000004ED00E00FB1606D15
:10DE8000386094F85800022184F85810BAF1050F50
:10DE90000ED2DFE80AF00D03060C0A00616D29437B
:10DEA00001E0616D491C616502E0022803D06565EF
:10DEB000012803D031E04FF000082EE0A06A38B10D
:10DEC00041F2B012AFF6C841AFF6B84005F096FC8B
:10DED0008D4D286B012778B104F118018B48FEF7AE
:10DEE000F9F9E06A2968C96A884216D9B9F1000FC0
:10DEF00012D0C9F8007010E0201DFEF70FFAE06A9A
:10DF00002A6907FA00F11143296100EB800180487A
:10DF100000EB8100211DE2E7EF6186F311884046A6
:10DF200011E42DE9F0418846040007D141F2E412E2
:10DF3000AFF63451AFF6245005F060FC00F037FC2A
:10DF40005020EFF3118780F31188BFF34F8FBFF399
:10DF50006F8F94F85800022184F85810616D491CA5
:10DF6000616501282ED1A06A38B141F20A22AFF6CC
:10DF70007051AFF6605005F041FC634D286B0126EF
:10DF800078B104F118016148FEF7A4F9E06A296844
:10DF9000C96A884216D9B8F1000F12D0C8F80060DB
:10DFA00010E0201DFEF7BAF9E06A2A6906FA00F1CE
:10DFB00011432961564900EB800001EB8000211DCF
:10DFC000E2E7EE6187F31188B4E410B558B1044676
:10DFD00000F0AEFB94F85800022807D0002400F0AF
:10DFE000C1FB204610BD48480468F1E7002084F8D2
:10DFF00058000124F3E72DE9F0470E46DDE90984D6
:10E000001746824691009946089DA522206B05F08F
:10E01000D4FE6FF00301206B01EB8701084420F070
:10E020000707780705D040F22B323AA13EA005F051
:10E03000E5FB00202218315C82F83410315C11B10C
:10E04000401C1028F6D3002684F84360202D00D30E
:10E050001F25E562C4E91356201DFEF738F904F1C7
:10E060001800FEF734F92461C5F120006462A06154
:10E07000666584F858604A465146384600F0F9FA19
:10E080002060B8F1000F01D0C8F8004048E71E48F2
:10E09000416B096829B1416BC968C96849688162E7
:10E0A00070474FF0FF31FAE710B50446006B00F0FF
:10E0B0005AFC2046BDE8104000F055BC70B5134E28
:10E0C000114D14361CE0FFF754F8306820B10024DD
:10E0D000FEF7C1FFA4B901E00124F9E700F028FB35
:10E0E000F068C468201DFEF719F9A868401EA860F2
:10E0F0006868401E686000F035FB2046FFF7D4FFDB
:10E1000068680028DFD170BD8C020020201100203B
:10E11000780E00202E2E5C4672656552544F535C7B
:10E120007461736B732E63004572726F723A25735C
:10E130002C25640D0A00000070B500244160F74DE5
:10E140000061914206D8D11A8269914206D2011D1E
:10E15000286907E09A4203D2994201D3012403E0DF
:10E16000011DE868FEF7C2F8204670BD2DE9FF47A3
:10E170009946DDF830A090460D4606004FF00007A6
:10E1800005D14FF4D372E6A1EBA005F037FBE34CC9
:10E19000206880B1CDE900580296062D11DAFFF70C
:10E1A0006FFC02284FF0000309D000226946206866
:10E1B000FEF7D6F9074604B03846BDE8F087524668
:10E1C000F4E700234A466946FEF7C2FBF2E770B562
:10E1D00086B0D24E53E00198002806DADDE903014B
:10E1E000029A90470198002849DB039C606910B1AE
:10E1F000201DFEF793F805A800F04DF9054601989B
:10E200000A283CD2DFE800F00505053B2738050564
:10E210003B270298A169034601442A462046FFF79E
:10E220008BFF00282BD0616A20468847E0690128CF
:10E2300025D1002000900298A169002342181946B8
:10E240002046FFF793FFD0B940F22132B4A1BAA023
:10E2500005F0D4FA13E00298A06128B94FF44E7289
:10E26000AFA1B5A005F0CAFAA0692B4641191A461C
:10E270002046FFF761FF02E0204600F074FB002318
:10E280001A4601A93068FEF770FA0028A3D106B03B
:10E2900070BDA24CE068016839B1002139B100209D
:10E2A00000F00BF9FFF793FFF4E70121F6E7C068F0
:10E2B0000068F5E710B500F03BFA984C2068A0B96B
:10E2C000A148FDF7F9FFA0481430FDF7F5FF9E487F
:10E2D000E06014302061002210210520FEF770F864
:10E2E000206010B199A1FEF7F4FCBDE8104000F0E9
:10E2F00039BA1CB50024FFF7DDFF8848006868B113
:10E3000086491F20091DCDE9000100234FF48272C8
:10E3100090A19248FEF7CAFD040005D140F23312E5
:10E320007FA185A005F06AFA20461CBD2DE9F047C3
:10E330000746994616460D462C20DDF820A000F031
:10E34000A7FA040014D0B8464F46D1462DB94FF471
:10E35000C67283A188A005F051FAFFF7ABFF04F164
:10E360001801C4F8008081E8E002201DFDF7AFFF2E
:10E37000204622E710B5694C606828B94FF4E8726E
:10E3800067A16DA005F03AFA606810BD10B50400F1
:10E3900005D140F2D91262A167A005F02FFAA06959
:10E3A00010BD10B5040005D140F2E3125CA162A0DB
:10E3B00005F024FA606810BD10B5040005D140F2E4
:10E3C000ED1257A15CA005F019FA206810BD10B538
:10E3D000040005D140F2DA3251A157A005F00EFA3F
:10E3E00000F0A6F9606908B1012400E0002400F003
:10E3F000B9F9204610BD10B5040005D140F2EF3246
:10E4000047A14DA005F0FAF900F092F9246A00F056
:10E41000A9F9204610BD70B50D46040005D140F2A3
:10E42000FF323FA144A005F0E9F900F081F925622F
:10E43000BDE8704000F096B97FB56FF0010401AE01
:10E44000009486E8070035481D4600232A466946A1
:10E450000068FEF77DFA04B070BD2DE9FF412F4C36
:10E4600007469846206815460E4628B940F22B42CA
:10E470002BA131A005F0C2F94FF0FF30CDE9000724
:10E48000CDE902650023424669462068FEF768F838
:10E4900004B0BDE8F08170B50546FFF7FAF81F4EED
:10E4A0000446B068844203D200F070F8012000E016
:10E4B000002028602046B46070BDF8B50D460646C1
:10E4C000FEF757FE6846FFF7E6FF0446009810B1D6
:10E4D000FEF7C1FDF8BD1148ADB101690968D9B1B8
:10E4E0000025311B2A460068FEF714FCFEF7B3FD39
:10E4F0000028EFD124494FF080500860BFF34F8FC0
:10E50000BFF36F8FF8BDA642EBD8FEF7A4FD2146FE
:10E51000304600F06EF8F8BD0125E2E7C8020020A1
:10E520002E2E5C4672656552544F535C74696D655E
:10E5300072732E63000000004572726F723A257389
:10E540002C25640D0A0000005C110020546D7251EE
:10E5500000000000546D72205376630093E20008BF
:10E560002E2E5C4672656552544F535C74696D651E
:10E5700072732E63000000004572726F723A257349
:10E580002C25640D0A00000004ED00E0F8B52F4EC4
:10E5900027E0C068C4680568201DFDF7BFFE616AFA
:10E5A00020468847E06901281BD1A0692844A84279
:10E5B00006D924616060211DF068FDF797FE10E028
:10E5C00000200346014600902A462046FFF7CEFD74
:10E5D00038B940F29232AFF27801AFF2640005F040
:10E5E0000DF9F06801680029D3D13169C6E903103B
:10E5F000F8BDF8B5054615480E46C068C068C46841
:10E60000201DFDF78BFEE069012818D1A0692B467B
:10E61000411932462046FFF78FFD80B100200346A6
:10E62000014600902A462046FFF7A0FD38B94FF476
:10E630000272AFF2D401AFF2C00005F0DFF8616AF8
:10E6400001B02046BDE8F04008470000C8020020A5
:10E6500069484068401C04D0F42268A172A005F00B
:10E66000CDF8502080F31188BFF34F8FBFF36F8F29
:10E67000FEE710B5031F4FF080741C601B1F21F0D4
:10E6800001011960191F6C4B0B60143940380A6086
:10E6900010BD6A484FF47A710068B0FBF1F14FF099
:10E6A000E020491E41610721016170471CB56449A2
:10E6B00008780190FF20087008788DF800009DF818
:10E6C00000004D4A00F0500010700720906007E0F5
:10E6D0009068401E90609DF8000040008DF800009A
:10E6E0009DF800000006F3D4107A000200F4E06008
:10E6F0009060019808705348016841F4700101600E
:10E70000016841F070410160FFF7C3FF00205060D5
:10E71000F1F7E4FD00201CBD37484068B0F57A7F72
:10E7200005D04FF4B57235A13FA005F067B870472A
:10E73000502080F31188BFF34F8FBFF36F8F2E49A6
:10E740004868401C486001280BD13E481C380068CE
:10E7500010F0FF0F05D04FF4BD7228A132A005F0D4
:10E760004DB8704710B5244C606828B940F281124A
:10E7700022A12DA005F042F86068401E606001D122
:10E7800080F3118810BD10B5502080F31188BFF3BD
:10E790004F8FBFF36F8FFEF701FC20B129494FF077
:10E7A00080501C390860002080F3118810BD10B51E
:10E7B000F1F7CAFD104C10280CD300F1E02090F8BE
:10E7C000F0032178884205D24FF42A720BA116A0DB
:10E7D00005F014F81B4814380068A16800F4E060E4
:10E7E000884207D9BDE810404FF42E7203A10EA055
:10E7F00005F004B810BD0000DC0200202E2E5C469F
:10E8000072656552544F535C706F727461626C65CF
:10E810005C525644535C41524D5F434D335C706FC4
:10E8200072742E63000000004572726F723A257395
:10E830002C25640D0A00000051E6000804000020A9
:10E8400000E400E020ED00E030B5744900E011463E
:10E850000A688242FBD34B685C18844203D140684B
:10E8600018444860084643681C18944209D16B4C10
:10E87000103C2468A24209D052681A4442600A68D7
:10E8800012680260814200D0086030BD0460F9E780
:10E890002DE9F04105460026FEF76BFC5F4F103F67
:10E8A000386808B900F098F8F86805424ED1002D94
:10E8B0004CD0083568070BD005F00700C0F1080000
:10E8C0000544680704D0BF2255A15FA004F096FF5D
:10E8D000002D3BD07868854238D8504908460468F6
:10E8E00001E0214604466068A84202D22068002860
:10E8F000F7D13868B846844228D00E68206808608E
:10E9000060680836401B10280ED96719780704D0B4
:10E91000EC2243A14CA004F071FF6068401B7860BA
:10E9200038466560FFF790FF6168D8F804004246FA
:10E93000401AC8F80400D8F80830984200D2906015
:10E94000D8F80C0001430020C4E90001FEF783FB66
:10E95000700705D04FF4967231A13BA004F04EFF32
:10E960003046BDE8F08170B500282BD02B4DA0F1CA
:10E970000804103D6068E968084205D14FF4A072B0
:10E9800027A131A004F03AFF206828B140F24112DB
:10E9900023A12DA004F032FF6068E968084211D07D
:10E9A0002268002A0ED188436060FEF7E2FB6068AF
:10E9B0006968084468602046FFF746FFBDE870407C
:10E9C000FEF749BB70BD15481038406870471348C2
:10E9D00010388068704770471F484FF4A0414207C5
:10E9E00006D0C01D1C4920F00700411AC1F5A04106
:10E9F0000A4A00230144C2E900030839103A21F011
:10EA0000070111604B600B600B1AC0E900139360A3
:10EA10004FF000405360D06070470000F8020020C3
:10EA20002E2E5C4672656552544F535C706F727443
:10EA300061626C655C4D656D4D616E675C686561BA
:10EA4000705F342E630000004572726F723A257356
:10EA50002C25640D0A00000084110020FE49C1F835
:10EA6000E80070472DE9F04FDFF8ECB300260446CC
:10EA700085B0174698468A463546B146DBF8AC0065
:10EA800009F097FC3A46434609F0BEFC7ED3DBF81A
:10EA9000B00009F08EFC3A46434609F0EFFDF5D38D
:10EAA000B4F90000B4F90610401A09F082FC3A46A5
:10EAB000434609F0A9FC00D20126B4F90E00B4F9CE
:10EAC0001410401A09F075FC3A46434609F09CFCC4
:10EAD00000D2761CB4F91C00B4F92210401A09F0D7
:10EAE00068FC3A46434609F08FFC00D2761CDB4BAB
:10EAF000012E4BDC00223846414609F0C1FC074696
:10EB00000E46B4F90000B4F90610401A09F051FCA1
:10EB10003A46334609F0B2FD00D20125B4F90E00A1
:10EB2000B4F91410401A09F044FC3A46334609F08F
:10EB3000A5FD00D26D1C31463E460F46B4F91C00BF
:10EB4000B4F92210401A09F034FC32463B4609F071
:10EB500095FD00D26D1C002D03DD022005B0BDE83F
:10EB6000F08F002606EB460004EB80050390B5F914
:10EB70000A0009F01EFCDAE9047843463A4609F037
:10EB8000A5FE83460091B5F9040000E053E009F0CA
:10EB900010FC43463A4609F099FE5A46009B09F09C
:10EBA0006FFC83460291B5F9080009F002FCDAE92E
:10EBB000027843463A4609F089FECDE90001B5F9ED
:10EBC000020009F0F6FB43463A4609F07FFEDDE914
:10EBD000002309F055FC80460491B5F9060009F0C0
:10EBE000E8FBDAE900572A463B4609F06FFECDE91B
:10EBF0000001039834F9200009F0DBFB2A463B466C
:10EC000009F064FEDDE9002309F03AFC4246049B6A
:10EC100009F050F95A46029B09F04CF900221346BC
:10EC200009F0F2FB01D209F10109761C032E99DBF0
:10EC3000B9F1020F01DA012090E700208EE7884940
:10EC40000A684B68D00180EAD20080EA031048606D
:10EC50008B68520380EAC30382EA5312520282EAAB
:10EC6000D0208B600860704770B50546FFF7E7FF5E
:10EC70000AF0FCF87B490AF041F96FF01F063146B3
:10EC80000AF019FC08F03EF80446FFF7D8FF0AF036
:10EC9000EDF831460AF00FFC10F0FF4F01D14FF0B4
:10ECA0007E5009F0FDFE08F0EBF800224FF04043E3
:10ECB00009F0E6FB09F0CCF809F056F829460AF00D
:10ECC0001DF92146BDE870400AF018B92DE9FE4F44
:10ECD000054690460E46184609F0E2FECDE90010C2
:10ECE000D6E9302309F0CCFB04460F46404609F034
:10ECF000D7FE0291F5E93023834609F0C1FB224695
:10ED00003B4609F0D7F865E830010024DDE9001042
:10ED1000074606EBC40082460CC8384609F0B0FB33
:10ED200005EBC4078046D7E9002389465846029977
:10ED300009F0A6FB42464B4609F0BCF8C7E90001C2
:10ED4000DDE90010DAE9242309F09AFBD7E924234E
:10ED5000804689465846029909F092FB42464B4646
:10ED600009F0A8F8641CC7E92401062CCEDB0024B6
:10ED7000DDE90010074606EBC400D0E9122338464F
:10ED800009F07EFB05EBC4020746D2E912C38846B0
:10ED9000914658460299624609F072FB3A4643464C
:10EDA00009F088F8641CC9E91201092CE0DB002491
:10EDB000DDE90010074606EBC400D0E90C23384615
:10EDC00009F05EFB05EBC4020746D2E90CC3884696
:10EDD000914658460299624609F052FB3A4643462C
:10EDE00009F068F8641CC9E90C01032CE0DBBDE8FC
:10EDF000FE8F2DE9F04F044691B00F46086809F0E8
:10EE0000D8FACDE90E0105460E46786809F0D1FA28
:10EE100081468A46B86809F0CCFA83468846D4E928
:10EE200030015F460022104B09F044F8C4E930017C
:10EE3000D4E90C012A46334609F03CF8C4E90C0138
:10EE4000D4E90E014A46534609F034F8C4E90E01EC
:10EE500043463A460AE000004064002000000440B7
:10EE600000030020DB0FC9400000F03FD4E910018F
:10EE700009F020F8C4E910012A46334628463146F5
:10EE800009F0FEFACDE90501D4E9002309F012F8F2
:10EE9000C4E900014A4653462846314609F0F0FAD3
:10EEA000CDE90001D4E9022309F004F8C4E9020124
:10EEB00043463A462846314609F0E2FACDE90301D5
:10EEC000D4E9042308F0F6FFC4E904014A46534696
:10EED0004846514609F0D4FACDE90701D4E90623A2
:10EEE00008F0E8FFC4E9060143463A464846514661
:10EEF00009F0C6FAD4E9082308F0DCFFC4E90801E8
:10EF00003A4643461046414609F0BAFAD4E90A2384
:10EF100008F0D0FFC4E90A01DDE905012A463346BD
:10EF200009F0AEFAD4E9122308F0C4FFC4E91201D3
:10EF3000DDE900014A46534609F0A2FAD4E9142358
:10EF400008F0B8FFC4E91401DDE9030143463A467D
:10EF500009F096FAD4E9162308F0ACFFC4E91601CB
:10EF6000DDE900012A46334609F08AFAD4E918237C
:10EF700008F0A0FFC4E91801DDE9070153464A463D
:10EF8000CA461F46CDE9000109F07AFACDE9021020
:10EF9000D4E91A2308F08EFFC4E91A015D464346FE
:10EFA00046465A465046394609F06AFA8346334681
:10EFB0002A46049109F064FAD4E91C2308F07AFF88
:10EFC000C4E91C01DDE90E839946424631462846D4
:10EFD00009F056FA42464B4609F052FAD4E91E238C
:10EFE00008F068FFC4E91E01584652463B460499A2
:10EFF00009F046FAD4E9202308F05CFFC4E92001B7
:10F000002A4633461046314609F03AFA33462A4634
:10F0100009F036FACDE90601D4E9222308F04AFFC7
:10F02000C4E9220142464B464046494609F028FAC7
:10F03000834642464B460C9109F022FA42464B4623
:10F0400009F01EFAD4E9242308F034FFC4E92401AE
:10F05000DDE9021052463B4609F012FAD4E92623B4
:10F0600008F028FFC4E92601DDE9060133462A46F7
:10F0700009F006FAD4E9282308F01CFFC4E92801A6
:10F08000584652463B460C9909F0FAF952463B461F
:10F0900009F0F6F9D4E92A2308F00CFFC4E92A01A3
:10F0A000584633462A460C9909F0EAF933462A466F
:10F0B00009F0E6F9D4E92C2308F0FCFEC4E92C01A0
:10F0C000DDE9000133462A4609F0DAF933462A46DB
:10F0D00009F0D6F9D4E92E2308F0ECFEC4E92E019C
:10F0E00011B03CE52DE9F74F0446B8B0D4E90C0166
:10F0F00002460B46CDE9040109F0C2F9D4E9002328
:10F10000CDE90C23D4E930560746884628463146D7
:10F1100009F0B6F943463A4609F0D8FBCDE90201B9
:10F12000D4E90E0102460B46CDE91A0109F0A8F90F
:10F13000D4E906230746884628463146CDE9102300
:10F1400009F09EF943463A4609F0C0FBCDE90001BB
:10F15000D4E9100102460B46CDE90E0109F090F901
:10F16000D4E90A230746884628463146CDE91423C8
:10F1700009F086F943463A4609F0A8FBCDE90801B3
:10F18000DDE91A210B46DDE9040109F079F9D4E93A
:10F190000223074688462846314609F071F943465E
:10F1A0003A4609F093FB3491DDE90E2182460B4685
:10F1B000DDE9040109F064F9D4E90423074688462F
:10F1C0002846314609F05CF93A46434609F07EFB91
:10F1D0008946DDE90E2183460B46DDE91A0109F077
:10F1E0004FF9D4E90823074688462846314609F0F6
:10F1F00047F93A46434609F069FB07468846DDE988
:10F200000401DDE9142309F03BF9CDE90A01D4E951
:10F2100016232846314609F033F9CDE91601DDE918
:10F220000401DDE9102309F02BF9CDE91201D4E93D
:10F2300014232846314609F023F9CDE90601DDE91A
:10F240000401DDE90C2309F01BF9CDE90401D4E93F
:10F2500012232846314609F013F9DDE9042309F0A9
:10F2600035FBDDE9062308F025FEDDE9122309F070
:10F270002DFBDDE9162308F01DFEDDE90A2309F068
:10F2800025FB4FF0FF320AF0E8F8CDE92601DDE971
:10F290001A01DDE9142309F0F3F8CDE91601D4E9E8
:10F2A0001C232846314609F0EBF8CDE91201DDE9CF
:10F2B0001A01DDE9102309F0E3F8CDE90A01D4E9E8
:10F2C0001A232846314609F0DBF8CDE90601DDE9CD
:10F2D0001A01DDE90C2309F0D3F8CDE90401D4E9E2
:10F2E00018232846314609F0CBF8DDE9042309F05C
:10F2F000EDFADDE9062308F0DDFDDDE90A2309F07A
:10F30000E5FADDE9122308F0D5FDDDE9162309F061
:10F31000DDFA4FF0FF320AF0A0F8CDE90401DDE993
:10F320000E01DDE9142309F0ABF8CDE90A01D4E9B7
:10F3300022232846314609F0A3F80DF1380CCDE917
:10F3400006019CE80F0009F09BF8CDE91001D4E913
:10F3500020232846314609F093F8CDE91201DDE972
:10F360000E01DDE90C2309F08BF8CDE90C01D4E99D
:10F370001E232846314609F083F8DDE90C2309F005
:10F38000A5FADDE9122308F095FDDDE9102309F067
:10F390009DFADDE9062308F08DFDDDE90A2309F079
:10F3A00095FA4FF0FF320AF058F837910546DDE93B
:10F3B0000201DDE9002309F063F8DDE9082309F023
:10F3C0005FF8CDE90601DDE902013A46434609F05E
:10F3D00057F83A46434609F053F8CDE90A01DDE90A
:10F3E00000015A464B4609F04BF85A464B4609F085
:10F3F00047F8CDE90C010122504634990AF02DF866
:10F400005A464B4609F03CF83A46434609F038F86C
:10F4100006460E91DDE908015246349B09F030F8AA
:10F420005246349B09F02CF832460E9B09F04EFAF6
:10F43000DDE90C2308F03EFDDDE90A2308F03AFD82
:10F44000DDE9062309F042FA00221346CDE90C015A
:10F4500008F044FF7ED03A4643465046349909F0BE
:10F460000FF82A46379B09F00BF8CDE90A01DDE9D0
:10F4700008015246349B09F003F8CDE92310DDE979
:10F48000042308F0FDFFCDE90601DDE90001DDE917
:10F49000082308F0F5FFDDE9262308F0F1FFCDE9A8
:10F4A00010013A4643461046194608F0E9FFDDE9E7
:10F4B000262308F0E5FFCDE90E01DDE904233846F7
:10F4C000414608F0DDFF06461291DDE900012A46BB
:10F4D000379B08F0D5FF3246129B09F0F7F95A46E0
:10F4E0004B4608F0CDFFDDE90E2308F0E3FCDDE933
:10F4F000102309F0EBF9DDE9062308F0DBFCDDE978
:10F500000A2309F0E3F9CDE912015A464B46504669
:10F51000349908F0B5FF199106462A46379B08F042
:10F52000AFFFCDE90A01DDE92310DDE9262308F06C
:10F53000A7FFCDE90601DDE90201DDE9082308F0B6
:10F540009FFFDDE9042308F09BFF5A464B46CDE9B7
:10F550000E0100E006E11046194608F091FFDDE9D2
:10F56000042308F08DFFCDE90801DDE92623584684
:10F57000494608F085FFCDE91001DDE902012A4680
:10F58000379B08F07DFFDDE9102309F09FF93A462B
:10F59000434608F075FFDDE9082308F08BFCDDE940
:10F5A0000E2309F093F9DDE9062308F083FCDDE979
:10F5B0000A2309F08BF9CDE90E01DDE90423304679
:10F5C000199908F05DFF06460891DDE900015A46E9
:10F5D0004B4608F055FFDDE9262308F051FFCDE941
:10F5E0000601DDE90201DDE9002308F049FF2A46B2
:10F5F000379B08F045FFCDE90001349B5246104689
:10F60000194608F03DFF2A46379B08F039FFDDE92F
:10F6100026238B460A905046349908F031FF0DF1AD
:10F62000080C054689469CE80F0008F029FF2A4689
:10F630004B4609F04BF93A46434608F021FF5B463A
:10F640000A9A08F037FCDDE9002309F03FF9DDE90B
:10F65000062308F02FFC3246089B09F037F90546CF
:10F660000E46DDE91201DDE90C2308F0DFFC399AD2
:10F6700081468A46C2E90001DDE90E01DDE90C237D
:10F6800008F0D4FC399A07468846C2E90201DDE950
:10F690000C232846314608F0C9FC399A05460E4627
:10F6A000C2E90401D4E9102308F0EAFE0291D4E98A
:10F6B0000E2383463846414608F0E2FECDE90001BC
:10F6C000D4E90C234846514608F0DAFEDDE9002370
:10F6D00008F0F0FB5A46029B08F0ECFB012209F00F
:10F6E000BCFE83460091D4E90001D4E9062308F06A
:10F6F000E1FBD4E90A2308F0DDFB5A46009B09F040
:10F70000E5F8D4E9302308F091FCCDE900012A4660
:10F7100033461046194608F0B3FE04468B463A4677
:10F7200043461046194608F0ABFE05460E464A46CB
:10F7300053461046194608F0A3FE2A46334608F001
:10F74000B9FB5B46224608F0B5FBDDE9002308F073
:10F75000B1FB08F0E3FA3A9AC2E9000101203BB09C
:10F76000BDE8F08F0020FAE72DE9F34F9DB0044685
:10F770001E98D0E9006732463B463046394608F0CD
:10F780007FFED4E90C939A464A4608F079FE4A4631
:10F79000534608F075FE05468846D4E930013246E6
:10F7A0003B46CDE9080108F06BFE32463B46CDE909
:10F7B0000B0108F065FED4E90023CDE9062308F02B
:10F7C0005FFE2A46434609F081F80191DDE90623F0
:10F7D00083463046394608F053FE4A46534608F001
:10F7E0004FFE05468846DDE90B01D4E9122308F0F7
:10F7F00047FE5A46019B08F077FF2A46434608F029
:10F8000059FBCDE9000101223046394609F025FEB9
:10F810001E9ACDE90201D2E9025398462A4608F021
:10F820002FFE4A46534608F02BFED4E90E23CDE9BD
:10F83000042308F025FE83460A91DDE90801012230
:10F8400009F00BFE32463B46CDE9140108F018FEE4
:10F8500043462A46CDE90F0108F012FED4E90223FF
:10F8600008F00EFEDDE9002308F024FB5A460A9B4F
:10F8700009F02CF8CDE900014A4653463046394696
:10F8800008F0FEFDCDE90D01D4E906B35A460A930E
:10F8900008F0F6FD06460F46DDE90B01D4E9142316
:10F8A00008F0EEFDDDE9002308F01EFF32463B467E
:10F8B00008F000FBCDE90001DDE902011E9AD2E962
:10F8C00004631F46324608F0DBFD4A46534608F003
:10F8D000D7FDD4E91023CDE9022308F0D1FD8146FC
:10F8E0008A46DDE90F013B46324608F0C9FDD4E9FE
:10F8F000042308F0C5FDDDE9002308F0DBFA4A46E1
:10F90000534608F0E3FFCDE90001DDE90D01D4E93C
:10F910000A939A464A4608F0B3FDCDE90E01DDE9A7
:10F920000B01D4E9162308F0ABFDDDE9002308F054
:10F93000DBFEDDE90E2308F0BDFACDE90001DDE9CB
:10F9400006016FF0010209F088FDDDE9062308F0E9
:10F9500097FDCDE90C01DDE908016FF0010209F026
:10F960007CFDCDE90E01D4E9242308F089FDDDE911
:10F97000002308F09FFADDE90C2308F0A7FFCDE98A
:10F980000001DDE906232846414608F079FDDDE95E
:10F99000042308F075FDCDE91201DDE908012A46CE
:10F9A000434608F06DFDCDE90B01D4E9182308F0BA
:10F9B00067FDDDE9002308F097FEDDE9122308F07A
:10F9C00079FACDE90001DDE906014FF0FF3209F0D7
:10F9D00044FD5A46CDE916010A9B08F051FDCDE9D8
:10F9E0001A01DDE908014FF0FF3209F036FDCDE9DB
:10F9F0001101D4E92A2308F043FDDDE9002308F0D2
:10FA000059FADDE91A2308F061FFCDE90001DDE9CB
:10FA100006233046394608F033FDDDE9022308F0BD
:10FA20002FFDCDE91A01DDE9080132463B4608F019
:10FA300027FDCDE90601D4E91E2308F021FDDDE90B
:10FA4000002308F051FEDDE91A2308F033FACDE96E
:10FA50000001DDE916014A46534608F011FDCDE9E3
:10FA60000801DDE91101D4E92C2308F009FDDDE9E5
:10FA7000002308F01FFADDE9082308F027FFCDE98D
:10FA800000012A4643461046194608F0F9FCDDE914
:10FA9000042308F0F5FCDDE9042308F0F1FCCDE9CE
:10FAA0001601DDE90B012A46434608F0E9FC5A46F7
:10FAB0000A9B08F0E5FCDDE9002308F0FBF9DDE92D
:10FAC000162308F003FFCDE900015A4628464146B7
:10FAD0000A9B08F0D5FCDDE9042308F0D1FCCDE950
:10FAE0001601DDE90B01D4E91A2308F0C9FCDDE9B0
:10FAF000002308F0F9FDDDE9162308F0DBF9CDE974
:10FB0000000101222846414609F0A7FC32463B4647
:10FB100008F0B6FCDDE9042308F0B2FCDDE90223BD
:10FB200008F0AEFCCDE90801DDE914012A464346A0
:10FB300008F0A6FC32463B4608F0A2FCD4E90823B4
:10FB400008F09EFCDDE9002308F0B4F9DDE90823A4
:10FB500008F0BCFECDE90001DDE90423284641465A
:10FB600008F08EFC4A46534608F08AFC80460D4653
:10FB7000DDE90B01D4E91C2308F082FCDDE9002358
:10FB800008F0B2FD42462B4608F094F90546019173
:10FB90006FF0010258460A9909F05FFC5A460A9B29
:10FBA00008F06EFC80460091DDE90E01D4E92623C1
:10FBB00008F066FC2A46019B08F07CF94246009B4F
:10FBC00008F084FE80460D465A46304639460A9B68
:10FBD00008F056FCDDE9022308F052FCCDE90001F3
:10FBE000DDE90601D4E9202308F04AFC42462B4611
:10FBF00008F07AFDDDE9002308F05CF90546884647
:10FC00004FF0FF3258460A9909F027FC4A465346FE
:10FC100008F036FC83460091DDE91101D4E92E237A
:10FC200008F02EFC2A46434608F044F95A46009B49
:10FC300008F04CFE0546884632463B4610461946BB
:10FC400008F01EFCDDE9022308F01AFCDDE90223BE
:10FC500008F016FC83460091DDE9060132463B467A
:10FC600008F00EFC4A46534608F00AFC2A46434672
:10FC700008F020F95A46009B08F028FE0546884601
:10FC80004A4653463046394608F0FAFBDDE902237E
:10FC900008F0F6FB06460F46DDE90601D4E922230B
:10FCA00008F0EEFB2A46434608F01EFD32463B466E
:10FCB00008F000F9074688466FF0010248465146B1
:10FCC00009F0CBFB4A46534608F0DAFB06460D46E0
:10FCD000DDE90E01D4E9282308F0D2FB3A46434679
:10FCE00008F0E8F81FB032462B46BDE8F04F08F0A8
:10FCF000EDBD30B50446B0F88C0089B00004069024
:10FD0000B4F88E000D4600040790B4F890008834D3
:10FD10000004089002A8F6F798FB029906982B4673
:10FD2000401A06900399079806AA401A079004996A
:10FD30000898401A08902088616A80B2FBF75EFE3E
:10FD400009B030BD2DE9F04786B00D466946FFF792
:10FD5000D0FF002637463446E9466FF00F0A0DF112
:10FD60000C0859F8240009F039F8514609F0A3FBB2
:10FD700048F82400014609F0C1F808F091FE324627
:10FD80003B4608F097F8641C06460F46032CE8DB58
:10FD900007F0C4FF06460F46002458F8240008F078
:10FDA0007FFE32463B4608F041F908F051F855F81D
:10FDB000241008F0A1FE45F82400641C032CECDBA1
:10FDC000686D401C6865FCF794F8E86706B0BDE80C
:10FDD000F0872DE9F0410446FBF798FF40BBFCF7A4
:10FDE00091F8042824D0FE4920460E46FFF7AAFFCA
:10FDF000FC4DD5E95C01814205DB304603F0FDF99D
:10FE00000020C5F87401208E4FF00406C00515D5FA
:10FE100004F11800FBF75CF98009B0F5C87F0AD23D
:10FE2000D5F8B800002850DD401EC5F8B8004AE0FB
:10FE30000120BDE8F081C5F8B86044E0D4F8A01016
:10FE4000D5F81401081A01D4034600E04342E44AFD
:10FE50004FF4A02C583A634505DDD4E929035365D6
:10FE6000C2E913102FE00312D4F8A470D5F81801DA
:10FE70005B43381A01D4864601E0C0F1000EE64526
:10FE800005DDD4F8A800D164C2E914701BE00012AB
:10FE900000FB0033D4F8A800D5F81C11401A01D497
:10FEA000014600E0414261450DDC001200FB0030DC
:10FEB000B0F5403FB4DBA034C5F8B86094E80B005F
:10FEC0004C3282E80B000020B3E70220B1E72DE9B5
:10FED000F04F93B0C34CD0E90023D4F8A81004EB42
:10FEE000C101C1E90023D4F8A810491CC4F8A81026
:10FEF000D0E9022304EBC101C1E90023D4F8A81022
:10FF0000491CC4F8A810D0E9042304EBC100C0E9DF
:10FF10000023D4F8A800401CC4F8A800152802DB70
:10FF20000020C4F8A8001822AE490CA803F0D6FEA1
:10FF30001822AC4904A803F0D1FE01260DF13009C6
:10FF40000DF1100AA346002406EB460808EB040155
:10FF50000BEBC10509EBC407D5E90023D7E9000184
:10FF600008F08CFB03D2D5E90001C7E90001D5E90F
:10FF700000230AEBC407D7E9000108F045FA03D2D1
:10FF8000D5E90001C7E90001641C032CDEDB761C07
:10FF9000072ED8DBDDE90401DDE90C2308F096FC2F
:10FFA00005460C46DDE90601DDE90E2308F08EFC6E
:10FFB0002A46234608F028FA02D22846214605E0C0
:10FFC000DDE90601DDE90E2308F080FC05460C465C
:10FFD000DDE90801DDE9102308F078FC2A46234614
:10FFE00008F012FA04D213B028462146BDE8F08F7B
:10FFF000DDE90801DDE9102313B0BDE8F04F08F09A
:020000040801F1
:1000000065BC2DE9F0419CB0064600240E945520B5
:10001000CDE90F401190744D0AA8FBF7E1FE12A93B
:100020000AA8FBF700F816AA0EA912A8FAF7A3FF70
:100030006A460AA916A8FAF79EFF01986B4F00F5C9
:1000400096700190029800F596700290039800F562
:10005000967003903846FEF707FE08F083FE01997C
:10006000084401903846FEF7FFFD08F07BFE029938
:10007000084402903846FEF7F7FD08F073FE039936
:1000800008440390304601A9FEF7B3FED6E93001DB
:100090000022574B08F0F2FA35D21AAA04A93046CA
:1000A000FFF720F878B3DFF84C81DDE90801002282
:1000B000434608F00BFC02460B4608F0E1F9064601
:1000C0000F46DDE906010022434608F0FFFB024629
:1000D0000B4608F0D5F904460D46DDE9040100227F
:1000E000434608F0F3FB02460B4608F0C9F92246E6
:1000F0002B4607F0DFFE32463B4607F0DBFE07F0FB
:100100000DFE04460D461CB020462946BDE8F041D0
:100110000022394B07F08ABF10B5E821374803F0B9
:1001200076FE3048364920F8BC1F4A0CC280C18197
:100130008282818342842B48E821E83803F067FEFD
:1001400028490020C1F8B40010BD2DE9F04F254F1B
:100150000446C5B0006BC7F8A0012046FFF739FE82
:1001600000287DD1D7F8941107F1BC003D900129FA
:1001700011D1B4F98C004090B4F98E004190B4F9DB
:100180009000429040A91D48FEF733FE04F18C0117
:100190003D9800F023FBD7F80801002802DD401E3F
:1001A000C7F8080115480022E8381346D0E9305155
:1001B000284608F063FA7CD21049E822E8396846FC
:1001C00003F08CFD0D4840A9E838FEF712FE0B49FC
:1001D0003EAA2039A1F1C8004391FEF783FF11E048
:1001E000606500204064002000408F4000002841EE
:1001F0000000344000C072400000084070620020DF
:100200000080FFFF002866D0FE484399FFF7ACFA54
:10021000D7E9402305460E46E03708F057FBDFF8E4
:10022000E4B380468946DBE930010022F64B08F052
:100230004DFB02460B464046494607F0F7FE07F0E5
:100240006DFDDBE9308B81468A460022EE4B40464D
:10025000594608F03BFB42465B4608F011F900E0C6
:10026000C1E080468B4601222846314609F0F5F868
:1002700042465B4607F0DAFE07F050FDB86808F02A
:100280000FFC77E8382308F0FBF84A46534608F09D
:10029000BBF803D3D7F80801002822DDE82269461D
:1002A000D84803F01BFDD7F8E800E03708F0F8FB6A
:1002B00000E00FE077E8382308F0E2F84A465346BA
:1002C00008F0A2F84CD24FF4FA7001F07BFD0A203E
:1002D000C7F8080144E0E8226946CA4803F0FEFC7A
:1002E0003EE0D7F8980101283AD1D7F8B400401C75
:1002F000C7F8B4000020FBF702FEDFF808831022E5
:10030000D8E9320109F0A9F808F024F83A90D8E9C0
:100310003401102209F0A1F808F01CF83B90D8E94C
:100320003601102209F099F808F014F83C900321E6
:100330003AA8F6F791F8D8E930010022B34B08F05B
:100340009DF90BD2B24A414613460846FEF7BEFC61
:1003500040464399FFF708FA05460E46C7E940565E
:10036000208EC00509D5B4F87400C00505D5A9488C
:10037000FFF747FE05460E4601E0A74E0025A148BF
:100380000022E830A54BD0E9301C0846614608F051
:100390003BF828D39F493EAA2039A1F1C800029119
:1003A000FEF7A0FE00287DD0D4F8AC0008F001F8DC
:1003B00002460B469A489B4907F038FE804689461C
:1003C0000298FFF784FD82468B4642464B4608F072
:1003D00055F909D20022944B2846314608F014F80A
:1003E00002D2FFF799FE8EE142464B4650465946EF
:1003F00008F00AF87ED200228C4B2846314608F0DD
:1004000003F8F7D27F4E0022E836894BD6E9300157
:1004100008F034F9EED2DFF8ECB100221346DBE944
:10042000300107F05BFF72D130460299FFF79CF96B
:10043000B84607F58077B14603C7D6F8C060D9F84B
:10044000C47004460D4600226F4B3046394608F012
:100450003DFA32463B4608F013F806460F460122A5
:100460002946204608F0F9FF32463B4607F0DEFDFC
:1004700007F054FC04460D46D8F8E80008F010FBDD
:10048000D8E9382307F0FCFF22462B4607F0BCFFD3
:10049000A7D33DAC029994E80D00FEF7E3FA0228D9
:1004A0009FD000E030E100289DD1D8F898010128C4
:1004B00099D10020FBF723FD4C461022F4E93201CC
:1004C00008F0CBFF07F046FF3A90D4E90201102272
:1004D00008F0C3FF07F03EFF3B90D4E9040110226F
:1004E00008F0BBFF07F036FF3C9003213AA8F5F770
:1004F000B3FF01E0FDE00AE00120FBF7FDFC19205D
:1005000003900490059003A8FBF7FFFCE8E0B946D0
:10051000D7F8B40007F04DFFD6E9302307F086FD89
:10052000444A454B08F0AAF8B2D336480299E8305D
:10053000FFF71AF9B246D6F8C060DAF8C470804600
:100540000D460022304B3046394608F0BFF932469E
:100550003B4607F095FF06460F46012240462946D6
:1005600008F07BFF32463B4607F060FD07F0D6FB04
:1005700006460F46D9F8E80008F092FAD9E9382380
:1005800007F07EFF32463B4607F03EFFCCD33DAE40
:10059000029996E80D00FEF765FA00287ED15F46C5
:1005A0005646D7E93623D6E93601C836C83708F0AB
:1005B0008DF902460B4607F063FFD7E90223824616
:1005C0008B46D6E9020108F081F902460B4607F096
:1005D00057FFCDE90001D7E9002376E8320108F0A2
:1005E00075F902460B4607F04BFFDDE9002307F0E3
:1005F00061FC52465B4607F05DFC07F08FFB074647
:100600008A461BE0886100200000F03F00409F40C8
:100610006666E63E58630020000008400000344053
:100620009A9999999999A9410000F83F00001040C2
:1006300000003E400AD7A3703D0AE73FD4F8AC0063
:1006400007F0B7FE3A46534607F01AFF6FF01D0257
:1006500008F003FF04460F4600228D4B08F00EF809
:1006600015D300228B4B2046394608F007F8BFF41B
:10067000B8AED9F8B40007F09CFED6E9302307F0F5
:10068000D5FC4FF03332844B07F0BEFEEFD2D9F8E1
:1006900098014C4601287FF4A4AE00E033E000202E
:1006A000FBF72DFCC4E94085F6E93201102208F081
:1006B000D4FE07F04FFE3A90D6E90201102208F06E
:1006C000CCFE07F047FE3B90D6E90401102208F06B
:1006D000C4FE07F03FFE3C9003213AA8F5F7BCFEAC
:1006E0006E494FF07E530022A1F1E800FEF7EEFACA
:1006F00077E66A4800226A4BD0E930140846214662
:1007000007F0BCFFF4D3002045B06FE470B5654C32
:100710000546D4F80C0110B9284600F08AF8D5F83F
:10072000B01044F6206081420ADAD4F81021114456
:100730008142C4F810114FF0000005DBC4F810012D
:100740002846BDE8704000E570BD04224FF4C87132
:10075000AFF24700F6F754B8AFF24F00F6F79DB886
:100760004E4810B5E821E83803F051FBFFF7D4FC00
:100770004FF4D4714B4803F04AFB4A4C4FF07E5083
:10078000C4F8E80004F5907004F5887402F09FFC4A
:100790000A2020664FF08240E0641E20E066424856
:1007A000A067424860674248E067002010BD10B56E
:1007B000FFF7D6FF002805D1AFF27100BDE8104069
:1007C000FBF768BC10BD10B5AFF2BF00F6F765F8D7
:1007D000AFF28900BDE81040FBF73BBC30B500220A
:1007E000C2EBC20331F9124030F91350AC420ADDBA
:1007F00002EB42040D8820F8245000EB84044D885D
:1008000065808D88A58000EB430331F91240B3F970
:1008100006309C4209DA02EB420300EB83030C88AA
:10082000DC804C881C818C885C81521C032AD7DBBD
:1008300030BD70B51B4DD0F8AC200446EAB1D317DB
:100840000020192102F0A3FF45F8AC0F54F8AC2F9B
:100850000020D317052102F09AFF6860226800206B
:10086000D317962102F093FF07F0A3FDC5E90D0110
:10087000AC3D0120C5F80C0170BD6FF00040C5F81B
:10088000AC00C5F8B0000B498005C5E93801F0E7B8
:1008900000001040000004403333C33F706200206A
:1008A00000409F4040640020CDCCCC3E3333333FEA
:1008B0009A99193FFFFFDF4110B5F949C4074FF07E
:1008C00040434FF0804205D08B66CB66C1E91C32B5
:1008D0008A67CA67840709D5C1F80031C1F80431B5
:1008E000C1E94232C1F81021C1F81421400709D5ED
:1008F000C1F89831C1F89C31C1E96832C1F8A8212A
:10090000C1F8AC2110BD2DE9F14F82B00021029851
:100910008A468946806F00287DD000220020401C36
:100920000428FCDB02984FF0000C00EBC203D3E973
:100930000010A1FB0167D3E9065400FB017701FB1E
:100940000077CDE90067A646AE1B64EB0704AB4613
:100950000327A6FB075804FB078406FB0C44DDE9CC
:100960000067AD197C41A5FB016704FB017405FB21
:100970000045D3E90C47341B65EB0705CDE900457D
:100980005D46A5FB05670324A6FB04580EFB0B7709
:100990000BFB0E7707FB048406FB0C44D3E91263C0
:1009A000761B63EB04034C18A4FB017C40EB0005B1
:1009B00005FB01C504FB0055A7FB014C05FB01C568
:1009C00007FB0055A4FB017C05FB01C504FB00549B
:1009D000F6196341DDE90045AD0045EA9475A400D0
:1009E000A4FB017C05FB01C104FB0014F01B73EBAD
:1009F000040103D50023404263EB0101BAEB00047C
:100A000079EB010301DA82468946521C032A85DB11
:100A10005046494600E010E008F0FBF9A149896B17
:100A200008F0DEF808F0A0FC9D4AD2F80C2203B0D2
:100A30009200BDE8F04F02F097BE002003B00146DF
:100A4000BDE8F08F2DE9F14F0020009A0146926F2A
:100A5000F2B300240022521C042AFCDB009A02EBB1
:100A6000C405AA46D5E90029A2FB023CD5E90676D1
:100A70009E46FB1A0325A3FB057809FB02CC02FB6B
:100A800009CB66EB0B0606FB05854FF0000C03FB5C
:100A90000C5617EB0E03A3FB027C46EB0B0606FB82
:100AA00002C203FB0923DAE90C25BA1AAB4103D5CC
:100AB0000025524265EB0303851A71EB030501DA49
:100AC00010461946641C032CC4DB08F0A2F900E0B0
:100AD0000EE07449896B08F083F808F045FC704A11
:100AE000D2F80C22BDE8F84F02EB420202F03CBE05
:100AF00000200146BDE8F88F2DE9FE43684D804691
:100B00000024D5F810626F4605EBC4013246D1E9E6
:100B1000020102F016FE05EB8401B1F8841009040D
:100B2000401847F8240004F10104032CECDB5C4876
:100B30009821083003F06BF90120FFF7BDFE95F80E
:100B4000E8010199042807D1D5F81802B0F5201F53
:100B500002DD052085F8E801524C0098636AC11A4D
:100B600001D40E4600E01E1A0198A26A801A01D430
:100B7000074601E0019FD71BBE4206DD002901D4D4
:100B8000084606E00098181A03E0002801D50198ED
:100B9000101A029AE16A521A01D4134601E0029B2C
:100BA000CB1A834205DB002A01D4104601E00298EB
:100BB000081AD8F82410FAF7D8F9D5F81812814293
:100BC00006DD03216846F5F7D4FC0220FBF7B0F8F8
:100BD000009860620198A0620298E062BDE8FE831E
:100BE000304AC2E9020170472E4AC2E90601704745
:100BF0002C4AC2E904017047294AD2F8E031036067
:100C0000D2E97402C1E900027047254AD2F8E03106
:100C10000360D2E97602C1E9000270472DE9FE4780
:100C200081460020EA468A6F22B901EB800339F938
:100C30001020DA6701EB800239F91030D46F1D1BE8
:100C40004AF82050136E9D4200DD1566D36E9D421A
:100C500000DAD5660123002422464FEAE578A3FB9B
:100C6000056704FB057403FB0844334602EB4206A8
:100C700001EBC60606EBC00CDCE90076FF18664106
:100C8000CCE90076521C042AE9DB401C0328CADBAD
:100C9000886F401C88670120C1F89000BDE8FE877E
:100CA000E86500204868002030B5002302EB83058A
:100CB00050F823405B1CEC66032BF7DBC2F888106E
:100CC000916F79B1002102EB810450F82130E56F7A
:100CD0005B1B00D55B42256E9D4200DA2366491CF2
:100CE0000329F0DB906F401C90670120C2F8900050
:100CF00030BD10B500210B4600EB8102491CD46EBB
:100D0000D46713660329F7DBD0F8881040F8783FE2
:100D1000C0E9051310BDD0E92210081A704701463A
:100D2000D1E91802824200DB1046896E814200DB65
:100D3000084670472DE9F0478046501E0126864040
:100D40008946C2F12007404602F00EFD04460D46DA
:100D5000404649463A4602F0F4FC3A4602F004FDA9
:100D6000B04203DD641C45F1000505E07142884294
:100D700002DA641E45F1FF3520462946BDE8F087BA
:100D8000F7490020086248628862C86208644864C3
:100D90008864C864086348638863C86308654865F5
:100DA0008865C865704730B5EE4AD2F8483223B13D
:100DB000D2E990542D1A8C4101DAC2E990015B1CF2
:100DC000C2F8483230BD30B5E64AD2F8583223B1C5
:100DD000D2E994542D1A8C4101DAC2E994015B1CCA
:100DE000C2F8583230BD30B5DE4AD2F828322BB1C5
:100DF000D2E98845041B71EB050401DAC2E98801D8
:100E00005B1CC2F8283230BD30B5D64AD2F8383231
:100E10002BB1D2E98C45041B71EB050401DAC2E960
:100E20008C015B1CC2F8383230BD2DE9F047024618
:100E3000CC48012508308046C36E016E046FC91A84
:100E4000436E1B1B8B4200DB1946836ED8F874007F
:100E5000181A884200DB0146C14F6037F86B8842A0
:100E600004DA002400F00AFA204687E7108E0124F5
:100E7000BC4EC0054FF000010ED5D6F8803030686A
:100E8000834209DBB2F87420D20506D5D6F8B0212A
:100E9000824201DB052400E00C4674B3600719D5DB
:100EA000AF48C8388146FFF72EFD000D40EA0130FB
:100EB0000915C6E97601D7E904321B1A8A4102DA1C
:100EC0000025FFF7A1FF9821484602F0A0FF04206B
:100ED000FFF7F2FCE0070ED04046FFF714FDC6E92D
:100EE0007C01D7E906340246181A8C4103DA002542
:100EF0001046FFF778FF284640E7FFE702203DE76E
:100F00001EB5044690F83000C0F38110032804D1C8
:100F10009449201D0831FFF781FE94F87400C0F356
:100F20008110032805D18E4904F14800C839FFF724
:100F300075FED4F8B8008B4AC0F38113A03269461D
:100F4000032B0FD0C0F3411003281AD1002004EB6B
:100F50008003D3F8A0309B1341F82030401C0328B5
:100F6000F5DB09E0002004EB4003B3F98C3041F8D5
:100F70002030401C0328F6DB6846D4F8C010FFF789
:100F800093FE1EBD2DE9F04705460020296BCA05DA
:100F900067D501F05001402900D1012095F8741067
:100FA00001F05001402900D1012095F8B8106D4C96
:100FB00001F05001402900D030B100F05FF900206D
:100FC000C4F8E00184F8E801654ED4F80812E86A34
:100FD0006036814225D0C4F808020A28306B0ADA4C
:100FE00040002060716B491CC4F80C1207F0F6FE3B
:100FF00006F0BAFE04E02060706BC4F80C02B06B1F
:10100000C4F81402D4F80C02C0F11000C4F81002A5
:101010004FF48040C4F8180296F834101920884024
:10102000F0632846FFF76CFF94F8E811DFF834917D
:1010300005274FF0020809F1A009072911D2DFE8BE
:1010400001F0041127305E7E8500D4F8E001411CD8
:10105000C4F8E0110A2804DB00F010F9012084F83C
:10106000E80186E0D4F89800012810D12846FFF75F
:10107000DCFE10B1012803D004E084F8E87101E03F
:1010800084F8E8814846FFF734FEFFF779FE70E008
:10109000032084F8E8012846FFF72EFD00F0EEF863
:1010A00067E02846FFF7C1FEF0B3012861D1B5F82B
:1010B000B8004FF00403C00515D54846FFF72FFED2
:1010C0000146C017C4E97410D6E902C2BCEB0101A5
:1010D000824102DA84F8E87108E04846FFF71BFE17
:1010E000316A884202D384F8E83124E0F4E97601D9
:1010F000FFF769FED4E90601FFF755FE39E0B5F8C0
:10110000B800C0050BD54846FFF709FE0146C017D9
:10111000C4E97410D6E90232591A824108DB284624
:10112000FFF783FE00B100E002E0012803D020E0D9
:1011300084F8E8711DE02846FFF7DEFCD6E70620BC
:1011400084F8E8010120FAF7F3FD0DE02846FFF7E7
:101150006CFE012801D038B10BE084F8E88108E08A
:10116000E8670020E865002000F088F84846FFF7AF
:10117000C0FD002002E610B500214010002802D07A
:1011800001F10101F9DC454C4FF0010001F10101D1
:1011900000FA01F0C4E90C0107F020FE06F0E4FDBE
:1011A000A06394F8341019208840E06310BD10B596
:1011B0004FF418713A4802F02AFE4021374802F0F5
:1011C00026FE0720FFF778FB344840F2DC5100226E
:1011D000C0E906121421C0E902124FF41671C0E9E9
:1011E000041230492E4C01620120C4F8E401192098
:1011F000FFF7C1FF0020C4F8080210BD10B54FF47E
:101200001871274802F003FE0720FFF755FB24481A
:1012100001210022C0F8E41180F8E8110321012027
:10122000F9F774FE07226421AFF2A720BDE8104051
:10123000F5F7E6BA10B50120FAF77AFDAFF2BB2058
:10124000BDE81040F5F729BB10B5FFF7B0FF002847
:1012500005D1AFF25700BDE81040FAF71BBF10BD33
:1012600010B5FFF7E7FFAFF26B00BDE81040FAF7EB
:10127000F0BE0B49D1E97C0170477047084810B5B2
:101280009821083002F0C3FD9821074802F0BFFD05
:10129000BDE810400520FFF70FBB000048680020A4
:1012A000E86500200008AF2F206700202DE9FC5FD3
:1012B0000D460026416B99469246B046002904DB54
:1012C000D0F8BC00032800D10126FF492422081FC2
:1012D00002F036FDFC4FC03F0024C7F8E05007EB9A
:1012E0008400D0F8BC10404607F006FC641C804621
:1012F0000A2CF4DBF54907F073FCF54C80464FF0FF
:10130000C80BC7F8E400BAF1320F21DB4846C7F832
:101310001CB107F063FD00900190EE49284607F0EC
:101320005FFC019907F0EAFD214607F059FC0446ED
:10133000BAF57A7F33DBE8492846009C07F050FC79
:10134000214607F0DBFDE24907F04AFC044626E0AF
:1013500041F2883199FBF1F04042D7F81C1100EBC3
:1013600080004018C7F81C0102D50020C7F81C01F6
:10137000484607F033FD8246D849284607F030FC3E
:10138000514607F0BBFD214607F02AFC0446D7F87A
:101390001C0120B9D7F82801012800D10024D7F872
:1013A000200100B12C46CE49894500D12C4614F0CD
:1013B000FF4F11D04046C7F8E880414607F05EFF76
:1013C00020F00040C74907F065FE22D2D7F8B800E8
:1013D00010F0FF4F03D01CE0D7F8E800EDE7C6B1EE
:1013E0004846C7F81CB106F0E4FF04460E462846FE
:1013F00007F056FB0022BC4B06F018FE224633468F
:1014000007F03EF80022B94B06F010FE06F020FD72
:1014100004462046BDE8FC9F2DE9F04FABB04FF0ED
:10142000000AA94FCDF810A0C03FCDF814A0CDF808
:1014300018A00446D7F82011022003297DD00026E9
:1014400020AD07EB8600D0F8A80007F0C7FC6FF0CE
:101450001D0108F030F845F82600761C042EF0DB5C
:101460000FA8FAF7BDFC24A8FAF792FC964B24AA21
:10147000183B0FA92046279300F0F4F9064604F123
:101480001800F9F725FE82099548D7F830318342D4
:1014900000DB034631462046FFF708FFBB4607F155
:1014A000B806D7F8EC1007F029FD30600BA8FAF762
:1014B00097FC13A90BA8FAF757F883480FAA3C30FA
:1014C0000BA90646F9F757FD31460BA8F9F7ABFD16
:1014D00000210DF13C080DF14C090DF1100E002218
:1014E0001346104601EB410C0CEB000759F827603E
:1014F00008EB8007401C7F680328C6FB0723F3DB4B
:10150000900F40EA83004EF82100491C0329E6DBD6
:10151000DBF820015F4600287DD05046CDF818A0AA
:10152000404207F05BFC6FF01D09494607F0C3FF1E
:1015300005F0E8FBD046564600E074E0CDE9000A2D
:101540000698CDF808A0404207F048FC494607F04D
:10155000B2FF06F01FFB0390D7F8300141F288314B
:1015600090FBF1F04FF0804A07F038FC289029906A
:10157000069807F033FCDFF878B1594607F030FBE6
:10158000299907F02DFB514607F02AFB07F0EAFBEB
:1015900040000690DDF8A0A007F020FC594607F0B7
:1015A000ADFC514607F0AAFC07F0DCFB069007F003
:1015B00015FC494607F07FFF05F0A4FBCDE90706BF
:1015C0000996069807F00AFC494607F074FF06F0F2
:1015D000E1FA0A901CAA694620A8F9F74EFE6A466D
:1015E00007A91CA8F9F749FED4F8BC00EA46002870
:1015F00010DD00261E215AF8260045F8260007F0C7
:101600005AFF07F0AFFB07EB8601761CC1F8A80074
:10161000042EEFDB00E00BE0D4F8BC004FF0FF3508
:1016200003280AD106E0C7F820012BB0BDE8F08FEF
:10163000069875E700F067FEF0B357F8A80F07F0BB
:10164000CDFB4E46494607F036FF1C90786807F000
:10165000C5FB314607F02FFF1D90B86807F0BEFBB1
:10166000314607F028FF1E90F86807F0B7FB3146B7
:1016700007F021FF1F90B86FA83F0028D5D0D7F8FA
:10168000B8002946A83707F016FF05F03BFB1E21DE
:1016900007F011FF07F066FBC7E90008C7F80880EC
:1016A0002946386907F007FF06F074FA1E2107F093
:1016B00002FF07F057FB00E01CE0F860D4F8C01010
:1016C000A83F279844E0000048690020000020411E
:1016D00000409C4500004843000048420000C843C9
:1016E00040420F000E2DB23D000079400088B3400B
:1016F000E10237472946D7F8B80007F0DCFE05F0CD
:1017000001FBCDE90708CDF824802946D7F8B800B9
:1017100007F0D1FE06F03EFA0A906A4607A920A813
:10172000F9F7ABFD6846F9F74AFE002556461E213B
:1017300056F8250007F0BFFE07F014FB07EB850104
:101740006D1CC1F8A800042DF1DBD4F8C010279857
:10175000FAF7C4FAD7F8200100288FD0401E62E7BC
:1017600070B590F8B810664ACC064FF000034FF001
:10177000030101D4C2E94813B0F82041E40509D4BB
:10178000048EE40503D5B0F87440E40502D4C2E940
:1017900048131AE0D2F8341139B1D0E93013C91A1C
:1017A0004FF47A73B1FBF3F105E0D0F8B01044F6D2
:1017B0002064A14202DBC2F830110AE0D2F82C51B9
:1017C0002944C2F82C11A14201DA002070BDC2E9FF
:1017D0004B31FFF721FEF8E710B54FF49C714848F4
:1017E00002F015FB464C4FF080400021C4F8FC008D
:1017F00044F8A80F4248A830FAF770FA4FF47A700C
:1018000060674FF07E50606410BD3D49C1F8EC0048
:10181000002070473A49C1F8280100207047384934
:10182000C1F834010020704704224FF41671AFF262
:10183000CF00F4F7E5BFAFF2D700F5F72EB810B53B
:10184000FFF7CAFF2E490020C1F82801C1F8340172
:10185000AFF22B00BDE81040FAF71CBCAFF2370026
:10186000FAF7F7BB2DE9FF470C4625491546074611
:1018700099463C220C31224802F062FA204950225B
:101880005831A1F1100002F05BFA1D4E95E80700F7
:1018900006F13C031B4D83E807001ECC06F19800BF
:1018A00080E81E00D6F82401401CC6F82401062852
:1018B00002DD0620C6F82401C0F1060407F1A008E5
:1018C00018E006EB04116A4648464831F9F753FB25
:1018D00004EB440006EB80016A464046F9F7AFFB93
:1018E000074625F0004120F0004007F0D3FA00D26F
:1018F0003D46641C062CE4DB04B02846BDE8F087B6
:1019000088680020002474491FB5014610226846EB
:1019100002F09FF9F6489DE80E0080E80E00F549B8
:101920009DF80C0081F8B001002004B010BD1FB577
:10193000EF490EC98DE80E00EE49102291F8B01162
:101940008DF80C10694602F084F90020EDE72DE9CE
:10195000F04F91B000251821684602F058FA002493
:10196000182106A802F053FAE249A046C14691F8B0
:10197000C00101287ED1D1F8B8B1D1F8B4A10022BC
:10198000C2EBC20000EB4001DA4800EB810E9EF88A
:1019900050000F90002863D000215EE05EF82130F7
:1019A000DDE900676D1CD8170E939B197841CDE9CE
:1019B00000300EEB8100EDB243690D93DDE9027C4E
:1019C000DE17DB1946EB0C06CDE90236836ADDE94A
:1019D000047CDE170C93DB1946EB0C06CDE90436CC
:1019E000C06B0E9BDDE9067C83FB0063360C46EA88
:1019F0000346F6194CEB2343CDE906630D9BDDE965
:101A0000087C83FB00634FEA164646EA0346F61954
:101A10004CEB2343CDE908630C9BDDE90A7C83FB97
:101A200000634FEA164646EA0346F6194CEB234399
:101A3000CDE90A6380FB00634FEA164646EA034697
:101A400016EB080849EB23490444584501DA83465C
:101A500002E0504500DD8246491C0F9888429DDC1B
:101A6000521C052A8CDBA348AAEB0B01D0F8BC0161
:101A7000814200E053E052DBA5FB0872E01700262C
:101A80000F9006FB082005FB09000E9084FB041054
:101A9000090C41EA00410014CDE90C0106A800EB55
:101AA000C601D1E90002A0FB05BC02FB05C2002172
:101AB00000FB012C684600EBC601D1E90002A0FB47
:101AC000043802FB04820F9900FB0120190C0CAAB8
:101AD00041EA00494FEA204A92E80B0087EA0102F6
:101AE00083EA000852EA080212D07A1A63EB000374
:101AF000BBEB09006CEB0A0C4FEA0C4141EA1041C8
:101B0000000401F044FE7B4901EB8601C1F8A40109
:101B1000761C032EC2DB7748012180F8B01111B08A
:101B20000020BDE8F08FF8B5724D0E460446D5E9A9
:101B30006D01091A052291FBF2F1301A90FBF1F0C8
:101B4000C0B28DF80000042801D92020F8BDC0EBF8
:101B5000C00000EB400005EB800191F85000052823
:101B600016D0421C81F850209DF80010C1EBC10135
:101B700001EB410105EB810202EB8001CE6323689A
:101B800042F8203060684861A06888620020F8BD93
:101B900001F14003181F1022194602F0D1F89DF8F8
:101BA00000001022C0EBC00000EB400005EB8000FD
:101BB000011D02F0C5F89DF800001022C0EBC00026
:101BC00000EB400005EB800000F11801143002F03A
:101BD000B7F89DF800001022C0EBC00000EB4000F9
:101BE00005EB800000F12C01283002F0A9F8042058
:101BF000BAE730B585B0044603A96846F4F7EFFCB0
