:020000040800F2
:100000000000012025E3000829D4000835D40008A9
:100010003BD4000841D4000847D400080000000089
:100020000000000000000000000000004DD40008A7
:1000300059D400080000000065D4000871D40008FD
:100040006DE300086DE300086DE300086DE3000850
:100050006DE300086DE300086DE300086DE3000840
:100060006DE300086DE300086DE300086DE3000830
:100070007DD4000891D40008A5D40008B9D40008A4
:100080006DE300086DE300086DE300086DE3000810
:100090006DE300086DE300086DE300086DE3000800
:1000A0006DE300086DE300086DE300086DE30008F0
:1000B0006DE300086DE300086DE300086DE30008E0
:1000C0006DE300086DE300086DE300086DE30008D0
:1000D0006DE30008CDD400086DE30008E5D4000806
:1000E0006DE300086DE300086DE300086DE30008B0
:1000F0006DE300086DE300086DE300086DE30008A0
:100100006DE300086DE300086DE300086DE300088F
:100110006DE300086DE300086DE300086DE300087F
:100120006DE300086DE300086DE300086DE300086F
:1001300000000000000000000000000000000000BF
:1001400000000000000000000000000000000000AF
:10015000000000000000000000000000000000009F
:10016000000000000000000000000000000000008F
:10017000000000000000000000000000000000007F
:10018000000000000000000000000000000000006F
:10019000000000000000000000000000000000005F
:1001A000000000000000000000000000000000004F
:1001B000000000000000000000000000000000003F
:1001C000000000000000000000000000000000002F
:1001D000000000000000000000000000000000001F
:0401E0005FF8E0F1F3
:1001E80010B5054C237833B9044B13B10448AFF369
:1001F80000800123237010BDE801002000000000EA
:10020800682A010808B5034B1BB103490348AFF33B
:10021800008008BD00000000EC010020682A0108E9
:1002280081F0004102E000BF83F0004330B54FEA9F
:1002380041044FEA430594EA050F08BF90EA020F0C
:100248001FBF54EA000C55EA020C7FEA645C7FEA9F
:10025800655C00F0E2804FEA5454D4EB5555B8BFC2
:100268006D420CDD2C4480EA020281EA030382EA33
:10027800000083EA010180EA020281EA0303362DC5
:1002880088BF30BD11F0004F4FEA01314FF4801C98
:100298004CEA113102D0404261EB410113F0004FAA
:1002A8004FEA03334CEA133302D0524263EB430361
:1002B80094EA050F00F0A780A4F10104D5F1200EFF
:1002C8000DDB02FA0EFC22FA05F2801841F100015A
:1002D80003FA0EF2801843FA05F359410EE0A5F12E
:1002E80020050EF1200E012A03FA0EFC28BF4CF05F
:1002F800020C43FA05F3C01851EBE37101F0004515
:1003080007D54FF0000EDCF1000C7EEB00006EEB21
:100318000101B1F5801F1BD3B1F5001F0CD34908AB
:100328005FEA30004FEA3C0C04F101044FEA445202
:1003380012F5800F80F09A80BCF1004F08BF5FEA89
:10034800500C50F1000041EB045141EA050130BD69
:100358005FEA4C0C404141EB0101013C28BFB1F57B
:10036800801FE9D291F0000F04BF01460020B1FAC6
:1003780081F308BF2033A3F10B03B3F120020CDA99
:100388000C3208DD02F1140CC2F10C0201FA0CF077
:1003980021FA02F10CE002F11402D8BFC2F1200CDC
:1003A80001FA02F120FA0CFCDCBF41EA0C01904092
:1003B800E41AA2BF01EB0451294330BD6FEA0404DB
:1003C8001F3C1CDA0C340EDC04F11404C4F12002C6
:1003D80020FA04F001FA02F340EA030021FA04F3D8
:1003E80045EA030130BDC4F10C04C4F1200220FA2F
:1003F80002F001FA04F340EA0300294630BD21FA6D
:1004080004F0294630BD94F0000F83F4801306BF32
:1004180081F480110134013D4EE77FEA645C18BF26
:100428007FEA655C29D094EA050F08BF90EA020FBD
:1004380005D054EA000C04BF1946104630BD91EAB5
:10044800030F1EBF0021002030BD5FEA545C05D1B8
:100458004000494128BF41F0004130BD14F58004F7
:100468003CBF01F5801130BD01F0004545F0FE416B
:1004780041F470014FF0000030BD7FEA645C1ABFA0
:10048800194610467FEA655C1CBF0B46024650EAD7
:10049800013406BF52EA033591EA030F41F4002103
:1004A80030BD00BF90F0000F04BF0021704730B589
:1004B8004FF4806404F132044FF000054FF000015E
:1004C80050E700BF90F0000F04BF0021704730B51F
:1004D8004FF4806404F1320410F0004548BF4042F4
:1004E8004FF000013EE700BF42004FEAE2014FEA49
:1004F80031014FEA02701FBF12F07F4393F07F4F24
:1005080081F06051704732F07F4208BF704793F026
:100518007F4F04BF41F40021704730B54FF4607439
:1005280001F0004521F000411CE700BF50EA01023C
:1005380008BF704730B54FF000050AE050EA0102E5
:1005480008BF704730B511F0004502D5404261EB55
:1005580041014FF4806404F132045FEA915C3FF496
:10056800D8AE4FF003025FEADC0C18BF03325FEA33
:10057800DC0C18BF033202EBDC02C2F1200300FAE4
:1005880003FC20FA02F001FA03FE40EA0E0021FA09
:1005980002F11444BDE600BF70B54FF0FF0C4CF4F7
:1005A800E06C1CEA11541DBF1CEA135594EA0C0FA9
:1005B80095EA0C0F00F0DEF82C4481EA030621EAE4
:1005C8004C5123EA4C5350EA013518BF52EA03351F
:1005D80041F4801143F4801338D0A0FB02CE4FF0D1
:1005E8000005E1FB02E506F00042E0FB03E54FF001
:1005F8000006E1FB03569CF0000F18BF4EF0010EF9
:10060800A4F1FF04B6F5007F64F5407404D25FEAF4
:100618004E0E6D4146EB060642EAC62141EA5551A7
:100628004FEAC52040EA5E504FEACE2EB4F1FD0CE9
:1006380088BFBCF5E06F1ED8BEF1004F08BF5FEA67
:10064800500E50F1000041EB045170BD06F0004619
:1006580046EA010140EA020081EA0301B4EB5C04C6
:10066800C2BFD4EB0C0541EA045170BD41F48011BE
:100678004FF0000E013C00F3AB8014F1360FDEBFE3
:10068800002001F0004170BDC4F10004203C35DABF
:100698000C341BDC04F11404C4F1200500FA05F342
:1006A80020FA04F001FA05F240EA020001F00042E3
:1006B80021F0004110EBD37021FA04F642EB060159
:1006C8005EEA430E08BF20EAD37070BDC4F10C0483
:1006D800C4F1200500FA04F320FA05F001FA04F247
:1006E80040EA020001F0004110EBD37041F1000133
:1006F8005EEA430E08BF20EAD37070BDC4F120053E
:1007080000FA05F24EEA020E20FA04F301FA05F2A5
:1007180043EA020321FA04F001F0004121FA04F24D
:1007280020EA020000EBD3705EEA430E08BF20EA1D
:10073800D37070BD94F0000F0FD101F00046400057
:1007480041EB010111F4801F08BF013CF7D041EAD9
:10075800060195F0000F18BF704703F000465200DD
:1007680043EB030313F4801F08BF013DF7D043EAAE
:100778000603704794EA0C0F0CEA135518BF95EA64
:100788000C0F0CD050EA410618BF52EA4306D1D1EB
:1007980081EA030101F000414FF0000070BD50EA0A
:1007A800410606BF1046194652EA430619D094EA94
:1007B8000C0F02D150EA013613D195EA0C0F05D17E
:1007C80052EA03361CBF104619460AD181EA0301D2
:1007D80001F0004141F0FE4141F470014FF000008A
:1007E80070BD41F0FE4141F4780170BD70B54FF025
:1007F800FF0C4CF4E06C1CEA11541DBF1CEA1355A5
:1008080094EA0C0F95EA0C0F00F0A7F8A4EB050486
:1008180081EA030E52EA03354FEA013100F088807D
:100828004FEA03334FF0805545EA131343EA126346
:100838004FEA022245EA111545EA10654FEA0026FB
:100848000EF000419D4208BF964244F1FD0404F5B4
:10085800407402D25B084FEA3202B61A65EB030510
:100868005B084FEA32024FF480104FF4002CB6EBCD
:10087800020E75EB030E22BFB61A754640EA0C004D
:100888005B084FEA3202B6EB020E75EB030E22BF8D
:10089800B61A754640EA5C005B084FEA3202B6EBCE
:1008A800020E75EB030E22BFB61A754640EA9C008D
:1008B8005B084FEA3202B6EB020E75EB030E22BF5D
:1008C800B61A754640EADC0055EA060E18D04FEA1B
:1008D800051545EA16754FEA06164FEAC30343EABB
:1008E80052734FEAC2025FEA1C1CC0D111F4801F88
:1008F8000BD141EA00014FF000004FF0004CB6E781
:1009080011F4801F04BF01430020B4F1FD0C88BF1F
:10091800BCF5E06F3FF6AFAEB5EB030C04BFB6EB2A
:10092800020C5FEA500C50F1000041EB045170BD1D
:100938000EF0004E4EEA113114EB5C04C2BFD4EB4A
:100948000C0541EA045170BD41F480114FF0000ECE
:10095800013C90E645EA060E8DE60CEA135594EA4A
:100968000C0F08BF95EA0C0F3FF43BAF94EA0C0F4D
:100978000AD150EA01347FF434AF95EA0C0F7FF4C2
:1009880025AF104619462CE795EA0C0F06D152EA16
:1009980003353FF4FDAE1046194622E750EA4106FA
:1009A80018BF52EA43067FF4C5AE50EA41047FF40B
:1009B8000DAF52EA43057FF4EBAE12E74FF0FF3C70
:1009C80006E000BF4FF0010C02E000BF4FF0010C41
:1009D8004DF804CD4FEA410C7FEA6C5C4FEA430CBA
:1009E80018BF7FEA6C5C1BD001B050EA410C0CBF09
:1009F80052EA430C91EA030F02BF90EA020F00206B
:100A0800704710F1000F91EA030F58BF994208BFD1
:100A180090422CBFD8176FEAE37040F0010070478E
:100A28004FEA410C7FEA6C5C02D150EA013C07D1E5
:100A38004FEA430C7FEA6C5CD6D152EA033CD3D030
:100A48005DF8040B704700BF8446104662468C462A
:100A58001946634600E000BF01B5FFF7B7FF00285D
:100A680048BF10F1000F01BD4DF808EDFFF7F4FF86
:100A78000CBF012000205DF808FB00BF4DF808ED11
:100A8800FFF7EAFF34BF012000205DF808FB00BF34
:100A98004DF808EDFFF7E0FF94BF012000205DF856
:100AA80008FB00BF4DF808EDFFF7CEFF94BF01200B
:100AB80000205DF808FB00BF4DF808EDFFF7C4FF04
:100AC80034BF012000205DF808FB00BF4FEA410C4D
:100AD8007FEA6C5C02D150EA013C0AD14FEA430C30
:100AE8007FEA6C5C02D152EA033C02D14FF000006D
:100AF80070474FF0010070474FEA410212F50012AB
:100B080015D211D56FF47873B3EB625212D94FEA4C
:100B1800C12343F0004343EA505311F0004F23FA36
:100B280002F018BF404270474FF00000704750EA8B
:100B3800013005D111F0004008BF6FF00040704748
:100B48004FF00000704700BF4A0011D212F50012A2
:100B580011D20DD56FF47873B3EB62520ED44FEA0D
:100B6800C12343F0004343EA505323FA02F070478D
:100B78004FF00000704750EA013002D14FF0FF30CB
:100B880070474FF00000704703685A004CBF43F0AD
:100B9800004323F000431844704700BF2DE9F84391
:100BA80029B34F1E044615463E464FF0000808EB91
:100BB800060101EBD171491004EBC1094846FFF762
:100BC800E3FF0346C80008308F42204409D0AB42F7
:100BD80009D8FFF7D9FF0138A8420AD201F1010864
:100BE800E5E7AB4205D9884501D04E1EDFE74FF057
:100BF80000094846BDE8F883012807D0022807D035
:100C0800044B00280CBF1846002070470248704764
:100C180002487047C5120008C9120008CD12000822
:100C280030B5244B044683B08D1E3BB3284601A93A
:100C3800AFF30080E8B101992A46FFF7AFFF0146FC
:100C4800B8B1FFF7A1FF4B68A064012B2DD0002B92
:100C580026DB081DFFF798FF0023C4E91303036888
:100C6800002B12DBFFF790FF03460020236103B03F
:100C780030BD00230920236103B030BD0E4B0F495E
:100C88001846C91AC9100191D6E7C3F30360FFF7E4
:100C9800B3FF0028206114BF0020092003B030BD35
:100CA8000123081DC4E91303D9E7002305202361A4
:100CB800DDE700BF0000000058440108C04A0108F1
:100CC800036810B5DA07044606D49B0700F148000C
:100CD80009D500F041FC2368590709D51A070ED534
:100CE800DB0613D510BD00F02FFC23685907F5D497
:100CF80004F1D00000F038FC23681A07F0D404F59A
:100D0800A87000F039FC2368DB06EBD404F5E87022
:100D1800BDE8104000F074BC0346006800B11844F8
:100D2800704700BF09207047704700BF70B5044680
:100D38000E462046316CFFF773FF054688B9326CC2
:100D48002146626101203246236998470828F0D07D
:100D5800072806D12846316CFFF7E6FF301D00F062
:100D6800E7FB10F095FC00BF2DE9F04706464FF071
:100D7800000CADF5727D03AD0C1D91460FCC0FC56F
:100D88000FCC0FC50FCC0FC594E80F00F768D6F845
:100D9800188085E80F0002ADC5F800C021E02B6C73
:100DA8004FF4F072736129467AA810F0C1FC3146FD
:100DB80034697AAA5046A047889BCDE90058044672
:100DC8006B644946334632460120B8470346F0B9BA
:100DD8004FF4F07228467AA9994610F0A9FC082C1D
:100DE8001BD13046296CFFF71BFF09F1090904469E
:100DF8005FFA89FA0028D2D0AB6B3246CDE90058A9
:100E080001206B644AF010013346B84700B1092449
:100E180020460DF5727DBDE8F087072CF7D14846CE
:100E2800296CFFF781FF03A800F082FB406C704734
:100E38004FF0FF3CF0B5CB6BF9B00B640E1D01AC65
:100E48000F4605460FCE0FC40FCE0FC40FCE0FC4EA
:100E580096E80F0084E80F00CDF800C006E06A4667
:100E680029462B6998470828044608D1284610992E
:100E7800FFF7D6FE0028F2D0092079B0F0BD684609
:100E8800FFF71EFF062CF7D139462846FFF74EFF1D
:100E980030B4DD6BC160826119461D64002230BC2C
:100EA80062E700BF70B54369C6680B64AEB90A460D
:100EB800036904460D46014602209847072805D0D5
:100EC80008280FD129462046FFF730FF3046296C05
:100ED800FFF72AFF281D00F02BFB0122FFF744FF34
:100EE80010F0D6FB10F0D4FBC2682AB110B4CC6B5A
:100EF80000220C6410BC37E79AE700BF704700BFB8
:100F0800836801460BB1012018477047012912D0A8
:100F180009D873B90F2A0CD800EB8200426818462A
:100F2800009B1A6070470339012994BF01200220F1
:100F38007047022070470846704700BF002310B56D
:100F480084B003AC0A4600941946FFF7DFFF039804
:100F580004B010BD012912D009D873B90F2A0CD8D2
:100F6800009900EB820209681846516070470339FE
:100F7800012994BF012002207047022070470846CB
:100F8800704700BF30B500230D4685B003AC03920F
:100F980019462A460094FFF7DDFF05B030BD00BFB3
:100FA8004FF0FF3CF0B5D36BADF50F7D1364151D05
:100FB80017AC07460E460FCD0FC40FCD0FC40FCD8B
:100FC8000FC495E80F0084E80F00CDF858C012E070
:100FD8000C2116A86A46FFF7D5FF314616A8B84770
:100FE80078B969460820049B16AA9847052804463C
:100FF80008D0092805D068462699FFF711FE002871
:10100800E6D0092416A8FFF75BFE20460DF50F7DF4
:10101800F0BD00BF2DE9F04FCC6C174654F8042BF7
:1010280089B00D461E4600F003080694002B79D0BF
:101038000221130C8DF81D301204DBB204EB83047B
:1010480005928DF81C102B6DB8F1020F08BFAC6B20
:1010580013F001030CD0384605A900F06BFB18B952
:10106800082009B0BDE8F08F092009B0BDE8F08F6D
:10107800D4F800A0BAF1000FEDD0019300F00803F6
:101088000293022E4AD0B4F800A0B4F802900434B7
:10109800AA6C0F21384629F0010B9344FFF74EFF45
:1010A800834539D82AF001025A44824294BF00206D
:1010B80001204FEA490303F002030AF0010A43EA58
:1010C8000A03012B49D0022B32D0002BCCD1B8F126
:1010D800000F02D0002840F0CD800434D4F800A0DE
:1010E800BAF1000FCDD1384605A900F023FB00283E
:1010F800BAD1019B002BB3D00F213846FFF71EFF52
:101108000E2102463846FFF73DFF38460F216A4A4E
:10111800FFF738FF0720A8E70020CAE7D4F80490B3
:101128000834B5E7032312020592ADF81C308AE7AC
:10113800236823F0004BB8F1000F45D128B1029A7B
:10114800002A5CD0BBF1000F74D0002B00DA043405
:101158000BF1010B04EB8B04C0E7B8F1000F19D1B8
:10116800B0B1D4E90023991C4FEAD2723FF47CAFA6
:1011780005F158010133049100F09080201DFFF71C
:10118800CBFD04AB014628460DF090F900285BD151
:101198000834A3E70D213846D5F82090FFF7CEFE96
:1011A8008145F5D1AB6A9C42F2D12046FFF7ECFCB1
:1011B8000F2102463846FFF7E5FE38462A46002149
:1011C800FFF7E0FE072050E70D213846D5F82090BC
:1011D800FFF7B4FE814501D02368B6E7AB6A9C42AD
:1011E800FAD104220021C5E90B12A318C5F828B0CA
:1011F8006B6323688B4259DB01230193A8E705F150
:101208005803CDF80C809146B04604F1040A1E46F6
:101218000EE050460496FFF77FFD0022014604AB1E
:1012280028460DF043F909F101090AF1040AE0B969
:10123800D945EED138460D21FFF780FE049B286280
:10124800C5E90934062010E781460D213846FFF725
:1012580075FEB9F1020F286225D12B46049A43F88E
:101268002C2F6B620620AC62FFE646462368DDF849
:101278000C806AE72046FFF787FC02460434AC631B
:10128800284614460DF070F900283FF4EDAE3846B4
:1012980022460F21FFF776FE0720E6E638460D21A5
:1012A800FFF74CFE2862049B6B62DBE70BF1010041
:1012B80004EB80007AE700BF61EE00080023A9E68E
:1012C8000123A7E60223A5E62DE9F04306461546C5
:1012D8001C46C3B0042900F2B280DFE801F0965042
:1012E800B0270300002C40F0AA80102A00F2A78043
:1012F8000368D80600F1EB8020AF384600F08AF981
:1013080000230120B26B00FA03F129421CBF52F8F6
:10131800041B47F823100133042BF4D13846B26379
:1013280000F06EF9002043B0BDE8F083032C40F0D4
:10133800868094B204EB1243102B4FEA12457ED8F4
:1013480003681F0700F1CB8020AF384600F036F95C
:1013580007EBC501B56B54B10B4601EBC401E81AA4
:10136800E4001A5843F8042B8B42FAD12544384636
:10137800B56300F001F9002043B0BDE8F083012C0B
:101388004FEA124895B256D0052C58D108EB0509FA
:10139800B9F1200F53D8B8F10F0F73D9A946002D12
:1013A80040F08480B36B65B320AF4FF0000907EBC2
:1013B800C807043F03EBC50553F8041BAB4247F8C5
:1013C800041FF9D1B9F1000F0FD06F46414610291B
:1013D80038BF102107EBC101843903EBC90553F865
:1013E800040BAB4241F8040FF9D1012C7FD0B8F1BE
:1013F8000F0FB56342D9B9F1000F02D0684600F06B
:10140800B3F8002043B0BDE8F083C4B923460124F3
:10141800826B371DA8B204FA03F101421CBF52F8CF
:10142800041B47F823100133102BF4D115F4005096
:10143800E7D1B26304E008EB0503102B03D90220BF
:1014480043B0BDE8F083B8F10F0FF8D83368DA0776
:1014580006D5304623F0030340F8483B00F078F8FF
:1014680020AF384600F074F8B36B002D9DD11D46AF
:1014780004353846B56300F067F8C2E720A800F0E5
:101488006BF8B8E7B9F1100F3FD9A9F11009336823
:10149800D90708D5304623F0010343F0020340F88A
:1014A800483B00F05DF8B9F1000F31D033685A07B6
:1014B8001FD4B8F10F0F24D96F46C8F1100538466C
:1014C80000F056F8002DB36B80DD20AF6FE723F0F6
:1014D8001003336006F5E87000F09CF80CE723F081
:1014E8000803036000F5A87000F068F82CE720AF47
:1014F800BEE7304623F0040340F8D03B00F038F84C
:10150800D7E720A800F02CF8D6E74FF00009BEE78F
:10151800B8F10F0F3FF646AF20AF384600F020F87D
:10152800B36B002D7FF441AF384600F015F868E73B
:1015380000F1340191E838009C46A6464CF8045D59
:1015480090E8FF0FE54600BD90EC210B704700BF07
:1015580080EC210B704700BF90EC200B704700BF58
:1015680080EC200B704700BFD0EC200B704700BF09
:10157800C0EC200B704700BFF0EC0201F0EC021148
:10158800F0EC0221F0EC0231F0EC0241F0EC0251F7
:10159800F0EC0261F0EC0271F0EC0281F0EC0291E7
:1015A800F0EC02A1F0EC02B1F0EC02C1F0EC02D1D7
:1015B800F0EC02E1F0EC02F1704700BFE0EC020150
:1015C800E0EC0211E0EC0221E0EC0231E0EC024137
:1015D800E0EC0251E0EC0261E0EC0271E0EC028127
:1015E800E0EC0291E0EC02A1E0EC02B1E0EC02C117
:1015F800E0EC02D1E0EC02E1E0EC02F1704700BF60
:10160800B0FC0181B0FC0191B0FC01A1B0FC01B1BA
:10161800704700BFA0FC0181A0FC0191A0FC01A1C2
:10162800A0FC01B1704700BFEC4600B52DE90050A1
:101638002DE9FF1F4FF000032DE90C0001A9FFF76A
:10164800F7FBDDF840E012B0704700BFEC4600B58C
:101658002DE900502DE9FF1F4FF000032DE90C0084
:1016680001A9FFF71FFCDDF840E012B0704700BF8A
:10167800EC4600B52DE900502DE9FF1F4FF000039F
:101688002DE90C0001A9FFF72FFCDDF840E012B0AE
:10169800704700BFEC4600B52DE900502DE9FF1F4B
:1016A8004FF000032DE90C0001ABFFF7F1FBDDF86B
:1016B80040E012B0704700BFEC4600B52DE900507D
:1016C8002DE9FF1F4FF000032DE90C0001AAFFF7D9
:1016D80067FCDDF840E012B0704700BF027A7AB9C3
:1016E800437AA3B103214268013B10B443721368E3
:1016F800141D01721A024460026010BC180E704773
:101708000368013A02721A020260180E7047B0208C
:10171800704700BF002300B585B003AA00921946A0
:101728000C22FFF7F3FB039805B05DF804FB00BF3C
:10173800F0E700BF2DE9F04305460E464FF00008DC
:1017480085B03046FFF7CAFFB028044600F0B180E4
:10175800070620D500F0F003802B4DD0902B36D013
:10176800A02B60D0B02B73D0C02B00F08A8000F083
:10177800F803D02B0BD100F00702013242F400220B
:10178800052301212846FFF79FFD0028D9D009200D
:1017980005B0BDE8F08300230DF10C0919460D22B0
:1017A8008700CDF800902846FFF7B0FBFFB2039BF7
:1017B800043760064CBFDF1BFF1800230D221946B3
:1017C8002846CDF800900397FFF7C4FBB9E700F06F
:1017D8000D030D2BDBD0002303AF194600F00F02D9
:1017E80000972846FFF792FB00230D22194628464A
:1017F8000097FFF7AFFBA4E73046FFF76FFF24021F
:101808002043B0F5004FC2D00023040119462846F2
:10181800A2B2FFF759FD0028B9D114F4004F18BF40
:101828004FF001088DE7C3434FF47F6203F00703CD
:101838001A410023010702F47F6248BF42F4804244
:1018480019462846FFF740FD00283FF47AAF9EE787
:10185800B12833D0B22800F08B80B32839D000F0FB
:10186800FC03B42B93D0012300F007021A4442F47E
:10187800002219462846FFF727FD00283FF461AFEC
:1018880085E7C62842D0C7284CD000F0F803C02B03
:101898005BD0C82860D0C9287FF479AF3046FFF7FD
:1018A8001DFF020300F00F0002F470220130024312
:1018B80066E7B8F1000F18D0002069E73046FFF757
:1018C8000DFF024600283FF462AF10F0F003D0D0BD
:1018D8005DE73046FFF702FF0123010300F00F0028
:1018E80001F47021C2180A43C3E703AC43460E2231
:1018F800414628460094FFF709FB284643460F2235
:1019080041460094FFF726FB404641E73046FFF783
:10191800E5FE010300F00F0001F47021421C0323CF
:101928000A43A6E73046FFF7D9FE024600283FF4EF
:101938002EAF10F0F0037FF42AAF04212846FFF7FA
:10194800C3FC00283FF4FDAE21E700F00F0201328E
:10195800032342F420228CE73046FFF7BFFE00F055
:10196800F00200F00F031032013343EA023207E7B6
:1019780000230DF10C090D2219462846CDF80090D8
:10198800FFF7C4FA3046FFF7A9FE02064FF002043B
:101998000CD5039B00F07F00A0400344304603931E
:1019A800FFF79CFE030604F10704F2D40023039A10
:1019B80000F07F0000FA04F402F50172144419469D
:1019C8000D222846CDF800900394FFF7C3FAB8E635
:1019D80010B50324C36C84B05A688DF80C40DC79C8
:1019E80012020833084601A901928DF80D400293AE
:1019F800FFF7A0FE04B010BD08B5FFF799FE806C94
:101A080008BD00BF08B5FFF793FEC06CC379023369
:101A180000EB830008BD00BF10F8012B11F8013B53
:101A2800012A28BF9A42F7D0D01A704780B500AF74
:101A3800084B1B68074A43F010031360032000F0AB
:101A480075FD002000F008F80BF0B8FC00231846DC
:101A580080BD00BF0020024080B582B000AF786032
:101A6800124B1A68124B1B7819464FF47A73B3FB62
:101A7800F1F3B2FBF3F3184600F08DFD0346002B9B
:101A880001D001230EE07B680F2B0AD80022796869
:101A98004FF0FF3000F055FD064A7B6813600023C5
:101AA80000E0012318460837BD4680BD70010020BC
:101AB800080000200400002080B400AF054B1B780C
:101AC8001A46054B1B681344034A136000BFBD4602
:101AD80080BC7047080000200402002080B400AFDA
:101AE800024B1B681846BD4680BC704704020020A4
:101AF80080B584B000AF7860FFF7F0FFB8607B680E
:101B0800FB60FB68B3F1FF3F05D00A4B1B781A4610
:101B1800FB681344FB6000BFFFF7E0FF0246BB68A9
:101B2800D31AFA689A42F7D800BF00BF1037BD46EB
:101B380080BD00BF0800002080B586B000AF786087
:101B48000023FB7500233B610023BB600023FB607F
:101B58007B68002B01D10123CEE07B689B68002BBA
:101B68007B689B6A002B09D17B680022DA627B685C
:101B7800002283F82420786804F01EFD786800F0BD
:101B8800CFFB0346FB757B689B6A03F01003002BB1
:101B980040F0A980FB7D002B40F0A5807B689B6A04
:101BA80023F4885323F0020343F002027B689A620D
:101BB8007B685A687B681B6851498B420AD17B68ED
:101BC800DB69B3F5402F02D07B68DB6904E04FF492
:101BD800002301E07B68DB691A437B681B7B5B00A1
:101BE8001343BA681343BB607B689B68B3F5807F77
:101BF80003D07B689B68012B02D14FF4807300E00F
:101C080000233A6913433B617B681B7D012B19D183
:101C18007B681B7B002B09D17B689B69013B5A03BE
:101C28003B69134343F400633B610BE07B689B6AA9
:101C380043F020027B689A627B68DB6A43F001020A
:101C48007B68DA627B681B685B6823F469417B68A0
:101C58001B683A690A435A607B681B689A68294B73
:101C680013407A681268B9680B4393607B689B6875
:101C7800B3F5807F03D07B689B68012B04D17B6818
:101C88001B69013B1B05FB607B681B68DB6A23F44F
:101C980070017B681B68FA680A43DA627B681B6814
:101CA8009A68194B1340BA689A420BD17B68002294
:101CB800DA627B689B6A23F0030343F001027B68C6
:101CC8009A6218E07B689B6A23F0120343F01002C3
:101CD8007B689A627B68DB6A43F001027B68DA62A0
:101CE8000123FB7507E07B689B6A43F010027B6861
:101CF8009A620123FB75FB7D18461837BD4680BDE7
:101D0800003C0140FDF7E1FFFE0E1FFF80B584B0E7
:101D180000AF78600023FB737B6893F82430012BB5
:101D280001D1022398E07B68012283F82420786897
:101D380000F0A4FA0346FB73FB7B002B40F087807E
:101D48007B689B6A23F4407323F0010343F4807299
:101D58007B689A627B681B68414A934205D1414B74
:101D68005B6803F47023002B15D17B689B6A23F40E
:101D780080127B689A627B681B685B6803F48063E7
:101D8800002B26D07B689B6A23F4405343F480528F
:101D98007B689A621DE07B689B6A43F480127B68CB
:101DA8009A627B681B682F4A934204D07B681B6841
:101DB8002B4A93420DD12B4B5B6803F48063002BB5
:101DC80007D07B689B6A23F4405343F480527B68B6
:101DD8009A627B689B6A03F48053002B06D07B6869
:101DE800DB6A23F006027B68DA6202E07B68002285
:101DF800DA627B68002283F824207B681B686FF016
:101E080002021A607B681B689B6803F46023B3F5C1
:101E1800602F13D17B681B68114A934205D1114B7F
:101E28005B6803F47023002B08D17B681B689A68F1
:101E38007B681B6842F4A0029A600CE07B681B6810
:101E48009A687B681B6842F480129A6003E07B689A
:101E5800002283F82420FB7B18461037BD4680BD3E
:101E6800002801400024014090B587B000AF786099
:101E7800396000237B610023FB6000233B61FFF78F
:101E88002DFE78617B681B689B6803F48073002BC8
:101E98000BD07B689B6A43F020027B689A627B6860
:101EA800002283F824200123C8E07B681B685B6854
:101EB80003F48073002B2AD17B681B68DB6A03F468
:101EC8007003002B23D11AE03B68B3F1FF3F16D013
:101ED8003B68002B07D0FFF701FE02467B69D31A47
:101EE8003A689A420BD27B689B6A43F004027B688B
:101EF8009A627B68002283F8242003239EE07B6893
:101F08001B681B6803F00203002BDDD06CE04D4B0F
:101F18001C68022002F002FE0346B4FBF3F27B6861
:101F28001B681969484B0B40002B18D17B681B684C
:101F3800D968464B0B40002B11D17B681B68196987
:101F4800434B0B40002B08D17B681B68D968414B79
:101F58000B40002B01D1142320E029231EE07B68CD
:101F68001B6819693A4B0B40002B06D17B681B682C
:101F7800D968384B0B40002B0DD07B681B6819695A
:101F8800354B0B40002B08D17B681B68D968324B56
:101F98000B40002B01D1542300E0FC2302FB03F388
:101FA8003B611DE03B68B3F1FF3F16D03B68002B57
:101FB80007D0FFF793FD02467B69D31A3A689A4225
:101FC8000BD27B689B6A43F004027B689A627B6849
:101FD800002283F82420032330E0FB680133FB60F0
:101FE800FB683A699A42DDD87B681B686FF0120279
:101FF8001A607B689B6A43F400727B689A627B680C
:102008001B689B6803F46023B3F5602F15D17B68C8
:102018001B7B002B11D17B689B6A23F480727B6841
:102028009A627B689B6A03F48053002B05D17B6816
:102038009B6A43F001027B689A62002318461C37AA
:10204800BD4690BD70010020244992242449920085
:1020580092244912922449004992240080B483B002
:1020680000AF78607B681B68DB6C18460C37BD4690
:1020780080BC704780B485B000AF786039600023B9
:10208800FB730023BB607B6893F82430012B01D1DC
:102098000223DCE07B68012283F824203B685B682C
:1020A800062B1CD87B681B68596B3B685A6813461B
:1020B8009B001344053B1F2202FA03F3DB4319403C
:1020C8003B6818683B685A6813469B001344053BF5
:1020D80000FA03F27B681B680A435A633CE03B68DA
:1020E8005B680C2B1CD87B681B68196B3B685A68AB
:1020F80013469B001344233B1F2202FA03F3DB43DE
:1021080019403B6818683B685A6813469B0013449B
:10211800233B00FA03F27B681B680A431A631BE03F
:102128007B681B68D96A3B685A6813469B0013444E
:10213800413B1F2202FA03F3DB4319403B6818684E
:102148003B685A6813469B001344413B00FA03F26C
:102158007B681B680A43DA623B681B68092B1CD939
:102168007B681B68D9683B681A6813465B00134490
:102178001E3B072202FA03F3DB4319403B689868C9
:102188003B681A6813465B0013441E3B00FA03F2CF
:102198007B681B680A43DA6019E07B681B68196969
:1021A8003B681A6813465B001344072202FA03F3DC
:1021B800DB4319403B6898683B681A6813465B0024
:1021C800134400FA03F27B681B680A431A613B68F0
:1021D8001B68102B03D03B681B68112B32D17B681E
:1021E8001B681D4A934225D17B681B689B6803F4D2
:1021F8000003002B26D17B681B689A687B681B68E4
:1022080042F400029A603B681B68102B1AD1134BEA
:102218001B68134AA2FB03239A0C13469B00134422
:102228005B00BB6002E0BB68013BBB60BB68002B86
:10223800F9D107E07B689B6A43F020027B689A62C9
:102248000123FB737B68002283F82420FB7B18465C
:102258001437BD4680BC704700240140700100203F
:1022680083DE1B4380B483B000AF78607B689B6AD1
:1022780018460C37BD4680BC7047000080B584B056
:1022880000AF78600023FB600023BB607B681B689D
:102298009B6803F00103012B39D07B681B689A689F
:1022A8007B681B6842F001029A601B4B1B681B4A43
:1022B800A2FB03239B0CBB6002E0BB68013BBB6035
:1022C800BB68002BF9D1FFF709FCF86018E0FFF7AD
:1022D80005FC0246FB68D31A022B11D97B689B6A5E
:1022E80043F010027B689A627B68DB6A43F0010264
:1022F8007B68DA627B68002283F82420012307E0E8
:102308007B681B689B6803F00103012BDFD1002366
:1023180018461037BD4680BD7001002083DE1B4380
:1023280080B584B000AF78600023FB607B681B68D1
:102338009B6803F00103012B27D17B681B689A680F
:102348007B681B6822F001029A60FFF7C7FBF86000
:1023580014E0FFF7C3FB0246FB68D31A022B0DD922
:102368007B689B6A43F010027B689A627B68DB6A31
:1023780043F001027B68DA62012307E07B681B688F
:102388009B6803F00103012BE3D0002318461037A4
:10239800BD4680BD80B485B000AF78607B6803F02F
:1023A8000703FB600C4BDB68BB60BA684FF6FF03A2
:1023B8001340BB60FB681A02BB68134343F0BF635A
:1023C80043F40033BB60044ABB68D36000BF1437D2
:1023D800BD4680BC704700BF00ED00E080B400AF90
:1023E800044BDB681B0A03F007031846BD4680BC94
:1023F800704700BF00ED00E080B483B000AF034633
:10240800FB7197F90730002B0BDBFB7903F01F02F8
:10241800064997F907305B09012000FA02F241F8F2
:10242800232000BF0C37BD4680BC704700E100E0A8
:1024380080B483B000AF03463960FB7197F9073069
:10244800002B0ADB3B68DAB20C4997F90730120116
:10245800D2B20B4483F800230AE03B68DAB2084999
:10246800FB7903F00F03043B1201D2B20B441A7636
:1024780000BF0C37BD4680BC704700BF00E100E0DC
:1024880000ED00E080B489B000AFF860B9607A6010
:10249800FB6803F00703FB61FB69C3F10703042B27
:1024A80028BF0423BB61FB690433062B02D9FB69EF
:1024B800033B00E000237B614FF0FF32BB6902FA67
:1024C80003F3DA43BB681A407B699A404FF0FF3147
:1024D8007B6901FA03F3D9437B680B401343184621
:1024E8002437BD4680BC704780B582B000AF7860A5
:1024F8007B68013BB3F1807F01D301230FE00A4AD7
:102508007B68013B53600F214FF0FF30FFF790FFCE
:10251800054B00229A60044B07221A6000231846D4
:102528000837BD4680BD00BF10E000E080B582B02E
:1025380000AF78607868FFF72DFF00BF0837BD4609
:1025480080BD80B586B000AF0346B9607A60FB7382
:1025580000237B61FFF742FF78617A68B968786980
:10256800FFF790FF024697F90F3011461846FFF71C
:102578005FFF00BF1837BD4680BD80B582B000AF91
:102588000346FB7197F907301846FFF735FF00BF80
:102598000837BD4680BD80B582B000AF78607868E6
:1025A800FFF7A2FF034618460837BD4680BD000066
:1025B80080B485B000AF78600023FB607B68002B97
:1025C80001D1012359E07B681B681A462D4B9A42BA
:1025D8000FD87B681B681A462B4B13442B4AA2FB67
:1025E80003231B099A007B681A647B68284ADA630C
:1025F8000EE07B681B681A46264B1344234AA2FB4D
:1026080003231B099A007B681A647B68224ADA63F1
:102618007B68022283F821207B681B681B68FB60AB
:10262800FB6823F47F5323F03003FB607B685A6810
:102638007B689B681A437B68DB681A437B681B6965
:102648001A437B685B691A437B689B691A437B68FA
:10265800DB691343FA681343FB607B681B68FA68FD
:102668001A607B6800229A637B68012283F8212024
:102678007B68002283F82020002318461437BD46C3
:1026880080BC704707040240F8FFFDBFCDCCCCCC1E
:1026980000000240F8FBFDBF0004024080B586B090
:1026A80000AFF860B9607A603B600023FB75FB6897
:1026B80093F82030012B01D102234AE0FB68012264
:1026C80083F82020FB6893F82130012B3AD1FB686E
:1026D800022283F82120FB6800229A63FB681B68AA
:1026E8001A68FB681B6822F001021A603B687A6866
:1026F800B968F86800F0B0FBFB68DB6A002B08D00B
:10270800FB681B681A68FB681B6842F00E021A60B7
:102718000FE0FB681B681A68FB681B6822F004025C
:102728001A60FB681B681A68FB681B6842F00A029B
:102738001A60FB681B681A68FB681B6842F0010294
:102748001A6005E0FB68002283F820200223FB754D
:10275800FB7D18461837BD4680BD80B485B000AFF4
:1027680078600023FB737B6893F82130022B08D034
:102778007B6804229A637B68002283F82020012367
:1027880020E07B681B681A687B681B6822F00E02D1
:102798001A607B681B681A687B681B6822F0010254
:1027A8001A607B681A6C7B68DB6B012101FA02F204
:1027B8005A607B68012283F821207B68002283F815
:1027C8002020FB7B18461437BD4680BC70470000AC
:1027D80080B584B000AF78600023FB737B6893F802
:1027E8002130022B05D07B6804229A630123FB73F6
:1027F800D6E07B681B681A687B681B6822F00E02AB
:102808001A607B681B681A687B681B6822F00102E3
:102818001A607B681B681A46644B9A4258D97B68D1
:102828001B68634A93424FD07B681B68614A934296
:1028380048D07B681B68604A934240D07B681B681D
:102848005E4A934238D07B681B685D4A934230D019
:102858007B681B685B4A934228D07B681B68534A95
:10286800934220D07B681B68574A934219D07B68F3
:102878001B68564A934212D07B681B68544A93429D
:102888000AD07B681B68534A934202D14FF48053A5
:102898001BE04FF4803318E04FF4807315E01023E9
:1028A80013E0012311E04FF080730EE04FF4801322
:1028B8000BE04FF4803308E04FF4805305E04FF409
:1028C800807302E0102300E00123434A536057E07D
:1028D8007B681B68364A93424FD07B681B68354A31
:1028E800934248D07B681B68334A934240D07B6848
:1028F8001B68324A934238D07B681B68304A93423F
:1029080030D07B681B682F4A934228D07B681B68AD
:10291800264A934220D07B681B682B4A934219D0E1
:102928007B681B68294A934212D07B681B68284A37
:1029380093420AD07B681B68264A934202D14FF41F
:1029480080531BE04FF4803318E04FF4807315E098
:10295800102313E0012311E04FF080730EE04FF4D1
:1029680080130BE04FF4803308E04FF4805305E008
:102978004FF4807302E0102300E00123174A5360EC
:102988007B68012283F821207B68002283F82020BD
:102998007B685B6B002B03D07B685B6B7868984720
:1029A800FB7B18461037BD4680BD00BF8000024043
:1029B800080002401C00024030000240440002406F
:1029C800580002406C000240080402401C04024007
:1029D8003004024044040240000402400000024067
:1029E80080B584B000AF78607B68DB6B1B68FB60E8
:1029F8007B681B681B68BB607B681B6C04229A4061
:102A0800FB681340002B00F0D680BB6803F004037A
:102A1800002B00F0D0807B681B681B6803F0200344
:102A2800002B07D17B681B681A687B681B6822F03B
:102A380004021A607B681B681A469B4B9A4258D955
:102A48007B681B68994A93424FD07B681B68984AF9
:102A5800934248D07B681B68964A934240D07B6873
:102A68001B68954A934238D07B681B68934A934207
:102A780030D07B681B68924A934228D07B681B68D9
:102A8800894A934220D07B681B688E4A934219D0AA
:102A98007B681B688C4A934212D07B681B688B4A00
:102AA80093420AD07B681B68894A934202D14FF44B
:102AB80080431BE04FF4802318E04FF4806315E057
:102AC800402313E0042311E04FF080630EE04FF43D
:102AD80080030BE04FF4802308E04FF4804305E0C7
:102AE8004FF4806302E0402300E00423794A5360F6
:102AF80057E07B681B686D4A93424FD07B681B6820
:102B08006B4A934248D07B681B686A4A934240D01C
:102B18007B681B68684A934238D07B681B68674AA1
:102B2800934230D07B681B68654A934228D07B6803
:102B38001B685D4A934220D07B681B68614A9342B8
:102B480019D07B681B68604A934212D07B681B6867
:102B58005E4A93420AD07B681B685D4A934202D161
:102B68004FF480431BE04FF4802318E04FF4806358
:102B780015E0402313E0042311E04FF080630EE0DA
:102B88004FF480030BE04FF4802308E04FF48043B8
:102B980005E04FF4806302E0402300E004234E4A3E
:102BA80053607B68DB6A002B00F036817B68DB6A48
:102BB8007868984730E17B681B6C02229A40FB6872
:102BC8001340002B00F0F880BB6803F00203002BD1
:102BD80000F0F2807B681B681B6803F02003002B61
:102BE8000BD17B681B681A687B681B6822F00A0295
:102BF8001A607B68012283F821207B681B681A46CB
:102C0800294B9A4273D97B681B68284A93426AD039
:102C18007B681B68264A934263D07B681B68254AF9
:102C280093425BD07B681B68234A934238D07B6809
:102C38001B68224A934230D07B681B68204A934223
:102C480028D07B681B68184A934220D07B681B6891
:102C58001C4A934219D07B681B681B4A934212D0C6
:102C68007B681B68194A93420AD07B681B68184A1C
:102C7800934202D14FF4005336E04FF4003333E06F
:102C88004FF4007330E020232EE002232CE04FF0B5
:102C9800007329E04FF4001326E04FF4003323E0DB
:102CA8004FF4005320E000BF8000024008000240BB
:102CB8001C0002403000024044000240580002401C
:102CC8006C000240080402401C0402403004024028
:102CD8004404024000040240000002404FF4007324
:102CE80002E0202300E002234E4A536057E07B684D
:102CF8001B684D4A93424FD07B681B684B4A9342EE
:102D080048D07B681B684A4A934240D07B681B685E
:102D1800484A934238D07B681B68474A934230D070
:102D28007B681B68454A934228D07B681B68444AE5
:102D3800934220D07B681B68424A934219D07B6833
:102D48001B68414A934212D07B681B683F4A9342F2
:102D58000AD07B681B683E4A934202D14FF4005365
:102D68001BE04FF4003318E04FF4007315E0202304
:102D780013E0022311E04FF000730EE04FF400134C
:102D88000BE04FF4003308E04FF4005305E04FF434
:102D9800007302E0202300E002232E4A53607B6880
:102DA800002283F820207B689B6A002B34D07B6844
:102DB8009B6A786898472FE07B681B6C08229A40CA
:102DC800FB681340002B28D0BB6803F00803002BD6
:102DD80023D07B681B681A687B681B6822F00E0288
:102DE8001A607B681A6C7B68DB6B012101FA02F2BE
:102DF8005A607B6801229A637B68012283F821204C
:102E08007B68002283F820207B681B6B002B04D092
:102E18007B681B6B7868984700BF00BF1037BD46BA
:102E280080BD00BF00040240080002401C000240B0
:102E38003000024044000240580002406C0002404A
:102E480080000240080402401C0402403004024092
:102E5800440402400000024080B485B000AFF8602E
:102E6800B9607A603B60FB681A6CFB68DB6B012118
:102E780001FA02F25A60FB681B683A685A60FB68FC
:102E88005B68102B08D1FB681B687A689A60FB683E
:102E98001B68BA68DA6007E0FB681B68BA689A6062
:102EA800FB681B687A68DA6000BF1437BD4680BCCF
:102EB8007047000080B48BB000AF786039600023A1
:102EC8007B6200233B6279E101227B6A02FA03F309
:102ED800FB613B681B68FA691340BB61BA69FB690F
:102EE8009A4240F068813B685B68A04A93425ED092
:102EF8009E4A934275D89E4A934258D09C4A934220
:102F08006FD89C4A934252D09A4A934269D89A4AB7
:102F180093424CD0984A934263D8984A934246D0F9
:102F2800964A93425DD8122B2AD8122B59D801A25F
:102F380052F823F0B72F0008912F0008A32F00089C
:102F4800E52F0008EB2F0008EB2F0008EB2F0008F7
:102F5800EB2F0008EB2F0008EB2F0008EB2F0008E1
:102F6800EB2F0008EB2F0008EB2F0008EB2F0008D1
:102F7800EB2F0008EB2F0008992F0008AD2F000851
:102F88007F4A934213D02CE03B68DB683B6229E020
:102F98003B68DB6804333B6224E03B68DB6808334A
:102FA8003B621FE03B68DB680C333B621AE03B681E
:102FB8009B68002B02D104233B6213E03B689B68AB
:102FC800012B05D108233B627B68FA691A6109E085
:102FD80008233B627B68FA695A6103E000233B627D
:102FE80000E000BFBB69FF2B01D87B6801E07B686C
:102FF80004337B61BB69FF2B02D87B6A9B0002E02C
:103008007B6A083B9B003B617B691A680F213B691F
:1030180001FA03F3DB431A40396A3B6901FA03F307
:103028001A437B691A603B685B6803F08053002B86
:1030380000F0C180534B9B69524A43F001039361EE
:10304800504B9B6903F00103BB60BB684E4A7B6A27
:103058009B08023352F82330FB607B6A03F00303BA
:103068009B000F2202FA03F3DB43FA681340FB606C
:103078007B68464A93421FD07B68454A934219D0E1
:103088007B68444A934213D07B68434A93420DD0ED
:103098007B68424A934207D07B68414A934201D1F8
:1030A80005230AE0062308E0042306E0032304E0DE
:1030B800022302E0012300E000237A6A02F00302FF
:1030C80092009340FA681343FB602F497B6A9B0880
:1030D8000233FA6841F823203B685B6803F48033C5
:1030E800002B06D02F4B1A682E49BB6913430B607F
:1030F80006E02C4B1A68BB69DB432A4913400B6076
:103108003B685B6803F40033002B06D0254B5A68F4
:103118002449BB6913434B6006E0224B5A68BB69DC
:10312800DB43204913404B603B685B6803F4801322
:10313800002B06D01B4B9A681A49BB6913438B6056
:1031480006E0184B9A68BB69DB43164913408B604D
:103158003B685B6803F40013002B25D0114BDA6839
:103168001049BB691343CB6025E000BF0000321053
:103178000000311000002210000021100000121081
:10318800000011100010024000000140000801403A
:10319800000C0140001001400014014000180140DB
:1031A800001C0140000401400B4BDA68BB69DB439B
:1031B80009491340CB607B6A01337B623B681A681C
:1031C8007B6A22FA03F3002B7FF47EAE00BF00BFB8
:1031D8002C37BD4680BC70470004014080B485B0E0
:1031E80000AF78600B467B807B689A687B881340C9
:1031F800002B02D00123FB7301E00023FB73FB7B50
:1032080018461437BD4680BC704780B483B000AF01
:1032180078600B467B8013467B707B78002B03D04D
:103228007A887B681A6103E07B881A047B681A61D4
:1032380000BF0C37BD4680BC7047000080B584B025
:1032480000AF78607B68002B01D101231BE17B680C
:1032580093F83D30DBB2002B06D17B68002283F85F
:103268003C20786809F0BAFF7B68242283F83D2067
:103278007B681B681A687B681B6822F001021A6069
:1032880001F050FBF8607B685B68814A934207D87D
:10329800FB68804A934294BF01230023DBB206E017
:1032A800FB687D4A934294BF01230023DBB2002BC5
:1032B80001D00123E7E0FB68784AA2FB03239B0CBB
:1032C800BB607B681B685B6823F03F017B681B68F9
:1032D800BA680A435A607B681B681B6A23F03F017F
:1032E8007B685B686A4A934202D8BB68013309E08D
:1032F800BB684FF4967202FB03F3694AA2FB0323EF
:103308009B0901337A6812680B4313627B681B6858
:10331800DB6923F44F4222F0FF027B685B685C495B
:103328008B4219D8FB68591E7B685B685B00B1FB50
:10333800F3F3591C40F6FC730B40002B0AD0FB68D2
:10334800591E7B685B685B00B1FBF3F30133C3F381
:103358000B0351E004234FE07B689B68002B11D1DD
:10336800FB68581E7B6859680B465B000B44B0FB32
:10337800F3F30133C3F30B03002B0CBF012300232A
:10338800DBB212E0FB68581E7B6859680B469B004D
:103398000B4499000B44B0FBF3F30133C3F30B0365
:1033A800002B0CBF01230023DBB2002B01D001232B
:1033B80022E07B689B68002B0ED1FB68581E7B6857
:1033C80059680B465B000B44B0FBF3F30133C3F3BE
:1033D8000B0343F400430FE0FB68581E7B685968F1
:1033E8000B469B000B4499000B44B0FBF3F30133ED
:1033F800C3F30B0343F44043796809681343CB6173
:103408007B681B681B6823F0C0017B68DA697B68EE
:103418001B6A1A437B681B680A431A607B681B682F
:103428009B6823F4034323F0FF037A6811697A68E1
:10343800D26811437A6812680B4393607B681B68F3
:10344800DB6823F0FF017B685A697B689B691A4334
:103458007B681B680A43DA607B681B681A687B68AC
:103468001B6842F001021A607B6800221A647B68BC
:10347800202283F83D207B6800221A637B680022A3
:1034880083F83E20002318461037BD4680BD00BF94
:10349800A08601007F841E00FF083D0083DE1B43D9
:1034A800D34D621080B588B002AFF8600846114667
:1034B8001A4603467B810B463B811346FB80FEF789
:1034C8000DFB7861FB6893F83D30DBB2202B40F0B0
:1034D800D9807B690093192301226D49F86800F0AF
:1034E80071FC0346002B01D00223CCE0FB6893F863
:1034F8003C30012B01D10223C5E0FB68012283F88F
:103508003C20FB681B681B6803F00103012B07D0F4
:10351800FB681B681A68FB681B6842F001021A60A6
:10352800FB681B681A68FB681B6822F400621A6053
:10353800FB68212283F83D20FB68402283F83E2067
:10354800FB6800221A64FB683A6A5A62FB68BA8C04
:103558005A85FB685B8D9AB2FB681A85FB684D4AF1
:10356800DA62F8883A8979897B690193BB6A0093A2
:103578000346F86800F0CCFA0346002B52D001232A
:1035880081E07A69B96AF86800F0F2FC0346002B1A
:103598000DD0FB681B6C042B07D1FB681B681A68ED
:1035A800FB681B6842F400721A6001236BE0FB6839
:1035B8005B6A1A78FB681B681A61FB685B6A5A1CAD
:1035C800FB685A62FB681B8D013B9AB2FB681A853F
:1035D800FB685B8D9BB2013B9AB2FB685A85FB681E
:1035E8001B685B6903F00403042B1BD1FB681B8D6C
:1035F800002B17D0FB685B6A1A78FB681B681A6196
:10360800FB685B6A5A1CFB685A62FB681B8D013BAE
:103618009AB2FB681A85FB685B8D9BB2013B9AB234
:10362800FB685A85FB681B8D002BAAD17A69B96A99
:10363800F86800F0DEFC0346002B0DD0FB681B6C1D
:10364800042B07D1FB681B681A68FB681B6842F4E7
:1036580000721A60012316E0FB681B681A68FB6891
:103668001B6842F400721A60FB68202283F83D2030
:10367800FB68002283F83E20FB68002283F83C2088
:10368800002300E0022318461837BD4680BD00BF5E
:10369800020010000000FFFF80B58CB002AFF86098
:1036A800084611461A4603467B810B463B81134662
:1036B800FB80FEF713FA7862FB6893F83D30DBB2C3
:1036C800202B40F01E827B6A009319230122824935
:1036D800F86800F077FB0346002B01D0022311E2C3
:1036E800FB6893F83C30012B01D102230AE2FB6806
:1036F800012283F83C20FB681B681B6803F0010368
:10370800012B07D0FB681B681A68FB681B6842F02E
:1037180001021A60FB681B681A68FB681B6822F4C0
:1037280000621A60FB68222283F83D20FB68402271
:1037380083F83E20FB6800221A64FB683A6B5A62E1
:10374800FB68BA8E5A85FB685B8D9AB2FB681A854E
:10375800FB68624ADA62F8883A8979897B6A019358
:10376800BB6B00930346F86800F05CFA0346002B35
:1037780001D00123C6E1FB681B8D002B13D1002368
:103788003B62FB681B685B693B62FB681B689B6963
:103798003B623B6AFB681B681A68FB681B6842F45B
:1037A80000721A609AE1FB681B8D012B1ED1FB6821
:1037B8001B681A68FB681B6822F480621A6072B67C
:1037C80000BF0023FB61FB681B685B69FB61FB684A
:1037D8001B689B69FB61FB69FB681B681A68FB68CF
:1037E8001B6842F400721A6062B635E0FB681B8DF4
:1037F800022B1ED1FB681B681A68FB681B6842F421
:1038080000621A6072B600BF0023BB61FB681B68C8
:103818005B69BB61FB681B689B69BB61BB69FB6833
:103828001B681A68FB681B6822F480621A6062B61B
:1038380012E0FB681B681A68FB681B6842F4806228
:103848001A6000237B61FB681B685B697B61FB680E
:103858001B689B697B617B6940E1FB681B8D032BBF
:1038680000F2F980FB681B8D012B23D17A6AB96BB2
:10387800F86800F0FFFB0346002B01D0012341E16B
:10388800FB681B681A69FB685B6AD2B21A70FB682E
:103898005B6A5A1CFB685A62FB681B8D013B9AB233
:1038A800FB681A85FB685B8D9BB2013B9AB2FB688B
:1038B8005A8513E1FB681B8D022B52D17B6A00935A
:1038C800BB6B00220649F86800F07CFA0346002B1F
:1038D80008D0012316E100BF020010000000FFFF1E
:1038E8000400010072B600BFFB681B681A68FB6819
:1038F8001B6842F400721A60FB681B681A69FB684F
:103908005B6AD2B21A70FB685B6A5A1CFB685A621F
:10391800FB681B8D013B9AB2FB681A85FB685B8DBF
:103928009BB2013B9AB2FB685A8562B600BFFB683E
:103938001B681A69FB685B6AD2B21A70FB685B6A1B
:103948005A1CFB685A62FB681B8D013B9AB2FB68E4
:103958001A85FB685B8D9BB2013B9AB2FB685A855E
:10396800BCE07B6A0093BB6B00226849F86800F0F2
:1039780029FA0346002B01D00123C3E0FB681B682A
:103988001A68FB681B6822F480621A6072B600BF6E
:10399800FB681B681A69FB685B6AD2B21A70FB681D
:1039A8005B6A5A1CFB685A62FB681B8D013B9AB222
:1039B800FB681A85FB685B8D9BB2013B9AB2FB687A
:1039C8005A857B6A0093BB6B00225049F86800F067
:1039D800F9F90346002B01D0012393E0FB681B682B
:1039E8001A68FB681B6842F400721A60FB681B685F
:1039F8001A69FB685B6AD2B21A70FB685B6A5A1C68
:103A0800FB685A62FB681B8D013B9AB2FB681A85FA
:103A1800FB685B8D9BB2013B9AB2FB685A8562B624
:103A280000BFFB681B681A69FB685B6AD2B21A7030
:103A3800FB685B6A5A1CFB685A62FB681B8D013B7A
:103A48009AB2FB681A85FB685B8D9BB2013B9AB200
:103A5800FB685A8542E07A6AB96BF86800F00AFB9D
:103A68000346002B01D001234CE0FB681B681A6950
:103A7800FB685B6AD2B21A70FB685B6A5A1CFB6807
:103A88005A62FB681B8D013B9AB2FB681A85FB687A
:103A98005B8D9BB2013B9AB2FB685A85FB681B6839
:103AA8005B6903F00403042B18D1FB681B681A69CF
:103AB800FB685B6AD2B21A70FB685B6A5A1CFB68C7
:103AC8005A62FB681B8D013B9AB2FB681A85FB683A
:103AD8005B8D9BB2013B9AB2FB685A85FB681B8DD4
:103AE800002B7FF4BAAEFB68202283F83D20FB68E8
:103AF800002283F83E20FB68002283F83C20002344
:103B080000E0022318462837BD4680BD04000100A6
:103B180080B588B002AFF860084611461A460346D9
:103B28007B810B463B811346FB80FB681B681A6848
:103B3800FB681B6842F480721A607B6A00933B6AD8
:103B480000224FF00111F86800F03CF90346002B01
:103B580001D001235FE07B89DBB21A46FB681B6852
:103B680002F0FE021A617B6A3A6A2D49F86800F091
:103B780080F90346002B01D001234CE000237B6130
:103B8800FB681B685B697B61FB681B689B697B61E1
:103B98007B697A6A396AF86800F0EAF90346002B0B
:103BA8000DD0FB681B6C042B07D1FB681B681A68D7
:103BB800FB681B6842F400721A6001232BE0FB8843
:103BC800012B05D13B89DAB2FB681B681A6121E039
:103BD8003B891B0A9BB2DAB2FB681B681A617A6AD6
:103BE800396AF86800F0C4F90346002B0DD0FB6869
:103BF8001B6C042B07D1FB681B681A68FB681B68E1
:103C080042F400721A60012305E03B89DAB2FB68CE
:103C18001B681A61002318461837BD4680BD00BFCF
:103C28000200010080B588B002AFF860084611466E
:103C38001A4603467B810B463B811346FB80FB6893
:103C48001B681A68FB681B6842F480621A60FB688C
:103C58001B681A68FB681B6842F480721A607B6AEA
:103C680000933B6A00224FF00111F86800F0AAF8AF
:103C78000346002B01D001239EE07B89DBB21A4664
:103C8800FB681B6802F0FE021A617B6A3A6A4C49BB
:103C9800F86800F0EEF80346002B01D001238BE012
:103CA80000237B61FB681B685B697B61FB681B68A1
:103CB8009B697B617B697A6A396AF86800F058F910
:103CC8000346002B0DD0FB681B6C042B07D1FB6847
:103CD8001B681A68FB681B6842F400721A600123AB
:103CE8006AE0FB88012B05D13B89DAB2FB681B68C7
:103CF8001A6121E03B891B0A9BB2DAB2FB681B6898
:103D08001A617A6A396AF86800F032F90346002BBA
:103D18000DD0FB681B6C042B07D1FB681B681A6865
:103D2800FB681B6842F400721A60012344E03B8977
:103D3800DAB2FB681B681A617A6A396AF86800F0B7
:103D480017F90346002B0DD0FB681B6C042B07D119
:103D5800FB681B681A68FB681B6842F400721A60EB
:103D6800012329E0FB681B681A68FB681B6842F49A
:103D780080721A607B6A00933B6A00224FF001113F
:103D8800F86800F01FF80346002B01D0012313E068
:103D98007B89DBB243F00103DAB2FB681B681A6166
:103DA8007B6A3A6A0649F86800F063F80346002B14
:103DB80001D0012300E0002318461837BD4680BD16
:103DC8000200010080B584B000AFF860B9603B60C4
:103DD8001346FB7125E03B68B3F1FF3F21D0FDF7A7
:103DE8007DFE0246BB69D31A3A689A4202D33B6801
:103DF800002B16D1FB6800221A63FB68202283F887
:103E08003D20FB68002283F83E20FB681B6C43F0D2
:103E18002002FB681A64FB68002283F83C20012317
:103E280023E0BB681B0CDBB2012B0DD1FB681B68C0
:103E38005B69DA43BB6813409BB2002B0CBF0123BC
:103E48000023DBB21A460CE0FB681B689B69DA4367
:103E5800BB6813409BB2002B0CBF01230023DBB2CD
:103E68001A46FB799A42B6D0002318461037BD4649
:103E780080BD80B584B000AFF860B9607A603B60FF
:103E880051E0FB681B685B6903F48063B3F5806FDE
:103E980023D1FB681B681A68FB681B6842F4007230
:103EA8001A60FB681B686FF480625A61FB68002225
:103EB8001A63FB68202283F83D20FB68002283F800
:103EC8003E20FB681B6C43F00402FB681A64FB6825
:103ED800002283F83C20012346E07B68B3F1FF3FD2
:103EE80021D0FDF7FBFD02463B68D31A7A689A4257
:103EF80002D37B68002B16D1FB6800221A63FB688B
:103F0800202283F83D20FB68002283F83E20FB68CE
:103F18001B6C43F02002FB681A64FB68002283F8DC
:103F28003C20012320E0BB681B0CDBB2012B0CD129
:103F3800FB681B685B69DA43BB6813409BB2002BC4
:103F480014BF01230023DBB20BE0FB681B689B69ED
:103F5800DA43BB6813409BB2002B14BF0123002334
:103F6800DBB2002B8DD1002318461037BD4680BD2B
:103F780080B584B000AFF860B9607A602DE0F86869
:103F880000F0CEF80346002B01D001232DE0BB68DA
:103F9800B3F1FF3F21D0FDF7A1FD02467B68D31A9C
:103FA800BA689A4202D3BB68002B16D1FB6800227C
:103FB8001A63FB68202283F83D20FB68002283F8FF
:103FC8003E20FB681B6C43F02002FB681A64FB6808
:103FD800002283F83C20012307E0FB681B685B692B
:103FE80003F08003802BCAD1002318461037BD4642
:103FF80080BD80B584B000AFF860B9607A602DE00C
:10400800F86800F08DF80346002B01D001232DE05D
:10401800BB68B3F1FF3F21D0FDF760FD02467B6826
:10402800D31ABA689A4202D3BB68002B16D1FB6830
:1040380000221A63FB68202283F83D20FB680022D7
:1040480083F83E20FB681B6C43F02002FB681A646F
:10405800FB68002283F83C20012307E0FB681B680B
:104068005B6903F00403042BCAD1002318461037F8
:10407800BD4680BD80B584B000AFF860B9607A6095
:1040880042E0FB681B685B6903F01003102B19D131
:10409800FB681B686FF010025A61FB6800221A6304
:1040A800FB68202283F83D20FB68002283F83E202D
:1040B800FB681A6CFB681A64FB68002283F83C20D2
:1040C800012329E0FDF70AFD02467B68D31ABA6886
:1040D8009A4202D3BB68002B16D1FB6800221A63F0
:1040E800FB68202283F83D20FB68002283F83E20ED
:1040F800FB681B6C43F02002FB681A64FB68002213
:1041080083F83C20012307E0FB681B685B6903F028
:104118004003402BB5D1002318461037BD4680BD5B
:1041280080B483B000AF78607B681B685B6903F478
:104138008063B3F5806F1BD17B681B686FF4806266
:104148005A617B6800221A637B68202283F83D202D
:104158007B68002283F83E207B681B6C43F00402D6
:104168007B681A647B68002283F83C20012300E006
:10417800002318460C37BD4680BC704780B586B012
:1041880000AF78607B68002B01D101236CE27B686B
:104198001B6803F00103002B00F08780924B5B68DB
:1041A80003F00C03042B0CD08F4B5B6803F00C035B
:1041B800082B12D18C4B5B6803F48033B3F5803F36
:1041C8000BD1894B1B6803F40033002B6CD07B6840
:1041D8005B68002B68D1012346E27B685B68B3F516
:1041E800803F06D1804B1B687F4A43F480331360BD
:1041F8002EE07B685B68002B0CD17B4B1B687A4AEE
:1042080023F480331360784B1B68774A23F48023A8
:1042180013601DE07B685B68B3F5A02F0CD1724B6F
:104228001B68714A43F4802313606F4B1B686E4A06
:1042380043F4803313600BE06B4B1B686A4A23F42A
:1042480080331360684B1B68674A23F4802313602C
:104258007B685B68002B13D0FDF740FC386108E0F1
:10426800FDF73CFC02463B69D31A642B01D90323B2
:10427800FAE15D4B1B6803F40033002BF0D014E027
:10428800FDF72CFC386108E0FDF728FC02463B6985
:10429800D31A642B01D90323E6E1534B1B6803F4BB
:1042A8000033002BF0D100E000BF7B681B6803F0EF
:1042B8000203002B63D04C4B5B6803F00C03002B0C
:1042C8000BD0494B5B6803F00C03082B1CD1464B01
:1042D8005B6803F48033002B16D1434B1B6803F053
:1042E8000203002B05D07B681B69012B01D0012339
:1042F800BAE13D4B1B6823F0F8027B685B69DB0081
:10430800394913430B603AE07B681B69002B20D0C6
:10431800364B01221A60FDF7E1FB386108E0FDF732
:10432800DDFB02463B69D31A022B01D903239BE12B
:104338002D4B1B6803F00203002BF0D02A4B1B689F
:1043480023F0F8027B685B69DB00274913430B60A5
:1043580015E0264B00221A60FDF7C0FB386108E023
:10436800FDF7BCFB02463B69D31A022B01D9032394
:104378007AE11D4B1B6803F00203002BF0D17B6828
:104388001B6803F00803002B3AD07B689B69002B5D
:1043980019D0174B01221A60FDF7A0FB386108E01D
:1043A800FDF79CFB02463B69D31A022B01D9032374
:1043B8005AE10D4B5B6A03F00203002BF0D0012099
:1043C80000F0D8FA1CE00A4B00221A60FDF786FBC1
:1043D80038610FE0FDF782FB02463B69D31A022BD6
:1043E80008D9032340E100BF001002400000424208
:1043F800800442429E4B5B6A03F00203002BE9D122
:104408007B681B6803F00403002B00F0A6800023E0
:10441800FB75974BDB6903F08053002B0DD1944B50
:10442800DB69934A43F08053D361914BDB6903F016
:104438008053BB60BB680123FB758E4B1B6803F47C
:104448008073002B18D18B4B1B688A4A43F4807306
:104458001360FDF743FB386108E0FDF73FFB0246B8
:104468003B69D31A642B01D90323FDE0814B1B68F8
:1044780003F48073002BF0D07B68DB68012B06D136
:104488007B4B1B6A7A4A43F0010313622DE07B6879
:10449800DB68002B0CD1764B1B6A754A23F00103AD
:1044A8001362734B1B6A724A23F0040313621CE005
:1044B8007B68DB68052B0CD16D4B1B6A6C4A43F09B
:1044C800040313626A4B1B6A694A43F001031362CF
:1044D8000BE0674B1B6A664A23F001031362644BC7
:1044E8001B6A634A23F0040313627B68DB68002BB2
:1044F80015D0FDF7F3FA38610AE0FDF7EFFA024646
:104508003B69D31A41F28832934201D90323ABE0C5
:10451800574B1B6A03F00203002BEED014E0FDF7A3
:10452800DDFA38610AE0FDF7D9FA02463B69D31A89
:1045380041F28832934201D9032395E04C4B1B6A20
:1045480003F00203002BEED1FB7D012B05D1484B74
:10455800DB69474A23F08053D3617B68DB69002B12
:1045680000F08180424B5B6803F00C03082B61D09C
:104578007B68DB69022B46D13F4B00221A60FDF7AE
:10458800ADFA386108E0FDF7A9FA02463B69D31A8B
:10459800022B01D9032367E0354B1B6803F0007336
:1045A800002BF0D17B681B6AB3F5803F08D1304BF4
:1045B8005B6823F400327B689B682D4913434B608A
:1045C8002B4B5B6823F474127B68196A7B685B6AFF
:1045D8000B43274913434B60274B01221A60FDF711
:1045E8007DFA386108E0FDF779FA02463B69D31A8B
:1045F800022B01D9032337E01D4B1B6803F000731E
:10460800002BF0D02FE01C4B00221A60FDF766FA51
:10461800386108E0FDF762FA02463B69D31A022BBB
:1046280001D9032320E0124B1B6803F00073002B11
:10463800F0D118E07B68DB69012B01D1012313E07D
:104648000B4B5B68FB60FB6803F480327B681B6A7A
:104658009A4206D1FB6803F470127B685B6A9A423F
:1046680001D0012300E0002318461837BD4680BD5D
:1046780000100240007000406000424280B584B0E3
:1046880000AF786039607B68002B01D10123D0E04E
:104698006A4B1B6803F007033A689A4210D9674BC4
:1046A8001B6823F0070265493B6813430B60634BA3
:1046B8001B6803F007033A689A4201D00123B8E067
:1046C8007B681B6803F00203002B20D07B681B6803
:1046D80003F00403002B05D0594B5B68584A43F498
:1046E800E06353607B681B6803F00803002B05D068
:1046F800534B5B68524A43F460535360504B5B68BA
:1047080023F0F0027B689B684D4913434B607B683C
:104718001B6803F00103002B40D07B685B68012B0A
:1047280007D1474B1B6803F40033002B15D1012335
:104738007FE07B685B68022B07D1414B1B6803F065
:104748000073002B09D1012373E03D4B1B6803F074
:104758000203002B01D101236BE0394B5B6823F086
:1047680003027B685B68364913434B60FDF7B6F973
:10477800F8600AE0FDF7B2F90246FB68D31A41F285
:104788008832934201D9032353E02D4B5B6803F031
:104798000C027B685B689B009A42EBD1274B1B6835
:1047A80003F007033A689A4210D2244B1B6823F09F
:1047B800070222493B6813430B60204B1B6803F038
:1047C80007033A689A4201D0012332E07B681B68EC
:1047D80003F00403002B08D0194B5B6823F4E06254
:1047E8007B68DB68164913434B607B681B6803F0E2
:1047F8000803002B09D0124B5B6823F460527B68D6
:104808001B69DB000E4913434B6000F021F8024698
:104818000B4B5B681B0903F00F030A49CB5C22FAB8
:1048280003F3094A1360094B1B681846FDF714F98E
:10483800002318461037BD4680BD00BF0020024047
:1048480000100240283801087001002004000020F0
:1048580090B48AB000AF2A4B3C1D0FCB84E80F0000
:1048680040F201233B800023FB610023BB6100234E
:104878007B6200237B6100233B62224B5B68FB6108
:10488800FB6903F00C03042B02D0082B03D02DE0A6
:104898001D4B3B622DE0FB699B0C03F00F0307F1F6
:1048A8002802134413F8243C7B61FB6903F480332A
:1048B800002B13D0134B5B685B0C03F0010307F16B
:1048C8002802134413F8283CBB617B690E4A02FB9B
:1048D80003F2BB69B2FBF3F37B6204E07B690B4A2A
:1048E80002FB03F37B627B6A3B6202E0064B3B629E
:1048F80000BF3B6A18462837BD4690BC704700BFCA
:10490800802A01080010024000127A0000093D00C8
:1049180080B400AF024B1B681846BD4680BC704788
:104928007001002080B500AFFFF7F2FF0246054B8B
:104938005B681B0A03F007030349CB5C22FA03F305
:10494800184680BD001002403838010880B500AF15
:10495800FFF7DEFF0246054B5B68DB0A03F007033F
:104968000349CB5C22FA03F3184680BD00100240CD
:104978003838010880B485B000AF78600A4B1B68EE
:104988000A4AA2FB03235B0A7A6802FB03F3FB6073
:1049980000BFFB685A1EFA60002BF9D100BF00BFA8
:1049A8001437BD4680BC704770010020D34D62109B
:1049B80080B586B000AF786000233B610023FB60C0
:1049C8007B681B6803F00103002B7DD00023FB7577
:1049D8004F4BDB6903F08053002B0DD14C4BDB6947
:1049E8004B4A43F08053D361494BDB6903F0805352
:1049F800BB60BB680123FB75464B1B6803F48073DF
:104A0800002B18D1434B1B68424A43F48073136050
:104A1800FDF764F8386108E0FDF760F802463B6985
:104A2800D31A642B01D903236DE03A4B1B6803F4B6
:104A38008073002BF0D0364B1B6A03F44073FB6085
:104A4800FB68002B2ED07B685B6803F44073FA6820
:104A58009A4227D02E4B1B6A23F44073FB602E4BDF
:104A680001221A602C4B00221A60294AFB68136243
:104A7800FB6803F00103002B14D0FDF72FF8386111
:104A88000AE0FDF72BF802463B69D31A41F2883257
:104A9800934201D9032336E01D4B1B6A03F002033E
:104AA800002BEED01A4B1B6A23F440727B685B68BC
:104AB800174913430B62FB7D012B05D1144BDB69AE
:104AC800134A23F08053D3617B681B6803F0020309
:104AD800002B08D00E4B5B6823F440427B689B6830
:104AE8000B4913434B607B681B6803F01003002BD2
:104AF80008D0074B5B6823F480027B685B69044934
:104B080013434B60002318461837BD4680BD00BFCD
:104B180000100240007000404004424290B58DB041
:104B280000AF78606B4B07F10C040FCB84E80F00E3
:104B380040F201233B8100237B620023FB620023B8
:104B48003B620023FB610023BB627B68013B0F2BA8
:104B580000F2B68001A252F823F000BF474C0008CB
:104B6800AD4C0008C94C0008374C0008C94C000877
:104B7800C94C0008C94C00083F4C0008C94C000843
:104B8800C94C0008C94C0008C94C0008C94C0008A9
:104B9800C94C0008C94C0008A54B00084E4B5B687F
:104BA800FB614D4B1B6803F08073002B00F08A807B
:104BB800FB699B0C03F00F0307F13002134413F851
:104BC800243C3B62FB6903F48033002B18D0424B32
:104BD8005B685B0C03F0010307F13002134413F820
:104BE800283C7B62FB6903F48033002B0DD03B4AE1
:104BF8007B6AB2FBF3F23B6A02FB03F3FB6204E05D
:104C08003B6A374A02FB03F3FB62334B5B6803F4EE
:104C18008003B3F5800F02D1FB6ABB6252E0FB6AE6
:104C28005B00304AA2FB03235B08BB624AE0FFF744
:104C38000FFEB86249E0FFF70BFEB86245E0264B6D
:104C48001B6AFB61FB6903F44073B3F5807F08D1ED
:104C5800FB6903F00203002B03D04FF40043BB624F
:104C68001FE0FB6903F44073B3F5007F09D11A4BC9
:104C78005B6A03F00203002B03D049F64043BB6292
:104C88000FE0FB6903F44073B3F5407F1CD1124B6E
:104C98001B6803F40033002B16D04FF22443BB6289
:104CA80012E011E0FFF752FE02460B4B5B689B0BCC
:104CB80003F0030301335B00B2FBF3F3BB6204E0D0
:104CC80000BF02E000BF00E000BFBB6A18463437EF
:104CD800BD4690BD902A01080010024000127A00DB
:104CE80000093D00ABAAAAAA80B582B000AF7860DF
:104CF8007B68002B01D101231DE07B6893F83D30D0
:104D0800DBB2002B06D17B68002283F83C20786850
:104D180009F0D2F87B68022283F83D207B681A6884
:104D28007B6804331946104600F0A4FA7B68012218
:104D380083F83D20002318460837BD4680BD80B45F
:104D480085B000AF78607B68022283F83D207B68DD
:104D58001B689B6803F00703FB60FB68062B07D002
:104D68007B681B681A687B681B6842F001021A603E
:104D78007B68012283F83D20002318461437BD467E
:104D880080BC704780B483B000AF78607B68022233
:104D980083F83D207B681B681A6A41F2111313409F
:104DA800002B0FD17B681B681A6A40F244431340FA
:104DB800002B07D17B681B681A687B681B6822F088
:104DC80001021A607B68012283F83D2000231846FF
:104DD8000C37BD4680BC704780B582B000AF7860A4
:104DE8007B68002B01D101231DE07B6893F83D30DF
:104DF800DBB2002B06D17B68002283F83C20786860
:104E080008F038FF7B68022283F83D207B681A6827
:104E18007B6804331946104600F02CFA7B6801229F
:104E280083F83D20002318460837BD4680BD0000A2
:104E380080B584B000AF786039607B681B68012258
:104E48003968184600F03CFC7B681B68154A934299
:104E580004D07B681B68144A934201D1012300E007
:104E68000023002B07D07B681B685A6C7B681B6883
:104E780042F400425A647B681B689B6803F007038E
:104E8800FB60FB68062B07D07B681B681A687B6889
:104E98001B6842F001021A60002318461037BD460D
:104EA80080BD00BF002C01400034014080B582B0B5
:104EB80000AF786039607B681B6800223968184643
:104EC80000F0FEFB7B681B68224A934204D07B6893
:104ED8001B68214A934201D1012300E00023002BE3
:104EE80017D07B681B681A6A41F211131340002B14
:104EF8000FD17B681B681A6A40F244431340002BA9
:104F080007D17B681B685A6C7B681B6822F40042D7
:104F18005A647B681B681A6A41F211131340002B0C
:104F28000FD17B681B681A6A40F244431340002B78
:104F380007D17B681B681A687B681B6822F001022E
:104F48001A607B68012283F83D2000231846083741
:104F5800BD4680BD002C01400034014080B586B0BC
:104F680000AF786039607B68002B01D101237FE0B6
:104F78007B6893F83D30DBB2002B06D17B680022BA
:104F880083F83C20786808F0A7FE7B68022283F843
:104F98003D207B681B689B687A68126823F480430D
:104FA80023F0070393607B681A687B68043319460B
:104FB800104600F05FF97B681B689B687B617B6823
:104FC8001B689B693B617B681B681B6AFB603B68CD
:104FD8001B687A6913437B613B6923F4407323F0B0
:104FE80003033B613B689A683B689B691B02134358
:104FF8003A6913433B613B6923F4406323F00C0394
:105008003B613B6923F4704323F0F0033B613B6849
:10501800DA683B68DB691B0213433A6913433B6157
:105028003B681B691A013B681B6A1B0313433A69F7
:1050380013433B61FB6823F02203FB603B685A681B
:105048003B685B691B011343FA681343FB607B6889
:105058001B687A699A607B681B683A699A617B6801
:105068001B68FA681A627B68012283F83D200023D6
:1050780018461837BD4680BD80B582B000AF78604D
:1050880039603B68002B03D03B68042B08D00FE045
:105098007B681B6801220021184600F011FB16E00E
:1050A8007B681B6801220421184600F009FB0EE00A
:1050B8007B681B6801220021184600F001FB7B6811
:1050C8001B6801220421184600F0FAFA00BF7B6829
:1050D8001B681A687B681B6842F001021A6000238B
:1050E80018460837BD4680BD80B584B000AFF8606B
:1050F800B9607A60FB6893F83C30012B01D1022338
:10510800B4E0FB68012283F83C20FB68022283F8A4
:105118003D207B680C2B00F29F8001A252F823F0FF
:105128005D51000861520008615200086152000890
:105138009D51000861520008615200086152000840
:10514800DF510008615200086152000861520008EE
:105158001F520008FB681B68B968184600F004F97C
:10516800FB681B689A69FB681B6842F008029A6131
:10517800FB681B689A69FB681B6822F004029A6145
:10518800FB681B689969BB681A69FB681B680A4356
:105198009A6162E0FB681B68B968184600F054F928
:1051A800FB681B689A69FB681B6842F400629A6195
:1051B800FB681B689A69FB681B6822F480629A6125
:1051C800FB681B689969BB681B691A02FB681B6846
:1051D8000A439A6141E0FB681B68B968184600F009
:1051E800A7F9FB681B68DA69FB681B6842F00802CC
:1051F800DA61FB681B68DA69FB681B6822F0040245
:10520800DA61FB681B68D969BB681A69FB681B68A7
:105218000A43DA6121E0FB681B68B968184600F0A8
:10522800FBF9FB681B68DA69FB681B6842F40062DB
:10523800DA61FB681B68DA69FB681B6822F4806224
:10524800DA61FB681B68D969BB681B691A02FB68CD
:105258001B680A43DA6100E000BFFB68012283F89B
:105268003D20FB68002283F83C20002318461037B5
:10527800BD4680BD80B485B000AF786039607B687A
:105288001B68FB607B68334A934213D07B68324AC1
:1052980093420FD07B68B3F1804F0BD07B682F4AC5
:1052A800934207D07B682E4A934203D07B682D4AED
:1052B800934208D1FB6823F07003FB603B685B688E
:1052C800FA681343FB607B68224A934213D07B68D9
:1052D800214A93420FD07B68B3F1804F0BD07B6893
:1052E8001E4A934207D07B681D4A934203D07B68CD
:1052F8001C4A934208D1FB6823F44073FB603B6867
:10530800DB68FA681343FB60FB6823F080023B68A4
:105318005B691343FB607B68FA681A603B689A68AC
:105328007B68DA623B681A687B689A627B68094A1C
:10533800934203D07B68084A934203D13B681A69B9
:105348007B681A637B6801225A6100BF1437BD4627
:1053580080BC7047002C014000340140000400402C
:1053680000080040000C004080B487B000AF7860AF
:1053780039607B681B6A23F001027B681A627B68CC
:105388001B6A7B617B685B683B617B689B69FB6030
:10539800FB6823F07003FB60FB6823F00303FB60EA
:1053A8003B681B68FA681343FB607B6923F00203C0
:1053B8007B613B689B687A6913437B617B68204A01
:1053C800934203D07B681F4A93420CD17B6923F038
:1053D80008037B613B68DB687A6913437B617B69FF
:1053E80023F004037B617B68154A934203D07B68F2
:1053F800144A934211D13B6923F480733B613B69A2
:1054080023F400733B613B685B693A6913433B6172
:105418003B689B693A6913433B617B683A695A6008
:105428007B68FA689A613B685A687B685A637B684C
:105438007A691A6200BF1C37BD4680BC704700BF3E
:10544800002C01400034014080B487B000AF786080
:1054580039607B681B6A23F010027B681A627B68DC
:105468001B6A7B617B685B683B617B689B69FB604F
:10547800FB6823F4E043FB60FB6823F44073FB60A4
:105488003B681B681B02FA681343FB607B6923F0C7
:1054980020037B613B689B681B017A6913437B612E
:1054A8007B68214A934203D07B68204A93420DD1FE
:1054B8007B6923F080037B613B68DB681B017A69A9
:1054C80013437B617B6923F040037B617B68164A49
:1054D800934203D07B68154A934213D13B6923F466
:1054E80080633B613B6923F400633B613B685B6914
:1054F8009B003A6913433B613B689B699B003A698F
:1055080013433B617B683A695A607B68FA689A6121
:105518003B685A687B689A637B687A691A6200BF3D
:105528001C37BD4680BC7047002C01400034014048
:1055380080B487B000AF786039607B681B6A23F459
:1055480080727B681A627B681B6A7B617B685B6818
:105558003B617B68DB69FB60FB6823F07003FB60E1
:10556800FB6823F00303FB603B681B68FA6813437E
:10557800FB607B6923F400737B613B689B681B02BB
:105588007A6913437B617B68214A934203D07B6825
:10559800204A93420DD17B6923F400637B613B6809
:1055A800DB681B027A6913437B617B6923F48063A0
:1055B8007B617B68164A934203D07B68154A934205
:1055C80013D13B6923F480533B613B6923F40053B7
:1055D8003B613B685B691B013A6913433B613B686C
:1055E8009B691B013A6913433B617B683A695A60BE
:1055F8007B68FA68DA613B685A687B68DA637B68BB
:105608007A691A6200BF1C37BD4680BC704700BF6C
:10561800002C01400034014080B487B000AF7860AE
:1056280039607B681B6A23F480527B681A627B6846
:105638001B6A3B617B685B687B617B68DB69FB603D
:10564800FB6823F4E043FB60FB6823F44073FB60D2
:105658003B681B681B02FA681343FB603B6923F431
:1056680000533B613B689B681B033A6913433B61EA
:105678007B68114A934203D07B68104A934209D150
:105688007B6923F480437B613B685B699B017A6992
:1056980013437B617B687A695A607B68FA68DA61D0
:1056A8003B685A687B681A647B683A691A6200BF6B
:1056B8001C37BD4680BC7047002C014000340140B7
:1056C80080B487B000AFF860B9607A60BB6803F057
:1056D8001F03012202FA03F37B61FB681A6A7B69E4
:1056E800DB431A40FB681A62FB681A6ABB6803F05E
:1056F8001F03796801FA03F31A43FB681A6200BFB3
:105708001C37BD4680BC704780B485B000AF786058
:1057180039607B6893F83C30012B01D1022332E0D9
:105728007B68012283F83C207B68022283F83D20B5
:105738007B681B685B68FB607B681B689B68BB6059
:10574800FB6823F07003FB603B681B68FA6813432F
:10575800FB60BB6823F08003BB603B685B68BA688A
:105768001343BB607B681B68FA685A607B681B68D8
:10577800BA689A607B68012283F83D207B68002222
:1057880083F83C20002318461437BD4680BC704778
:1057980080B485B000AF786039600023FB607B6817
:1057A80093F83C30012B01D102233DE07B680122B4
:1057B80083F83C20FB6823F0FF023B68DB68134357
:1057C800FB60FB6823F440723B689B681343FB60F3
:1057D800FB6823F480623B685B681343FB60FB68EB
:1057E80023F400623B681B681343FB60FB6823F4E7
:1057F80080523B681B691343FB60FB6823F400522B
:105808003B685B691343FB60FB6823F480423B6899
:10581800DB691343FB607B681B68FA685A647B6822
:10582800002283F83C20002318461437BD4680BC6C
:10583800704780B582B000AF78607B68002B01D1DB
:1058480001233FE07B6893F83930DBB2002B06D1A7
:105858007B68002283F83820786808F009FC7B68A8
:10586800242283F839207B681B68DA687B681B6808
:1058780022F40052DA60786800F086FD7B681B68C5
:105888001A697B681B6822F490421A617B681B685E
:105898005A697B681B6822F02A025A617B681B6878
:1058A800DA687B681B6842F40052DA607B68002281
:1058B800DA637B68202283F839207B68202283F80A
:1058C8003A20002318460837BD4680BD80B588B009
:1058D80002AFF860B9603B601346FB8000237B6130
:1058E800FB6893F83930DBB2202B40F08380BB682B
:1058F800002B02D0FB88002B01D101237BE0FB6841
:1059080093F83830012B01D1022374E0FB6801229F
:1059180083F83820FB680022DA63FB68212283F8C9
:105928003920FCF7DBF87861FB68FA889A84FB6811
:10593800FA88DA8442E0FB68DB8C9BB2013B9AB2BE
:10594800FB68DA84FB689B68B3F5805F22D13B680B
:1059580000937B6900228021F86800F097FB0346DA
:10596800002B01D0032346E0BB683B613B691B88E1
:105978001A46FB681B68C2F308025A60FB681B6979
:10598800002B03D1BB680233BB6017E0BB6801334F
:10599800BB6013E03B6800937B6900228021F868B4
:1059A80000F074FB0346002B01D0032323E0BB68FF
:1059B8005A1CBA601A78FB681B685A60FB68DB8C53
:1059C8009BB2002BB7D13B6800937B690022402132
:1059D800F86800F05BFB0346002B01D003230AE0C4
:1059E800FB68202283F83920FB68002283F83820DE
:1059F800002300E0022318461837BD4680BD00008A
:105A080080B586B000AFF860B9601346FB80FB68CC
:105A180093F83930DBB2202B53D1BB68002B02D06E
:105A2800FB88002B01D101234CE0FB6893F8383048
:105A3800012B01D1022345E0FB68012283F83820BD
:105A4800BA68FB681A62FB68FA889A84FB68FA8865
:105A5800DA84FB680022DA63FB68212283F83920A4
:105A6800FB681B6B194A9A62FB681B6B184ADA625F
:105A7800FB681B6B174A1A63FB681B6B00225A638F
:105A880007F108037B61FB68186B7B691968FB6881
:105A98001B6804331A46FB88FCF700FEFB681B688A
:105AA8006FF040021A60FB68002283F83820FB6818
:105AB8001B685A69FB681B6842F080025A61002320
:105AC80000E0022318461837BD4680BD0F5F000866
:105AD800615F00080160000880B586B000AFF8601B
:105AE800B9601346FB80FB6893F83A30DBB2202B91
:105AF80066D1BB68002B02D0FB88002B01D10123A3
:105B08005FE0FB6893F83830012B01D1022358E09D
:105B1800FB68012283F83820BA68FB689A62FB6840
:105B2800FA889A85FB680022DA63FB68222283F8E8
:105B38003A20FB685B6B254A9A62FB685B6B244AD8
:105B4800DA62FB685B6B234A1A63FB685B6B0022B3
:105B58005A6307F108037B61FB68586BFB681B6895
:105B6800043319467B691A68FB88FCF797FD002304
:105B78003B61FB681B681B683B61FB681B685B68D3
:105B88003B613B69FB68002283F83820FB681B688F
:105B9800DA68FB681B6842F48072DA60FB681B688D
:105BA8005A69FB681B6842F001025A61FB681B686E
:105BB8005A69FB681B6842F040025A61002300E002
:105BC800022318461837BD4680BD00BF7D5F000818
:105BD800E55F00080160000880B584B000AF786018
:105BE8000023FB607B681B685B6903F08003002B64
:105BF80014BF01230023DBB2FB607B6893F83930C4
:105C0800DBB2212B16D1FB68002B13D07B681B68F5
:105C18005A697B681B6822F080025A617B681B6B9B
:105C2800002B04D07B681B6B1846FCF796FD786840
:105C380000F076FA7B681B685B6903F04003002B71
:105C480014BF01230023DBB2FB607B6893F83A3072
:105C5800DBB2222B16D1FB68002B13D07B681B68A4
:105C68005A697B681B6822F040025A617B685B6B4B
:105C7800002B04D07B685B6B1846FCF76EFD7868D8
:105C880000F063FA002318461037BD4680BD0000B7
:105C980080B588B000AF78607B681B681B68FB61C3
:105CA8007B681B68DB68BB617B681B685B697B6121
:105CB80000233B610023FB60FB6903F00F033B619A
:105CC8003B69002B0DD1FB6903F02003002B08D0A2
:105CD800BB6903F02003002B03D0786800F0D3FAE7
:105CE800CBE03B69002B00F0AB807B6903F001033C
:105CF800002B05D1BB6903F49073002B00F0A08042
:105D0800FB6903F00103002B0AD0BB6903F480731D
:105D1800002B05D07B68DB6B43F001027B68DA63FC
:105D2800FB6903F00403002B0AD07B6903F001032D
:105D3800002B05D07B68DB6B43F002027B68DA63DB
:105D4800FB6903F00203002B0AD07B6903F001030F
:105D5800002B05D07B68DB6B43F004027B68DA63B9
:105D6800FB6903F00803002B0AD07B6903F00103E9
:105D7800002B05D07B68DB6B43F008027B68DA6395
:105D88007B68DB6B002B77D0FB6903F02003002BCB
:105D980007D0BB6903F02003002B02D0786800F01D
:105DA80072FA7B681B685B6903F04003002B14BF21
:105DB80001230023DBB2FB607B68DB6B03F0080385
:105DC800002B02D1FB68002B31D0786800F0BDF9B8
:105DD8007B681B685B6903F04003002B23D07B685A
:105DE8001B685A697B681B6822F040025A617B680D
:105DF8005B6B002B13D07B685B6B214A5A637B6813
:105E08005B6B1846FCF7E4FC0346002B16D07B6856
:105E18005B6B5B6B7A68526B104698470EE078684C
:105E280004F0C4FC0AE0786804F0C0FC06E0786876
:105E380004F0BCFC7B680022DA631DE000BF1BE0B5
:105E4800FB6903F08003002B08D0BB6903F08003D3
:105E5800002B03D0786800F0A9F90EE0FB6903F085
:105E68004003002B09D0BB6903F04003002B04D08A
:105E7800786800F0F0F900E000BF2037BD4680BD2B
:105E88008D61000880B483B000AF786000BF0C3724
:105E9800BD4680BC704780B483B000AF786000BF57
:105EA8000C37BD4680BC704780B483B000AF7860C3
:105EB80000BF0C37BD4680BC704780B483B000AFCC
:105EC800786000BF0C37BD4680BC704780B485B091
:105ED80000AF78600023FB600023BB607B6893F809
:105EE8003930DBB2FB607B6893F83A30DBB2BB60D9
:105EF800FB68DAB2BB68DBB21343DBB2184614376F
:105F0800BD4680BC704780B584B000AF78607B68C0
:105F18005B6AFB607B681B681B6803F02003002B2F
:105F280013D1FB680022DA84FB681B685A69FB6896
:105F38001B6822F080025A61FB681B68DA68FB68FC
:105F48001B6842F04002DA6002E0F868FFF79AFF47
:105F580000BF1037BD4680BD80B584B000AF786003
:105F68007B685B6AFB60F868FFF795FF00BF103736
:105F7800BD4680BD80B584B000AF78607B685B6A41
:105F8800FB607B681B681B6803F02003002B1ED195
:105F9800FB680022DA85FB681B68DA68FB681B6807
:105FA80022F48072DA60FB681B685A69FB681B6818
:105FB80022F001025A61FB681B685A69FB681B687A
:105FC80022F040025A61FB68202283F83A20F868E0
:105FD800FFF76AFF00BF1037BD4680BD80B584B0AB
:105FE80000AF78607B685B6AFB60F868FFF765FF65
:105FF80000BF1037BD4680BD80B584B000AF786063
:106008000023FB607B685B6ABB60BB681B685B69DD
:1060180003F08003002B14BF01230023DBB2FB60D5
:10602800BB6893F83930DBB2212B08D1FB68002B11
:1060380005D0BB680022DA84B86800F071F8BB6844
:106048001B685B6903F04003002B14BF0123002386
:10605800DBB2FB60BB6893F83A30DBB2222B08D185
:10606800FB68002B05D0BB680022DA85B86800F011
:106078006CF8BB68DB6B43F01002BB68DA63B86886
:1060880004F094FB00BF1037BD4680BD80B584B0D6
:1060980000AFF860B9603B601346FB712CE0BB6948
:1060A800B3F1FF3F28D0BB69002B07D0FBF716FDE3
:1060B80002463B68D31ABA699A421DD2FB681B682C
:1060C800DA68FB681B6822F4D072DA60FB681B6828
:1060D8005A69FB681B6822F001025A61FB6820229A
:1060E80083F83920FB68202283F83A20FB680022D5
:1060F80083F8382003230FE0FB681B681A68BB6825
:106108001340BA689A420CBF01230023DBB21A4637
:10611800FB799A42C3D0002318461037BD4680BD8C
:1061280080B483B000AF78607B681B68DA687B68EE
:106138001B6822F0C002DA607B68202283F83920CD
:1061480000BF0C37BD4680BC704780B483B000AF39
:1061580078607B681B68DA687B681B6822F4907239
:10616800DA607B681B685A697B681B6822F0010249
:106178005A617B68202283F83A2000BF0C37BD465D
:1061880080BC704780B584B000AF78607B685B6A7C
:10619800FB60FB680022DA85FB680022DA84F86875
:1061A80004F004FB00BF1037BD4680BD80B485B045
:1061B80000AF78607B6893F83930DBB2212B44D18B
:1061C8007B689B68B3F5805F1AD17B681B6AFB60AC
:1061D800FB681B881A467B681B68C2F308025A6072
:1061E8007B681B69002B05D17B681B6A9A1C7B683E
:1061F8001A620EE07B681B6A5A1C7B681A6208E008
:106208007B681B6A591C7A6811621A787B681B685C
:106218005A607B68DB8C9BB2013B9BB27A6819465B
:10622800D184002B0FD17B681B68DA687B681B68F8
:1062380022F08002DA607B681B68DA687B681B687A
:1062480042F04002DA60002300E0022318461437C7
:10625800BD4680BC704780B582B000AF78607B686F
:106268001B68DA687B681B6822F04002DA607B688A
:10627800202283F839207868FFF704FE00231846A7
:106288000837BD4680BD80B584B000AF78607B68B4
:1062980093F83A30DBB2222B71D17B689B68B3F557
:1062A800805F23D17B689B6AFB607B681B69002B3E
:1062B8000ED17B681B685B689BB2C3F308039AB274
:1062C800FB681A807B689B6A9A1C7B689A6229E043
:1062D8007B681B685B689BB2DBB29AB2FB681A806A
:1062E8007B689B6A5A1C7B689A621BE07B681B6907
:1062F800002B0AD17B681B6858687B689B6A591C0D
:106308007A689162C2B21A700CE07B681B685B689D
:10631800DAB27B689B6A581C7968886202F07F024F
:10632800D2B21A707B68DB8D9BB2013B9BB27A6854
:106338001946D185002B20D17B681B68DA687B68F9
:106348001B6822F02002DA607B681B68DA687B68C9
:106358001B6822F48072DA607B681B685A697B6864
:106368001B6822F001025A617B68202283F83A20D8
:106378007868FFF799FD002302E0002300E002237C
:1063880018461037BD4680BD80B584B000AF786030
:106398007B681B681B6923F440517B68DA687B685B
:1063A8001B680A431A617B689A687B681B691A43F1
:1063B8007B685B691343FB607B681B68DB6823F4BD
:1063C800B05323F00C037A681268F9680B43D36062
:1063D8007B681B685B6923F440717B689A697B68FA
:1063E8001B680A435A617B681B68524A93424ED124
:1063F800FEF7ACFAB860BA6813469B0013449A00DB
:106408001A447B685B689B00B2FBF3F34A4AA2FB21
:1064180003235B091901BA6813469B0013449A00C9
:106428001A447B685B689B00B2FBF3F2424BA3FB08
:1064380002035B09642000FB03F3D31A1B01323308
:106448003D4AA2FB03235B0903F0F0031944BA6831
:1064580013469B0013449A001A447B685B689B00B0
:10646800B2FBF3F2344BA3FB02035B09642000FB8D
:1064780003F3D31A1B0132332F4AA2FB03235B0910
:1064880003F00F027B681B680A449A604DE0FEF730
:1064980049FAB860BA6813469B0013449A001A4434
:1064A8007B685B689B00B2FBF3F3234AA2FB0323E0
:1064B8005B091901BA6813469B0013449A001A44F1
:1064C8007B685B689B00B2FBF3F21B4BA3FB0203E8
:1064D8005B09642000FB03F3D31A1B013233164A0D
:1064E800A2FB03235B0903F0F0031944BA681346BF
:1064F8009B0013449A001A447B685B689B00B2FBBC
:10650800F3F20D4BA3FB02035B09642000FB03F3CA
:10651800D31A1B013233084AA2FB03235B0903F099
:106528000F027B681B680A449A6000BF1037BD469B
:1065380080BD00BF003801401F85EB5180B584B095
:1065480000AF3B1D00221A605A609A60184B194A26
:106558001A60174B00229A60154B01221A73144BCC
:1065680000221A75124B4FF46022DA61104B002298
:106578005A600F4B01221A610D48FBF7DDFA0346FA
:10658800002B01D006F014FF0E237B600123BB60B3
:106598000023FB603B1D19460548FBF76BFD0346CE
:1065A800002B01D006F004FF00BF1037BD4680BDA8
:1065B800080200200024014080B588B000AF786050
:1065C80007F1100300221A605A609A60DA607B684B
:1065D8001B68144A934221D1134B9B69124A43F416
:1065E80000739361104B9B6903F40073FB60FB68B5
:1065F8000D4B9B690C4A43F0100393610A4B9B694E
:1066080003F01003BB60BB6810233B6103237B616D
:1066180007F1100319460548FCF74CFC00BF20376A
:10662800BD4680BD0024014000100240001001401A
:1066380080B584B000AFF860B9607A603B60FB68F1
:106648007A68B968184600F0BBFC114AFB681A6002
:10665800FB683A685A67F9684FF000020D4BC1E9C8
:106668000823F9684FF000020B4BC1E90A23F968C7
:1066780005A3D3E90023C1E90C23FB6818461037AA
:10668800BD4680BDAFF300800000000000C072402E
:10669800B42B010800E085400000284000000000FD
:1066A80080B586B000AF78607B685B68D3E90A2361
:1066B800C7E904237B689B68D3E90A23C7E9022357
:1066C800D7E90223D7E90401F9F7B0FD02460B46E2
:1066D800104619464FF000024FF08043FAF786F84B
:1066E80002460B467968C1E90423D7E90423D7E9B0
:1066F8000201F9F799FD02460B461046194608A310
:10670800D3E90023FAF772F802460B467968C1E923
:10671800062300BF1837BD4680BD00BFAFF3008019
:10672800000000400AD7C33F80B483B000AF786050
:106738007B68D3E90423104619460C37BD4680BC54
:10674800704780B483B000AF78607B68D3E90623D4
:10675800104619460C37BD4680BC70470000000043
:1067680080B58EB000AFF860C7E90023FBF7B6F933
:106778000246FB681A674FF000024FF00003D7E9A2
:106788001001FAF771F90346002B0FD14FF0000200
:106798004FF00003D7E90001FAF766F90346002B2A
:1067A80004D085A3D3E90023C7E900234FF00002F2
:1067B8004FF00003C7E90C234FF000024FF000032D
:1067C800D7E91001FAF750F90346002B06D04FF02D
:1067D80000024FF00003C7E90C2318E0D7E91023A3
:1067E800D7E90001FAF702F802460B46C7E90A237F
:1067F800D7E90A2372A1D1E90001F9F7F7FF0246A8
:106808000B461046194608F043FBC7E90C01704BCC
:106818007B627B6A83F000431846F9F765FE0246FF
:106828000B46D7E90C01FAF729F90346002B09D0E2
:106838007B6A83F000431846F9F756FE02460B467A
:10684800C7E90C23786AF9F74FFE02460B46D7E9E9
:106858000C01FAF731F90346002B06D0786AF9F7EC
:1068680043FE02460B46C7E90C23D7E90C0108F0A2
:10687800BDFC55A3D3E90023F9F78EFE02460B466B
:10688800104619464EA3D3E90023F9F7AFFF024695
:106898000B46104619464FF000024FF08043F9F7B7
:1068A800A5FF02460B464FF000004A49F9F7BCFC29
:1068B80002460B46D7E90001F9F76EFE02460B4681
:1068C800C7E90623D7E90C0108F090FC3EA3D3E9F9
:1068D8000023F9F761FE02460B461046194638A315
:1068E800D3E90023F9F782FF02460B461046194602
:1068F8004FF000024FF08043F9F778FF02460B464D
:10690800104619464FF00002324BF9F78FFC024649
:106918000B46D7E90001F9F73FFE02460B46C7E9E7
:106928000423FB68D3E90E23D7E90601FAF79CF89C
:106938000346002B09D0FB68D3E91023D7E90401EB
:10694800FAF792F80346002B30D1234800F034FCC4
:10695800F968D7E90623C1E90E23F968D7E90423C2
:10696800C1E91023F9684FF000024FF00003C1E9B4
:106978001223F9684FF000024FF00003C1E9142315
:10698800F9684FF000024FF00003C1E91623F968D7
:106998004FF000024FF00003C1E91823FB68596F5C
:1069A800D7E90C23084602F0F3F900E000BF3837B6
:1069B800BD4680BDAFF300807B14AE47E17A843FCB
:1069C800000000E0F97EC23F000000400AD7C33F44
:1069D800CDCC0C3F0000F03FA02A010880B582B062
:1069E80000AF7860FBF77AF802467B681B6FD31A12
:1069F800B3F57A7F8CBF01230023DBB2002B3FD095
:106A080079684FF000024FF00003C1E90E2379685E
:106A18004FF000024FF00003C1E9102379684FF0EE
:106A280000024FF00003C1E9122379684FF0000219
:106A38004FF00003C1E9142379684FF000024FF0CA
:106A48000003C1E9162379684FF000024FF00003F4
:106A5800C1E918237B685B680021184601F0C6FA73
:106A68007B689B680021184601F0C0FA7B68596F63
:106A78004FF000024FF00003084602F089F90AE0DF
:106A88007B681B681B68786898477B681B680433B9
:106A98001B68786898470837BD4680BD2DE9904344
:106AA80087B000AF78607B68D3E90E017B685B68CC
:106AB800D3E90A23F9F7B8FB02460B46C7E90423D2
:106AC8007B68D3E91201D7E90423F9F7AFFB024643
:106AD8000B467968C1E912237B68D3E91423D7E907
:106AE8000401F9F7A1FB02460B46C7E902237968BE
:106AF800D7E90423C1E914237B689C6E7B68D3E93A
:106B08000801D7E90423F9F747FD02460B469046EA
:106B180099467B68D3E90A017B68D3E91223F9F720
:106B28003BFD02460B4640464946F9F77FFB0246C5
:106B38000B46904699467B68D3E90C01D7E90223B6
:106B4800F9F72AFD02460B4640464946F9F76EFB1F
:106B580002460B4610461946F9F7CEFF0346E218DF
:106B68007B689A667B689B6EB3F5E15F03DD7B68A3
:106B78004FF4E1529A667B689B6E13F5E15F02DA87
:106B88007B68074A9A667B685A687B689B6E1946D9
:106B9800104601F02BFA00BF1C37BD46BDE89083B4
:106BA800E0E3FFFF2DE9904387B000AF78607B6892
:106BB800D3E910017B689B68D3E90A23F9F734FB12
:106BC80002460B46C7E904237B68D3E91601D7E9D7
:106BD8000423F9F72BFB02460B467968C1E9162313
:106BE8007B68D3E91823D7E90401F9F71DFB0246AE
:106BF8000B46C7E902237968D7E90423C1E91823BA
:106C08007B68DC6E7B68D3E90801D7E90423F9F7D0
:106C1800C3FC02460B46904699467B68D3E90A01B5
:106C28007B68D3E91623F9F7B7FC02460B464046C2
:106C38004946F9F7FBFA02460B46904699467B68A7
:106C4800D3E90C01D7E90223F9F7A6FC02460B4663
:106C580040464946F9F7EAFA02460B4610461946F5
:106C6800F9F74AFF0346E2187B68DA667B68DB6E51
:106C7800B3F5E15F03DD7B684FF4E152DA667B68C8
:106C8800DB6E13F5E15F02DA7B68074ADA667B6838
:106C98009A687B68DB6E1946104601F0A7F900BFB9
:106CA8001C37BD46BDE89083E0E3FFFF80B485B0A4
:106CB80000AFF860C7E90023F968D7E90023C1E904
:106CC8000023FB6818461437BD4680BC704780B463
:106CD80083B000AF78607B6818460C37BD4680BC2F
:106CE8007047000080B582B000AF78600548FBF7B8
:106CF8000DF832210348FBF7B7F800BF0837BD4647
:106D080080BD00BF0802002090B583B000AF786056
:106D18007B68D3E902017B68D3E900230124F9F7F2
:106D2800ADFE0346002B01D100231C46E3B21846F2
:106D38000C37BD4690BD000080B584B000AF7860C8
:106D48002548FBF78FFA034603F40073002B14BFA2
:106D580001230023DBB2002B31D01F48FBF77EF95B
:106D680003461846F9F79EFB17A3D3E90023F9F762
:106D780013FC02460B461046194615A3D3E9002317
:106D8800F9F70AFC02460B46104619464FF0000276
:106D9800124BF9F72BFD02460B46C7E902237B6825
:106DA800D3E90223D7E90201F9F786FE0346002B4F
:106DB80000D104E07968D7E90223C1E9022300BFC2
:106DC8001037BD4680BD00BF6666666666660A40C7
:106DD8003333333333332640080200200000B040F9
:106DE80080B582B000AF78601D48FBF73BFA0346D8
:106DF80003F40073002B14BF01230023DBB2002B24
:106E080022D01748FBF72AF903461846F9F74AFB38
:106E18000FA3D3E90023F9F7BFFB02460B46104640
:106E280019460DA3D3E90023F9F7B6FB02460B4632
:106E3800104619464FF000020A4BF9F7D7FC0246F4
:106E48000B467968C1E9022300BF0837BD4680BDFB
:106E58006666666666660A403333333333332640E4
:106E6800080200200000B04080B483B000AF786012
:106E78007B68D3E90223104619460C37BD4680BC0F
:106E8800704780B485B000AFF860B9601346FB80E6
:106E9800FB68BA681A60FB68FA889A80FB6818462B
:106EA8001437BD4680BC704780B483B000AF7860AB
:106EB8007B6818460C37BD4680BC704780B582B0E9
:106EC80000AF78607B6818687B689B880122194648
:106ED800FCF79BF900BF0837BD4680BD80B582B07E
:106EE80000AF78607B6818687B689B880022194629
:106EF800FCF78BF900BF0837BD4680BD80B582B06E
:106F080000AF78607B681A687B689B8819461046D2
:106F1800FCF764F90346012B0CBF01230023DBB205
:106F280018460837BD4680BD80B483B000AF78608E
:106F380000BF0C37BD4680BC704780B483B000AF3B
:106F4800786000BF0C37BD4680BC704780B483B002
:106F580000AF786000BF0C37BD4680BC704780B476
:106F680083B000AF78604FF000024FF00003104686
:106F780019460C37BD4680BC704780B483B000AF5B
:106F880078604FF000024FF00003104619460C37A6
:106F9800BD4680BC704780B485B000AFF860C7E9D3
:106FA800002300BF1437BD4680BC704780B483B04F
:106FB80000AF786000BF0C37BD4680BC704700004A
:106FC80080B485B000AFF860B9607A600B4AFB689E
:106FD8001A60FB68BA685A60FB687A689A60FB684E
:106FE80000229A66FB680022DA66FB6800221A67AC
:106FF800FB6818461437BD4680BC7047002C010852
:1070080080B483B000AF7860044A7B681A607B68FC
:1070180018460C37BD4680BC704700BF002C0108DD
:1070280080B485B000AFF860B9607A603B60FB68F7
:10703800BA681A60FB687A685A60FB683A689A60AE
:10704800FB6818461437BD4680BC704780B483B0CF
:1070580000AF78607B6818460C37BD4680BC704727
:1070680080B582B000AF78607B681A687B685B681F
:1070780019461046FEF700F800BF0837BD4680BD28
:1070880080B485B000AF78607B681B681B685B6A5A
:107098001BB2FB607B689A68FB6802FB03F3FB602A
:1070A8007B681B681B6800225A62FB681846143705
:1070B800BD4680BC704780B485B000AFF860B96049
:1070C8001346FB80FB68BA681A60FB68FA889A80E6
:1070D800FB6818461437BD4680BC704780B483B03F
:1070E80000AF78607B6818460C37BD4680BC704797
:1070F80080B582B000AF78607B6818687B689B8831
:1071080000221946FCF781F800BF0837BD4680BD4C
:1071180080B582B000AF78607B6818687B689B8810
:1071280001221946FCF771F800BF0837BD4680BD3B
:1071380080B582B000AF78607B681A687B689B88EE
:1071480019461046FCF74AF80346002B0CBF0123EA
:107158000023DBB218460837BD4680BD80B483B033
:1071680000AF786039603B6818460C37BD4680BC74
:10717800704780B483B000AF78607B68B3F5007F58
:1071880005D24FF400727B68B2FBF3F300E00123F1
:1071980018460C37BD4680BC7047000080B483B0E9
:1071A80000AF7860034A7B68136000BF0C37BD46A8
:1071B80080BC7047380200200FB490B5C5B000AF4E
:1071C80007F592723B461A603B46381D1B68D7F894
:1071D80020214FF480710AF019FC034687F80F311B
:1071E800164B1B68002B21D00C2007F03FFD0346EF
:1071F8001C4697F80F310533DBB23A1D1946204675
:1072080001F050FEC7F808410C4B1A68D7F808314E
:10721800C7F8043107F582731946104600F010F8D4
:1072280005E0204607F018F907F01CF900BF07F53C
:107238008A77BD46BDE8904004B070473802002008
:1072480080B582B000AF78603960386800F009F81E
:1072580003461946786800F00EF800BF0837BD46A7
:1072680080BD80B483B000AF78607B6818460C3767
:10727800BD4680BC7047B0B582B000AF7860396059
:107288007B689A697B681B6A043B9A4211D07C68C8
:107298007B689D69386800F018F803461A46294645
:1072A800204600F01CF87B689B691A1D7B689A6170
:1072B80007E0386800F009F803461946786800F0D6
:1072C80021F800BF0837BD46B0BD80B483B000AF19
:1072D80078607B6818460C37BD4680BC704780B51F
:1072E80084B000AFF860B9607A607868FFF7EDFFA6
:1072F80003461A46B968F86800F048F800BF103726
:10730800BD4680BDB0B582B000AF7860396078689E
:1073180000F052F80446786800F060F803469C4292
:107328000CBF01230023DBB2002B02D0164807F064
:1073380050FD0121786800F062F87A687B685B6A22
:107348001C1D104600F076F8034623607C687B68B5
:107358009D693868FFF7B9FF03461A462946204653
:10736800FFF7BDFF7B6803F118027B685B6A043393
:107378001946104600F070F87B68DA697B689A61F4
:1073880000BF0837BD46B0BDA82A010890B585B032
:1073980000AFF860B9607A607868FFF796FF034637
:1073A8001C68BB6819460420FFF7D8FE03461C601A
:1073B80000BF1437BD4690BD80B582B000AF78607D
:1073C8007B6803F118027B6808331946104600F001
:1073D8005CF8034618460837BD4680BD80B582B0C4
:1073E80000AF78607B68184600F08DF803461846B1
:1073F80000F06FF8034618460837BD4680BD80B5D3
:1074080082B000AF786039603B685A1C7B685B6863
:107418007968486A79680968411A89105B1A9A423A
:1074280004D900223968786800F077F800BF083777
:10743800BD4680BD90B583B000AF78607C680420FD
:10744800FFF797FE03461946204600F001F9034668
:1074580018460C37BD4690BD90B583B000AF786034
:1074680039607B683A68DA603B681A687B685A60FA
:107478007B685C6800F0FBF803469B00E2187B68B9
:107488009A6000BF0C37BD4690BD80B582B000AF92
:107498007860396000F0EBF8034619467B68DA68D3
:1074A8003B68DB68D31A9B10013B03FB01F37A6846
:1074B80011687A6852688A1A921013443A68916877
:1074C8003A6812688A1A9210134418460837BD465B
:1074D80080BD80B584B000AF78606FF00043FB607A
:1074E800786800F0CCF80346BB6007F1080207F1A2
:1074F8000C031146184600F0CEF803461B681846E0
:107508001037BD4680BD80B483B000AF78607B681B
:1075180018460C37BD4680BC704790B58BB000AF9D
:10752800F860B9601346FB71FB685A6AFB685B69CF
:10753800D31A9B1001333B62BB683A6A1344FB6160
:10754800FB685A68FB695B009A422DD9FB681A6888
:10755800FB685968FB69CB1A5B089900FB79002B1B
:1075680002D0BB689B0000E000230B4413447B62FD
:10757800FB685B697A6A9A4209D2FB685869FB68BA
:107588005B6A04337A6A194600F098F849E0FB68A8
:107598005869FB685B6A191D3B6A9B007A6A134449
:1075A8001A4600F0A3F83CE0FB685C68FB6804330B
:1075B80007F108021146184600F0B0F803461B68A8
:1075C80023440233BB61FB68B969184600F0B9F877
:1075D80003467B61BA69FB69D31A5B089A00FB7999
:1075E800002B02D0BB689B0000E0002313447A699B
:1075F80013447B62FB685869FB685B6A04337A6AE8
:10760800194600F05BF8F868FB681968FB685B6866
:107618001A4600F0BBF8FB687A691A60FB68BA6919
:107628005A60FB680833796A1846FFF715FFFB684C
:1076380003F118003B6A03F18043013B9B007A6A1F
:1076480013441946FFF708FF00BF2C37BD4690BD0D
:1076580080B582B000AF78603960002239687868F8
:1076680000F0B0F8034618460837BD4680BD80B51F
:1076780000AF0420FFF77DFD0346184680BD80B5A6
:1076880082B000AF7860786800F0BAF80346184610
:107698000837BD4680BD80B483B000AF78603960DC
:1076A8003B681A687B681B689A4201D23B6800E015
:1076B8007B6818460C37BD4680BC704790B585B0CE
:1076C80000AFF860B9607A60F86800F0A4F8044682
:1076D800B86800F0A0F803467A681946204600F01A
:1076E800A4F8034618461437BD4690BD90B585B03A
:1076F80000AFF860B9607A60F86800F08CF804466A
:10770800B86800F088F803467A681946204600F001
:10771800AFF8034618461437BD4690BD80B483B011
:1077280000AF786039607B681A683B681B689A42CA
:1077380001D23B6800E07B6818460C37BD4680BC28
:10774800704790B585B000AF7860396007F10C03D9
:107758007968184600F0AFF807F10C033968184645
:1077680000F0C6F8044600BF07F10C03184600F005
:10777800B3F8234606E007F10C03184600F0ACF80E
:1077880006F070FE18461437BD4690BD80B586B029
:1077980000AFF860B9607A6007F11403F968184619
:1077A80000F089F807F114037A68B968184600F000
:1077B800AEF807F11403184600F08EF800BF18372A
:1077C800BD4680BD80B584B000AFF860B9607A600E
:1077D800F86800F015F80246BB6893428CBF012395
:1077E8000023DBB2002B01D007F0F0FABB689B0046
:1077F800184607F03BFA034618461037BD4680BDC9
:1078080080B483B000AF78606FF0604318460C37DF
:10781800BD4680BC704780B483B000AF78607B6899
:1078280018460C37BD4680BC7047B0B584B000AF71
:10783800F860B9607A60F86800F078F80446B868CB
:1078480000F074F805467B68184600F06FF80346A8
:107858001A462946204600F073F802463B1D114699
:10786800184600F07FF8034618461037BD46B0BDED
:10787800B0B584B000AFF860B9607A60F86800F01D
:1078880055F80446B86800F051F805467B68184674
:1078980000F04CF803461A462946204600F06DF8D9
:1078A80002463B1D1146184600F05CF80346184690
:1078B8001037BD46B0BD80B582B000AF7860396082
:1078C8003868FFF720FE03461946786800F067F825
:1078D80078680837BD4680BD80B582B000AF786053
:1078E800786800F069F87B6818460837BD4680BD9F
:1078F80080B582B000AF7860396000223968786856
:1079080000F064F8034618460837BD4680BD80B5C8
:1079180084B000AFF860B9607A607A68B968F868CE
:1079280000F072F800BF1037BD4680BD80B483B048
:1079380000AF78607B6818460C37BD4680BC70473E
:1079480080B586B000AFF860B9607A600123FB7536
:107958007A68B968F86800F064F80346184618377A
:10796800BD4680BD80B483B000AF786039603B68A5
:1079780018460C37BD4680BC704780B586B000AF4E
:10798800F860B9607A600123FB757A68B968F868AD
:1079980000F064F8034618461837BD4680BD80B528
:1079A80082B000AF78603960786800F079F87B6859
:1079B80018460837BD4680BD80B483B000AF7860F4
:1079C8007B6818460C37BD4680BC704780B584B0CC
:1079D80000AFF860B9607A60F86800F06BF80246AA
:1079E800BB6893428CBF01230023DBB2002B01D07C
:1079F80007F0ECF9BB689B00184607F037F9034617
:107A080018461037BD4680BD80B584B000AFF86019
:107A1800B9607A60B86806F01FFD00BF1037BD4630
:107A280080BD80B586B000AFF860B9607A60BA688A
:107A3800FB68D31A9B107B617B69002B06D07B699E
:107A48009B001A46F968786809F080FE7B699B00FC
:107A58007A68134418461837BD4680BD80B586B08D
:107A680000AFF860B9607A60BA68FB68D31A9B10F7
:107A78007B617B69002B0AD07B699B005B427A683B
:107A8800D0187B699B001A46F96809F05FFE7B698C
:107A98009B005B427A68134418461837BD4680BD80
:107AA80080B483B000AF78607B6818460C37BD4659
:107AB80080BC704780B483B000AF78606FF06043DB
:107AC80018460C37BD4680BC704780B582B000AF01
:107AD8000023FB7180226B21682000F097F9642055
:107AE800FAF706F800226B21682000F08FF964206D
:107AF800F9F7FEFF012000F048F8002000F057F8E1
:107B0800322000F098F800223821682000F07EF931
:107B180000226A21682000F079F9002223216820D8
:107B280000F074F982223721682000F06FF975217E
:107B3800682000F08DF90346FB71FB79712B16D193
:107B480001226B21682000F061F900226C21682075
:107B580000F05CF9322000F06EF800210C2000F0F3
:107B680077F90346FB71FB79482B09D101E0012322
:107B780007E011220A210C2000F048F9002300E058
:107B8800012318460837BD4680BD80B582B000AFD6
:107B98000346FB71FB79DB00DBB21A461B21682028
:107BA80000F034F9034618460837BD4680BD80B555
:107BB80082B000AF0346FB71FB79DB00DBB21A46EB
:107BC8001C21682000F022F9034618460837BD46F4
:107BD80080BD80B584B000AF0346FB800023FB73F3
:107BE800FB88BB2B02D90123FB7319E0FB88612BAF
:107BF80002D90223FB7313E0FB88292B02D9032344
:107C0800FB730DE0FB88132B02D90423FB7307E0F9
:107C1800FB88092B02D90523FB7301E00623FB73BC
:107C2800FB7B1A461A21682000F0F0F80346184634
:107C38001037BD4680BD80B584B000AF0346FB80D9
:107C4800FB88B3F57A7F02D94FF47A73FB80FB88FF
:107C5800032B01D80423FB80FB884FF47A7292FB34
:107C6800F3F3DBB2013BFB73FB7B1A461921682057
:107C780000F0CCF80346FB73FB885B089BB2184600
:107C8800FFF7A7FF034618461037BD4680BD80B5ED
:107C980086B000AFF860B9607A6007F11003062279
:107CA8004321682000F08EF80346FB75FB7D002B0E
:107CB8001AD1BB7C1B021AB2FB7C1BB213431AB24B
:107CC800FB681A803B7C1B021AB27B7C1BB21343F5
:107CD8001AB2BB681A803B7D1B021AB27B7D1BB2AD
:107CE80013431AB27B681A80FB7D18461837BD46C5
:107CF80080BD80B586B000AFF860B9607A6007F1E2
:107D0800100306223B21682000F05CF80346FB754F
:107D1800FB7D002B1AD13B7C1B021AB27B7C1BB269
:107D280013431AB2FB681A80BB7C1B021AB2FB7C95
:107D38001BB213431AB2BB681A803B7D1B021AB2EE
:107D48007B7D1BB213431AB27B681A80FB7D1846F1
:107D58001837BD4680BD80B586B000AFF860B96001
:107D68007A6007F11003062203210C2000F02AF89C
:107D78000346FB75FB7D002B1AD17B7C1B021AB2D4
:107D88003B7C1BB213431AB2FB681A80FB7C1B02B4
:107D98001AB2BB7C1BB213431AB2BB681A807B7D34
:107DA8001B021AB23B7D1BB213431AB27B681A80BE
:107DB80011220A210C2000F029F8FB7D18461837FB
:107DC800BD4680BD80B586B004AF3B600346FB71FD
:107DD8000B46BB7113467B71FB799BB25B0099B272
:107DE800BB799AB27B799BB24FF49670029001935B
:107DF8003B68009301230448FBF74EFC0023184618
:107E08000837BD4680BD00BFD808002080B586B0C1
:107E180004AF0346FB710B46BB7113467B71FB79BC
:107E28009BB25B0099B2BB799AB24FF496730293F6
:107E3800012301937B1D009301230448FBF732FBC8
:107E4800002318460837BD4680BD00BFD80800206B
:107E580080B588B004AF03460A46FB711346BB7170
:107E6800FB799BB25B0099B2BB799AB24FF49673D7
:107E780002930123019307F10F03009301230448A0
:107E8800FBF70AFCFB7B18461037BD4680BD00BFD8
:107E9800D808002080B485B000AFF860B9607A6077
:107EA800FB6800221A70FB6800225A70FB68114AAE
:107EB80012885A80FB6800225A60FB6801221A71F6
:107EC800FB68083300221A609A80FB6801221A7244
:107ED800FB6801229A72FB6800229A73FB68BA68F1
:107EE8001A61FB687A685A61FB6818461437BD4600
:107EF80080BC7047D82A010880B483B000AF78608E
:107F08007B6818460C37BD4680BC704780B485B086
:107F180000AFF860B9603B601346FB80FB68BA6845
:107F28001A60FB68FA889A80FB683A689A60FB686E
:107F38003A8B9A81FB68FA691A61FB683A6A5A6156
:107F4800FB687A6A9A61FB6818461437BD4680BC9C
:107F5800704780B483B000AF78607B6818460C37F0
:107F6800BD4680BC704780B582B000AF78607B6842
:107F78001A697B685B6919461046FCF797FF7B68AE
:107F880018687B689B8800221946FBF73EF97B68D6
:107F980098687B689B8900221946FBF736F97B684D
:107FA8005B69002B05D17B681B691B6800225A633B
:107FB80018E07B685B69042B05D17B681B691B682B
:107FC80000229A630EE07B685B69082B05D17B6809
:107FD8001B691B680022DA6304E07B681B691B6865
:107FE80000221A6400BF0837BD4680BD80B582B044
:107FF80000AF786039607B689A693B6802FB03F3DD
:108008003B603B68002B10DA7B6818687B689B88AC
:1080180000221946FBF7F9F87B6898687B689B890A
:1080280001221946FBF7F1F823E03B68002B10DD2D
:108038007B6818687B689B8801221946FBF7E5F87E
:108048007B6898687B689B8900221946FBF7DDF8F6
:108058000FE07B6818687B689B8800221946FBF74D
:10806800D4F87B6898687B689B8900221946FBF7DF
:10807800CCF87B681A697B685B6919461046FCF77F
:10808800D7FE7B685B69002B09D13B6883EAE37202
:10809800A2EBE3727B681B691B685A6324E07B6868
:1080A8005B69042B09D13B6883EAE372A2EBE372B4
:1080B8007B681B691B689A6316E07B685B69082B01
:1080C80009D13B6883EAE372A2EBE3727B681B6920
:1080D8001B68DA6308E03B6883EAE372A2EBE372A9
:1080E8007B681B691B681A6400BF0837BD4680BDE2
:1080F80080B582B000AF786039603868F8F7E2F987
:108108004FF000021C4BF8F771FB02460B46104675
:1081180019464FF00002194BF8F73EFA02460B4693
:108128007968C1E908233868F8F7CCF94FF00002FC
:10813800114BF8F75BFB02460B46104619464FF009
:1081480000020E4BF8F728FA02460B46104619466D
:1081580007A3D3E90023F8F71FFA02460B4679680C
:10816800C1E90A2300BF0837BD4680BDAFF30080D0
:10817800D80CB0C365BCC93F00A09440000059406A
:10818800B0B485B000AFF860B9603B601346FB80BF
:10819800FB68BA681A60FB68FA889A80FB683A68D4
:1081A8009A60FB683A8C9A81FB687A6A1A61FB6864
:1081B8003A8D9A82FB68FA6A9A61FB683A8E9A83CA
:1081C800FB687A6B1A62FB68243300221A605A60D3
:1081D8001A72FB680D4A03F12E0415460FCD206074
:1081E8006160A260E3600FCD20616161A261E3611B
:1081F800FB68002283F85320FB68BA6B5A65FB685A
:1082080018461437BD46B0BC704700BFDC2A0108C9
:1082180080B483B000AF78607B6818460C37BD46E1
:1082280080BC704780B582B000AF7860786800F095
:108238002DFA786800F02AFA786800F027FA78684A
:1082480000F050FA786800F0C5FA786800F0EEFAA5
:10825800786800F083FA00BF0837BD4680BD80B457
:1082680083B000AF78600B46FB707B68FA7883F8C0
:10827800532000BF0C37BD4680BC7047000000008B
:108288002DE9B0438EB002AF7860786800F040F90D
:1082980003461A467B6883F852207B6893F852306D
:1082A800042B08D17B6893F85330002B03D17B68EB
:1082B800012283F853207B6893F85230092B03D1AD
:1082C8007B68002283F853207B6893F8533083F04F
:1082D8000103DBB2002B40F00C810721786800F025
:1082E8004EF903461A467B6883F84E2008217868C1
:1082F80000F045F903461A467B6883F84F200521AC
:10830800786800F03CF903461A467B6883F85020E9
:108318000621786800F033F903461A467B6883F82B
:1083280051204FF000024FF00003C7E9082348230B
:10833800FB607B6893F84E30C3F18003002BB8BF15
:108348005B42FA689A4211DD7B6893F84F30C3F1BB
:108358008003002BB8BF5B42FA689A4206DD4FF0F3
:1083680000024FF00003C7E90A231FE07B6893F877
:108378004E30803B0221184600F075FB04460D463E
:108388007B6893F84F30803B0221184600F06BFB66
:1083980002460B4620462946F7F748FF02460B4699
:1083A8001046194607F0EEF8C7E90A017B6893F80A
:1083B8005030C3F18003002BB8BF5B42FA689A4281
:1083C80011DD7B6893F85130C3F18003002BB8BFEF
:1083D8005B42FA689A4206DD4FF000024FF0000354
:1083E800C7E908231FE07B6893F85030803B0221DF
:1083F800184600F038FB04460D467B6893F8513068
:10840800803B0221184600F02EFB02460B46204610
:108418002946F7F70BFF02460B461046194607F0A8
:10842800B1F8C7E908014FF00002374BC7E9062346
:108438007B6893F84E30802B05D9BB69BB61FB691B
:1084480083F00043FB612EA3D3E90023C7E904238B
:108458007B6893F851305BB2002B05DA3B693B61CE
:108468007B6983F000437B614FF000024FF000030B
:10847800D7E90401F8F702FB0346002B05D0BB69D6
:10848800BB61FB6983F00043FB617B6893F84E3066
:1084980019467B6893F84F301A467B6893F850303A
:1084A80018467B6893F8513000930346174809F043
:1084B80015FA7B685D6D7B685B6D1B6814331C68FF
:1084C800D7E90423D7E90801F8F766F802460B460E
:1084D80090469946D7E90623D7E90A01F8F75CF8E8
:1084E80002460B46CDE9002342464B462846A047A4
:1084F80000E000BF3037BD46BDE8B083AFF3008071
:108508009A9999999999593F0000883FFC2A01083E
:1085180080B584B000AF7860786800F099F8786822
:1085280000F03DF87B6893F828301B021AB27B688C
:1085380093F827301BB213431BB27B810023FB60E7
:10854800FB680F2B16DC7A897968FB6814335B00AB
:108558000B44DB88013B42FA03F303F00103002BD1
:1085680004D1FB68DBB20133DBB204E0FB68013302
:10857800FB60E5E7002318461037BD4680BD80B490
:1085880083B000AF78600B46FB70FB787A681344C1
:1085980093F8243018460C37BD4680BC704780B528
:1085A80084B000AF78600021786800F0A5F9012157
:1085B800786800F0B8F94221786800F0B4F902232D
:1085C800FB60FB68082B3BDC0123BB60BB68FF2B0F
:1085D8002EDC0121786800F078F90521786800F030
:1085E80001FA0021786800F070F90521786800F038
:1085F800F9F90121786800F068F9786800F01DFA47
:108608000346002B10D07A68FB68134424331B7888
:108618005AB2BB685BB213435BB2D9B27A68FB68E3
:10862800134424330A461A70BB685B00BB60CDE76D
:108638001021786800F0D6F9FB680133FB60C0E7C9
:108648000121786800F058F900BF1037BD4680BD99
:1086580080B487B000AF78607B6824333B613B69A6
:108668007B613B690933FB607A69FB689A4208D0F1
:108678007B69BB60BB6800221A707B6901337B6130
:10868800F2E700BF1C37BD4680BC704780B582B09A
:1086980000AF78600021786800F02EF91021786822
:1086A80000F0A0F90121786800F03DF942217868CE
:1086B80000F039F90021786800F035F90021786870
:1086C80000F031F90021786800F02DF9012178686F
:1086D80000F012F91021786800F084F900BF08371B
:1086E800BD4680BD80B582B000AF78600021786853
:1086F80000F002F91021786800F074F90121786817
:1087080000F011F94321786800F00DF9002178682C
:1087180000F009F90121786800F005F9002178686E
:1087280000F001F90021786800F0FDF80021786870
:1087380000F0F9F80021786800F0F5F80021786871
:1087480000F0F1F80121786800F0D6F81021786877
:1087580000F048F900BF0837BD4680BD80B582B03B
:1087680000AF78600021786800F0C6F810217868BA
:1087780000F038F90121786800F0D5F843217868CD
:1087880000F0D1F80021786800F0CDF80021786871
:1087980000F0C9F85A21786800F0C5F85A217868BD
:1087A80000F0C1F85A21786800F0BDF85A217868BD
:1087B80000F0B9F85A21786800F0B5F80121786816
:1087C80000F09AF81021786800F00CF900BF08371B
:1087D800BD4680BD80B582B000AF78600021786862
:1087E80000F08AF81021786800F0FCF80121786818
:1087F80000F099F84D21786800F095F80021786824
:1088080000F091F80021786800F08DF8012178686F
:1088180000F089F80121786800F06EF81021786876
:1088280000F0E0F800BF0837BD4680BD80B582B0D3
:1088380000AF78600021786800F05EF80121786860
:1088480000F071F84421786800F06DF8002178682C
:1088580000F069F80121786800F065F8032178686C
:1088680000F061F80021786800F05DF80021786870
:1088780000F059F80021786800F055F80021786870
:1088880000F051F80121786800F036F81021786876
:1088980000F0A8F800BF0837BD4680BD80B582B09B
:1088A80000AF78600B46FB707B6898687B68998995
:1088B800FB78002B01D0012300E000231A46FAF7C9
:1088C800A4FC00BF0837BD4680BD80B582B000AFAC
:1088D80078600B46FB707B6898697B68998BFB789E
:1088E800002B01D0012300E000231A46FAF78DFC83
:1088F80000BF0837BD4680BD80B582B000AF786044
:108908000B46FB707B6818697B68998AFB78002B9B
:1089180001D0012300E000231A46FAF776FC00BFD5
:108928000837BD4680BD80B584B000AF78600B467F
:10893800FB700123FB817B68002283F8252001233B
:10894800FB81FB899BB2FF2B94BF01230023DBB281
:10895800002B3FD0FB899BB21A46FB781340002BB3
:1089680014BF01230023DBB2002B04D00121786857
:10897800FFF794FF03E000217868FFF78FFF0121DC
:108988007868FFF7A2FF0521786800F02BF800212E
:108998007868FFF79AFF0521786800F023F801212D
:1089A8007868FFF792FF786800F047F80346002BD5
:1089B8000AD0FB899BB2DAB27B6893F8253013435F
:1089C800DAB27B6883F82520FB899BB25B009BB2F7
:1089D800FB81B6E71021786800F004F800BF103773
:1089E800BD4680BD80B584B000AF78600B467B8003
:1089F8007B88C3F1FF2303F57F03FA33FB817B6890
:108A08001B6A1846FCF79BF97B681B6A1B68FA8986
:108A18005A62FB894FF6F972934205D87B681B6A44
:108A28001B685B6AFB81F4E77B681B6A1846FCF7E6
:108A3800A9F900BF1037BD4680BD80B582B000AF30
:108A480078607B681A687B689B8819461046FAF735
:108A5800C5FB0346012B0CBF01230023DBB21846DC
:108A68000837BD4680BDB0B582B000AF78603960C8
:108A78007868F7F727FD04460D463868F7F722FDB2
:108A880002460B462046294606F0DEFB02460B4608
:108A9800104619460837BD46B0BD000080B483B003
:108AA80000AF7860034A7B68136000BF0C37BD468F
:108AB80080BC70473C02002090B589B000AFF860D8
:108AC800B9601346FB71BB681B79FB77FB7F002BF2
:108AD80003D1F868FEF71CFB05E0FB7F012B02D1F0
:108AE800F868FEF705FBF868FEF722FB0346BB773C
:108AF8000C2006F0BBF803461C46BB6805331B7800
:108B0800BA7F1946204600F04FFCBC61094B1A6831
:108B1800BB697B6107F1140319461046FEF790FB09
:108B280004E0204605F098FC05F09CFC2437BD467F
:108B380090BD00BF3C02002090B589B000AFF8603E
:108B4800B9601346FB71BB681B79FB77FB7F002B71
:108B580003D1F868FEF7C2F905E0FB7F012B02D1CB
:108B6800F868FEF7ABF9F868FEF7C8F90346BB7773
:108B78000C2006F07BF803461C46BB6805331B78BF
:108B8800BA7F1946204600F0B7FCBC61094B1A6849
:108B9800BB697B6107F1140319461046FEF750FBC9
:108BA80004E0204605F058FC05F05CFC2437BD467F
:108BB80090BD00BF3C02002080B586B000AFF860D1
:108BC800B9601346FB71BB685B793B75BB689B79E1
:108BD8007B7507F11403184601F0EBF80346FB8296
:108BE800B7F916301946F868FFF700FA00BF1837CA
:108BF800BD4680BD0000000080B58AB000AFF860B7
:108C0800B9601346FB71BB685B793B75BB689B79A0
:108C18007B7507F11403184601F0CBF80346FB8473
:108C2800B7F926301846F7F74DFC4FF00002144B01
:108C3800F7F7DCFD02460B46104619464FF00002D6
:108C4800104BF7F7D3FD02460B46104619460AA308
:108C5800D3E90023F7F7A0FC02460B46C7E9062331
:108C6800D7E90623F86800F093F800BF2837BD4617
:108C780080BD00BFAFF300804AD8124DFB210940E8
:108C880000002440008066402DE990438BB002AF7D
:108C9800F860B9601346FB71BB681B793B76BB680B
:108CA8005B797B7607F11803184601F082F80346D2
:108CB800FB83BB689B793B75BB68DB797B7507F1E8
:108CC8001403184601F075F80346BB83FB681B685C
:108CD80014331C68B7F91E301846F7F7F3FB4FF04A
:108CE80000020F4BF7F782FD02460B469046994665
:108CF800B7F91C301846F7F7E5FB4FF00002084BB0
:108D0800F7F774FD02460B46CDE9002342464B4671
:108D1800F868A04700BF2437BD46BDE8908300BF70
:108D280000408F4080B485B000AFF860B9607A60C9
:108D3800FB68BA681A60FB687A685A60FB6818466C
:108D48001437BD4680BC704780B483B000AF7860EC
:108D58007B6818460C37BD4680BC704780B582B02A
:108D680000AF78607B681A687B685B6819461046B4
:108D7800FCF75EF84FF000024FF00003786800F04F
:108D880007F800BF0837BD4680BD0000000000009E
:108D980080B586B000AFF860C7E900230EA3D3E919
:108DA8000023D7E90001F7F7F7FB02460B460CA1B1
:108DB800D1E90001F7F738FA02460B461046194682
:108DC800F7F79AFE03467B617969F86800F00CF8BA
:108DD80000BF1837BD4680BD00000060667683403E
:108DE800000000000070974080B483B000AF786046
:108DF80039607B685B68002B09D13B6883EAE372C2
:108E0800A2EBE3727B681B681B685A6324E07B68EB
:108E18005B68042B09D13B6883EAE372A2EBE37237
:108E28007B681B681B689A6316E07B685B68082B85
:108E380009D13B6883EAE372A2EBE3727B681B68A3
:108E48001B68DA6308E03B6883EAE372A2EBE3722B
:108E58007B681B681B681A6400BF0C37BD4680BC62
:108E68007047000080B483B000AF7860044A7B6824
:108E78001A607B6818460C37BD4680BC704700BF37
:108E8800CC2C010880B483B000AF7860044A7B68BA
:108E98001A607B6818460C37BD4680BC704700BF17
:108EA800CC2C010890B585B000AFF8600B467A600D
:108EB800FB72FB681846FFF7D5FF224AFB681A6069
:108EC800FB68FA7A1A72FB7A184605F0E0FE034648
:108ED8001A46FB685A60FB685B68FE221A70FB68DA
:108EE8005B680133CE221A70FB685B680233F1229B
:108EF8001A70FB685B680333FA7A043AD2B21A70C4
:108F0800FB685B68181DFB7A053B1A46796808F010
:108F18000FFCFB685868FB685A68FB7A013BD41859
:108F2800FB7A194600F0DBFE03462370FB6805E078
:108F3800FB681846FFF7A6FF05F094FA18461437A1
:108F4800BD4690BDB02C010880B582B000AF7860F6
:108F5800094A7B681A607B685B68002B02D0184658
:108F680005F07AFA7B681846FFF78CFF7B6818468D
:108F78000837BD4680BD00BFB02C010880B582B05F
:108F880000AF78607868FFF7DFFF786805F064FA6B
:108F98007B6818460837BD4680BD80B582B000AFF3
:108FA80078607B685B68002B02D0184605F054FA9D
:108FB80000BF0837BD4680BD80B483B000AF78607D
:108FC8007B685B6818460C37BD4680BC704780B428
:108FD80083B000AF78607B681B7A18460C37BD46B3
:108FE80080BC704790B587B000AFF860084611465E
:108FF8001A4603467B810B463B811346FB80FB6880
:109008001846FFF72FFF554AFB681A60FB681722BE
:109018001A72FB687A895A81FB683A899A81FB68D7
:10902800FA88DA81FB683A8D1A82FB68BA8D5A820F
:10903800FB68FA889A82FB68BA8EDA82FB683A8FF4
:109048001A83FB68BA8F5A83FB681B7AFB75FB7D12
:10905800184605F01CFE03461A46FB685A60FB6872
:109068005B68FE221A70FB685B680133CE221A70B7
:10907800FB685B68023311221A70FB685B68033374
:10908800FA7D043AD2B21A70FB685B680433B7F908
:109098000A201146184600F07AFEFB685B68063322
:1090A800B7F908201146184600F071FEFB685B68A6
:1090B8000833B7F906201146184600F068FEFB6829
:1090C8005B680A33B7F928201146184600F05FFE9E
:1090D800FB685B680C33B7F92C201146184600F082
:1090E80056FEFB685B680E33B7F930201146184608
:1090F80000F04DFEFB685B681033B7F93420114669
:10910800184600F044FEFB685B681233B7F9382054
:109118001146184600F03BFEFB685B681433B7F94C
:109128003C201146184600F032FEFB685868FB6880
:109138005A68FB7D013BD418FB7D194600F0CFFD32
:1091480003462370FB6805E0FB681846FFF79AFEA4
:1091580005F088F918461C37BD4690BD942C0108C7
:1091680080B582B000AF7860094A7B681A607B6876
:109178005B68002B02D0184605F06EF97B6818462C
:10918800FFF780FE7B6818460837BD4680BD00BFE4
:10919800942C010880B582B000AF78607868FFF73A
:1091A800DFFF786805F058F97B6818460837BD4630
:1091B80080BD80B582B000AF78607B685B68002BAB
:1091C80002D0184605F048F900BF0837BD4680BDF3
:1091D80080B483B000AF78607B681B7A18460C3780
:1091E800BD4680BC704780B483B000AF78607B68B0
:1091F8005B6818460C37BD4680BC704790B587B091
:1092080000AFF860C7E90023FB681846FFF72AFE9D
:109218003C4AFB681A60FB6809221A72F968D7E9A8
:109228000023C1E90423F968D7E90A23C1E9062321
:10923800FB681B7AFB75FB7D184605F028FD034685
:109248001A46FB685A60FB685B68FE221A70FB6866
:109258005B680133CE221A70FB685B680233122206
:109268001A70FB685B680333FA7D043AD2B21A704D
:109278004FF00002244BD7E90001F7F78DF90246B9
:109288000B4610461946F7F737FC0346BB824FF0EA
:1092980000021D4BD7E90A01F7F77EF902460B4693
:1092A80010461946F7F728FC03467B82FB685B6883
:1092B8000433B7F914201146184600F068FDFB681E
:1092C8005B680633B7F912201146184600F05FFDB7
:1092D800FB685868FB685A68FB7D013BD418FB7D26
:1092E800194600F0FCFC03462370FB6805E0FB68A8
:1092F8001846FFF7C7FD05F0B5F818461C37BD46F8
:1093080090BD00BF782C010800408F4080B582B026
:1093180000AF7860094A7B681A607B685B68002B3D
:1093280002D0184605F098F87B681846FFF7AAFDA2
:109338007B6818460837BD4680BD00BF782C0108F9
:1093480080B582B000AF78607868FFF7DFFF786893
:1093580005F082F87B6818460837BD4680BD80B5A1
:1093680082B000AF78607B685B68002B02D018463B
:1093780005F072F800BF0837BD4680BD80B483B0E1
:1093880000AF78607B681B7A18460C37BD4680BCF6
:10939800704780B483B000AF78607B685B6818461C
:1093A8000C37BD4680BC704790B583B000AF78607D
:1093B8000B46FB701346BB707B681846FFF752FDDF
:1093C800254A7B681A607B6807221A727B68FA78DC
:1093D8005A727B68BA789A72072005F058FC0346DF
:1093E8001A467B685A607B685B68FE221A707B6845
:1093F8005B680133CE221A707B685B6802330122F6
:109408001A707B685B68033303221A707B685B6899
:109418000433FA781A70BB78002B01D0012200E0DF
:1094280000227B685B6805331A707B685A687B6822
:109438005B689C1D0721104600F051FC0346237011
:109448007B6805E07B681846FFF71CFD05F00AF805
:1094580018460C37BD4690BD5C2C010880B582B01B
:1094680000AF7860094A7B681A607B685B68002BEC
:1094780002D0184604F0F0FF7B681846FFF702FD9B
:109488007B6818460837BD4680BD00BF5C2C0108C4
:1094980080B582B000AF78607868FFF7DFFF786842
:1094A80004F0DAFF7B6818460837BD4680BD80B4F3
:1094B80083B000AF78607B685B6818460C37BD46A0
:1094C80080BC704780B483B000AF78607B681B7A3B
:1094D80018460C37BD4680BC704780B582B000AFD7
:1094E80078607B685B68002B02D0184604F0B4FFF4
:1094F80000BF0837BD4680BD90B583B000AF786027
:109508000B46FB701346BB707B681846FFF7AAFC36
:10951800254A7B681A607B6807221A727B68FA788A
:109528005A727B68BA789A72072005F0B0FB034636
:109538001A467B685A607B685B68FE221A707B68F3
:109548005B680133CE221A707B685B6802330222A3
:109558001A707B685B68033303221A707B685B6848
:109568000433FA781A70BB78002B01D0012200E08E
:1095780000227B685B6805331A707B685A687B68D1
:109588005B689C1D0721104600F0A9FB0346237069
:109598007B6805E07B681846FFF774FC04F062FFFF
:1095A80018460C37BD4690BD402C010880B582B0E6
:1095B80000AF7860094A7B681A607B685B68002B9B
:1095C80002D0184604F048FF7B681846FFF75AFC9B
:1095D8007B6818460837BD4680BD00BF402C01088F
:1095E80080B582B000AF78607868FFF7DFFF7868F1
:1095F80004F032FF7B6818460837BD4680BD80B44A
:1096080083B000AF78607B685B6818460C37BD464E
:1096180080BC704780B483B000AF78607B681B7AE9
:1096280018460C37BD4680BC704780B582B000AF85
:1096380078607B685B68002B02D0184604F00CFF4A
:1096480000BF0837BD4680BD90B587B000AFF86051
:10965800C7E90023FB681846FFF704FC294AFB68A2
:109668001A60FB6807221A72F968D7E90023C1E972
:109678000423072005F00BFB03461A46FB685A60D3
:10968800FB685B68FE221A70FB685B680133CE22B8
:109698001A70FB685B68023313221A70FB685B68F8
:1096A800033303221A704FF00002174BD7E9000169
:1096B800F6F772FF02460B4610461946F7F71CFAF2
:1096C8000346FB82FB685B680433B7F91620114632
:1096D800184600F05CFBFB685A68FB685B689C1DD9
:1096E8000721104600F0FBFA03462370FB6805E0EB
:1096F800FB681846FFF7C6FB04F0B4FE18461C3793
:10970800BD4690BD242C01080000594080B582B0A8
:1097180000AF7860094A7B681A607B685B68002B39
:1097280002D0184604F098FE7B681846FFF7AAFB9B
:109738007B6818460837BD4680BD00BF242C010849
:1097480080B582B000AF78607868FFF7DFFF78688F
:1097580004F082FE7B6818460837BD4680BD80B499
:1097680083B000AF78607B685B6818460C37BD46ED
:1097780080BC704780B483B000AF78607B681B7A88
:1097880018460C37BD4680BC704780B582B000AF24
:1097980078607B685B68002B02D0184604F05CFE9A
:1097A80000BF0837BD4680BD80B584B000AFF86003
:1097B800B9607A60FB687A68B9681846FDF700FCFA
:1097C8000F4AFB681A60F9684FF000020D4BC1E9B7
:1097D8000823F9684FF000020B4BC1E90A23F96826
:1097E80005A3D3E90023C1E90C23FB681846103709
:1097F800BD4680BDAFF300800000000000C072408D
:10980800902D010800E0854000002840000000007D
:1098180080B586B000AF78607B685B68D3E90A23BF
:10982800C7E904237B689B68D3E90A23C7E90223B5
:10983800D7E90223D7E90401F6F7F8FC02460B46FC
:10984800104619464FF000024FF08043F6F7CEFF5E
:1098580002460B467968C1E90423D7E90423D7E90E
:109868000201F6F7E1FC02460B461046194608A32A
:10987800D3E90023F6F7BAFF02460B467968C1E937
:10988800062300BF1837BD4680BD00BFAFF3008078
:10989800000000400AD7C33F80B483B000AF7860AF
:1098A8007B68D3E90423104619460C37BD4680BCB3
:1098B800704780B483B000AF78607B68D3E9062333
:1098C800104619460C37BD4680BC704700000000A2
:1098D80080B58AB000AFF860C7E90023F8F7FEF852
:1098E8000246FB681A6734A3D3E90023D7E90C01C1
:1098F800F6F752FE02460B46104619464FF0000294
:109908004FF08043F6F772FF02460B46C7E908237B
:10991800D7E90823D7E90001F6F786FC02460B468B
:10992800C7E90623D7E90823D7E90001F6F77EFC43
:1099380002460B46C7E90423FB68D3E90E23D7E99F
:109948000601F7F791F80346002B09D0FB68D3E925
:109958001023D7E90401F7F787F80346002B26D12F
:10996800F968D7E90623C1E90E23F968D7E9042382
:10997800C1E91023F9684FF000024FF00003C1E974
:109988001223F9684FF000024FF00003C1E91423D5
:10999800F9684FF000024FF00003C1E91623F96897
:1099A8004FF000024FF00003C1E9182300E000BFA8
:1099B8002837BD4680BD00BF000000400AD7C33F1E
:1099C80080B582B000AF7860F8F788F802467B6807
:1099D8001B6FD31AB3F57A7F8CBF01230023DBB248
:1099E800002B36D079684FF000024FF00003C1E930
:1099F8000E2379684FF000024FF00003C1E91023ED
:109A080079684FF000024FF00003C1E9122379682A
:109A18004FF000024FF00003C1E9142379684FF0BA
:109A280000024FF00003C1E9162379684FF00002E5
:109A38004FF00003C1E918237B685B6800211846D2
:109A4800FEF7D4FA7B689B6800211846FEF7CEFA29
:109A58000AE07B681B681B68786898477B681B6806
:109A680004331B68786898470837BD4680BD0000F6
:109A78002DE9904387B000AF78607B68D3E90E0189
:109A88007B685B68D3E90A23F6F7CEFB02460B46F0
:109A9800C7E904237B68D3E91201D7E90423F6F761
:109AA800C5FB02460B467968C1E912237B68D3E9F6
:109AB8001423D7E90401F6F7B7FB02460B46C7E9BA
:109AC80002237968D7E90423C1E914237B689C6ED3
:109AD8007B68D3E90801D7E90423F6F75DFD024660
:109AE8000B46904699467B68D3E90A017B68D3E91F
:109AF8001223F6F751FD02460B4640464946F6F753
:109B080095FB02460B46904699467B68D3E90C01C3
:109B1800D7E90223F6F740FD02460B464046494680
:109B2800F6F784FB02460B4610461946F6F7E4FFA3
:109B38000346E2187B689A667B689B6EB3F5E15F23
:109B480003DD7B684FF4E1529A667B689B6E13F5E0
:109B5800E15F02DA7B68074A9A667B685A687B6825
:109B68009B6E19461046FEF741FA00BF1C37BD46EA
:109B7800BDE89083E0E3FFFF2DE9904387B000AF95
:109B880078607B68D3E910017B689B68D3E90A2376
:109B9800F6F74AFB02460B46C7E904237B68D3E97C
:109BA8001601D7E90423F6F741FB02460B4679680C
:109BB800C1E916237B68D3E91823D7E90401F6F72E
:109BC80033FB02460B46C7E902237968D7E9042329
:109BD800C1E918237B68DC6E7B68D3E90801D7E903
:109BE8000423F6F7D9FC02460B46904699467B6853
:109BF800D3E90A017B68D3E91623F6F7CDFC0246C0
:109C08000B4640464946F6F711FB02460B4690467E
:109C180099467B68D3E90C01D7E90223F6F7BCFC27
:109C280002460B4640464946F6F700FB02460B46FD
:109C380010461946F6F760FF0346E2187B68DA66B5
:109C48007B68DB6EB3F5E15F03DD7B684FF4E152BF
:109C5800DA667B68DB6E13F5E15F02DA7B68074A38
:109C6800DA667B689A687B68DB6E19461046FEF7F1
:109C7800BDF900BF1C37BD46BDE89083E0E3FFFF98
:109C880080B485B000AFF860B9601346FB80FB680C
:109C9800BA681A60FB68FA889A80FB6800229A7191
:109CA800FB680022DA71FB6800229A60FB6818469C
:109CB8001437BD4680BC704780B483B000AF78606D
:109CC8007B6818460C37BD4680BC704780B483B0AB
:109CD80000AF786000BF0C37BD4680BC704780B4C9
:109CE80085B000AF78600B46FB70FB78032B01D87A
:109CF800002316E00023FB600223BB60FB78013BD6
:109D0800BA689A420BDABB687A6813441B781A4619
:109D1800FB681344FB60BB680133BB60EEE7FB687C
:109D2800DBB218461437BD4680BC704790B585B085
:109D380000AF78600B46FB700023FB600223BB601A
:109D4800FB78013BBA689A420EDABB681946786814
:109D580000F042F803461B781A46FB681344FB6080
:109D6800BB680133BB60EBE7FB68DCB2FB78013B07
:109D78001946786800F030F803461B789C420CBFFF
:109D880001230023DBB218461437BD4690BD80B4CA
:109D980085B000AF78600B467B80BB1CFB60FB681E
:109DA8001B889AB27B681A8000BF1437BD4680BCF6
:109DB800704780B483B000AF78607B6801331B784C
:109DC8001B021AB27B681B781BB213431BB21846DE
:109DD8000C37BD4680BC704780B582B000AF786054
:109DE80039607B6808333A681146184600F005F870
:109DF800034618460837BD4680BD80B586B000AF1B
:109E08007860396007F108033A687968184600F005
:109E18000AF807F10803184600F022F80346184626
:109E28001837BD4680BD90B589B000AFF860B960FD
:109E38007A60BB6807F110040FCB84E80F0007F1C4
:109E480010037968184600F016F80246FB681C46AD
:109E580013460FCB84E80F00F8682437BD4690BD41
:109E680080B483B000AF78607B681B6818460C37F5
:109E7800BD4680BC704790B585B000AF786039604A
:109E88007B681A687B685B68D31A3A681344FB607E
:109E9800FB68002B08DB00F041F803461A46FB6814
:109EA800934201DA012300E00023002B06D07B68EF
:109EB8001A683B681A447B681A602AE0FB68002B22
:109EC80007DD00F02BF803461A46FB6893FBF2F314
:109ED80007E0FB68DC4300F021F80346B4FBF3F32A
:109EE800DB43BB607B68DA68BB689B001344194698
:109EF800786800F01BF87B685C6800F00FF8034690
:109F08001A46BB6803FB02F3FA68D31AE2187B68A7
:109F18001A607B6818461437BD4690BD80B500AFFF
:109F28000120FDF726F90346184680BD90B583B099
:109F380000AF786039607B683A68DA603B681A6815
:109F48007B685A607B685C68FFF7E8FF0346E218A5
:109F58007B689A6000BF0C37BD4690BD80B582B063
:109F680000AF0023FB7126E0FB79503BDBB20021F8
:109F7800184600F02BF80021002000F027F80021F7
:109F8800102000F023F80023BB710DE0BA79FB79AB
:109F98000D49D2000A4413441B780121184600F0E9
:109FA80015F8BB790133BB7197F90630002BEDDA50
:109FB800FB790133FB71FB79072BD5D900BF00BFB3
:109FC8000837BD4680BD00BF4002002080B584B080
:109FD80000AF03460A46FB711346BB71BB79002BE1
:109FE80006D001224FF480711C48F9F70EF905E0FC
:109FF80000224FF480711948F9F707F90023FB7321
:10A008001EE0002220211548F9F7FFF897F90730DC
:10A01800002B05DA012240211048F9F7F6F804E090
:10A02800002240210D48F9F7F0F8012220210B48C1
:10A03800F9F7EBF8FB795B00FB71FB7B0133FB73F2
:10A04800FB7B072BDDD901224FF480710348F9F718
:10A05800DCF800BF1037BD4680BD00BF00180140C6
:10A0680080B582B000AF0023FB7114E00023BB7100
:10A078000AE0BA79FB790C49D2000A441344002259
:10A088001A70BB790133BB7197F90630002BF0DAEF
:10A09800FB790133FB71FB79072BE7D9FFF75EFFEB
:10A0A80000BF0837BD4680BD4002002080B485B09F
:10A0B80000AF0346FB710B46BB7113467B7100234F
:10A0C800FB7397F90730002B41DBBB793F2B3ED858
:10A0D800BB79DB08DBB2C3F10703BB73BB7903F0C1
:10A0E80007037B737B7BC3F10703012202FA03F3A7
:10A0F800FB737B79002B12D0FA79BB7B1649D2000F
:10A108000A4413441878FA79BB7BF97B0143C8B237
:10A118001149D2000A44134402461A7018E0FA7929
:10A12800BB7B0D49D2000A4413441B785AB297F9F5
:10A138000F30DB435BB2134059B2FA79BB7BC8B22C
:10A148000549D2000A44134402461A7000E000BFD1
:10A158001437BD4680BC70474002002090B585B0DA
:10A1680000AF0446084611461A462346FB710346CB
:10A17800BB710B467B7113463B71BB793B737B7993
:10A18800203B7B710023BB734DE03B790C2B0BD13B
:10A198007A79B97B284813465B0013449B00034433
:10A1A8000B441B78FB7307E07A79BB7B23491201C8
:10A1B8000A4413441B78FB7300237B732DE097F943
:10A1C8000F30002B07DA97F82020B979FB79184669
:10A1D800FFF76CFF0CE097F82030002B0CBF012331
:10A1E8000023DBB21A46B979FB791846FFF75EFF00
:10A1F800FB7B5B00FB73BB790133BB71BA793B7B9B
:10A20800D21A3B799A4205D13B7BBB71FB7901336A
:10A21800FB7105E07B7B01337B737B7B072BCED9FE
:10A22800BB7B0133BB73BA7B3B799A42ADD300BF8A
:10A2380000BF1437BD4690BDC42D0108383201084F
:10A2480080B485B000AF03460A46FB711346BB7164
:10A258000123FB6004E0FA79FB6802FB03F3FB606F
:10A26800BB795A1EBA71002BF5D1FB681846143712
:10A27800BD4680BC7047000090B587B002AF3A6019
:10A288001A460346FB710B46BB7113467B710023CC
:10A29800BB730023FB7351E07A79FB7BD31ADBB2E3
:10A2A800013BDBB219460A20FFF7CAFF02463B68AA
:10A2B800B3FBF2F1264BA3FB0123DA0813469B00FC
:10A2C80013445B00CA1A13467B73BB7B002B1DD15A
:10A2D800FA7B7B79013B9A4218DA7B7B002B13D1FE
:10A2E80097F820305B08DBB2FA7B02FB03F3DAB2A3
:10A2F800FB791344D8B297F82030B979012200923B
:10A308002022FFF72BFF16E00123BB7397F82030BC
:10A318005B08DBB2FA7B02FB03F3DAB2FB79134486
:10A32800D8B27B7B3033DAB297F82030B979012480
:10A338000094FFF713FFFB7B0133FB73FA7B7B79F8
:10A348009A42A9D300BF00BF1437BD4690BD00BFD5
:10A35800CDCCCCCC80B584B002AF03463A60FB715B
:10A368000B46BB711FE0FB797A2B04D90023FB71E4
:10A37800BB791033BB71BB793A2B05D90023FB712C
:10A38800FB79BB71FFF76CFE3B681A78B979F879ED
:10A39800012300930C23FFF7E1FEFB790833FB71DF
:10A3A8003B6801333B603B681B78002BDBD100BF67
:10A3B80000BF0837BD4680BD80B485B000AF0346F6
:10A3C8000A46FB711346BB71BB79DB08FB73BB798B
:10A3D80003F00703BB73BB7B012202FA03F37B7311
:10A3E800FA79FB7B1B49D2000A4413441978FA799D
:10A3F800FB7BC943C8B21749D2000A44134402463A
:10A408001A70FA79FB7B1349D2000A44134418786E
:10A41800FA79FB7B797B0143C8B20E49D2000A4422
:10A42800134402461A70FA79FB7B0A49D2000A449F
:10A4380013441978FA79FB7BC943C8B20549D2009D
:10A448000A44134402461A7000BF1437BD4680BC44
:10A45800704700BF4002002090B585B000AF0446A9
:10A46800084611461A462346FB710346BB710B4644
:10A478007B7113463B7100237B73FB797B72BB793D
:10A48800FB723B79DB08BB7254E07B793A7902FBBB
:10A4980003F3002B00DA0733DB10DAB27B7B1344BB
:10A4A8003B727B7B01337B730023FB733EE03B797C
:10A4B800102B45D13A7AFB7B234912010A441344F5
:10A4C8001B783B730023BB731AE03B7B03F001034B
:10A4D800002B06D0B979FB7901221846FFF7E6FD73
:10A4E80005E0BA79FB7911461846FFF765FF3B7B13
:10A4F8005B083B73BB790133BB71BB7B0133BB7317
:10A50800BB7B072BE1D9FB790133FB71FA797B7AA5
:10A51800D21A3B799A4204D17B7AFB71FB7A0833D1
:10A52800FB72FB7ABB71FB7B0133FB73FA7B3B79D4
:10A538009A42BCD3BB7A5A1EBA72002BA5D100E04E
:10A5480000BF1437BD4690BD0C00002080B500AF99
:10A55800002280213948F8F758FE6420F7F7C8FA36
:10A56800012280213548F8F750FE0021AE20FFF780
:10A578002DFD0021D520FFF729FD00215020FFF7F0
:10A5880025FD0021A820FFF721FD00213F20FFF72E
:10A598001DFD0021D320FFF719FD00210020FFF742
:10A5A80015FD00214020FFF711FD00218D20FFF748
:10A5B8000DFD00211420FFF709FD00212020FFF7E1
:10A5C80005FD00210220FFF701FD0021A120FFF772
:10A5D800FDFC0021C020FFF7F9FC0021DA20FFF77D
:10A5E800F5FC00211220FFF7F1FC00218120FFF784
:10A5F800EDFC0021EF20FFF7E9FC0021D920FFF74F
:10A60800E5FC0021F120FFF7E1FC0021DB20FFF74A
:10A61800DDFC00213020FFF7D9FC0021A420FFF742
:10A62800D5FC0021A620FFF7D1FC0021AF20FFF7C1
:10A63800CDFCFFF715FD00BF80BD00BF001801402D
:10A64800B0B483B000AF78607B68243300221A600E
:10A658005A601A727B680C4A03F12E0415460FCD16
:10A6680020606160A260E3600FCD20616161A2613A
:10A67800E3617B68002283F853207B6818460C3717
:10A68800BD46B0BC704700BF442B010880B500AF81
:10A698000E4B1B789BB21A460D490E48FBF71CFA65
:10A6A8000C4B1B68DA680B4B1B6842F01002DA602F
:10A6B800084B1B685A69074B1B6842F001025A6134
:10A6C800054800F000FB00BF80BD00BF6C01002002
:10A6D80040060020F00A00204007002080B500AFA7
:10A6E800024800F04CFB00BF80BD00BF40070020BF
:10A6F80080B582B000AF284B1B68284A934246D1E8
:10A70800254B1B681B6803F01003102B0CBF01239B
:10A718000023DBB2002B14BF01230023DBB2002B84
:10A7280035D01F4B1A781C4B5B6B1B685B68DBB220
:10A73800D31AFB7100233B60174B1B681B683B60F7
:10A74800154B1B685B683B603B681348FBF744FA92
:10A75800134B1B789BB21A4612490F48FBF7BCF9FA
:10A768000346002B14BF01230023DBB2002B08D0C3
:10A77800094B202283F83A20074B002283F838201F
:10A78800E6E7FB791A460749074800F0A8FB00BF2F
:10A798000837BD4680BD00BFF00A002000380140E0
:10A7A8006C010020400600204007002080B586B0DC
:10A7B80000AF78607B681B681B6803F00103012BFE
:10A7C8000CBF01230023DBB2002B14BF012300239D
:10A7D800DBB2002B0AD000237B617B681B681B68F7
:10A7E8007B617B681B685B687B617B697B681B6836
:10A7F8001B6803F00203022B0CBF01230023DBB20A
:10A80800002B14BF01230023DBB2002B0AD0002346
:10A818003B617B681B681B683B617B681B685B68E6
:10A828003B613B697B681B681B6803F00403042BCE
:10A838000CBF01230023DBB2002B14BF012300232C
:10A84800DBB2002B0AD00023FB607B681B681B6807
:10A85800FB607B681B685B68FB60FB687B681B6848
:10A868001B6803F00803082B0CBF01230023DBB28D
:10A87800002B14BF01230023DBB2002B0AD00023D6
:10A88800BB607B681B681B68BB607B681B685B6878
:10A89800BB60BB680E4B1B789BB21A460D490E482D
:10A8A800FBF71AF90346002B14BF01230023DBB280
:10A8B800002B08D0084B202283F83A20064B0022B0
:10A8C80083F83820E6E700BF1837BD4680BD00BFD3
:10A8D8006C01002040060020F00A002080B584B0FA
:10A8E80000AF78600B46FB701848FBF7EFFA034699
:10A8F800232B0CBF01230023DBB2002B00D0F3E78E
:10A90800FB78184604F0C3F90346FB60FB781A4647
:10A918007968F86806F00CFFFB789BB21A46F9686C
:10A928000A48FBF76DF80346002B14BF01230023E8
:10A93800DBB2002B00D0EFE7FB68002B02D0F868F1
:10A9480003F08EFD00BF1037BD4680BDF00A002021
:10A9580090B5A3B008AF78607B6800221A607B6866
:10A9680000225A607B6800229A607B680022DA60C5
:10A978007B6800221A617B6800225A617B6800228A
:10A988009A617B680022DA617B6820334FF4806229
:10A9980097491846FCF78FFB7B6803F128000123D1
:10A9A800039300230293934B019304230093924B48
:10A9B80008229149FDF7AAFA7B6803F158000123A0
:10A9C8000393042302938B4B0193202300938A4B18
:10A9D80010228949FDF79AFA7B6803F188004FF045
:10A9E800FF333C228549FCF71BFB7B6803F194008D
:10A9F80001233C228249FCF713FB7B680022C3F841
:10AA0800A0207B68A43308227E491846FEF78AF9FD
:10AA18007B6803F1B00174A3D3E900230846FCF76F
:10AA280045F97B68C0334FF4806277491846FCF7D4
:10AA380028FA7B68C8331846FFF702FE7B6803F5DF
:10AA480090734FF4807271491846FFF719F97B68C3
:10AA580003F596707B6803F120017B68C0331A46C2
:10AA6800FDF718FA7B6803F5A273184600F0CCFDD1
:10AA78007B6803F5B673184600F000FE022387F8DA
:10AA8800673097F86730012B11D1782004F0EEF881
:10AA980003461C467B6803F128017B6858331A4635
:10AAA8002046FEF781FE7B68C3F8A04012E07820BC
:10AAB80004F0DCF803461C467B6803F128017B6838
:10AAC80003F158027B68A4332046FBF7B1FD7B688D
:10AAD800C3F8A0407B68D3F8A03007F10C000693B8
:10AAE8004B4B05934FF480530493474B03934FF418
:10AAF80000530293444B019308230093434B4FF4B4
:10AB080000423B49FDF73CFB7B68C83307F10C0169
:10AB18005822184606F00CFE07F10C031846FDF7FC
:10AB280077FB7B6859E0204603F096FC03E020465B
:10AB380003F092FCFFE77B6803F5B673184600F054
:10AB4800AAFDFFE77B6803F5A273184600F069FDCC
:10AB5800FFE77B6803F596731846FDF7CDF9FFE725
:10AB68007B6803F590731846FFF7A6F8FFE77B6844
:10AB7800C8331846FDF74CFB7B68C0331846FCF712
:10AB880093F9FFE77B68B0331846FCF7A0F8FFE7B6
:10AB98007B68A4331846FEF7D7F8FFE77B68943341
:10ABA8001846FCF753FAFFE77B6888331846FCF72A
:10ABB8004DFAFFE77B6858331846FDF7CAF9FFE7F7
:10ABC8007B6828331846FDF7C4F9FFE77B68203314
:10ABD8001846FCF783FA03F045FC18466C37BD4667
:10ABE80090BD00BFAFF30080666666666666254066
:10ABF80000180140B00A0020000801407009002038
:10AC0800B009002030090020000C01400014014068
:10AC1800700A002090B583B000AF78607B68D3F8E5
:10AC2800A040002C05D02046FCF7EAF9204603F0A6
:10AC380013FC7B6803F5B673184600F02CFD7B689F
:10AC480003F5A273184600F0ECFC7B6803F59673D5
:10AC58001846FDF751F97B6803F590731846FFF71E
:10AC68002BF87B68C8331846FDF7D2FA7B68C033E7
:10AC78001846FCF719F97B68B0331846FCF727F833
:10AC88007B68A4331846FEF75FF87B689433184650
:10AC9800FCF7DCF97B6888331846FCF7D7F97B6842
:10ACA80058331846FDF755F97B6828331846FDF7E1
:10ACB80050F97B6820331846FCF710FA7B68184671
:10ACC8000C37BD4690BD80B582B000AF78607B6818
:10ACD80003F5B6731846FCF761FA7B6803F5B6739B
:10ACE8001846FDF7DBFE7B6820331846FCF700FAB0
:10ACF8007B68C0331846FCF7F1F8FCF7E6FE7B6882
:10AD080028331846FDF72FF97B6858331846FDF7A6
:10AD18002AF97B6888331846FCF7A2F97B689433D4
:10AD28001846FCF79DF97B68A4331846FEF716F819
:10AD38007B68B0331846FBF7D5FF7B68C8331846E5
:10AD4800FDF770FA7B6803F590731846FEF7BEFFAF
:10AD5800FFF7FCFB786800F0BDFB7B68C033184642
:10AD6800FCF7ACF84FF4FA70F6F7C2FE7B68C03314
:10AD78001846FCF7B3F800BF0837BD4680BD90B54C
:10AD88008BB002AF78600023FB77F6F7A7FE024688
:10AD98007B681B69D31A42F2107293428CBF01235D
:10ADA8000023DBB2002B13D0F6F798FE02467B682F
:10ADB8001A617B68B0331846FBF7A6FF0346FB779A
:10ADC800786800F087FB7B68B0331846FCF708F812
:10ADD800F6F784FE02467B68DB68D31AB3F57A7F00
:10ADE8008CBF01230023DBB2002B28D0F6F776FEB8
:10ADF80002467B68DA607B68B0331846FBF79CFF35
:10AE08007B68B0331846FCF72FF802460B46C7E9B3
:10AE18000423182003F02AFF03461C46D7E904231D
:10AE28002046FEF711FCFC607B6803F5B672FB68F0
:10AE3800BB6007F1080319461046FCF701FAFB7FCF
:10AE4800002B31D07B68C0331846FCF737F84FF435
:10AE5800FA60F6F74DFE7B68C0331846FCF73EF8FB
:10AE68004FF4FA60F6F744FE7B68D3F8A0007B68DD
:10AE7800D3F8A0301B68143319684FF000024FF064
:10AE88000003CDE900234FF000024FF0000388478C
:10AE98007B68D3F8A0207B68D3F8A0301B681833F0
:10AEA8001B681046984717E0786800F040F9786802
:10AEB80000F039F8786800F077F8786800F0B4F8AE
:10AEC800786800F095FA786800F0CEF804E020463B
:10AED80003F0C2FA03F0C6FA2437BD4690BD80B528
:10AEE80086B000AFF860B9601346FB7100237B6140
:10AEF800FB797A699A420CDAFB6803F5A2707B69E0
:10AF0800BA681344194600F0F3FB7B6901337B618F
:10AF1800EEE7FB68C83300211846FDF7A0F900BF2B
:10AF28001837BD4680BD90B585B000AF78607B68A6
:10AF380003F5B673184600F0FCFB0346002B2FD12F
:10AF48007B6803F5B673184600F005FC03461B68DA
:10AF5800FB60FB681B6808331B68F8689847044661
:10AF6800FB681B680C331B68F8689847034619464A
:10AF78002046FFF7B3FC7B6803F5B673184600F06C
:10AF8800FEFBFB681B6810331B68F8689847FB6872
:10AF9800002B06D01A68043212681846904700E061
:10AFA80000BF1437BD4690BD80B584B000AF78604F
:10AFB800F6F794FD02467B689B68D31A092B94BF69
:10AFC80001230023DBB2002B2AD1F6F787FD0246C6
:10AFD8007B689A607B6888331846FCF751F803460B
:10AFE800FB607B682833F9681846FDF781F87B68B1
:10AFF80094331846FCF744F80346BB607B68583323
:10B00800B9681846FDF774F87B68D3F8A0207B6808
:10B01800D3F8A0301B6818331B681046984700E027
:10B0280000BF1037BD4680BD80B582B000AF7860E4
:10B03800F6F754FD02467B685B69D31A312B94BF3F
:10B0480001230023DBB2002B0AD1F6F747FD0246A5
:10B058007B685A617B68C8331846FDF711F900E030
:10B0680000BF0837BD4680BD90B58BB002AF786091
:10B07800F6F734FD02467B685B68D31A132B94BF3E
:10B0880001230023DBB2002B4DD1F6F727FD024642
:10B098007B685A607B68D3F8A0207B68D3F8A0301F
:10B0A8001B6808331B68104698477B68D3F8A020B4
:10B0B8007B68D3F8A0301B680C331B681046984790
:10B0C80002460B46C7E906237B68D3F8A0207B68B5
:10B0D800D3F8A0301B6810331B6810469847024607
:10B0E8000B46C7E90423202003F0C0FD03461C4695
:10B0F800D7E90423CDE90023D7E906232046FEF744
:10B108007DF8FC607B6803F5B672FB68BB6007F1ED
:10B11800080319461046FCF793F805E0204603F0AB
:10B128009BF903F09FF900BF2437BD4690BD90B549
:10B1380091B000AF78607B6803F5A273184600F001
:10B148003DFB0346002B40F049817B6803F5A27361
:10B15800184600F033FB034683F00103DBB2002BF3
:10B168000CD07B6803F5A27300211846FEF734FE65
:10B1780003461B78AB2B01D0012300E00023002BF2
:10B1880006D07B6803F5A273184600F029FBDCE7BC
:10B198007B6803F5A273184600F041FB0346012BB8
:10B1A80094BF01230023DBB2002B40F019817B6898
:10B1B80003F5A27301211846FEF70EFE03461B781D
:10B1C800BC2B14BF01230023DBB2002B0CD07B68FF
:10B1D80003F5A273184600F003FB7B6803F5A2731E
:10B1E800184600F0FDFA00E17B6803F5A2731846E3
:10B1F80000F015FB0346032B94BF01230023DBB2A9
:10B20800002B40F0EF807B6803F5A27302211846FB
:10B21800FEF7E2FD03461B7887F837307B6803F5B5
:10B22800A27303211846FEF7D7FD03461B7887F85B
:10B2380036307B6803F5A273184600F0F0FA024630
:10B2480097F8363004339A4234BF01230023DBB227
:10B25800002B40F0C9807B6803F5A27207F1080350
:10B268001146184600F0EDFA97F836300433DAB292
:10B2780007F1080311461846FEF758FD034683F008
:10B288000103DCB207F10803184600F0CAF9002CE4
:10B298000CD07B6803F5A273184600F0A1FA7B680E
:10B2A80003F5A273184600F09BFA9EE097F8363033
:10B2B800043387F8353097F83530184603F0E7FC43
:10B2C80003463B630023FB6397F83530FA6B9A42D9
:10B2D80011DA7B6803F5A273FA6B11461846FEF77C
:10B2E8007BFD0146FB6B3A6B13440A781A70FB6BC3
:10B2F8000133FB63E8E797F83730012B08D17B6807
:10B30800203397F83520396B1846FDF7D5FB46E012
:10B3180097F83730212B1BD13B6B04331B78012B5B
:10B3280008D17B68283397F83520396B1846FDF724
:10B3380043FC34E03B6B04331B78022B2FD17B6832
:10B34800583397F83520396B1846FDF735FC26E059
:10B3580097F83730312B08D17B68A43397F835201C
:10B36800396B1846FDF748FC19E097F83730222B5F
:10B3780009D17B68D3F8A03097F83520396B184687
:10B38800FDF782FC0BE097F83730022B07D17B687A
:10B39800C03397F83520396B1846FDF7CDFB3B6B6A
:10B3A800002B02D0386B03F05BF80023BB6397F8DF
:10B3B80036300333BA6B9A4217DC7B6803F5A27305
:10B3C800184600F00DFABB6B0133BB63EFE707F1DA
:10B3D8000803184600F025F903F044F800BF04E01C
:10B3E80000BF02E000BF00E000BF4437BD4690BD8B
:10B3F8002DE9F04190B006AF7860F6F76FFB024692
:10B408007B681B68D31A132B94BF01230023DBB27C
:10B41800002B5AD1F6F762FB02467B681A600023BC
:10B428007B8307F11A0207F11C0107F11E03184676
:10B43800FCF75FFC0023BB8207F1140207F1160139
:10B4480007F118031846FCF722FC0023FB8107F1DB
:10B458000E0207F1100107F112031846FCF77BFCF6
:10B468001C2003F003FC03461C46B7F91EC0B7F9BD
:10B478001CE0B7F91A80B7F91830B7F91620B7F9F0
:10B488001410B7F91200B7F91050B7F90E60059605
:10B4980004950390029101920093434672466146D7
:10B4A8002046FDF79FFD7C627B6803F5B6727B6AD8
:10B4B8003B6207F1200319461046FBF7C1FE05E081
:10B4C800204602F0C9FF02F0CDFF00BF2837BD4675
:10B4D800BDE8F08180B588B002AF7860454A0021A8
:10B4E8000020FEF737FF1023002210210020FEF76E
:10B4F800B3FF1023012210211020FEF7ADFF102307
:10B50800022210212020FEF7A7FF1023032210217A
:10B518003020FEF7A1FF1023042210214020FEF75F
:10B528009BFF7B68B0331846FBF79EFC02460B4630
:10B53800C7E90423304A32210020FEF70BFFD7E980
:10B548000401F5F701FB02460C2300930223322184
:10B558000D20FEF791FE294A32211A20FEF7FAFE45
:10B568004FF00002264BD7E90401F5F715F802461B
:10B578000B4610461946F5F7BFFA0346214A82FBE7
:10B5880003125111DA178A1A642101FB02F29B1A7D
:10B59800FB604FF000021A4BD7E90401F4F7FCFFF7
:10B5A80002460B4610461946F5F7A6FA0346154A11
:10B5B80082FB03125111DA178A1A642101FB02F285
:10B5C8009A1A0C230093022332212420FEF754FEFA
:10B5D800FB68092B07DC0C2300930223002232218D
:10B5E8001E20FEF749FEFEF7B9FC00BF1837BD461E
:10B5F80080BD00BF642B0108742B0108782B01085B
:10B60800000059401F85EB5180B582B000AF7860CB
:10B618007B68184600F07CF97B6818460837BD46F9
:10B6280080BD90B591B006AF786007F108037968DE
:10B63800184600F0A7F907F118037968184600F0D2
:10B64800B2F97B68184600F0BFF90346059301ACD0
:10B6580007F118030FCB84E80F007B69009307F10B
:10B6680008030ECB786800F0B9F97B68184600F03B
:10B6780067F97B6818462C37BD4690BD80B582B007
:10B6880000AF78607B68184600F0C3F97B681846FD
:10B698000837BD4680BD90B591B006AF786007F118
:10B6A80008037968184600F0EEF907F1180379687D
:10B6B800184600F0F9F97B68184600F006FA0346C8
:10B6C800059301AC07F118030FCB84E80F007B69E1
:10B6D800009307F108030ECB786800F000FA7B6846
:10B6E800184600F0AEF97B6818462C37BD4690BD69
:10B6F80080B582B000AF786039607B689A697B68F2
:10B708001B6A013B9A420CD078687B689B693A684F
:10B71800194600F0F3F97B689B695A1C7B689A61AB
:10B7280003E03968786800F0FDF900BF0837BD46C6
:10B7380080BD80B582B000AF78607B6803F11802E5
:10B748007B6808331946104600F030FA034618465D
:10B758000837BD4680BD80B586B000AF786007F178
:10B7680008037968184600F08EF907F108031846AF
:10B7780000F02FFA034618461837BD4680BD80B53D
:10B7880082B000AF78607B689A687B681B69043B6D
:10B798009A420CD07A687B689B681946104600F07C
:10B7A80023FA7B689B681A1D7B689A6002E07868B8
:10B7B80000F027FA00BF0837BD4680BD80B582B0CB
:10B7C80000AF78607B6803F118027B68083319467C
:10B7D800104600F03EFA034618460837BD4680BDBD
:10B7E80080B582B000AF78607B689A687B681B6917
:10B7F800013B9A420CD07A687B689B6819461046D0
:10B8080000F03AFA7B689B685A1C7B689A6002E0F1
:10B81800786800F03EFA00BF0837BD4680BD80B5A5
:10B8280082B000AF78607B6803F118027B68083348
:10B838001946104600F055FA034618460837BD4623
:10B8480080BDB0B59AB00AAF786039607C683B6853
:10B85800184600F076FA024607F10C03114618461E
:10B8680000F061FA3868FFF7DAFF024607F10C03C7
:10B878001946204600F07BFA07F10C03184600F041
:10B888006AFA07F120033968184600F08BFA07F1C5
:10B8980030033968184600F094FA7B68184600F0BF
:10B8A80093F8034607F1100509937B6805AC083344
:10B8B8000FCB84E80F0001AC07F130030FCB84E80D
:10B8C8000F00FB6A009307F120030ECB284600F017
:10B8D80087FA7B680CE007F10C03184600F03BFA86
:10B8E80002F0C0FD7B68184600F02AF802F0BAFDA5
:10B8F80018464037BD46B0BD80B582B000AF78600D
:10B90800786800F028FA7B6818460837BD4680BD7D
:10B9180080B582B000AF78607B68184600F086FA80
:10B928000021786800F09EFA7B6805E07B6818467D
:10B93800FFF7E2FF02F096FD18460837BD4680BDC6
:10B9480080B582B000AF78607B681B68002B10D090
:10B958007B6859697B685B6A04331A46786800F02B
:10B96800FBFA7B6819687B685B681A46786800F0A0
:10B978000DFB7B681846FFF7BFFF7B681846083742
:10B98800BD4680BD90B482B000AF786039607A68F7
:10B998003B68144608330FCB84E80F0078680837F3
:10B9A800BD4690BC704790B482B000AF78603960F3
:10B9B8007A683B68144618330FCB84E80F00786820
:10B9C8000837BD4690BC704780B483B000AF78603C
:10B9D8007B6818460C37BD4680BC704784B080B47D
:10B9E80083B000AF786007F1140080E80E0000BF54
:10B9F8000C37BD4680BC04B0704780B582B000AF3C
:10BA08007860786800F0FAFA7B6818460837BD460F
:10BA180080BD80B582B000AF78607B68184600F0C2
:10BA2800D1FA0021786800F0F5FA7B6805E07B68B8
:10BA38001846FFF7E2FF02F015FD18460837BD4625
:10BA480080BD80B582B000AF78607B681B68002B32
:10BA580010D07B6859697B685B6A04331A4678683A
:10BA680000F053FB7B6819687B685B681A46786846
:10BA7800FBF78CFE7B681846FFF7BFFF7B6818460C
:10BA88000837BD4680BD90B482B000AF7860396099
:10BA98007A683B68144608330FCB84E80F0078684F
:10BAA8000837BD4690BC704790B482B000AF78604C
:10BAB80039607A683B68144618330FCB84E80F0066
:10BAC80078680837BD4690BC704780B483B000AF33
:10BAD80078607B6818460C37BD4680BC704784B0D8
:10BAE80080B483B000AF786007F1140080E80E00DE
:10BAF80000BF0C37BD4680BC04B0704780B584B029
:10BB080000AFF860B9607A60786800F018FB034607
:10BB18001A46B968F86800F01CFB00BF1037BD462C
:10BB280080BD0000B0B582B000AF78603960786839
:10BB3800FFF775FE0446786800F022FB03469C4236
:10BB48000CBF01230023DBB2002B02D0164803F000
:10BB580040F90121786800F024FB7A687B685B6A09
:10BB68001C1D104600F038FB034623607C687B6888
:10BB78009D69386800F0E3FA03461A4629462046CC
:10BB8800FFF7BCFF7B6803F118027B685B6A04332C
:10BB980019461046FEF7CAF97B68DA697B689A612C
:10BBA80000BF0837BD46B0BD7C2B010880B483B008
:10BBB80000AF786039607B681A683B681B689A42F6
:10BBC8000CBF01230023DBB218460C37BD4680BCEE
:10BBD800704780B483B000AF78607B681B681846F4
:10BBE8000C37BD4680BC704780B582B000AF786026
:10BBF80039603968786800F014FB00BF0837BD4623
:10BC080080BD80B582B000AF78607B681846FFF7CA
:10BC18005CFF02467B689B6819461046FFF7E4FF05
:10BC28007A687B68DB681946104600F004FB7B687D
:10BC380003F108027B685B69043319461046FBF779
:10BC48000BFC7B68DA687B689A6000BF0837BD46E2
:10BC580080BD80B483B000AF786039607B681A68B3
:10BC68003B681B689A420CBF01230023DBB21846CD
:10BC78000C37BD4680BC704780B582B000AF786095
:10BC880039603968786800F0E9FA00BF0837BD46BE
:10BC980080BD80B582B000AF78607B681846FFF73A
:10BCA80093FE02467B689B6819461046FFF7E4FF3F
:10BCB8007A687B68DB681946104600F09FFA7B6853
:10BCC80003F108027B685B69043319461046FEF7E6
:10BCD8002DF97B68DA687B689A6000BF0837BD4633
:10BCE80080BD80B582B000AF78603960FEF716F984
:10BCF800034619467B68DA683B68DB68D31A9B10F1
:10BD0800013B03FB01F27B6819687B685B68CB1A0F
:10BD18001A443B6899683B681B68CB1A1344184659
:10BD28000837BD4680BD80B582B000AF7860396005
:10BD38007B683968184600F09BFA78680837BD4672
:10BD480080BD80B483B000AF78607B6818460C373C
:10BD5800BD4680BC704780B582B000AF7860786817
:10BD680000F0A1FA7B6818460837BD4680BD80B54B
:10BD780084B000AFF860B9607A60FB68B9681846AB
:10BD880000F09BFA7968F86800F06CF8FB6805E049
:10BD9800FB681846FFF7B0FD02F064FB1846103741
:10BDA800BD4680BD80B582B000AF786039603B6821
:10BDB80008331946786800F09EFA78680837BD4657
:10BDC80080BD80B582B000AF786039603B681833B9
:10BDD8001946786800F08FFA78680837BD4680BD44
:10BDE80084B0B0B58CB00AAF786007F11C0080E869
:10BDF8000E007D6805AC07F13C030FCB84E80F000B
:10BE080001AC07F12C030FCB84E80F00BB6A009349
:10BE180007F11C030ECB284600F088FA00BF7868AB
:10BE28000837BD46BDE8B04004B0704780B582B061
:10BE380000AF7860786800F0A1FA7B6800221A6089
:10BE48007B6800225A607B680833184600F0A2FA23
:10BE58007B681833184600F09DFA7B681846083747
:10BE6800BD4680BD90B589B000AF786039600120CB
:10BE7800FBF77FF902463B68B3FBF2F30133FB6142
:10BE88000823FB60FB6902333B6107F1100207F1ED
:10BE98000C0311461846FBF741FC03461A687B68F9
:10BEA8005A607B685B681946786800F089FA024630
:10BEB8007B681A607B681A687B685968FB69CB1ACB
:10BEC8005B089B001344BB61FB699B00BA69134480
:10BED8007B617A69B969786800F097FA7B680833FA
:10BEE800B9691846FEF722F87B6803F118027B69E6
:10BEF800043B19461046FEF719F87B68DA687B6838
:10BF08009A607B68DC690120FBF733F902463B68DD
:10BF1800B3FBF2F102FB01F29B1AE2187B689A610B
:10BF280017E00346184602F072FB7B6819687B68C5
:10BF38005B681A46786800F029F87B6800221A6066
:10BF48007B6800225A6002F05AFE02F089FB02F078
:10BF580089FA2437BD4690BD80B586B000AFF86039
:10BF6800B9607A60BB687B617A697B689A4209D25A
:10BF78007B691B681946F86800F040F97B6904334F
:10BF88007B61F1E700BF1837BD4680BD80B586B03C
:10BF980000AFF860B9607A6007F11403F9681846D1
:10BFA80000F05CFA07F114037A68B968184600F0E3
:10BFB80072FA07F11403184600F061FA00BF183747
:10BFC800BD4680BD80B582B000AF7860786800F06B
:10BFD80071FA7B6800221A607B6800225A607B68CD
:10BFE8000833184600F072FA7B681833184600F0D8
:10BFF8006DFA7B6818460837BD4680BD80B582B0AB
:10C0080000AF7860786800F077FA7B6818460837E0
:10C01800BD4680BD90B589B000AF78603960042016
:10C02800FBF7A7F802463B68B3FBF2F30133FB6169
:10C038000823FB60FB6902333B6107F1100207F13B
:10C048000C0311461846FBF769FB03461A687B6820
:10C058005A607B685B6819467868FBF772FB024692
:10C068007B681A607B681A687B685968FB69CB1A19
:10C078005B089B001344BB61FB699B00BA691344CE
:10C088007B617A69B969786800F040FA7B6808339F
:10C09800B9691846FBF7E0F97B6803F118027B6978
:10C0A800043B19461046FBF7D7F97B68DA687B68CA
:10C0B8009A607B68DC690420FBF75BF802463B6802
:10C0C800B3FBF2F102FB01F29B1A9B00E2187B68BA
:10C0D8009A6117E00346184602F099FA7B681968D6
:10C0E8007B685B681A467868FBF750FB7B68002220
:10C0F8001A607B6800225A6002F081FD02F0B0FAF3
:10C1080002F0B0F92437BD4690BD80B586B000AFC7
:10C11800F860B9607A60BB687B617A697B689A422B
:10C1280009D27B691B681946F86800F084F87B69B6
:10C1380004337B61F1E700BF1837BD4680BD80B48A
:10C1480083B000AF78607B6818460C37BD4680BC6A
:10C15800704790B585B000AFF860B9607A607868CC
:10C16800FFF7EDFF03461C78BB6819460120FAF774
:10C17800F5FF034622461A7000BF1437BD4690BD2E
:10C1880080B582B000AF78607B681846FFF7D9FDAC
:10C198000346184600F0E3F9034618460837BD463B
:10C1A80080BD80B582B000AF786039603B685A1CAA
:10C1B8007B685B687968486A79680968411A8910F8
:10C1C8005B1A9A4204D900223968786800F0E1F9CC
:10C1D80000BF0837BD4680BD90B583B000AF78601A
:10C1E8007C680120FAF7C5FF03461946204600F08F
:10C1F8006BFA034618460C37BD4690BD90B583B020
:10C2080000AF786039607C680120FAF7B2FF034616
:10C218001A463968204600F066FA00BF0C37BD465A
:10C2280090BD80B483B000AF7860396000BF0C3730
:10C23800BD4680BC704790B583B000AF7860396068
:10C248007C680420FAF795FF03461A4639682046A9
:10C2580000F058FA00BF0C37BD4690BD80B483B0DB
:10C2680000AF7860396000BF0C37BD4680BC7047AE
:10C2780080B582B000AF786039603968786800F0BE
:10C2880004F878680837BD4680BD80B582B000AF35
:10C29800786039603968786800F043FA7B68184636
:10C2A8000837BD4680BD80B483B000AF78607B6836
:10C2B80018460C37BD4680BC704780B582B000AFC9
:10C2C8007860396039687868FFF7DFFF7B6800229B
:10C2D8001A607B6800225A607B680833184600F0B1
:10C2E80059F87B681833184600F054F87B681846EC
:10C2F8000837BD4680BD80B483B000AF7860396030
:10C308003B681A687B681A603B685A687B685A60A1
:10C318003B689A687B689A603B68DA687B68DA6091
:10C328007B6818460C37BD4680BC704784B0B0B5F2
:10C338008EB00AAF786007F1240080E80E00012370
:10C34800FB737D6805AC07F144030FCB84E80F004D
:10C3580001AC07F134030FCB84E80F003B6B00936B
:10C3680007F124030ECB284600F0E6F900BF7868F1
:10C378001037BD46BDE8B04004B0704780B582B004
:10C3880000AF7860786800F0FDF97B6818460837D8
:10C39800BD4680BD80B483B000AF78607B68002262
:10C3A8001A607B6800225A607B6800229A607B686A
:10C3B8000022DA607B6818460C37BD4680BC70479F
:10C3C80090B585B000AF7860396007F10C037968E3
:10C3D800184600F043F807F10C033968184600F0D6
:10C3E800DBF9044600BF07F10C03184600F047F8D4
:10C3F800234606E007F10C03184600F040F802F067
:10C4080031F818461437BD4690BD80B586B000AFE8
:10C41800F860B9607A60BB687B617A697B689A4228
:10C4280018D2F868FFF7D8FE02467B691A607B6964
:10C4380004337B61F1E70346184602F0E8F87A69AD
:10C44800B968F868FFF788FD02F0D9FB02F008F92F
:10C4580002F008F800BF1837BD4680BD80B582B02D
:10C4680000AF786039603868FFF76BFC03461946FF
:10C47800786800F0A0F978680837BD4680BD80B5B7
:10C4880082B000AF7860786800F0A2F97B6818463F
:10C498000837BD4680BD80B584B000AFF860B9608C
:10C4A8007A607A68B968F86800F09CF900BF1037BC
:10C4B800BD4680BD80B582B000AF7860786800F076
:10C4C8009EF97B6818460837BD4680BD80B483B0A6
:10C4D80000AF78607B6800221A607B6800225A608F
:10C4E8007B6800229A607B680022DA607B681846C5
:10C4F8000C37BD4680BC704780B483B000AF78600D
:10C508007B6818460C37BD4680BC704780B586B03E
:10C5180000AFF860B9607A60BB687B617A697B6854
:10C528009A4218D2F868FAF785FF02467B691A60C2
:10C538007B6904337B61F1E70346184602F067F82C
:10C548007A69B968F868FFF7E0FD02F058FB02F075
:10C5580087F801F087FF00BF1837BD4680BD80B55A
:10C5680084B000AF78606FF00043FB60786800F03B
:10C5780050F90346BB6007F1080207F10C031146A6
:10C588001846FBF788F803461B6818461037BD465F
:10C5980080BD90B58BB000AFF860B9601346FB71F1
:10C5A800FB685A6AFB685B69D31A9B1001333B62CC
:10C5B800BB683A6A1344FB61FB685A68FB695B0015
:10C5C8009A422DD9FB681A68FB685968FB69CB1A2F
:10C5D8005B089900FB79002B02D0BB689B0000E048
:10C5E80000230B4413447B62FB685B697A6A9A42B6
:10C5F80009D2FB685869FB685B6A04337A6A194692
:10C6080000F013F949E0FB685869FB685B6A191D7B
:10C618003B6A9B007A6A13441A4600F01EF93CE014
:10C62800FB685C68FB68043307F10802114618468A
:10C63800FBF774F803461B6823440233BB61FB68AD
:10C64800B9691846FFF7BCFE03467B61BA69FB6906
:10C65800D31A5B089A00FB79002B02D0BB689B00B9
:10C6680000E0002313447A6913447B62FB6858692D
:10C67800FB685B6A04337A6A194600F0D6F8F868F2
:10C68800FB681968FB685B681A46FFF77FFCFB6864
:10C698007A691A60FB68BA695A60FB680833796A74
:10C6A8001846FDF743FCFB6803F118003B6A03F1E9
:10C6B8008043013B9B007A6A13441946FDF736FC18
:10C6C80000BF2C37BD4690BD80B582B000AF786002
:10C6D800396000223968786800F0D7F803461846B0
:10C6E8000837BD4680BD80B584B000AFF860B9603A
:10C6F8007A607A68B968F86800F0E3F800BF103724
:10C70800BD4680BD80B584B000AFF860B9607A607E
:10C718007A68B968F86800F0E1F800BF1037BD46DC
:10C7280080BD80B483B000AF786039607B681846FC
:10C738000C37BD4680BC704784B0B0B58CB00AAF2A
:10C74800786007F11C0080E80E007D6805AC07F1F1
:10C758003C030FCB84E80F0001AC07F12C030FCB8F
:10C7680084E80F00BB6A009307F11C030ECB284630
:10C7780000F0C1F800BF78680837BD46BDE8B04092
:10C7880004B0704780B483B000AF78607B68184607
:10C798000C37BD4680BC704780B582B000AF78606A
:10C7A800396000223968786800F0DDF803461846D9
:10C7B8000837BD4680BD80B582B000AF786039606B
:10C7C800786800F0EEF87B6818460837BD4680BDEB
:10C7D80080B483B000AF78607B6818460C37BD46DC
:10C7E80080BC704780B584B000AFF860B9607A60EB
:10C7F800B86801F031FE00BF1037BD4680BD80B477
:10C8080083B000AF78607B6818460C37BD4680BCA3
:10C81800704780B582B000AF7860786800F0CBF8D8
:10C82800034618460837BD4680BD90B585B000AFB1
:10C83800F860B9607A60F86800F0C8F80446B8682B
:10C8480000F0C4F803467A681946204600F0C8F894
:10C85800034618461437BD4690BD90B585B000AF65
:10C86800F860B9607A60F86800F0B0F80446B86813
:10C8780000F0ACF803467A681946204600F0D3F871
:10C88800034618461437BD4690BD80B584B000AF46
:10C89800F860B9607A60F86800F08DF80246BB6805
:10C8A80093428CBF01230023DBB2002B01D002F09E
:10C8B8008DFAB86802F0DAF9034618461037BD4613
:10C8C80080BD80B584B000AFF860B9607A60B868A0
:10C8D80001F0C2FD00BF1037BD4680BD80B584B0F1
:10C8E80000AFF860B9607A60B86801F0B5FD00BFC4
:10C8F8001037BD4680BD84B0B0B594B00AAF78603B
:10C9080007F13C0080E80E0007F10800BB6C0093BB
:10C9180007F13C030ECB00F0A9F807F11800BB6D36
:10C92800009307F14C030ECB00F0A0F87D6805AC2E
:10C9380007F15C030FCB84E80F0001AC07F1180383
:10C948000FCB84E80F007B69009307F108030ECB37
:10C95800284600F0A1F800BF78682837BD46BDE832
:10C96800B04004B0704780B584B000AFF860B960DB
:10C978007A60F86800F0E4F80246BB6893428CBF1E
:10C9880001230023DBB2002B01D002F01FFABB68A1
:10C998009B00184602F06AF9034618461037BD4650
:10C9A80080BD80B483B000AF78607B6818460C37D0
:10C9B800BD4680BC704780B483B000AF78606FF02C
:10C9C800004318460C37BD4680BC704780B483B01E
:10C9D80000AF78607B6818460C37BD4680BC70474E
:10C9E800B0B584B000AFF860B9607A60F86800F05C
:10C9F800B2F80446B86800F0AEF805467B681846F9
:10CA080000F0A9F803461A462946204600F0ADF87A
:10CA180002463B1D1146184600F0B9F80346184671
:10CA28001037BD46B0BDB0B584B000AFF860B9608E
:10CA38007A60F86800F08FF80446B86800F08BF860
:10CA480005467B68184600F086F803461A462946CC
:10CA5800204600F0A7F802463B1D1146184600F094
:10CA680096F8034618461037BD46B0BD84B090B45A
:10CA780082B000AF786007F1140080E80E007B6890
:10CA88001C4607F114030FCB84E80F0078680837B9
:10CA9800BD4690BC04B0704784B0B0B59CB00AAF36
:10CAA800786007F15C0080E80E0007F10800BB6EB3
:10CAB800009307F15C030ECB00F086F807F118002D
:10CAC800BB6F009307F16C030ECB00F07DF807F104
:10CAD8002800D7F88830009307F17C030ECB00F0CC
:10CAE80089F807F1380505AC07F128030FCB84E86E
:10CAF8000F0001AC07F118030FCB84E80F007B6926
:10CB0800009307F108030ECB284600F089F87C68EB
:10CB180007F17C056A4607F1400393E8030082E8C1
:10CB2800030007F138030CCB2946204600F0A0F893
:10CB380000BF78684837BD46BDE8B04004B07047CC
:10CB480080B483B000AF78606FF0604318460C374C
:10CB5800BD4680BC704780B483B000AF78607B6806
:10CB680018460C37BD4680BC704780B586B000AF0C
:10CB7800F860B9607A600123FB757A68B968F8686B
:10CB880000F08DF8034618461837BD4680BD80B4BE
:10CB980083B000AF786039603B6818460C37BD46F3
:10CBA80080BC704780B586B000AFF860B9607A6025
:10CBB8000123FB757A68B968F86800F08DF80346B8
:10CBC80018461837BD4680BD84B090B482B000AF17
:10CBD800786007F1140080E80E007B681C4607F1B6
:10CBE80014030FCB84E80F0078680837BD4690BC63
:10CBF80004B0704784B090B482B000AF786007F199
:10CC0800140080E80E007B681C4607F114030FCB64
:10CC180084E80F0078680837BD4690BC04B07047B8
:10CC280084B0B0B58EB00AAF786007F1240080E810
:10CC38000E000023FB737D6805AC07F144030FCB9E
:10CC480084E80F0001AC07F134030FCB84E80F0030
:10CC58003B6B009307F124030ECB284600F05EF8E7
:10CC680000BF78681037BD46BDE8B04004B07047D3
:10CC780082B090B482B000AF7860396007F11001DB
:10CC880081E80C007B681C4607F110030FCB84E891
:10CC98000F0078680837BD4690BC02B0704780B571
:10CCA80086B000AFF860B9607A60BA68FB68D31ADA
:10CCB8009B107B617B69002B06D07B699B001A4621
:10CCC800F968786804F042FD7B699B007A68134430
:10CCD80018461837BD4680BD80B586B000AFF860ED
:10CCE800B9607A60BA68FB68D31A9B107B617B696C
:10CCF800002B0AD07B699B005B427A68D0187B695D
:10CD08009B001A46F96804F021FD7B699B005B4291
:10CD18007A68134418461837BD4680BD84B090B56C
:10CD280085B000AF786007F1240080E80E0007F1B5
:10CD3800240207F134031146184600F02EF8F86073
:10CD4800FB68002B1BDD07F12403184600F047F8A9
:10CD5800044607F144031846FDF782F80346227893
:10CD68001A7007F12403184600F044F807F1440349
:10CD7800184600F05EF8FB68013BFB60E0E77B6863
:10CD88001C4607F144030FCB84E80F00786814377A
:10CD9800BD46BDE8904004B0704780B582B000AF92
:10CDA8007860396000F064F8034619467B68DA68F1
:10CDB8003B68DB68D31A9B10013B03FB01F27B68DD
:10CDC80019687B685B68CB1A1A443B6899683B68AA
:10CDD8001B68CB1A134418460837BD4680BD80B47B
:10CDE80083B000AF78607B681B6818460C37BD4677
:10CDF80080BC704780B582B000AF78607B681B68E4
:10CE08005A1C7B681A607B681A687B689B689A4220
:10CE18000AD17B68DB6804331946786800F030F87B
:10CE28007B685A687B681A607B6818460837BD4675
:10CE380080BD80B582B000AF78607B681B685A1CE3
:10CE48007B681A607B681A687B689B689A420AD17B
:10CE58007B68DB68043319467868FDF767F87B68F8
:10CE68005A687B681A607B6818460837BD4680BDDB
:10CE780080B500AF0120FAF77CF90346184680BD5B
:10CE880090B583B000AF786039607B683A68DA6043
:10CE98003B681A687B685A607B685C68FFF7E8FF44
:10CEA8000346E2187B689A6000BF0C37BD4690BD08
:10CEB80080B582B000AF786039607B68012B0CD1F7
:10CEC8003B684FF6FF72934207D10648FDF740FDD5
:10CED800054A0649034801F046FA00BF0837BD462F
:10CEE80080BD00BF40070020000000201DAC0008E6
:10CEF80080B500AF4FF6FF710120FFF7D9FF80BD65
:10CF080080B582B000AF184B5B69174A43F0010344
:10CF18005361154B5B6903F001037B607B6800225A
:10CF280000210C20F5F70DFB0C20F5F726FB00225D
:10CF380000210D20F5F705FB0D20F5F71EFB00225B
:10CF480000210E20F5F7FDFA0E20F5F716FB00225A
:10CF580000210F20F5F7F5FA0F20F5F70EFB00BFBB
:10CF68000837BD4680BD00BF0010024080B58AB0BA
:10CF780000AF07F1180300221A605A609A60DA605D
:10CF8800794B9B69784A43F040039361764B9B69E0
:10CF980003F040037B617B69734B9B69724A43F0E2
:10CFA80010039361704B9B6903F010033B613B696D
:10CFB8006D4B9B696C4A43F0040393616A4B9B6910
:10CFC80003F00403FB60FB68674B9B69664A43F008
:10CFD80008039361644B9B6903F00803BB60BB685B
:10CFE800614B9B69604A43F0200393615E4B9B69E8
:10CFF80003F020037B607B6800224FF4AF515B484D
:10D00800F6F703F900223C215948F6F7FEF800220A
:10D0180020215848F6F7F9F800224FF43C415648C9
:10D02800F6F7F3F8002208215448F6F7EEF81F2324
:10D03800BB610323FB6107F1180319464B48F5F759
:10D0480039FF4FF4AF53BB610123FB6100233B62FF
:10D0580002237B6207F1180319464448F5F72AFFB3
:10D0680043F20F03BB610323FB6107F11803194661
:10D078004048F5F71FFF3C23BB610123FB610023F8
:10D088003B6202237B6207F1180319463848F5F71B
:10D0980011FF2023BB610123FB6100233B620223B4
:10D0A8007B6207F1180319463248F5F703FF44F28B
:10D0B8003703BB610323FB6107F1180319462E48A8
:10D0C800F5F7F8FE4FF40043BB610023FB61002332
:10D0D8003B6207F1180319462448F5F7EBFE4FF4B5
:10D0E8003C43BB610123FB6100233B6202237B625B
:10D0F80007F1180319462048F5F7DCFE4FF4807352
:10D10800BB610023FB6101233B6207F11803194649
:10D118001A48F5F7CFFE4FF6F763BB610323FB61AF
:10D1280007F1180319461548F5F7C4FE4FF4C8531C
:10D13800BB610323FB6107F1180319460C48F5F797
:10D14800B9FE0823BB610123FB6100233B62022374
:10D158007B6207F1180319460848F5F7ABFE00BFD4
:10D168002837BD4680BD00BF0010024000180140AE
:10D178000008014000100140000C0140001401406B
:10D1880080B500AF124B134A1A60114B124A5A600D
:10D198000F4B00229A600E4B0022DA600C4B4FF4C2
:10D1A80080421A610A4B00225A61094B00229A6197
:10D1B800074B0022DA61064B00221A620448F6F790
:10D1C8003DF80346002B01D000F0F2F800BF80BD07
:10D1D800D808002000540040A086010080B58AB01D
:10D1E80000AF786007F1140300221A605A609A6051
:10D1F800DA607B681B681D4A934232D11C4B9B69DD
:10D208001B4A43F008039361194B9B6903F0080319
:10D218003B613B694FF440737B611223BB6103237D
:10D228003B6207F1140319461248F5F743FE124B07
:10D238005B687B627B6A43F0E0637B627B6A43F0F6
:10D2480002037B620C4A7B6A5360094BDB69084A1C
:10D2580043F40013D361064BDB6903F40013FB604E
:10D26800FB6800BF2837BD4680BD00BF00540040A2
:10D2780000100240000C01400000014080B500AFE2
:10D28800FDF736FA00BF80BD80B582B000AF786088
:10D29800391D4FF6FF7301220348F8F717FB7B6827
:10D2A80018460837BD4680BD300B002080B500AF5A
:10D2B800F4F7BCFB00F01FF8FFF758FEFFF720FE5D
:10D2C800F9F73CF9FFF75CFF00F0FEF900F0A4FA6B
:10D2D80000F0F6FA00F048FB00F09AFB00F022FCA0
:10D2E80000F072FE00F09AFE00F0E6FBFDF7CEF9C2
:10D2F800FDF7F4F9FCE780B596B000AF07F130030D
:10D3080028220021184604F03BFA07F11C030022EA
:10D318001A605A609A60DA601A613B1D00221A602E
:10D328005A609A60DA601A615A6101233B634FF4CC
:10D3380080337B630023BB6301233B640223FB64CC
:10D348004FF480333B654FF4E0137B6507F13003FE
:10D358001846F6F713FF0346002B01D000F028F813
:10D368000F23FB6102233B6200237B624FF480633F
:10D37800BB620023FB6207F11C0302211846F7F782
:10D388007DF90346002B01D000F012F802237B60E0
:10D398004FF40043FB603B1D1846F7F709FB0346B3
:10D3A800002B01D000F004F800BF5837BD4680BDFF
:10D3B80080B400AF00BFBD4680BC704780B485B064
:10D3C80000AF154B9B69144A43F001039361124B5C
:10D3D8009B6903F00103BB60BB680F4BDB690E4A16
:10D3E80043F08053D3610C4BDB6903F080537B60BF
:10D3F8007B680A4B5B68FB60FB6823F0E063FB60BB
:10D40800FB6843F00073FB60044AFB68536000BF8D
:10D418001437BD4680BC7047001002400000014030
:10D4280080B400AF00BFBD4680BC704780B400AF79
:10D43800FEE780B400AFFEE780B400AFFEE780B43B
:10D4480000AFFEE780B400AF00BFBD4680BC7047A8
:10D4580080B400AF00BFBD4680BC704780B400AF49
:10D4680000BFBD4680BC704780B500AFF4F724FB11
:10D4780000BF80BD80B500AF0248F5F7B1FA00BF24
:10D4880080BD00BF3C0C002080B500AF0248F5F716
:10D49800A7FA00BF80BD00BFF80B002080B500AF21
:10D4A8000248F5F79DFA00BF80BD00BFB40B00200D
:10D4B80080B500AF0248F5F793FA00BF80BD00BF02
:10D4C800700B002080B500AF0348F8F7E1FBFFF7C9
:10D4D800D5FE00BF80BD00BFF00A002080B500AFB8
:10D4E8000348F8F7D5FBFFF7C9FE00BF80BD00BFB2
:10D4F800300B002080B400AF01231846BD4680BC25
:10D50800704780B582B000AF7860396004F0D6F813
:10D51800034616221A604FF0FF3318460837BD46F7
:10D5280080BD80B582B000AF78604FF0FF31786879
:10D53800FFF7E7FFFEE780B586B000AFF860B96097
:10D548007A6000237B610AE0AFF300800146BB6884
:10D558005A1CBA60CAB21A707B6901337B617A6956
:10D568007B689A42F0DB7B6818461837BD4680BD59
:10D5780080B586B000AFF860B9607A6000237B613F
:10D5880009E0BB685A1CBA601B781846FFF77CFE96
:10D598007B6901337B617A697B689A42F1DB7B683E
:10D5A80018461837BD4680BD80B584B000AF786096
:10D5B800114B1B68002B02D10F4B104A1A600E4BFF
:10D5C8001B68FB600C4B1A687B6813446A469342DD
:10D5D80007D904F073F803460C221A604FF0FF33A2
:10D5E80006E0054B1A687B681344034A1360FB681E
:10D5F80018461037BD4680BD2C090020B80C002005
:10D6080080B483B000AF78604FF0FF3318460C3712
:10D61800BD4680BC704780B483B000AF7860396085
:10D628003B684FF400525A60002318460C37BD4639
:10D6380080BC704780B483B000AF7860012318467F
:10D648000C37BD4680BC704780B485B000AFF86029
:10D65800B9607A60002318461437BD4680BC70470D
:10D6680080B400AF154B1B68144A43F001031360E4
:10D67800124B5A681149124B13404B600F4B1B68F1
:10D688000E4A23F0847323F4803313600B4B1B681A
:10D698000A4A23F480231360084B5B68074A23F483
:10D6A800FE035360054B4FF41F029A60054B4FF081
:10D6B80000629A6000BFBD4680BC704700100240FF
:10D6C8000000FFF800ED00E080B592B000AF07F170
:10D6D800400300221A605A6007F1240300221A60EE
:10D6E8005A609A60DA601A615A619A613B1D202279
:10D6F8000021184604F044F8454B464A1A60444B4A
:10D7080047225A60424B00229A60414B44F61F62FE
:10D71800DA603F4B00221A613D4B00225A613C4BB4
:10D7280000229A613A48F7F757FB0346002B01D0CD
:10D73800FFF73EFE00233B6400237B6407F14003B0
:10D7480019463348F7F7E0FF0346002B01D0FFF7EF
:10D758002FFE60237B620023BB620023FB62002351
:10D768003B6300237B630023BB630023FB6307F158
:10D778002403002219462648F7F7B6FC0346002B77
:10D7880001D0FFF715FE07F12403042219462048AB
:10D79800F7F7AAFC0346002B01D0FFF709FE07F1B3
:10D7A8002403082219461A48F7F79EFC0346002B63
:10D7B80001D0FFF7FDFD07F124030C221946144898
:10D7C800F7F792FC0346002B01D0FFF7F1FD002389
:10D7D8007B600023BB600023FB6000233B610023C8
:10D7E8007B614FF40053BB6100233B623B1D19462C
:10D7F8000748F7F7CDFF0346002B01D0FFF7D8FD08
:10D80800034800F077FB00BF4837BD4680BD00BF26
:10D8180030090020002C014080B58CB000AF07F122
:10D828000C0324220021184603F0AAFF3B1D002206
:10D838001A605A60214B4FF080421A601F4B002239
:10D848005A601E4B00229A601C4B4FF6FF72DA603A
:10D858001A4B00221A61194B00229A610323FB60BC
:10D8680000233B6101237B610023BB610023FB6133
:10D8780000233B6201237B620023BB620023FB621F
:10D8880007F10C0319460D48F7F768FB0346002B10
:10D8980001D0FFF78DFD00237B600023BB603B1D9B
:10D8A80019460648F7F730FF0346002B01D0FFF76B
:10D8B8007FFD00BF3037BD4680BD00BF7009002026
:10D8C80080B58CB000AF07F10C0324220021184664
:10D8D80003F056FF3B1D00221A605A60204B214A74
:10D8E8001A601F4B00225A601D4B00229A601C4B85
:10D8F8004FF6FF72DA601A4B00221A61184B0022A9
:10D908009A610323FB6000233B6101237B610023B1
:10D91800BB610023FB6100233B6201237B62002380
:10D92800BB620023FB6207F10C0319460C48F7F7AA
:10D9380015FB0346002B01D0FFF73AFD00237B605F
:10D948000023BB603B1D19460548F7F7DDFE03467B
:10D95800002B01D0FFF72CFD00BF3037BD4680BD3E
:10D96800B00900200004004080B58CB000AF07F17A
:10D978000C0324220021184603F002FF3B1D00225D
:10D988001A605A60204B214A1A601F4B00225A60C5
:10D998001D4B00229A601C4B4FF6FF72DA601A4B3F
:10D9A80000221A61184B00229A610323FB600023AE
:10D9B8003B6101237B610023BB610023FB610023E2
:10D9C8003B6201237B620023BB620023FB6207F1F9
:10D9D8000C0319460C48F7F7C1FA0346002B01D08F
:10D9E800FFF7E6FC00237B600023BB603B1D194664
:10D9F8000548F7F789FE0346002B01D0FFF7D8FC4E
:10DA080000BF3037BD4680BDF00900200008004047
:10DA180080B58CB000AF07F10C0324220021184612
:10DA280003F0AEFE3B1D00221A605A60204B214ACB
:10DA38001A601F4B00225A601D4B00229A601C4B33
:10DA48004FF6FF72DA601A4B00221A61184B002257
:10DA58009A610323FB6000233B6101237B61002360
:10DA6800BB610023FB6100233B6201237B6200232F
:10DA7800BB620023FB6207F10C0319460C48F7F759
:10DA88006DFA0346002B01D0FFF792FC00237B6060
:10DA98000023BB603B1D19460548F7F735FE0346D2
:10DAA800002B01D0FFF784FC00BF3037BD4680BD96
:10DAB800300A0020000C004080B582B000AF3B4621
:10DAC80000221A605A60154B154A1A60134B4722F8
:10DAD8005A60124B00229A60104B4FF6FF72DA60C0
:10DAE8000E4B00229A610D48F7F7FEF80346002B0B
:10DAF80001D0FFF75DFC00233B6000237B603B46C1
:10DB080019460648F7F700FE0346002B01D0FFF739
:10DB18004FFC00BF0837BD4680BD00BF700A00201B
:10DB28000010004080B592B000AF07F1400300221A
:10DB38001A605A6007F1240300221A605A609A603A
:10DB4800DA601A615A619A613B1D20220021184649
:10DB580003F016FE454B464A1A60444B00225A60B1
:10DB6800424B00229A60414B41F61F42DA603F4B1C
:10DB780000221A613D4B00225A613C4B00229A61F7
:10DB88003A48F7F729F90346002B01D0FFF710FCB4
:10DB980000233B6400237B6407F1400319463348A4
:10DBA800F7F7B2FD0346002B01D0FFF701FC602315
:10DBB8007B620023BB620023FB6200233B630023DC
:10DBC8007B630023BB630023FB6307F1240300226C
:10DBD80019462648F7F788FA0346002B01D0FFF7C5
:10DBE800E7FB07F12403042219462048F7F77CFADB
:10DBF8000346002B01D0FFF7DBFB07F124030822C3
:10DC080019461A48F7F770FA0346002B01D0FFF7B8
:10DC1800CFFB07F124030C2219461448F7F764FADE
:10DC28000346002B01D0FFF7C3FB00237B600023D2
:10DC3800BB600023FB6000233B6100237B614FF442
:10DC48000053BB6100233B623B1D19460748F7F7A9
:10DC58009FFD0346002B01D0FFF7AAFB034800F005
:10DC680049F900BF4837BD4680BD00BFB00A002053
:10DC78000034014080B485B000AF78607B681B68D1
:10DC8800124A93420CD1124B9B69114A43F4006328
:10DC980093610F4B9B6903F40063FB60FB6810E022
:10DCA8007B681B680B4A93420BD1094B9B69084A56
:10DCB80043F400539361064B9B6903F40053BB6024
:10DCC800BB6800BF1437BD4680BC7047002C0140BC
:10DCD800001002400034014080B590B000AF786079
:10DCE80007F12C0300221A605A609A60DA607B6898
:10DCF8001B68B3F1804F4FD1684BDB69674A43F02B
:10DD08000103D361654BDB6903F00103BB62BB6AA6
:10DD1800624B9B69614A43F0040393615F4B9B69C3
:10DD280003F004037B627B6A5C4B9B695B4A43F0AC
:10DD380008039361594B9B6903F008033B623B6AF4
:10DD48004FF40043FB6200233B6300237B6307F12E
:10DD58002C0319465248F5F7ADF80823FB62002357
:10DD68003B6300237B6307F12C0319464D48F5F705
:10DD7800A1F84D4B5B68FB63FB6B23F44073FB63BB
:10DD8800FB6B43F0E063FB63FB6B43F48073FB6363
:10DD9800454AFB6B53607CE07B681B68434A9342AF
:10DDA80024D13E4BDB693D4A43F00203D3613B4B30
:10DDB800DB6903F00203FB61FB69384B9B69374A57
:10DDC80043F004039361354B9B6903F00403BB6183
:10DDD800BB69C023FB6200233B6300237B6307F11D
:10DDE8002C0319462E48F5F765F852E07B681B6846
:10DDF8002F4A934224D1294BDB69284A43F0040374
:10DE0800D361264BDB6903F004037B617B69234BF9
:10DE18009B69224A43F008039361204B9B6903F0F6
:10DE280008033B613B69C023FB6200233B6300237B
:10DE38007B6307F12C0319461A48F5F73BF828E0ED
:10DE48007B681B681B4A934223D1144BDB69134A36
:10DE580043F00803D361114BDB6903F00803FB604F
:10DE6800FB680E4B9B690D4A43F0040393610B4B0F
:10DE78009B6903F00403BB60BB680323FB620023B8
:10DE88003B6300237B6307F12C0319460448F5F72D
:10DE980011F800BF4037BD4680BD00BF00100240EA
:10DEA80000080140000C014000000140000400404F
:10DEB80000080040000C004080B485B000AF7860D6
:10DEC8007B681B68094A93420BD1094BDB69084AF6
:10DED80043F01003D361064BDB6903F01003FB60CA
:10DEE800FB6800BF1437BD4680BC70470010004077
:10DEF8000010024080B58AB000AF786007F11403C3
:10DF080000221A605A609A60DA607B681B68284AA7
:10DF180093422BD1274B9B69264A43F040039361D8
:10DF2800244B9B6903F040033B613B694FF4D443A6
:10DF38007B610223BB6102233B6207F1140319468C
:10DF48001D48F4F7B7FF1D4B5B687B627B6A23F0C3
:10DF5800C0037B627B6A43F0E0637B627B6A43F0C9
:10DF6800C0037B62154A7B6A53601DE07B681B68AF
:10DF7800134A934218D10F4B9B690E4A43F0100382
:10DF880093610C4B9B6903F01003FB60FB684FF433
:10DF980070737B610223BB6102233B6207F11403A8
:10DFA80019460848F4F786FF00BF2837BD4680BDEC
:10DFB800002C014000100240001801400000014000
:10DFC800003401400010014080B500AF114B124AE7
:10DFD8001A60104B4FF4E1325A600E4B00229A60DF
:10DFE8000C4B0022DA600B4B00221A61094B0C2201
:10DFF8005A61084B00229A61064B0022DA610548F3
:10E00800F7F717FC0346002B01D0FFF7D1F900BF43
:10E0180080BD00BFF00A00200038014080B500AF85
:10E02800114B124A1A60104B4FF4E1325A600E4BF2
:10E0380000229A600C4B0022DA600B4B00221A6116
:10E04800094B0C225A61084B00229A61064B0022A8
:10E05800DA610548F7F7EDFB0346002B01D0FFF71F
:10E06800A7F900BF80BD00BF300B0020004800406A
:10E0780080B58CB000AF786007F11C0300221A60ED
:10E088005A609A60DA607B681B68964A934240F04F
:10E098008780954B9B69944A43F480439361924BE4
:10E0A8009B6903F48043BB61BB698F4B9B698E4AB4
:10E0B80043F0040393618C4B9B6903F004037B6179
:10E0C8007B694FF40073FB6102233B620323BB624D
:10E0D80007F11C0319468548F4F7ECFE4FF48063FA
:10E0E800FB6100233B6200237B6207F11C03194696
:10E0F8007E48F4F7DFFE7E4B7E4A1A607C4B002296
:10E108005A607B4B00229A60794B8022DA60784B08
:10E1180000221A61764B00225A61754B00229A61DF
:10E12800734B0022DA617248F4F742FA0346002B77
:10E1380001D0FFF73DF97B686D4A5A636C4A7B68EA
:10E1480053626D4B6D4A1A606B4B10225A606A4BD2
:10E1580000229A60684B8022DA60674B00221A61BD
:10E16800654B00225A61644B00229A61624B00227F
:10E17800DA616148F4F71CFA0346002B01D0FFF777
:10E1880017F97B685C4A1A635B4A7B685362002212
:10E1980000212520F4F7D5F92520F4F7EEF99DE0C4
:10E1A8007B681B68564A934240F098804E4BDB6967
:10E1B8004D4A43F48023D3614B4BDB6903F480233E
:10E1C8003B613B69484B9B69474A43F010039361A5
:10E1D800454B9B6903F01003FB60FB684FF48063B9
:10E1E800FB6102233B620323BB6207F11C03194650
:10E1F8004448F4F75FFE4FF40063FB6100233B6281
:10E2080000237B6207F11C0319463E48F4F752FECF
:10E218003D4B5B68FB62FB6A23F03003FB62FB6AE1
:10E2280043F0E063FB62FB6A43F01003FB62364A8B
:10E23800FB6A5360354B364A1A60344B00225A60E9
:10E24800324B00229A60314B8022DA602F4B002239
:10E258001A612E4B00225A612C4B00229A612B4BDB
:10E268000022DA612948F4F7A3F90346002B01D00C
:10E27800FFF79EF87B68254A5A63244A7B685362F5
:10E28800244B254A1A60234B10225A60214B002246
:10E298009A60204B8022DA601E4B00221A611D4BC7
:10E2A80000225A611B4B00229A611A4B0022DA6144
:10E2B8001848F4F77DF90346002B01D0FFF778F8EA
:10E2C8007B68144A1A63134A7B6853620022002150
:10E2D8002720F4F736F92720F4F74FF900BF303735
:10E2E800BD4680BD003801400010024000080140D2
:10E2F800700B002058000240B40B0020440002407C
:10E30800004800400010014000000140F80B0020C8
:10E31800300002403C0C00201C000240002103E0B9
:10E328000B4B5B58435004310A480B4B42189A4236
:10E33800F6D30A4A02E0002342F8043B084B9A420B
:10E34800F9D3FFF78DF903F0BFF9FEF7AFFF704778
:10E35800D04A010800000020E4010020E801002064
:10E36800B80C0020FEE70B460146184603F098B9A2
:10E378007FB500241023CDE90234036815469E6951
:10E3880012686B4600948DF80440B0479DF804303D
:10E3980003F00603062B09BF01202046009B2B60D3
:10E3A80004B070BD0098904214BF01200620704749
:10E3B80010B50446024B036000F0EFFC204610BD88
:10E3C8007838010810B50446FFF7F2FF2046082107
:10E3D80000F044F8204610BD2DE9F041DDF8188022
:10E3E8001F46DDE9083498450646154607D10799C2
:10E3F80000F0D6FC18B165710020BDE8F0813946FF
:10E40800304600F0CDFC0028F6D00123C4F8008087
:10E418002571A371F0E738B515461C4600F0C0FC1D
:10E4280020B10823E36006232560237138BD2DE958
:10E43800F04105460C4616461F4600F0B1FC48B9A7
:10E44800032F07D82368324629462046BDE8F04105
:10E458005B691847BDE8F08103F062B9FFF7FCBFBC
:10E46800FFF7FABF1EB400F09CF81EBCF3F7EEF8F5
:10E478000378472B17D143784E2B14D18378552B2B
:10E4880011D1C378432B0ED10379432B0BD1437998
:10E498002B2B08D183792B2B05D1C07901288CBF70
:10E4A8000020012070470020704700002DE9F3414B
:10E4B8001D4603780E46472B0246C17913D143788F
:10E4C8004E2B10D18378552B0DD1C378432B0AD10D
:10E4D8000379462B07D143794F2B04D18379522BEB
:10E4E80001D1002930D01046FFF7C2FF002380F089
:10E4F8000100C0B2002401944BBB50BB01290ABFE4
:10E5080052F8203CA2F12003783B01290CBF52F8B5
:10E51800202C58321C680192236820469B68984733
:10E52800C8B10227019B1B68019333682146D3F8C1
:10E5380010803046012301AAC04770B1019B2B60AF
:10E54800384602B0BDE8F08101230846D2E7044C02
:10E55800E2E7044CE0E70127E7E70746F0E700BFFA
:10E568009C380108A438010810B5044600F0A0F84A
:10E5780002462046A4F12001FFF77AFF60B154F863
:10E58800043C0133012B44F8043C03D1936844F85C
:10E59800083C9160012010BD9368002BF9D000F071
:10E5A80017FB10B500F084F8826801460AB900F03C
:10E5B8000FFB02F120042046FFF75AFF40B1D36950
:10E5C800013BD36113B9906988609361204610BDFF
:10E5D8008860FBE70378472B17D143784E2B14D17B
:10E5E8008378552B11D1C378432B0ED10379432B54
:10E5F8000BD143792B2B08D183792B2B05D1C079EB
:10E6080001288CBF0020012070470020704738B5D2
:10E61800044600F04DF8024605682046A4F12001A2
:10E62800FFF7D8FF28B90DB100F0D2FA11602846DB
:10E6380038BD54F80C3C2046002BB4BFC3F101038D
:10E64800013344F80C3C53688D4203F1FF335360A7
:10E658001CBF44F8105C1160656AF2F74FFCE6E7EE
:10E6680010B500F021F8026801469AB102F12004C1
:10E678002046FFF7AFFF28B908602046BDE81040E4
:10E68800F2F73EBC5369002B05DA013301D110695A
:10E698000860536110BD013B02D113690B60ECE7C0
:10E6A800591CF6D100F094FA00487047800C0020FD
:10E6B80000487047800C002000231A4630B510F837
:10E6C800015B05F07F04944023432C0602F1070206
:10E6D800F5D40B6030BD00231A4630B510F8014B55
:10E6E80004F07F0595402B43250602F10702F5D477
:10E6F8001F2A06D8640642BF4FF0FF3404FA02F21C
:10E7080013430B6030BD50282DE9F3410646884677
:10E7180015461F4608D1D01C20F0030050F8044BC2
:10E728003C6002B0BDE8F08100F00F030C2B2ED83E
:10E73800DFE803F025071D25292D2D2D2D1821256E
:10E748002900284601A9FFF7B7FF019C002CE7D054
:10E7580006F07003102B08BFA8463306444448BF90
:10E768002468DDE7284601A9FFF7B5FFEDE728464D
:10E7780030F8024BEAE7284630F9024BE6E728462C
:10E7880050F8044BE2E7284650F8084BDEE702F061
:10E798007FFF08B50346FF2B084610D003F0700230
:10E7A800302A12D007D8202A0BD002D813F0600FD5
:10E7B80005D002F06DFF402A0BD0502AF9D1002075
:10E7C80008BDBDE8084002F060BFBDE8084002F09F
:10E7D80059BFBDE80840F3F70FB970B50C460146BC
:10E7E800204615461E46FFF7D4FF334601462A4603
:10E7F8002046BDE87040FFF786BF73B50C46154646
:10E80800064628B3F3F7F8F8034620462B6010F8BD
:10E81800011BFF291ED002462B1D3046FFF7DDFFE6
:10E8280010F8013BFF2B2B7516D0102301A92B756F
:10E83800FFF742FF019B0344EB6010F8013B01A97D
:10E848006B75FFF739FF019B03442B6102B070BD64
:10E858000346DAE76B60E3E70023EDE71FB503AB98
:10E86800009300230A461946F2F750FB039805B0B7
:10E878005DF804FB00232DE9F04F91B0059300F0FB
:10E888000303012B06460C4617460ED0022B03D075
:10E89800002B3BD101073BD539462046F3F798F8C2
:10E8A80090B3092011B0BDE8F08F020706D40D6AB5
:10E8B80038460D21FFF7D2FF85422BD002200023D6
:10E8C80006F008060DF1280A06430C2219463846B8
:10E8D800CDF800A00A94F2F73DFB062E1CD1D4E92E
:10E8E8000A59D4F83080B8F1000F0CBF4FF0010B73
:10E8F8004FF0030B16F0080600F00C81BBF1010F76
:10E9080040F0048100F064F90820CBE702F0C0FE73
:10E918000120D4E70620D2E73846F3F773F881469A
:10E928000028B9D0524601463846FFF766FF3946F7
:10E9380005469DF83C00FFF72CFF0F210C90384648
:10E94800FFF78CFF20F0010808F1FF380E9BAB425F
:10E9580040F2C4802A469DF83D1006AB0020FFF720
:10E968003CFF9DF83D10024607AB0020FFF735FF3E
:10E9780008AB02469DF83D100020FFF72EFF09A9BD
:10E98800FFF79AFE0A9B069A05461344434501D9A8
:10E998000E9DDBE7079A13444345D7D9DDF820805D
:10E9A800B8F1000F01D00B9B9844099D15B10E9842
:10E9B800013D0544B8F1000F3FF46EAF002D00F0A3
:10E9C800F78016F00803029334D0472323704E23B0
:10E9D80063705523A3704323E370462323714F23A9
:10E9E80063715223A3710023E3714FF0000B07A951
:10E9F8002846FFF770FE08A90390FFF76CFE0799F9
:10EA0800002968D03ADD9DF83C00FF2832D000F09C
:10EA18000703042B3FF67AAF01A252F823F000BF98
:10EA280081EA000815E900084FEA000881EA0008B1
:10EA380079EA0008E379012B0CBF54F8203C04F173
:10EA480058030593D1E702250D9A09AB05FB11225E
:10EA58000C99FFF758FE099931B17CB30022204682
:10EA680005ABFFF723FD48B34FF0030B079D39E0D3
:10EA78000825E9E70025E7E70425E5E7C1F17F5127
:10EA880001F57F110D9B01F57F513F3103EB8105A6
:10EA9800DCB1029ACAB9059B043D099355F8041FD5
:10EAA80041B10022204609AB2944FFF7FFFC0028AA
:10EAB800F4D0012181F001010029D5D1089D002D54
:10EAC80072D0039B2B441D4691E753F82110B1FAED
:10EAD80081F14909F0E74FF0010BEFE700254FF00E
:10EAE800010BA846F3077FF505AFBBF1020F3FF412
:10EAF800D3AE0D213846059EFFF7B0FEC4E90A598A
:10EB0800C4E90806C4F830800620CBE6002D22DAD6
:10EB180000F070F8BBF1010F02D1204600F08DF92A
:10EB2800002D18DA524649463846FFF766FE394640
:10EB38009DF83C00FFF72DFEEB430D9A0C9002EB7D
:10EB4800830353F826200AB10136FAE70422C4E900
:10EB58000A60C4E90C23002309AE1A461946384650
:10EB680000960994F2F7F6F900230122194638466F
:10EB780000960995F2F7EEF90F213846FFF76EFE79
:10EB8800002300F0010040EA080009900F2219460E
:10EB980038460096F2F7DEF9BBF1020F02D12046A3
:10EBA800FFF7E2FC07207DE6BBF1000F3FF474AEEF
:10EBB8004FF0020B96E700BF08B5804702F068FDEA
:10EBC800024B1868BFF35B8F704700BF78010020C5
:10EBD80008B5FFF7F5FFFFF7EFFF08B58047FFF728
:10EBE800F7FF0000024B1868BFF35B8F704700BF48
:10EBF8007401002008B5FFF7F5FFFFF7EEFF08B531
:10EC0800FFF756FDD0E90042013242604CB394F858
:10EC18002020472A27D194F821204E2A23D194F87E
:10EC28002220552A1FD194F82320432A1BD194F877
:10EC38002420432A17D194F825202B2A13D194F89D
:10EC480026202B2A0FD194F82720012A0BD8626995
:10EC58005242626120342046F2F70AFD2046FFF74F
:10EC6800D6FCFFF7B5FF00220260F3E7012838BFA2
:10EC7800012010B50446204602F04AFD30B900F0E4
:10EC8800FFF808B902F004FD8047F4E710BDFFF76C
:10EC9800EDBF08B5FFF79CFF10B50446024B0360B3
:10ECA800FFF786FB204610BD2C39010810B5044635
:10ECB800FFF7F2FF20460C21FFF7D0FB204610BDDE
:10ECC8002DE9F041DDF81880064690450F461546B7
:10ECD8001C460BD0B0682A460368CDF818801E6A17
:10ECE80039462346B446BDE8F0416047194600F06E
:10ECF80057F80028EED00620BDE8F0812DE9F14F45
:10ED08000D46DDE90A4BDDE90CA619468146174692
:10ED1800984600F045F890B1002D3460377109DB52
:10ED28002C44A2450CBF06240124B471002001B074
:10ED3800BDE8F08F0235F9D10123B371F6E75445E8
:10ED480006D15946484600F02BF808B17771EDE72F
:10ED5800D9F808003A460368CDE90CA6CDE90A4B74
:10ED6800DC6929464346A44601B0BDE8F04F604738
:10ED78002DE9F04107460C4615461E46FFF74BFBAA
:10ED880048B9B8682A46036821469F693346BC4695
:10ED9800BDE8F0416047BDE8F0817047002070474A
:10EDA800814208B50ED0406803782A2B0CD04968F8
:10EDB8000B782A2B08BF0131F2F72EFEB0FA80F04B
:10EDC800400908BD0120FCE70020FAE708B502F079
:10EDD8005FFC08B502F05CFC38B54FF41E65074CC3
:10EDE8002846E56002F094FCA06010B9E06060601D
:10EDF80038BD0023606005604360F9E78C0C002093
:10EE08000378472B17D143784E2B14D18378552B91
:10EE180011D1C378432B0ED10379432B0BD14379FE
:10EE28002B2B08D183792B2B05D1C07901288CBFD6
:10EE38000020012070470020704710B5044648B1F3
:10EE4800FFF7E5FB2046FFF7DBFF18B154F8140C79
:10EE5800FFF7B2FEFFF7BCFE38B50246FFF7D0FF5A
:10EE6800044640B1002552F8184C1046FFF7CFFB76
:10EE78001DB1FFF7BFFE0125F7E72046FFF7ADFEFE
:10EE8800024B1868BFF35B8F704700BF9C0C0020D3
:10EE98002DE9F04FC64B21F0004683B09E42044650
:10EEA8008A46019111DDC34B9E4200F3B88000F001
:10EEB800B380C14BC14AC24CBAF1000FD8BF134648
:10EEC8002046194603B0BDE8F08FBE4B9E4200F3C2
:10EED800C180A3F1DE739E4240F3AE804FF0FF3B4A
:10EEE800019B224619462046F1F756FB02460B467F
:10EEF80080468946F1F750FB95A3D3E900230646DF
:10EF08000F46F1F749FB94A3D3E90023F1F78EF9F3
:10EF180032463B46F1F740FB91A3D3E90023F1F7D2
:10EF280085F932463B46F1F737FB8FA3D3E9002337
:10EF3800F1F77CF932463B46F1F72EFB8CA3D3E977
:10EF48000023F1F773F932463B46F1F725FB8AA314
:10EF5800D3E90023F1F76AF942464B46F1F71CFB67
:10EF680087A3D3E900238046894630463946F1F71E
:10EF780013FB85A3D3E90023F1F756F932463B4644
:10EF8800F1F70AFB82A3D3E90023F1F74DF93246E2
:10EF98003B46F1F701FB80A3D3E90023F1F744F9DD
:10EFA80032463B46F1F7F8FA7DA3D3E90023F1F79F
:10EFB8003BF932463B46F1F7EFFABBF1FF3F024619
:10EFC8000B466ED040464946F1F730F97E4E224650
:10EFD800019BF1F7E1FA7D4B06EBCB064FEACB0B31
:10EFE8009B44DBE90023F1F71FF92246019BF1F767
:10EFF8001BF90B460246D6E90001F1F715F9BAF1FB
:10F00800000F04460B46BFF65BAF01F100432046F4
:10F01800194603B0BDE8F08F00283FF44AAF019BC2
:10F02800224620461946F1F701F904460B462046C8
:10F03800194603B0BDE8F08F5BA3D3E90023F1F7CD
:10F04800F5F80022624BF1F737FD00283FF446AF90
:10F05800534635E700F0C6F85E4B04469E420D461F
:10F0680034DCA3F550239E4259DC02460B46F1F7E7
:10F07800DDF80022564BF1F7D7F800224FF0804315
:10F0880006460F4620462946F1F7D0F802460B46B9
:10F0980030463946F1F7AAFB4FF0000B04460191C0
:10F0A8001EE740464946F1F7C1F82246019BF1F7B1
:10F0B80073FA02460B4620460199F1F7B5F8044663
:10F0C8000B462046194603B0BDE8F08F424B9E42DE
:10F0D8001ADA0022414BF1F7A7F8002206460F463C
:10F0E80020463E4B2946F1F757FA0022384BF1F7F4
:10F0F8009DF802460B4630463946F1F777FB4FF04C
:10F10800020B04460191EBE602460B460020344907
:10F11800F1F76CFB4FF0030B04460191E0E6002287
:10F128002B4BF1F781F8002206460F462046284B64
:10F138002946F1F77BF802460B4630463946F1F787
:10F1480055FB4FF0010B04460191C9E6AFF300806F
:10F1580011DA22E33AAD903FEB0D76244B7BA93FC1
:10F16800513DD0A0660DB13F6E204CC5CD45B73F8F
:10F17800FF8300922449C23F0D5555555555D53F3B
:10F188002F6C6A2C44B4A2BF9AFDDE522DDEAD3F2F
:10F198006D9A74AFF2B0B33F711623FEC671BC3FCF
:10F1A800C4EB98999999C93F9C7500883CE4377ECF
:10F1B800FFFF0F440000F07FFB21F93FFB21F9BF5F
:10F1C800182D4454FFFFDB3F6839010888390108CE
:10F1D8000000F03FFFFFF23F008003400000F83FCF
:10F1E8000000F0BF21F00041704700BFF0B5144D9A
:10F1F80021F00043AB4287B01ADD124DAB4205DD6A
:10F2080002460B46F1F710F807B0F0BD02AA00F06D
:10F21800B3FFDDE904230446DDE90201640004F0DC
:10F228000204C4F10104009401F0B2FE07B0F0BD7D
:10F23800012400220023009401F0AAFE07B0F0BDCB
:10F24800FB21E93FFFFFEF7F2DE9F04F8FB01D460F
:10F2580006460F46144600F0F7F9A44BCDE9000125
:10F2680093F90090B9F1FF3F38D022462B4620464B
:10F278002946F1F72BFC834680BB32463B46304695
:10F288003946F1F723FC8046002840F0D9804FF03A
:10F29800000A4FF0000B3046394652465B46F1F7FC
:10F2A800E3FB00B352465B4620462946F1F7DCFBF8
:10F2B8000390002848D001228D4BCDE90667CDE99F
:10F2C8000845CDE90AABCDE90423CDF83080B9F182
:10F2D800000F68D00023874CCDE90034DDE9000138
:10F2E8000FB0BDE8F08FDDE9000102F035F8804687
:10F2F800002869D0DDE900014FF000084FF000094F
:10F3080042464B46F1F7B0FB0028E7D03046394675
:10F3180002F022F80028E1D02046294602F01CF825
:10F328000028DBD004200021704B714A93F900308B
:10F33800CDE90667022BCDE90845CDE90A89049095
:10F348000C91059272D176E02046294602F004F825
:10F358000028C3D052465B4620462946F1F78EFB6B
:10F368000028BBD00121039A604B0C9293F900301E
:10F378005F4ACDE90667CDE90845CDE90412002BBF
:10F388007BD1CDE90AAB04A802F06AF800287BD04B
:10F398000C9B1BB102F092F90C9B0360DDE90A3467
:10F3A800CDE900349AE704A802F05AF8002870D092
:10F3B8000C9B002BF2D002F081F9DDE90A34CDE98B
:10F3C80000340C9B036089E73046394601F0C4FFDE
:10F3D80000288FD02046294601F0BEFF002889D09A
:10F3E800DDE9002310461946F1F770FB002840F0CC
:10F3F800A480032204923D4A3D4B92F90080CDE956
:10F408000667CDE908450C900593B8F1000F45D182
:10F418004FF06048DFF8F09052465B463046394678
:10F42800CDE90A89F1F72AFB002846D104A802F0A1
:10F4380017F80028ACD102F041F922230360A7E7AE
:10F448000022002320462946F1F70EFB00283FF44E
:10F4580045AF012200202749254BB9F1020FCDE91C
:10F468000667CDE90845CDE90A01CDF830B0049228
:10F47800059398D1CDE9000130E700201E49022B01
:10F48800CDE90A017FF47FAF02F018F92123036068
:10F498007EE702F013F92123036089E7304600264E
:10F4A8003946164F52465B46CDE90A67F1F7E6FA48
:10F4B80060BBB8F1020FBED0B8E70022104B20465F
:10F4C8002946F1F769F804460D4601F0D1FF2246B6
:10F4D8002B46F1F7C9FA60BB4FF06042094B03496C
:10F4E800CDE90A2391F90080E3E700BF7C01002001
:10F4F800A83901080000F03F0000F0FF0000F07F8D
:10F508000000E03FFFFFEFC7FFFFEF470022194B66
:10F5180020462946F1F740F804460D4601F0A8FFB9
:10F5280022462B46F1F7A0FA18B90022124BCDE972
:10F538000A23124B93F90080BBE701220F4BCDE958
:10F54800066793F900900E4BCDE90845CDE90423F1
:10F55800CDF83080B9F1000F3FF413AF52465B4647
:10F5680050465946F1F742F9B9F1020FCDE90A01BF
:10F578008AD008E70000E03F0000F0FF7C0100208F
:10F58800A83901082DE9F04F8BB004460D4601F06B
:10F5980015F82A4B064693F900B00F46BBF1FF3F1A
:10F5A80012D022462B4620462946F1F78FFA82468A
:10F5B80050B94FF000084FF000092046294642464E
:10F5C8004B46F1F75BFA20B9304639460BB0BDE837
:10F5D800F08F01221A4BCDE90445CDE90245CDE96A
:10F5E8000023CDF820A0BBF1000F17D042464B46B0
:10F5F80040464946F1F7FAF8BBF1020FCDE906019A
:10F608000ED102F05BF821230360089B83B9DDE982
:10F618000667304639460BB0BDE8F08FCDE906895C
:10F62800684601F01DFF0028EBD0089B002BEED0A8
:10F6380002F044F8089B0360E9E700BF7C01002062
:10F64800AC390108000000002DE9F04F23F0004517
:10F658001F46984655EA020395B037D08B4689462F
:10F668006F492BF000448C428246034628DC16463C
:10F6780035D08D4224DC6A498D421FD0B9F1000F84
:10F6880036DB00210291002A4DD1654A954200F0EF
:10F698009D80644A954200F0AB80B8F1804F00F03D
:10F6A800D484614A90453ED1B9F1000F3BDB504606
:10F6B800594615B0BDE8F04F00F080BF002ADDD0F4
:10F6C80004F1404404F5801423430BD10023554C26
:10F6D800CDE90034DDE9000115B0BDE8F08F08B9C7
:10F6E800A542C8DD514815B0BDE8F04F01F0BABEDB
:10F6F8004F498D4200F38580A1F154718D420EDD92
:10F708002915A1F2FF31142940F3A984C1F134016C
:10F7180022FA01F000FA01F1914200F0F68400218A
:10F728000291002AB5D0504659460C93FFF75AFD6E
:10F738000C9BCDE9000143BB24B13A4B29F0404270
:10F748009A4222D1B8F1000F07DADDE90023002040
:10F758003449F1F74BF8CDE90001B9F1000FB9DAF6
:10F76800029B04F1404404F58014234340F09C8438
:10F77800DDE9002310461946F0F756FD02460B4610
:10F78800F1F734F8CDE90001A4E7029A4FEAD973FA
:10F79800013B0C93134337D0264B9D424EDD03F1BA
:10F7A80004739D42244B40F3DF839C4240F35E8305
:10F7B800B8F1000F40F35E8317A3D3E90023104686
:10F7C8001946F0F7E9FECDE9000183E704F140426C
:10F7D80002F5801213433FF479AF174B9C4240F374
:10F7E8007383B8F1000FC0F24583CDE9006771E774
:10F7F800B8F1000FC0F21F8450465946CDE9000108
:10F8080068E7022102913EE7524650465B46594658
:10F81800B2E700BFAFF300809C7500883CE4377EF8
:10F828000000F07F0000F03F0000E03FB039010821
:10F83800FFFF3F430000E041FFFFEF3FD04B09EAE5
:10F848000303002B40F05683DDE900010022CD4B75
:10F85800F0F7A2FE6FF0340C0C46CDE90001231539
:10F86800C94AC4F31304A3F2FF3344F07F5503EBF2
:10F878000C0194420D9145F4401540F32E83C34B7F
:10F888009C4240F31E8400230024CDE90A34CDE9CC
:10F89800123400234FF0000ABD4C0131CDE9063483
:10F8A8000D91A5F58015DDE900012946DDE906235E
:10F8B800CDE90801F0F7B8FCDDE906238046894662
:10F8C800DDE90801F0F7B2FC02460B460020B0491A
:10F8D800F0F78CFF03460C461A46CDE90E34404635
:10F8E80023464946F0F758FE0C4603460146224691
:10F8F800CDE90434002400206B1043F0005303F5D5
:10F908000023CDE9001203EB0A010094DDE900AB06
:10F9180004460D4602460B4650465946F0F73CFE53
:10F9280002460B4640464946F0F77EFCDDE90623D1
:10F938008046894620462946F0F776FC02460B4663
:10F94800DDE90801F0F770FC52465B46F0F724FE4B
:10F9580002460B4640464946F0F766FCDDE90E23B1
:10F96800F0F71AFEDDE9048904460D4642464B4687
:10F9780040464946CDE90645F0F70EFE6EA3D3E9A9
:10F98800002304460D46F0F707FE6DA3D3E90023D4
:10F99800F0F74CFC22462B46F0F7FEFD6AA3D3E9AC
:10F9A8000023F0F743FC22462B46F0F7F5FD68A349
:10F9B800D3E90023F0F73AFC22462B46F0F7ECFD9A
:10F9C80065A3D3E90023F0F731FC22462B46F0F774
:10F9D800E3FD63A3D3E90023F0F728FC22462B4676
:10F9E80004460D4610461946F0F7D6FD02460B466A
:10F9F80020462946F0F7D0FD04460D4652465B46A0
:10FA080040464946CDE90489F0F710FCDDE90623B4
:10FA1800F0F7C2FD22462B46F0F708FC5246044692
:10FA28000D465B4650465946F0F7B6FDA046A94636
:10FA380004460D460022574BCDE91045F0F7F6FB7A
:10FA480042464B46CDE90E89F0F7F0FB0D46009C87
:10FA58002B46224650465946F0F79EFD8046894679
:10FA68000022204629464B4BCDE90889F0F7DCFBFC
:10FA7800DDE91023F0F7D8FB02460B46DDE90E015D
:10FA8800F0F7D2FBDDE90423F0F786FD2246804635
:10FA98008946DDE906012B46F0F77EFD02460B4656
:10FAA80040464946F0F7C2FB82468B46DDE908012D
:10FAB80052465B46F0F7BAFB2BA3D3E90023009C20
:10FAC8000D462046F0F768FDDDE9082380468946A3
:10FAD80020462946CDE90489F0F7A6FB02460B46E5
:10FAE80050465946F0F7A0FB21A3D3E90023F0F7CD
:10FAF80053FD21A3D3E900238046894620462946A1
:10FB0800F0F74AFD02460B4640464946F0F78EFBA1
:10FB1800DDE91223F0F78AFB82460D988B46F0F751
:10FB2800D1FC80468946DDE9040152465B46F0F780
:10FB38007DFB31E0AFF30080EF4E454A287ECA3F97
:10FB480065DBC9934A86CD3F01411DA96074D13F49
:10FB58004D268F515555D53FFFAB6FDBB66DDB3F5B
:10FB6800033333333333E33F000000E009C7EE3F8C
:10FB7800FD033ADC09C7EE3FF5015B14E02F3EBEFA
:10FB88000000F07F000040438E98030079B60B0018
:10FB98000000F03F00000840DDE90A23F0F746FBCB
:10FBA80042464B46F0F742FB009C42464B462046F5
:10FBB8000D46F0F739FBDDE90A23F0F735FBDDE9FF
:10FBC8000423F0F731FB02460B4650465946F0F73E
:10FBD8002BFB82468B46029B0C9A013B13434FF04A
:10FBE80000020CBFDA4BDB4BCDE90067CDE90223FD
:10FBF80000230093DDE900893046424639464B46EA
:10FC0800F0F712FB22462B46F0F7C6FC32463B467D
:10FC180006460F4650465946F0F7BEFC02460B46CC
:10FC280030463946F0F702FB424682468B464B4641
:10FC380020462946F0F7B0FC06460F4650463B469C
:10FC480059463246F0F7F2FAC34B044699420D463C
:10FC5800884640F3148101F13F4303F5E003034371
:10FC680040F01282A6A3D3E9002350465946F0F784
:10FC7800DDFA3246CDE900013B4620462946F0F739
:10FC8800D3FA02460B46DDE90001F0F715FF00281C
:10FC980040F0FA81C8F30A534FF480120020A3F20F
:10FCA800FE3342FA03F34344AC4CC3F30A52A2F2C4
:10FCB800FF3244FA02FCC3F3130523EA0C01C2F134
:10FCC800140445F48015B8F1000F0B4645FA04F109
:10FCD8000C91B8BF49420246B8BF0C91304639462C
:10FCE800F0F7A2FA06460F4650463B4659463246BA
:10FCF800F0F79CFA0D460C9B1B050093002482A389
:10FD0800D3E9002320462946F0F746FC32468046D0
:10FD180089463B4620462946F0F786FA02460B46B6
:10FD280050465946F0F780FA79A3D3E90023F0F753
:10FD380033FC79A3D3E9002306460F46204629461B
:10FD4800F0F72AFC02460B4630463946F0F76EFAC1
:10FD580006460F4632463B4640464946F0F766FAA5
:10FD680042464B460D460446F0F75EFA02460B46FD
:10FD780030463946F0F758FA2B4682468B462246DB
:10FD880029462046F0F708FC65A3D3E90023064678
:10FD98000F46F0F701FC64A3D3E90023F0F744FA17
:10FDA80032463B46F0F7F8FB61A3D3E90023F0F7AE
:10FDB8003DFA32463B46F0F7EFFB5FA3D3E9002359
:10FDC800F0F732FA32463B46F0F7E6FB5CA3D3E99C
:10FDD8000023F0F72BFA32463B46F0F7DDFB0246EC
:10FDE8000B4620462946F0F71FFA06460F463246CC
:10FDF8003B4629462046F0F7CFFB0022804689463D
:10FE08004FF0804330463946F0F70EFA02460B466B
:10FE180040464946F0F7EAFC524606460F465B461E
:10FE280029462046F0F7B8FB52465B46F0F7FEF944
:10FE380002460B4630463946F0F7F6F92B4622467D
:10FE4800F0F7F2F902460B4600204249F0F7ECF9C8
:10FE5800009D0D44B5F5801FC0F253812946DDE9A8
:10FE68000223F0F799FBCDE9000133E4B8F1000F64
:10FE7800FFF6A2AC00230024CDE900342AE4DFF821
:10FE8800E4C021F00043634540F3F680344B0B4453
:10FE980003430AD132463B46F0F7C6F952465B4661
:10FEA800F0F700FE00283FF4F5AE27A3D3E90023BE
:10FEB800DDE90201F0F770FB23A3D3E90023F0F793
:10FEC8006BFBCDE9000105E4B8F1000FD2DA07F1C8
:10FED800004300960193FFF7FDBB00230024CDE902
:10FEE8000A34CDE9123400231A4C4FF0000ACDE948
:10FEF8000634D8E44FF0000CB1E400BFAFF3008043
:10FF0800FE822B654715973C00000000432EE63F14
:10FF1800EF39FAFE422EE63F396CA80C615C20BE30
:10FF2800D0A4BE726937663EF16BD2C541BDBB3EF7
:10FF38002CDE25AF6A56113F93BDBE166CC1663FD5
:10FF48003E5555555555C53F59F3F8C21F6EA50185
:10FF58000000F0BF0000F03FFFFF8F40FFFF0F00E1
:10FF680000346F3FFFCB90409C42FFF67FAF7E4B43
:10FF78009C423FF71DACDDE9000100227A4BF0F707
:10FF880053F96BA3D3E9002304460D46F0F704FBAD
:10FF980069A3D3E9002382468B4620462946F0F719
:10FFA800FBFA002280468946204629466F4BF0F727
:10FFB800F3FA02460B4662A1D1E90001F0F734F9E1
:10FFC80022462B46F0F7E8FA02460B46002068491D
:10FFD800F0F72AF922462B4604460D4610461946E4
:10FFE800F0F7DAFA02460B4620462946F0F7D4FA2B
:08FFF80055A3D3E90023F0F743
:020000040801F1
:10000000CFFA02460B4640464946F0F711F98046C2
:1000100089465046594642464B460024F0F70AF9B5
:1000200052465B4620460D46F0F702F902460B4663
:1000300040464946F0F7FCF882468B46CFE55246EB
:100040005B4600204A49F0F7D5FBCDE90001FFF7F8
:1000500045BB524650465B465946F0F7A1FACDE9FA
:100060000001FFF73BBB002A41D1C1F1140145FA61
:1000700001F000FA01F1A94255D00292FFF70DBB41
:100080003D4A934256DCDDE9001200910C9139E6BD
:1000900031A3D3E90023DDE90201F0F781FA2EA3B1
:1000A000D3E90023F0F77CFACDE90001FFF716BB96
:1000B000029B012B7FF412ABDDE90045224605F1DE
:1000C0000043CDE90023FFF709BB25A4D4E90034A0
:1000D000CDE90A3424A4D4E90034CDE91234002354
:1000E000264C4FF4802ACDE90634FFF7E0BB50469A
:1000F00059460293FFF77AF8029BCDE90001002BE5
:100100007FF486AB0293FFF71BBB0C9A01F044FA15
:10011000A9E600F00100C0F102010291002A3FF4BB
:10012000BCAAFFF704BB00F00100C0F1020202927A
:10013000FFF7B3BA1B15B3E5000000604715F73FA2
:1001400044DF5DF80BAE543E555555555555D53FDA
:10015000FE822B654715F73F9C7500883CE4377E8F
:100160000000004003B8E23F06D0CF43EBFD4C3E19
:100170000000F03F0000D03F0000E03F0000F83FEB
:100180002DE9F04F8C4F21F00045BD421446064644
:100190008DB040F38680894A8B46954227DC7CA34C
:1001A000D3E90023002940F3B881F0F741F8844BEC
:1001B00006469D420F4600F08B8077A3D3E90023CB
:1001C000F0F736F802460B463046C4E900233946BC
:1001D000F0F72EF870A3D3E90023F0F729F84FF0D9
:1001E000010AC4E9020150460DB0BDE8F08F754A1E
:1001F000954240F38E80744A95425EDC4FEA255A60
:10020000AAF2164AA5EB0A510F46F0F779FCF0F76F
:100210005DF9804689463046394642464B46CDE92F
:100220000689F0F705F80022684BF0F7B9F90F4698
:100230000646F0F765FC0546F0F748F902460B461E
:1002400030463946CDE90823EFF7F2FF00225F4B35
:10025000F0F7A6F902460B46CDE90A230022002357
:10026000F0F706FC002800F05681002D0CBF01239A
:100270000223022056495246CDE90001214606A834
:1002800000F066FABBF1000F8246ACDA6268E36800
:1002900002F1004203F10043C0F1000A6260E36032
:1002A000A1E74FF0000A00220023C4E900015046F4
:1002B000C4E902230DB0BDE8F08F02465B46EFF7BC
:1002C000B7FF4FF0000AC4E90201C4E900018AE760
:1002D00033A3D3E90023EFF7ABFF33A3D3E9002324
:1002E00006460F46EFF7A4FF02460B463046C4E928
:1002F00000233946EFF79CFF2BA3D3E90023EFF748
:1003000097FF4FF0010AC4E9020150460DB0BDE865
:10031000F08FFEF76BFF26A3D3E9002306460F46B6
:10032000F0F73EF900222B4BEFF784FFF0F7E8FBE4
:100330008246F0F7CBF816A3D3E90023804689461E
:10034000CDE90489F0F72CF902460B4630463946D0
:10035000EFF76EFF10A3D3E9002306460F46404691
:100360004946B046B946CDE90289F0F719F9BAF124
:100370001F0F06460F4631DC174B0AF1FF3253F8C8
:100380002230AB422AD002460B46404649469EE008
:1003900000004054FB21F93F3163621A61B4D03D43
:1003A0000000601A61B4D03D7370032E8A19A33B1C
:1003B00083C8C96D305FE43FFB21E93F7BD9024030
:1003C000FB21F93FFB213941FFFFEF7F0000704126
:1003D000343A01080000E03FB43901083B46DDE94A
:1003E00002013246EFF724FFC1F30A53C3EB155362
:1003F000102B894680464FEA25556CDD66A3D3E96C
:100400000023DDE90401F0F7CBF806460F46DDE9ED
:10041000020132463B46EFF70BFF80468946DDE995
:10042000020142464B46EFF703FF32463B46EFF7E9
:10043000FFFE5BA3D3E9002306460F46DDE9040176
:10044000F0F7AEF832463B46EFF7F2FE06460F46AF
:10045000404649463B463246CDE90289EFF7E8FE81
:10046000C1F30A53ED1A312D8946804633DD4EA380
:10047000D3E90023DDE90401F0F792F8DDE9025643
:1004800080468946424631464B462846EFF7D0FE25
:1004900002460B4628463146CDE90223EFF7C8FE57
:1004A00042464B46EFF7C4FE41A3D3E9002306467C
:1004B0000F46DDE90401F0F773F832463B46EFF7EB
:1004C000B7FE06460F46DDE9020132463B46EFF72E
:1004D000AFFE80468946DDE9020142464B46C4E94B
:1004E0000023EFF7A5FE32463B46EFF7A1FE02469A
:1004F0000B46BBF1000F0546C4E90223BFF673AEFD
:1005000009F1004301F10041C4E90083C4E902514B
:10051000CAF1000A67E60323ABE6EFF78BFE284B30
:1005200006469D420F4616D023A3D3E90023EFF7DA
:1005300081FE02460B463046C4E900233946EFF7F8
:1005400077FE1DA3D3E90023EFF774FE4FF0FF3AC7
:10055000C4E9020147E610A3D3E90023EFF76AFEDE
:100560000FA3D3E9002306460F46EFF763FE0246CA
:100570000B463046C4E900233946EFF759FE08A37D
:10058000D3E90023EFF756FE4FF0FF3AC4E902012A
:1005900029E600BFAFF300800000601A61B4D03DCF
:1005A0007370032E8A19A33B0000002E8A19A33B07
:1005B000C14920259A837B393163621A61B4D03DE9
:1005C000FB21F93F604A2DE9F0418A430E4605467A
:1005D00000F0978000290B4604464EDD09155AD0DD
:1005E000C3F31303CA0743F48013A1F2FF3E03D4FD
:1005F0005B0003EBD47364004FF0000C16256646D5
:100600004FF40012E10F4FEA6E0E01EB430364005A
:10061000B118994202DC5B1A8E1894445B00013DCC
:1006200003EBD4734FEA52024FEA4404F0D12F4651
:1006300020204FF0004209E03DD0E10F01384FEAA1
:10064000520201EB43034FEA44043DD0B34202EBB4
:100650000501F1DD002901EB020509DBB0469B1B1A
:10066000A14288BF03F1FF334646641A1744E4E70A
:10067000002DF3DB06F10108F1E721F0004202430F
:1006800057D000294BD1E20A134615396405002AD8
:10069000F9D0D70252D400205B00DE02054600F1FB
:1006A0000100F9D51A4623468440C0F12000C3401A
:1006B0001343491B94E7A142BFD8002901EB02056F
:1006C000D6DB98460023CFE7234313D178084FEABF
:1006D0006C0303F17F5303F500131CF0010F18BFE7
:1006E00040F0004003EB0E5502462B4610461946DB
:1006F000BDE8F0817B1C16BF781C0CF1010C400892
:10070000E5E702460B46EFF74BFF2A463346EFF785
:1007100091FD02460B4610461946BDE8F08102469F
:10072000EFF786FD02460B46F0F764F802460B46EB
:10073000DCE7024619461046BDE8F081234620203A
:100740004FF0FF35B3E700BF0000F07F000000006E
:100750002DE9F04F1C46ADF5197D0B91611E0893F4
:100760000391B84BA29912F1140F53F821300746A8
:100770000593C0F24183B449D31E81FB0301DB170B
:10078000C3EBA10307930133A3EB8303DB00D3186F
:100790000693079A039BD61A059A12EB03091BD4FA
:1007A00009F1010900240025DDF88CA2B1440DF106
:1007B000800808E05AF82600EFF788FE01364E451B
:1007C000E8E8020108D0002EF4DA20462946013676
:1007D0004E45E8E80201F6D1059B002BA7F108037E
:1007E0000493C0F2B8831946089BDDF80C90DA0038
:1007F0000292059A01EBC30820A901EBC30AD318A2
:100800000DF5E07B0193039B002BC0F2B0815746AE
:1008100000240025049E77E90223F6E90201EFF7A0
:10082000BFFE02460B4620462946EFF703FD46452C
:1008300004460D46EFD1019B09F101099945EBE80A
:1008400002450AF1080ADED1059A0CA901EB8203E0
:1008500004980299083B01448B4609930BAB03EBC8
:10086000820301920A93019A98A901EBC203002A1C
:1008700053E928452ADD0DF5E07A0DF130090AEB40
:10088000C2080022714B20462946EFF789FEF0F797
:1008900037F9EFF71BFE00226D4B06460F46EFF7C8
:1008A0007FFE02460B4620462946EFF7C1FCF0F7D3
:1008B00027F978E902230446394649F8044B3046C3
:1008C000EFF7B8FCD04504460D46DAD1DDF81890B4
:1008D000204629464A4600F05FFE00224FF07F5333
:1008E00004460D46EFF75CFE00F042FD0022594B36
:1008F000EFF756FE02460B4620462946EFF798FCD6
:1009000004460D46F0F7FCF88046EFF7DFFD02469F
:100910000B46204629464C46EFF78AFC002C06463B
:100920000F4640F39980019BC9F11802581E0CAB89
:1009300053F82030C9F1170543FA02F101FA02F227
:100940009B1A43FA05F50CAA002D42F82030884482
:1009500000F38C800022002330463946F0F788F8F7
:10096000002800F05082019B059A03F1FF3A52459E
:1009700010DC002203F18043013B0CA90A9801EB33
:10098000830353F80419834242EA0102F9D1002A91
:1009900040F0F080059B0CAA013B52F82330002B5D
:1009A00040F0E0800123099A52F80419013300292C
:1009B000FAD001994A1C9146CB180293079B0899DB
:1009C00002EB030A019B0AF1804A0B44984620ABD4
:1009D00003EBC808A39B0AF1FF3A03EB8A0A70AB4A
:1009E00003EBC20301935AF8040FEFF76FFD039B6B
:1009F0004746002BC8E9000108F108081FDB002466
:100A00000025049E083F01E077E80201F6E9022391
:100A1000EFF7C6FD02460B4620462946EFF70AFCD3
:100A20005E4504460D46EFD1019B09F10109E3E85B
:100A300002450193029B9945D5DD019313E70024FC
:100A40000025F1E7803B0108ABAAAA2A0000703E0E
:100A500000007041000020406BD1019B0CAA013BBB
:100A600052F82350ED15002D7FF774AF019B08F16C
:100A70000108002B40F3C5810C9C002C51D1019B37
:100A8000012B20D001220CAB53F8044F002C4BD08B
:100A9000531C0CA9C4F1807441F822400199994279
:100AA00010DD0CAC0CAA52F823206FF07F4004EB51
:100AB000830304EB810100E01A68821A43F8042BD7
:100AC0008B42F9D10124069B002B0EDD012B00F097
:100AD0007A81022B09D1019B0CA95A1E0CAB53F849
:100AE0002230C3F3150341F82230022D7FF432AFD8
:100AF00032463B460020BC49EFF79AFB06460F46BC
:100B0000002C3FF427AF069A0020B74900F044FDBF
:100B100002460B4630463946EFF78AFB06460F463B
:100B200018E701230022B4E7019901328A42ABD1D0
:100B3000C9E70022AD4BEFF7B9FF054600283FF4A7
:100B400009AF019B08F10108002BC8BF022593DC07
:100B500032463B460020A449EFF76AFB02250646D1
:100B60000F46F7E6019B5A1C9146029226E70024A5
:100B7000002560E6069A0CAB53F82A30183ACDF8F7
:100B80001C800395069273B9019B0CA903F1804365
:100B9000023B01EB830353F804190AF1FF3A183AB8
:100BA0000029F8D006920020069A8F4900F0F4FC44
:100BB000BAF1000F04460D46C0F2D18170AB03EBD1
:100BC000CA0B0CAA0AF10103069302EB83084FEA51
:100BD000CA030BF10809049358F8040DEFF776FCEB
:100BE00022462B46EFF7DCFC06460F4620462946F8
:100BF0007F4B002269E90267EFF7D2FC0CAB984506
:100C000004460D46E8D148ABCDE9013ADDF814A021
:100C10004FF00009BAF1000F2CDB71A3D3E90023D8
:100C20005F46002400250026DFF8C88103E0B145B7
:100C300010DBF8E80223F7E80201EFF7B1FC024607
:100C40000B4620462946EFF7F5FA0136B245044631
:100C50000D46ECDA019B029A03EBC9039145C3E907
:100C60000045ABF1080B09F1010306D0BAF1000F02
:100C70009946D2DA00240025ECE7A29BDDF808A013
:100C8000022B23DC002B00F3F18018D1A29B049DE2
:100C90001C46019E08353544184675E90223214655
:100CA000EFF7C8FAAE4203460C46F5D1039A0AB1F3
:100CB00004F10044184621460B9BC3E90001079B41
:100CC00003F007000DF5197DBDE8F08FA29B032B03
:100CD000F5D1BAF1000F00F05881019B049A13443A
:100CE0009B46D3E900455BE9026720462946324628
:100CF0003B46EFF79FFAA046A94604460D4622461A
:100D00002B4630463946EFF793FA4B464246EFF70B
:100D100091FACBE900016BE90245019B5B45E2D109
:100D2000BAF1010F40F33181049B019A0DF5947BD8
:100D300013449A46D3E9004502935AE902672046D4
:100D4000294632463B46EFF775FAA046A9460446C7
:100D50000D4622462B4630463946EFF769FA4246A1
:100D60004B46EFF767FACAE900016AE90245D34545
:100D7000E3D100231E46029C019A083402F11005BB
:100D8000184674E902233146EFF754FAA5420346A8
:100D90000E46F5D1039A002A40F0B180184631463C
:100DA000019A0B9ED2E90245DDE94823C6E90023FA
:100DB000079BC6E9040103F00700C6E902450DF5EB
:100DC000197DBDE8F08F019B0CA95A1E0CAB53F89E
:100DD0002230C3F3160341F8223086E6AFF30080D9
:100DE00000000040FB21F93F0000F03F0000E03F21
:100DF0000000703E483B010800216FF01703079187
:100E0000C5E400245FE63946069F30467A420395E2
:100E1000CDF81C8000F0C0FB00225D4B04460D465F
:100E2000EFF744FE002860D000225A4B20462946A6
:100E3000EFF7B6FBEFF764FE0646EFF747FB00223D
:100E4000534BEFF7ADFB02460B4620462946EFF722
:100E5000EFF9EFF755FE019B0CAA03F1010A1837D1
:100E600042F82300069742F82A609CE60026019B80
:100E70000699984603EBC107314677E902233046CD
:100E8000EFF7D8F9B8450646F7D1039B002B51D1AF
:100E900034460D4632460B9E0B46DDE94801C6E955
:100EA0000045EFF7C5F9BAF1000F03460E4610DD15
:100EB000012448AD1846F5E902233146EFF7BAF9A7
:100EC0000134A24503460E46F4DA039A0AB106F14C
:100ED0000046184631460B9BC3E90201079B03F00D
:100EE00007000DF5197DBDE8F08F20462946EFF784
:100EF00007FE019B0CAA9A4642F8230053E6019A8A
:100F00000B98154604460361AB6806F1004646613E
:100F100051682868D268A360079B01F1004102F183
:100F20000042206003F007006160E2600DF5197D6A
:100F3000BDE8F08F0B9D01F100440B46DDE948014F
:100F40003246C5E90064EFF773F9BAF1000F0346C2
:100F50000E46ADDCBBE7089BDB00029374E4A29B6A
:100F6000022B06DC002B0DDC7FF4A9AEA29B1C46F5
:100F70009CE6A29B032B7FF4A2AE002348AA1E4648
:100F8000019207E7002631467FE700231E4601E76E
:100F9000000070410000703E2DE9F04FC04D21F07F
:100FA000004489B0AC428B469046994682460791F0
:100FB00000941BDCEFF7A4FD00283BD15346129AA6
:100FC00001321343234300F0B881129B012B00F040
:100FD000C18152465B460020B249EFF70BFC044644
:100FE0000D462046294609B0BDE8F08FAE4B009A69
:100FF0009A421FDD002904DA0BF100439B4609F1F8
:101000000049524688A1D1E900015B46EFF710F98B
:1010100004460D4686A1D1E9000142464B46EFF752
:1010200007F922462B46EFF705F94FF000088246F4
:101030008B46C14652465B4650465946EFF7B0FADA
:1010400002460B4606460F46EFF7AAFA324604461A
:101050000D463B4650465946CDE90267EFF7A0FAE8
:1010600075A3D3E9002306460F4620462946CDE95D
:101070000467EFF795FA72A3D3E90023EFF7DAF8E4
:1010800022462B46EFF78CFA6FA3D3E90023EFF744
:10109000D1F822462B46EFF783FA6DA3D3E900235C
:1010A000EFF7C8F822462B46EFF77AFA6AA3D3E99E
:1010B0000023EFF7BFF822462B46EFF771FA68A33B
:1010C000D3E90023EFF7B6F8DDE90223EFF768FA7A
:1010D00065A3D3E9002306460F4620462946EFF7CD
:1010E0005FFA63A3D3E90023EFF7A4F822462B4667
:1010F000EFF756FA60A3D3E90023EFF79BF82246F7
:101100002B46EFF74DFA5EA3D3E90023EFF792F8F1
:1011100022462B46EFF744FA5BA3D3E90023EFF70F
:1011200089F822462B46EFF73BFA59A3D3E900236F
:10113000EFF780F802460B4630463946EFF77AF86B
:10114000DDE9046732463B46EFF72AFA42464B4652
:10115000EFF770F8DDE90223EFF722FA42464B463B
:10116000EFF768F84CA3D3E9002304460D46304658
:101170003946EFF715FA22462B46EFF75BF80246A1
:101180000B4606460F4650465946EFF753F8464B76
:10119000009A04469A420D4600F38A80129B012B66
:1011A0003DD002460B4600203E49EFF723FB0024CA
:1011B0008046894652465B46CDE9020120462946D3
:1011C000CDE900890094EFF733F802460B4630462C
:1011D0003946EFF72DF8A046A946DDE9004522463D
:1011E0002B46EFF7DDF922462B4682468B464046DA
:1011F0004946EFF7D5F900222C4BEFF71BF80246D2
:101200000B4650465946EFF715F8DDE90223EFF794
:10121000C7F922462B46EFF70DF804460D46204647
:10122000294609B0BDE8F08F182D4454FB21E93F51
:10123000075C143326A6813CD47ABF74702AFB3E27
:10124000E9A7F0320FB8123F68108D1AF726303F29
:101250001583E0FEC8DB573F93846EE9E326823FA7
:10126000FE41B31BBAA1AB3F735360DBCB75F3BE3A
:10127000A69237A0887E143F0165F2F2D844433F1E
:10128000280356C9226D6D3F37D60684F464963F15
:101290007AFE10111111C13F635555555555D53F73
:1012A000FFFF2F3E0000F0BF2794E53F0000F03F16
:1012B0001298EFF70BF92246804689462B462046C6
:1012C0002946EFF76DF94246CDE900014B4620462D
:1012D0002946EEF7AFFF02460B46DDE90001EFF7C6
:1012E00089FA32463B46EEF7A3FF02460B465046CC
:1012F0005946EEF79DFF02460B46EEF79BFF02466E
:101300000B4640464946EEF793FF079B04464FEADB
:10131000A37B0BF0020BCBF101000D46EFF7D6F8E3
:1013200002460B4620462946EFF73AF904460D4699
:101330002046294609B0BDE8F08F50465946FDF7D2
:1013400055FF02460B4600200449EFF753FA0446C6
:101350000D4664E754465D4661E700BF0000F03F7C
:1013600041F0004000F58010C00F70470000000001
:10137000F8B5C1F30A57A7F2FF35132D0B460C46FB
:101380000246064620DC002D40DB354F2F4101EAA6
:10139000070C5CEA000C14D02FA3D3E90023EEF76E
:1013A00049FF00220023EFF78BFB40B1002C03DA4A
:1013B0004FF480132B411C44002624EA07043246D4
:1013C000234610461946F8BD332D07DDB5F5806F6D
:1013D000F7D1EEF72FFF02460B46F2E74FF0FF3C46
:1013E000A7F213472CFA07F70742EAD01AA3D3E96A
:1013F0000023EEF71FFF00220023EFF761FB002818
:10140000DDD0002C1BDB26EA0706D8E712A3D3E9C0
:101410000023EEF70FFF00220023EFF751FB002817
:10142000CDD0002C02DB00263446C8E724F0004370
:101430000C4A1E43002E18BF14460026BFE7142D89
:1014400008D00122C5F1340302FA03F39E1928BF24
:10145000A418D8E70134D6E79C7500883CE4377EB1
:10146000FFFF0F000000F0BF00207047002001497F
:10147000704700BF0000F87FF0B5C1F30A5CACF222
:10148000FF36132E02460B460D46074683B04FEA41
:10149000D1742FDC002E4CDB3D49314103EA0100C1
:1014A00010432CD003EA510352EA03074FEA5101DB
:1014B0000BD04FF48023132E0CBF4FF000470027B2
:1014C00025EA010143FA06F50D4332492B4601EBAB
:1014D000C404D4E900453A4620462946EEF7AAFE60
:1014E000CDE90001DDE9000122462B46EEF7A0FE22
:1014F00003B0F0BD332E06DDB6F5806F45D0104643
:10150000194603B0F0BD4FF0FF31ACF2134C21FA95
:101510000CF10842F3D010EA51024FEA5103D4D043
:101520004FF0804220EA030742FA0CFC47EA0C071E
:10153000CBE721F0004101431946E2D0C3F3130386
:101540001F437B423B436D0C1B0B6D0403F40023D4
:1015500043EA05010B460F4901EBC401D1E90067DD
:1015600030463946EEF766FECDE90001DDE90001BF
:1015700032463B46EEF75CFE024621F0004141EA6E
:10158000C4731046194603B0F0BDEEF753FEB8E73A
:10159000FFFF0F00903B0108F8B5C1F30A53044662
:1015A0000D460E46174673BB034621F000463343F3
:1015B00028D0314B0022EEF7F3FF304B04469F4218
:1015C0000D461ADB0E46C1F30A53363B40F2FE725B
:1015D0003B44934220DC002B3CDC13F1350F2CDA2A
:1015E0004CF250339F4217DC05F0004343F0D271B8
:1015F00041F4B731224841F01F011BA3D3E9002376
:10160000EEF7CEFFF8BD40F2FF729342DED1024604
:101610000B46EEF70FFEF8BD05F0004444F0FC4128
:1016200041F45F1141F4105111A3D3E9002315488F
:1016300041F03C01EEF7B4FFF8BD26F0FF4626F47A
:10164000E006363346EA0351204600220E4BEEF701
:10165000A7FFF8BD26F0FF4626F4E006204646EA3E
:101660000351F8BDAFF3008059F3F8C21F6EA50116
:101670009C7500883CE4377E00005043B03CFFFF7F
:1016800059F3F8C29C7500880000903C08B500F042
:1016900003F808B5FFF7FAFF062008B500F072F965
:1016A0000120FBF742FF000010B504460448134632
:1016B00020B10A4602202146AFF3008010BD00BFD2
:1016C00000000000014B1868704700BF8001002037
:1016D00070B500260C4D0D4C641BA410A64209D118
:1016E00001F0C2F900260A4D0A4C641BA410A64260
:1016F00005D170BD55F8043B98470136EEE755F823
:10170000043B98470136F2E7C04A0108C04A010885
:10171000C04A0108CC4A0108024B0146186800F093
:1017200087B800BF80010020024B0146186800F016
:1017300033B800BF800100200A44914200F1FF331A
:1017400000D1704710B511F8014B914203F8014FD9
:10175000F9D110BD884210B501EB020402D98442D0
:10176000234607D8431EA14208D011F8012B03F8E5
:10177000012FF8E7014602448A4200D110BD13F858
:10178000014D02F8014DF7E703460244934200D1B0
:10179000704703F8011BF9E738B50546002943D027
:1017A00051F8043C0C1F002BB8BFE41800F038FAC5
:1017B0001E4A1368104633B9636014602846BDE8BA
:1017C000384000F033BAA3420AD921686218934224
:1017D00001BF1A685B685218226063600460EDE71D
:1017E0001A465B680BB1A342FAD911685018A0429F
:1017F0000BD120680144501883421160DED1186873
:101800005B68014411605360D8E702D90C232B6058
:10181000D4E7206821188B4201BF19685B6809185A
:10182000216063605460C9E738BD00BFA00C002090
:10183000F8B5CD1C25F0030508350C2D38BF0C2557
:10184000002D064601DBA94203D90C23336000209A
:10185000F8BD00F0E5F921490A6814469CB9204F0B
:101860003B6823B92146304600F054F838602946D9
:10187000304600F04FF8431C23D10C233046336030
:1018800000F0D4F9E3E723685B1B17D40B2B03D9D3
:1018900023601C44256004E06368A2420CBF0B6017
:1018A0005360304600F0C2F904F10B00231D20F014
:1018B0000700C21ACCD01B1AA350C9E7224664689D
:1018C000CCE7C41C24F00304A042E3D0211A304624
:1018D00000F020F80130DDD1CFE700BFA00C0020E0
:1018E000A40C00200FB40A4B13B51C6824B1A369E3
:1018F00013B9204600F0F4F805AB2046049AA1681D
:10190000019300F01DFB02B0BDE8104004B0704729
:101910008001002038B50023054D044608462B60A1
:10192000FBF746FE431C02D12B6803B1236038BD90
:10193000B40C00201F2938B504460D4604D91623DF
:1019400003604FF0FF3038BD426C12B152F82130C5
:101950004BB9204600F030F82A4601462046BDE843
:10196000384000F017B8012B0AD0591C03D11623B8
:1019700003600120E7E70024284642F82540984705
:101980000020E0E7024B01461868FFF7D3BF00BF15
:101990008001002038B50023064D04460846114654
:1019A0002B60FBF7B2FD431C02D12B6803B123600F
:1019B00038BD00BFB40C0020FBF7A0BD30B5141E2D
:1019C00005469BB0184605DA8B234FF0FF302B609D
:1019D0001BB030BD4FF40273ADF80C300CBF234682
:1019E00004F1FF33029305934FF6FF730246009113
:1019F0000491ADF80E3069461E9B284600F078F938
:101A0000431CBCBF8B232B60002CE1D00022009B29
:101A10001A70DDE707B5009313460A4601460348EE
:101A20000068FFF7CBFF03B05DF804FB80010020E6
:101A3000002310B50446C0E90033C0E904338360D5
:101A400081814366C2818361194608225C30FFF7B9
:101A50009BFE054B24626362044BA362044BE3626A
:101A6000044B236310BD00BFCD240108EF240108FF
:101A7000272501084B250108014900F0AFB800BF38
:101A80002528010870B568254A1E55430E4605F104
:101A90007401FFF7CDFE044640B10021C0E90016F5
:101AA0000C30A06005F16802FFF76EFE204670BDA5
:101AB000014800F0B3B800BFB00C0020014800F0AE
:101AC000AEB800BFB00C0020014800F0A7B800BFBE
:101AD000AB0C0020014800F0A2B800BFAB0C002006
:101AE00010B50446FFF7F0FFA3691BB1BDE8104035
:101AF000FFF7F0BFC4E912332365134B134A1B6889
:101B0000A262A34208BF0123204608BFA36100F0E0
:101B10001FF86060204600F01BF8A060204600F02F
:101B200017F800220421E0606068FFF781FF0122BE
:101B30000921A068FFF77CFF02221221E068FFF76D
:101B400077FF0123A361D1E7A03B0108791A0108BF
:101B5000F8B50746FFF7ACFF1E4B1E68B36913B913
:101B60003046FFF7BDFF4836D6E90134013B03D5C7
:101B700033680BB33668F7E7B4F90C50D5B9164B98
:101B800004F15800E360656600F047F8FFF796FF40
:101B900008222946C4E90155C4E904552560A56118
:101BA00004F15C00FFF7F0FDC4E90D55C4E91255DE
:101BB0002046F8BD6834D9E704213846FFF762FFB4
:101BC000044630600028D5D1FFF778FF0C233B6036
:101BD000EEE700BFA03B01080100FFFF2DE9F8433D
:101BE00006468846002700F14804D4E90195B9F17A
:101BF000010905D52468002CF7D13846BDE8F883E3
